{
  "address": "0x2a1A6d94b9a898ed6Fa9E53e1685aaBAA50053fB",
  "abi": [
    {
      "inputs": [],
      "stateMutability": "nonpayable",
      "type": "constructor"
    },
    {
      "anonymous": false,
      "inputs": [
        {
          "indexed": false,
          "internalType": "address",
          "name": "seller",
          "type": "address"
        },
        {
          "indexed": false,
          "internalType": "address",
          "name": "bidder",
          "type": "address"
        },
        {
          "indexed": false,
          "internalType": "address",
          "name": "nftAddress",
          "type": "address"
        },
        {
          "indexed": false,
          "internalType": "uint256",
          "name": "tokenId",
          "type": "uint256"
        },
        {
          "indexed": false,
          "internalType": "uint64",
          "name": "quantity",
          "type": "uint64"
        },
        {
          "indexed": false,
          "internalType": "uint128",
          "name": "pricePerItem",
          "type": "uint128"
        },
        {
          "indexed": false,
          "internalType": "address",
          "name": "paymentToken",
          "type": "address"
        },
        {
          "indexed": false,
          "internalType": "enum BidType",
          "name": "bidType",
          "type": "uint8"
        }
      ],
      "name": "BidAccepted",
      "type": "event"
    },
    {
      "anonymous": false,
      "inputs": [
        {
          "indexed": false,
          "internalType": "address",
          "name": "bidder",
          "type": "address"
        },
        {
          "indexed": false,
          "internalType": "address",
          "name": "nftAddress",
          "type": "address"
        }
      ],
      "name": "CollectionBidCancelled",
      "type": "event"
    },
    {
      "anonymous": false,
      "inputs": [
        {
          "indexed": false,
          "internalType": "address",
          "name": "bidder",
          "type": "address"
        },
        {
          "indexed": false,
          "internalType": "address",
          "name": "nftAddress",
          "type": "address"
        },
        {
          "indexed": false,
          "internalType": "uint64",
          "name": "quantity",
          "type": "uint64"
        },
        {
          "indexed": false,
          "internalType": "uint128",
          "name": "pricePerItem",
          "type": "uint128"
        },
        {
          "indexed": false,
          "internalType": "uint64",
          "name": "expirationTime",
          "type": "uint64"
        },
        {
          "indexed": false,
          "internalType": "address",
          "name": "paymentToken",
          "type": "address"
        }
      ],
      "name": "CollectionBidCreatedOrUpdated",
      "type": "event"
    },
    {
      "anonymous": false,
      "inputs": [
        {
          "indexed": true,
          "internalType": "address",
          "name": "seller",
          "type": "address"
        },
        {
          "indexed": true,
          "internalType": "address",
          "name": "nftAddress",
          "type": "address"
        },
        {
          "indexed": true,
          "internalType": "uint256",
          "name": "tokenId",
          "type": "uint256"
        }
      ],
      "name": "ItemCanceled",
      "type": "event"
    },
    {
      "anonymous": false,
      "inputs": [
        {
          "indexed": false,
          "internalType": "address",
          "name": "seller",
          "type": "address"
        },
        {
          "indexed": false,
          "internalType": "address",
          "name": "nftAddress",
          "type": "address"
        },
        {
          "indexed": false,
          "internalType": "uint256",
          "name": "tokenId",
          "type": "uint256"
        },
        {
          "indexed": false,
          "internalType": "uint64",
          "name": "quantity",
          "type": "uint64"
        },
        {
          "indexed": false,
          "internalType": "uint128",
          "name": "pricePerItem",
          "type": "uint128"
        },
        {
          "indexed": false,
          "internalType": "uint64",
          "name": "expirationTime",
          "type": "uint64"
        },
        {
          "indexed": false,
          "internalType": "address",
          "name": "paymentToken",
          "type": "address"
        }
      ],
      "name": "ItemListed",
      "type": "event"
    },
    {
      "anonymous": false,
      "inputs": [
        {
          "indexed": false,
          "internalType": "address",
          "name": "seller",
          "type": "address"
        },
        {
          "indexed": false,
          "internalType": "address",
          "name": "buyer",
          "type": "address"
        },
        {
          "indexed": false,
          "internalType": "address",
          "name": "nftAddress",
          "type": "address"
        },
        {
          "indexed": false,
          "internalType": "uint256",
          "name": "tokenId",
          "type": "uint256"
        },
        {
          "indexed": false,
          "internalType": "uint64",
          "name": "quantity",
          "type": "uint64"
        },
        {
          "indexed": false,
          "internalType": "uint128",
          "name": "pricePerItem",
          "type": "uint128"
        },
        {
          "indexed": false,
          "internalType": "address",
          "name": "paymentToken",
          "type": "address"
        }
      ],
      "name": "ItemSold",
      "type": "event"
    },
    {
      "anonymous": false,
      "inputs": [
        {
          "indexed": false,
          "internalType": "address",
          "name": "seller",
          "type": "address"
        },
        {
          "indexed": false,
          "internalType": "address",
          "name": "nftAddress",
          "type": "address"
        },
        {
          "indexed": false,
          "internalType": "uint256",
          "name": "tokenId",
          "type": "uint256"
        },
        {
          "indexed": false,
          "internalType": "uint64",
          "name": "quantity",
          "type": "uint64"
        },
        {
          "indexed": false,
          "internalType": "uint128",
          "name": "pricePerItem",
          "type": "uint128"
        },
        {
          "indexed": false,
          "internalType": "uint64",
          "name": "expirationTime",
          "type": "uint64"
        },
        {
          "indexed": false,
          "internalType": "address",
          "name": "paymentToken",
          "type": "address"
        }
      ],
      "name": "ItemUpdated",
      "type": "event"
    },
    {
      "anonymous": false,
      "inputs": [
        {
          "indexed": false,
          "internalType": "address",
          "name": "account",
          "type": "address"
        }
      ],
      "name": "Paused",
      "type": "event"
    },
    {
      "anonymous": false,
      "inputs": [
        {
          "indexed": true,
          "internalType": "bytes32",
          "name": "role",
          "type": "bytes32"
        },
        {
          "indexed": true,
          "internalType": "bytes32",
          "name": "previousAdminRole",
          "type": "bytes32"
        },
        {
          "indexed": true,
          "internalType": "bytes32",
          "name": "newAdminRole",
          "type": "bytes32"
        }
      ],
      "name": "RoleAdminChanged",
      "type": "event"
    },
    {
      "anonymous": false,
      "inputs": [
        {
          "indexed": true,
          "internalType": "bytes32",
          "name": "role",
          "type": "bytes32"
        },
        {
          "indexed": true,
          "internalType": "address",
          "name": "account",
          "type": "address"
        },
        {
          "indexed": true,
          "internalType": "address",
          "name": "sender",
          "type": "address"
        }
      ],
      "name": "RoleGranted",
      "type": "event"
    },
    {
      "anonymous": false,
      "inputs": [
        {
          "indexed": true,
          "internalType": "bytes32",
          "name": "role",
          "type": "bytes32"
        },
        {
          "indexed": true,
          "internalType": "address",
          "name": "account",
          "type": "address"
        },
        {
          "indexed": true,
          "internalType": "address",
          "name": "sender",
          "type": "address"
        }
      ],
      "name": "RoleRevoked",
      "type": "event"
    },
    {
      "anonymous": false,
      "inputs": [
        {
          "indexed": false,
          "internalType": "address",
          "name": "nft",
          "type": "address"
        },
        {
          "indexed": false,
          "internalType": "enum TreasureMarketplaceTestnet.TokenApprovalStatus",
          "name": "status",
          "type": "uint8"
        },
        {
          "indexed": false,
          "internalType": "address",
          "name": "paymentToken",
          "type": "address"
        }
      ],
      "name": "TokenApprovalStatusUpdated",
      "type": "event"
    },
    {
      "anonymous": false,
      "inputs": [
        {
          "indexed": false,
          "internalType": "address",
          "name": "bidder",
          "type": "address"
        },
        {
          "indexed": false,
          "internalType": "address",
          "name": "nftAddress",
          "type": "address"
        },
        {
          "indexed": false,
          "internalType": "uint256",
          "name": "tokenId",
          "type": "uint256"
        }
      ],
      "name": "TokenBidCancelled",
      "type": "event"
    },
    {
      "anonymous": false,
      "inputs": [
        {
          "indexed": false,
          "internalType": "address",
          "name": "bidder",
          "type": "address"
        },
        {
          "indexed": false,
          "internalType": "address",
          "name": "nftAddress",
          "type": "address"
        },
        {
          "indexed": false,
          "internalType": "uint256",
          "name": "tokenId",
          "type": "uint256"
        },
        {
          "indexed": false,
          "internalType": "uint64",
          "name": "quantity",
          "type": "uint64"
        },
        {
          "indexed": false,
          "internalType": "uint128",
          "name": "pricePerItem",
          "type": "uint128"
        },
        {
          "indexed": false,
          "internalType": "uint64",
          "name": "expirationTime",
          "type": "uint64"
        },
        {
          "indexed": false,
          "internalType": "address",
          "name": "paymentToken",
          "type": "address"
        }
      ],
      "name": "TokenBidCreatedOrUpdated",
      "type": "event"
    },
    {
      "anonymous": false,
      "inputs": [
        {
          "indexed": false,
          "internalType": "address",
          "name": "account",
          "type": "address"
        }
      ],
      "name": "Unpaused",
      "type": "event"
    },
    {
      "anonymous": false,
      "inputs": [
        {
          "indexed": false,
          "internalType": "address",
          "name": "_collection",
          "type": "address"
        },
        {
          "indexed": false,
          "internalType": "address",
          "name": "_recipient",
          "type": "address"
        },
        {
          "indexed": false,
          "internalType": "uint256",
          "name": "_fee",
          "type": "uint256"
        }
      ],
      "name": "UpdateCollectionOwnerFee",
      "type": "event"
    },
    {
      "anonymous": false,
      "inputs": [
        {
          "indexed": false,
          "internalType": "uint256",
          "name": "fee",
          "type": "uint256"
        }
      ],
      "name": "UpdateFee",
      "type": "event"
    },
    {
      "anonymous": false,
      "inputs": [
        {
          "indexed": false,
          "internalType": "address",
          "name": "feeRecipient",
          "type": "address"
        }
      ],
      "name": "UpdateFeeRecipient",
      "type": "event"
    },
    {
      "anonymous": false,
      "inputs": [
        {
          "indexed": false,
          "internalType": "uint256",
          "name": "fee",
          "type": "uint256"
        }
      ],
      "name": "UpdateFeeWithCollectionOwner",
      "type": "event"
    },
    {
      "anonymous": false,
      "inputs": [
        {
          "indexed": false,
          "internalType": "address",
          "name": "_priceTrackerAddress",
          "type": "address"
        }
      ],
      "name": "UpdateSalesTracker",
      "type": "event"
    },
    {
      "inputs": [],
      "name": "BASIS_POINTS",
      "outputs": [
        {
          "internalType": "uint256",
          "name": "",
          "type": "uint256"
        }
      ],
      "stateMutability": "view",
      "type": "function"
    },
    {
      "inputs": [],
      "name": "DEFAULT_ADMIN_ROLE",
      "outputs": [
        {
          "internalType": "bytes32",
          "name": "",
          "type": "bytes32"
        }
      ],
      "stateMutability": "view",
      "type": "function"
    },
    {
      "inputs": [],
      "name": "MAX_COLLECTION_FEE",
      "outputs": [
        {
          "internalType": "uint256",
          "name": "",
          "type": "uint256"
        }
      ],
      "stateMutability": "view",
      "type": "function"
    },
    {
      "inputs": [],
      "name": "MAX_FEE",
      "outputs": [
        {
          "internalType": "uint256",
          "name": "",
          "type": "uint256"
        }
      ],
      "stateMutability": "view",
      "type": "function"
    },
    {
      "inputs": [],
      "name": "MIN_PRICE",
      "outputs": [
        {
          "internalType": "uint256",
          "name": "",
          "type": "uint256"
        }
      ],
      "stateMutability": "view",
      "type": "function"
    },
    {
      "inputs": [],
      "name": "TREASURE_MARKETPLACE_ADMIN_ROLE",
      "outputs": [
        {
          "internalType": "bytes32",
          "name": "",
          "type": "bytes32"
        }
      ],
      "stateMutability": "view",
      "type": "function"
    },
    {
      "inputs": [
        {
          "components": [
            {
              "internalType": "address",
              "name": "nftAddress",
              "type": "address"
            },
            {
              "internalType": "uint256",
              "name": "tokenId",
              "type": "uint256"
            },
            {
              "internalType": "address",
              "name": "bidder",
              "type": "address"
            },
            {
              "internalType": "uint64",
              "name": "quantity",
              "type": "uint64"
            },
            {
              "internalType": "uint128",
              "name": "pricePerItem",
              "type": "uint128"
            },
            {
              "internalType": "address",
              "name": "paymentToken",
              "type": "address"
            }
          ],
          "internalType": "struct AcceptBidParams",
          "name": "_acceptBidParams",
          "type": "tuple"
        }
      ],
      "name": "acceptCollectionBid",
      "outputs": [],
      "stateMutability": "nonpayable",
      "type": "function"
    },
    {
      "inputs": [
        {
          "components": [
            {
              "internalType": "address",
              "name": "nftAddress",
              "type": "address"
            },
            {
              "internalType": "uint256",
              "name": "tokenId",
              "type": "uint256"
            },
            {
              "internalType": "address",
              "name": "bidder",
              "type": "address"
            },
            {
              "internalType": "uint64",
              "name": "quantity",
              "type": "uint64"
            },
            {
              "internalType": "uint128",
              "name": "pricePerItem",
              "type": "uint128"
            },
            {
              "internalType": "address",
              "name": "paymentToken",
              "type": "address"
            }
          ],
          "internalType": "struct AcceptBidParams",
          "name": "_acceptBidParams",
          "type": "tuple"
        }
      ],
      "name": "acceptTokenBid",
      "outputs": [],
      "stateMutability": "nonpayable",
      "type": "function"
    },
    {
      "inputs": [],
      "name": "areBidsActive",
      "outputs": [
        {
          "internalType": "bool",
          "name": "",
          "type": "bool"
        }
      ],
      "stateMutability": "view",
      "type": "function"
    },
    {
      "inputs": [
        {
          "components": [
            {
              "internalType": "address",
              "name": "nftAddress",
              "type": "address"
            },
            {
              "internalType": "uint256",
              "name": "tokenId",
              "type": "uint256"
            },
            {
              "internalType": "address",
              "name": "owner",
              "type": "address"
            },
            {
              "internalType": "uint64",
              "name": "quantity",
              "type": "uint64"
            },
            {
              "internalType": "uint128",
              "name": "maxPricePerItem",
              "type": "uint128"
            },
            {
              "internalType": "address",
              "name": "paymentToken",
              "type": "address"
            },
            {
              "internalType": "bool",
              "name": "usingEth",
              "type": "bool"
            }
          ],
          "internalType": "struct BuyItemParams[]",
          "name": "_buyItemParams",
          "type": "tuple[]"
        }
      ],
      "name": "buyItems",
      "outputs": [],
      "stateMutability": "payable",
      "type": "function"
    },
    {
      "inputs": [
        {
          "internalType": "address",
          "name": "_nftAddress",
          "type": "address"
        },
        {
          "internalType": "uint256",
          "name": "_tokenId",
          "type": "uint256"
        }
      ],
      "name": "cancelListing",
      "outputs": [],
      "stateMutability": "nonpayable",
      "type": "function"
    },
    {
      "inputs": [
        {
          "components": [
            {
              "internalType": "enum BidType",
              "name": "bidType",
              "type": "uint8"
            },
            {
              "internalType": "address",
              "name": "nftAddress",
              "type": "address"
            },
            {
              "internalType": "uint256",
              "name": "tokenId",
              "type": "uint256"
            }
          ],
          "internalType": "struct CancelBidParams[]",
          "name": "_cancelBidParams",
          "type": "tuple[]"
        }
      ],
      "name": "cancelManyBids",
      "outputs": [],
      "stateMutability": "nonpayable",
      "type": "function"
    },
    {
      "inputs": [
        {
          "internalType": "address",
          "name": "",
          "type": "address"
        },
        {
          "internalType": "address",
          "name": "",
          "type": "address"
        }
      ],
      "name": "collectionBids",
      "outputs": [
        {
          "internalType": "uint64",
          "name": "quantity",
          "type": "uint64"
        },
        {
          "internalType": "uint128",
          "name": "pricePerItem",
          "type": "uint128"
        },
        {
          "internalType": "uint64",
          "name": "expirationTime",
          "type": "uint64"
        },
        {
          "internalType": "address",
          "name": "paymentTokenAddress",
          "type": "address"
        }
      ],
      "stateMutability": "view",
      "type": "function"
    },
    {
      "inputs": [
        {
          "internalType": "address",
          "name": "",
          "type": "address"
        }
      ],
      "name": "collectionToCollectionOwnerFee",
      "outputs": [
        {
          "internalType": "uint32",
          "name": "fee",
          "type": "uint32"
        },
        {
          "internalType": "address",
          "name": "recipient",
          "type": "address"
        }
      ],
      "stateMutability": "view",
      "type": "function"
    },
    {
      "inputs": [
        {
          "internalType": "address",
          "name": "",
          "type": "address"
        }
      ],
      "name": "collectionToPaymentToken",
      "outputs": [
        {
          "internalType": "address",
          "name": "",
          "type": "address"
        }
      ],
      "stateMutability": "view",
      "type": "function"
    },
    {
      "inputs": [
        {
          "internalType": "address",
          "name": "_nftAddress",
          "type": "address"
        },
        {
          "internalType": "uint256",
          "name": "_tokenId",
          "type": "uint256"
        },
        {
          "internalType": "uint64",
          "name": "_quantity",
          "type": "uint64"
        },
        {
          "internalType": "uint128",
          "name": "_pricePerItem",
          "type": "uint128"
        },
        {
          "internalType": "uint64",
          "name": "_expirationTime",
          "type": "uint64"
        },
        {
          "internalType": "address",
          "name": "_paymentToken",
          "type": "address"
        }
      ],
      "name": "createListing",
      "outputs": [],
      "stateMutability": "nonpayable",
      "type": "function"
    },
    {
      "inputs": [
        {
          "internalType": "address",
          "name": "_nftAddress",
          "type": "address"
        },
        {
          "internalType": "uint64",
          "name": "_quantity",
          "type": "uint64"
        },
        {
          "internalType": "uint128",
          "name": "_pricePerItem",
          "type": "uint128"
        },
        {
          "internalType": "uint64",
          "name": "_expirationTime",
          "type": "uint64"
        },
        {
          "internalType": "address",
          "name": "_paymentToken",
          "type": "address"
        }
      ],
      "name": "createOrUpdateCollectionBid",
      "outputs": [],
      "stateMutability": "nonpayable",
      "type": "function"
    },
    {
      "inputs": [
        {
          "internalType": "address",
          "name": "_nftAddress",
          "type": "address"
        },
        {
          "internalType": "uint256",
          "name": "_tokenId",
          "type": "uint256"
        },
        {
          "internalType": "uint64",
          "name": "_quantity",
          "type": "uint64"
        },
        {
          "internalType": "uint128",
          "name": "_pricePerItem",
          "type": "uint128"
        },
        {
          "internalType": "uint64",
          "name": "_expirationTime",
          "type": "uint64"
        },
        {
          "internalType": "address",
          "name": "_paymentToken",
          "type": "address"
        }
      ],
      "name": "createOrUpdateListing",
      "outputs": [],
      "stateMutability": "nonpayable",
      "type": "function"
    },
    {
      "inputs": [
        {
          "components": [
            {
              "internalType": "address",
              "name": "nftAddress",
              "type": "address"
            },
            {
              "internalType": "uint256",
              "name": "tokenId",
              "type": "uint256"
            },
            {
              "internalType": "uint64",
              "name": "quantity",
              "type": "uint64"
            },
            {
              "internalType": "uint128",
              "name": "pricePerItem",
              "type": "uint128"
            },
            {
              "internalType": "uint64",
              "name": "expirationTime",
              "type": "uint64"
            },
            {
              "internalType": "address",
              "name": "paymentToken",
              "type": "address"
            }
          ],
          "internalType": "struct TreasureMarketplaceTestnet.CreateOrUpdateListingParams[]",
          "name": "_createOrUpdateListingParams",
          "type": "tuple[]"
        }
      ],
      "name": "createOrUpdateListings",
      "outputs": [],
      "stateMutability": "nonpayable",
      "type": "function"
    },
    {
      "inputs": [
        {
          "internalType": "address",
          "name": "_nftAddress",
          "type": "address"
        },
        {
          "internalType": "uint256",
          "name": "_tokenId",
          "type": "uint256"
        },
        {
          "internalType": "uint64",
          "name": "_quantity",
          "type": "uint64"
        },
        {
          "internalType": "uint128",
          "name": "_pricePerItem",
          "type": "uint128"
        },
        {
          "internalType": "uint64",
          "name": "_expirationTime",
          "type": "uint64"
        },
        {
          "internalType": "address",
          "name": "_paymentToken",
          "type": "address"
        }
      ],
      "name": "createOrUpdateTokenBid",
      "outputs": [],
      "stateMutability": "nonpayable",
      "type": "function"
    },
    {
      "inputs": [],
      "name": "fee",
      "outputs": [
        {
          "internalType": "uint256",
          "name": "",
          "type": "uint256"
        }
      ],
      "stateMutability": "view",
      "type": "function"
    },
    {
      "inputs": [],
      "name": "feeReceipient",
      "outputs": [
        {
          "internalType": "address",
          "name": "",
          "type": "address"
        }
      ],
      "stateMutability": "view",
      "type": "function"
    },
    {
      "inputs": [],
      "name": "feeWithCollectionOwner",
      "outputs": [
        {
          "internalType": "uint256",
          "name": "",
          "type": "uint256"
        }
      ],
      "stateMutability": "view",
      "type": "function"
    },
    {
      "inputs": [
        {
          "internalType": "address",
          "name": "_collection",
          "type": "address"
        }
      ],
      "name": "getPaymentTokenForCollection",
      "outputs": [
        {
          "internalType": "address",
          "name": "",
          "type": "address"
        }
      ],
      "stateMutability": "view",
      "type": "function"
    },
    {
      "inputs": [
        {
          "internalType": "bytes32",
          "name": "role",
          "type": "bytes32"
        }
      ],
      "name": "getRoleAdmin",
      "outputs": [
        {
          "internalType": "bytes32",
          "name": "",
          "type": "bytes32"
        }
      ],
      "stateMutability": "view",
      "type": "function"
    },
    {
      "inputs": [
        {
          "internalType": "bytes32",
          "name": "role",
          "type": "bytes32"
        },
        {
          "internalType": "uint256",
          "name": "index",
          "type": "uint256"
        }
      ],
      "name": "getRoleMember",
      "outputs": [
        {
          "internalType": "address",
          "name": "",
          "type": "address"
        }
      ],
      "stateMutability": "view",
      "type": "function"
    },
    {
      "inputs": [
        {
          "internalType": "bytes32",
          "name": "role",
          "type": "bytes32"
        }
      ],
      "name": "getRoleMemberCount",
      "outputs": [
        {
          "internalType": "uint256",
          "name": "",
          "type": "uint256"
        }
      ],
      "stateMutability": "view",
      "type": "function"
    },
    {
      "inputs": [
        {
          "internalType": "bytes32",
          "name": "role",
          "type": "bytes32"
        },
        {
          "internalType": "address",
          "name": "account",
          "type": "address"
        }
      ],
      "name": "grantRole",
      "outputs": [],
      "stateMutability": "nonpayable",
      "type": "function"
    },
    {
      "inputs": [
        {
          "internalType": "bytes32",
          "name": "role",
          "type": "bytes32"
        },
        {
          "internalType": "address",
          "name": "account",
          "type": "address"
        }
      ],
      "name": "hasRole",
      "outputs": [
        {
          "internalType": "bool",
          "name": "",
          "type": "bool"
        }
      ],
      "stateMutability": "view",
      "type": "function"
    },
    {
      "inputs": [
        {
          "internalType": "uint256",
          "name": "_initialFee",
          "type": "uint256"
        },
        {
          "internalType": "address",
          "name": "_initialFeeRecipient",
          "type": "address"
        },
        {
          "internalType": "contract IERC20Upgradeable",
          "name": "_initialPaymentToken",
          "type": "address"
        }
      ],
      "name": "initialize",
      "outputs": [],
      "stateMutability": "nonpayable",
      "type": "function"
    },
    {
      "inputs": [
        {
          "internalType": "address",
          "name": "",
          "type": "address"
        },
        {
          "internalType": "uint256",
          "name": "",
          "type": "uint256"
        },
        {
          "internalType": "address",
          "name": "",
          "type": "address"
        }
      ],
      "name": "listings",
      "outputs": [
        {
          "internalType": "uint64",
          "name": "quantity",
          "type": "uint64"
        },
        {
          "internalType": "uint128",
          "name": "pricePerItem",
          "type": "uint128"
        },
        {
          "internalType": "uint64",
          "name": "expirationTime",
          "type": "uint64"
        },
        {
          "internalType": "address",
          "name": "paymentTokenAddress",
          "type": "address"
        }
      ],
      "stateMutability": "view",
      "type": "function"
    },
    {
      "inputs": [],
      "name": "pause",
      "outputs": [],
      "stateMutability": "nonpayable",
      "type": "function"
    },
    {
      "inputs": [],
      "name": "paused",
      "outputs": [
        {
          "internalType": "bool",
          "name": "",
          "type": "bool"
        }
      ],
      "stateMutability": "view",
      "type": "function"
    },
    {
      "inputs": [],
      "name": "paymentToken",
      "outputs": [
        {
          "internalType": "contract IERC20Upgradeable",
          "name": "",
          "type": "address"
        }
      ],
      "stateMutability": "view",
      "type": "function"
    },
    {
      "inputs": [],
      "name": "priceTrackerAddress",
      "outputs": [
        {
          "internalType": "address",
          "name": "",
          "type": "address"
        }
      ],
      "stateMutability": "view",
      "type": "function"
    },
    {
      "inputs": [
        {
          "internalType": "bytes32",
          "name": "role",
          "type": "bytes32"
        },
        {
          "internalType": "address",
          "name": "account",
          "type": "address"
        }
      ],
      "name": "renounceRole",
      "outputs": [],
      "stateMutability": "nonpayable",
      "type": "function"
    },
    {
      "inputs": [
        {
          "internalType": "bytes32",
          "name": "role",
          "type": "bytes32"
        },
        {
          "internalType": "address",
          "name": "account",
          "type": "address"
        }
      ],
      "name": "revokeRole",
      "outputs": [],
      "stateMutability": "nonpayable",
      "type": "function"
    },
    {
      "inputs": [
        {
          "internalType": "address",
          "name": "_collectionAddress",
          "type": "address"
        },
        {
          "components": [
            {
              "internalType": "uint32",
              "name": "fee",
              "type": "uint32"
            },
            {
              "internalType": "address",
              "name": "recipient",
              "type": "address"
            }
          ],
          "internalType": "struct TreasureMarketplaceTestnet.CollectionOwnerFee",
          "name": "_collectionOwnerFee",
          "type": "tuple"
        }
      ],
      "name": "setCollectionOwnerFee",
      "outputs": [],
      "stateMutability": "nonpayable",
      "type": "function"
    },
    {
      "inputs": [
        {
          "internalType": "uint256",
          "name": "_newFee",
          "type": "uint256"
        },
        {
          "internalType": "uint256",
          "name": "_newFeeWithCollectionOwner",
          "type": "uint256"
        }
      ],
      "name": "setFee",
      "outputs": [],
      "stateMutability": "nonpayable",
      "type": "function"
    },
    {
      "inputs": [
        {
          "internalType": "address",
          "name": "_newFeeRecipient",
          "type": "address"
        }
      ],
      "name": "setFeeRecipient",
      "outputs": [],
      "stateMutability": "nonpayable",
      "type": "function"
    },
    {
      "inputs": [
        {
          "internalType": "address",
          "name": "_paymentToken",
          "type": "address"
        }
      ],
      "name": "setPaymentToken",
      "outputs": [],
      "stateMutability": "nonpayable",
      "type": "function"
    },
    {
      "inputs": [
        {
          "internalType": "address",
          "name": "_priceTrackerAddress",
          "type": "address"
        }
      ],
      "name": "setPriceTracker",
      "outputs": [],
      "stateMutability": "nonpayable",
      "type": "function"
    },
    {
      "inputs": [
        {
          "internalType": "address",
          "name": "_nft",
          "type": "address"
        },
        {
          "internalType": "enum TreasureMarketplaceTestnet.TokenApprovalStatus",
          "name": "_status",
          "type": "uint8"
        },
        {
          "internalType": "address",
          "name": "_paymentToken",
          "type": "address"
        }
      ],
      "name": "setTokenApprovalStatus",
      "outputs": [],
      "stateMutability": "nonpayable",
      "type": "function"
    },
    {
      "inputs": [
        {
          "internalType": "address",
          "name": "_wethAddress",
          "type": "address"
        }
      ],
      "name": "setWeth",
      "outputs": [],
      "stateMutability": "nonpayable",
      "type": "function"
    },
    {
      "inputs": [
        {
          "internalType": "bytes4",
          "name": "interfaceId",
          "type": "bytes4"
        }
      ],
      "name": "supportsInterface",
      "outputs": [
        {
          "internalType": "bool",
          "name": "",
          "type": "bool"
        }
      ],
      "stateMutability": "view",
      "type": "function"
    },
    {
      "inputs": [],
      "name": "toggleAreBidsActive",
      "outputs": [],
      "stateMutability": "nonpayable",
      "type": "function"
    },
    {
      "inputs": [
        {
          "internalType": "address",
          "name": "",
          "type": "address"
        }
      ],
      "name": "tokenApprovals",
      "outputs": [
        {
          "internalType": "enum TreasureMarketplaceTestnet.TokenApprovalStatus",
          "name": "",
          "type": "uint8"
        }
      ],
      "stateMutability": "view",
      "type": "function"
    },
    {
      "inputs": [
        {
          "internalType": "address",
          "name": "",
          "type": "address"
        },
        {
          "internalType": "uint256",
          "name": "",
          "type": "uint256"
        },
        {
          "internalType": "address",
          "name": "",
          "type": "address"
        }
      ],
      "name": "tokenBids",
      "outputs": [
        {
          "internalType": "uint64",
          "name": "quantity",
          "type": "uint64"
        },
        {
          "internalType": "uint128",
          "name": "pricePerItem",
          "type": "uint128"
        },
        {
          "internalType": "uint64",
          "name": "expirationTime",
          "type": "uint64"
        },
        {
          "internalType": "address",
          "name": "paymentTokenAddress",
          "type": "address"
        }
      ],
      "stateMutability": "view",
      "type": "function"
    },
    {
      "inputs": [],
      "name": "unpause",
      "outputs": [],
      "stateMutability": "nonpayable",
      "type": "function"
    },
    {
      "inputs": [
        {
          "internalType": "address",
          "name": "_nftAddress",
          "type": "address"
        },
        {
          "internalType": "uint256",
          "name": "_tokenId",
          "type": "uint256"
        },
        {
          "internalType": "uint64",
          "name": "_newQuantity",
          "type": "uint64"
        },
        {
          "internalType": "uint128",
          "name": "_newPricePerItem",
          "type": "uint128"
        },
        {
          "internalType": "uint64",
          "name": "_newExpirationTime",
          "type": "uint64"
        },
        {
          "internalType": "address",
          "name": "_paymentToken",
          "type": "address"
        }
      ],
      "name": "updateListing",
      "outputs": [],
      "stateMutability": "nonpayable",
      "type": "function"
    },
    {
      "inputs": [],
      "name": "weth",
      "outputs": [
        {
          "internalType": "contract IERC20Upgradeable",
          "name": "",
          "type": "address"
        }
      ],
      "stateMutability": "view",
      "type": "function"
    }
  ],
  "transactionHash": "0xbc8ea144f85784153cfdd4675a867ce54c07a7ae78207b3f7a158cd73674e007",
  "args": [],
  "numDeployments": 1,
  "solcInputHash": "eb4a2eab709f7c85c297e9e29b5fa54d",
  "bytecode": "0x60806040523480156200001157600080fd5b50600054610100900460ff166200002f5760005460ff161562000039565b62000039620000de565b620000a15760405162461bcd60e51b815260206004820152602e60248201527f496e697469616c697a61626c653a20636f6e747261637420697320616c72656160448201526d191e481a5b9a5d1a585b1a5e995960921b606482015260840160405180910390fd5b600054610100900460ff16158015620000c4576000805461ffff19166101011790555b8015620000d7576000805461ff00191690555b506200010b565b6000620000f630620000fc60201b620023ff1760201c565b15905090565b6001600160a01b03163b151590565b615921806200011b6000396000f3fe6080604052600436106102e45760003560e01c806384fa314611610190578063b8d1452f116100dc578063d547741f11610095578063e74b981b1161006f578063e74b981b146109fc578063e76c171314610a1c578063e8a5f20014610a5a578063f4930d3e14610ac557600080fd5b8063d547741f146109af578063ddca3f43146109cf578063e1f1c4a7146109e657600080fd5b8063b8d1452f146108a1578063bc063e1a146108c1578063c564e3a1146108d7578063c5da1183146108f7578063c7cbcb3e14610917578063ca15c8731461098f57600080fd5b806398803a8311610149578063a217fddf11610123578063a217fddf14610834578063ad9f20a614610849578063b2ddee0614610861578063b4988fd01461088157600080fd5b806398803a831461078f5780639a867aab14610801578063a07076b21461082157600080fd5b806384fa3146146106c25780638852e220146106e25780638dce8eae146107195780639010d07c1461073957806391d14854146107595780639858bc9f1461077957600080fd5b80633f4ba83a1161024f5780635c975abb116102085780636bd3a64b116101e25780636bd3a64b146105bc578063785a8678146106765780637945e9441461068d5780638456cb59146106ad57600080fd5b80635c975abb14610564578063656b67ad1461057c5780636a326ab11461059c57600080fd5b80633f4ba83a146104b95780633fc8cef3146104ce57806344c7f047146104ef5780634aecaa25146105045780634e96358d1461052457806352f7c9881461054457600080fd5b8063248a9ca3116102a1578063248a9ca3146103d95780632c452098146104175780632f2ff15d146104375780633013ce291461045757806336568abe146104785780633740ebb31461049857600080fd5b806301ffc9a7146102e9578063083aded71461031e578063101e1c0214610339578063126080e914610377578063143f05e11461039957806319d89436146103b9575b600080fd5b3480156102f557600080fd5b50610309610304366004614c35565b610ae7565b60405190151581526020015b60405180910390f35b34801561032a57600080fd5b50610138546103099060ff1681565b34801561034557600080fd5b506101385461035f9061010090046001600160a01b031681565b6040516001600160a01b039091168152602001610315565b34801561038357600080fd5b50610397610392366004614c5f565b610b12565b005b3480156103a557600080fd5b506103976103b4366004614d1b565b610bfc565b3480156103c557600080fd5b506103976103d4366004614d8e565b610c62565b3480156103e557600080fd5b506104096103f4366004614dcf565b60009081526065602052604090206001015490565b604051908152602001610315565b34801561042357600080fd5b50610397610432366004614d1b565b610e5d565b34801561044357600080fd5b50610397610452366004614de8565b611127565b34801561046357600080fd5b5061012d5461035f906001600160a01b031681565b34801561048457600080fd5b50610397610493366004614de8565b611152565b3480156104a457600080fd5b5061012f5461035f906001600160a01b031681565b3480156104c557600080fd5b506103976111d0565b3480156104da57600080fd5b506101355461035f906001600160a01b031681565b3480156104fb57600080fd5b506103976111f4565b34801561051057600080fd5b5061039761051f366004614e18565b611223565b34801561053057600080fd5b5061039761053f366004614e7a565b611437565b34801561055057600080fd5b5061039761055f366004614ec9565b611778565b34801561057057600080fd5b5060c95460ff16610309565b34801561058857600080fd5b50610397610597366004614eeb565b611860565b3480156105a857600080fd5b506103976105b7366004614f03565b6118e1565b3480156105c857600080fd5b506106346105d7366004614f20565b610130602090815260009384526040808520825292845282842090528252902080546001909101546001600160401b03808316926001600160801b03600160401b82041692600160c01b909104909116906001600160a01b031684565b604080516001600160401b0395861681526001600160801b0394909416602085015291909316908201526001600160a01b039091166060820152608001610315565b34801561068257600080fd5b506104096101325481565b34801561069957600080fd5b5061035f6106a8366004614f03565b611980565b3480156106b957600080fd5b506103976119bf565b3480156106ce57600080fd5b506103976106dd366004614eeb565b6119e0565b3480156106ee57600080fd5b5061035f6106fd366004614f03565b610134602052600090815260409020546001600160a01b031681565b34801561072557600080fd5b50610397610734366004614f03565b611a59565b34801561074557600080fd5b5061035f610754366004614ec9565b611af7565b34801561076557600080fd5b50610309610774366004614de8565b611b0f565b34801561078557600080fd5b506104096107d081565b34801561079b57600080fd5b506106346107aa366004614f57565b610137602090815260009283526040808420909152908252902080546001909101546001600160401b03808316926001600160801b03600160401b82041692600160c01b909104909116906001600160a01b031684565b34801561080d57600080fd5b5061039761081c366004614d1b565b611b3a565b61039761082f366004614f85565b611c0c565b34801561084057600080fd5b50610409600081565b34801561085557600080fd5b50610409633b9aca0081565b34801561086d57600080fd5b5061039761087c366004614fe7565b611cfc565b34801561088d57600080fd5b5061039761089c366004615013565b611d95565b3480156108ad57600080fd5b506103976108bc366004614f03565b611f31565b3480156108cd57600080fd5b506104096105dc81565b3480156108e357600080fd5b506103976108f236600461503a565b611fd0565b34801561090357600080fd5b50610397610912366004614d1b565b612225565b34801561092357600080fd5b50610634610932366004614f20565b610136602090815260009384526040808520825292845282842090528252902080546001909101546001600160401b03808316926001600160801b03600160401b82041692600160c01b909104909116906001600160a01b031684565b34801561099b57600080fd5b506104096109aa366004614dcf565b612334565b3480156109bb57600080fd5b506103976109ca366004614de8565b61234b565b3480156109db57600080fd5b5061040961012e5481565b3480156109f257600080fd5b5061040961271081565b348015610a0857600080fd5b50610397610a17366004614f03565b612371565b348015610a2857600080fd5b50610a4d610a37366004614f03565b6101316020526000908152604090205460ff1681565b60405161031591906150cf565b348015610a6657600080fd5b50610aa1610a75366004614f03565b6101336020526000908152604090205463ffffffff81169064010000000090046001600160a01b031682565b6040805163ffffffff90931683526001600160a01b03909116602083015201610315565b348015610ad157600080fd5b506104096000805160206158cc83398151915281565b60006001600160e01b03198216635a05180f60e01b1480610b0c5750610b0c8261240e565b92915050565b600260fb541415610b3e5760405162461bcd60e51b8152600401610b35906150dd565b60405180910390fd5b600260fb5560c95460ff1615610b665760405162461bcd60e51b8152600401610b3590615114565b60005b81811015610bf25736838383818110610b8457610b8461513e565b60c002919091019150610be99050610b9f6020830183614f03565b6020830135610bb46060850160408601615154565b610bc4608086016060870161516f565b610bd460a0870160808801615154565b610be460c0880160a08901614f03565b612443565b50600101610b69565b5050600160fb5550565b600260fb541415610c1f5760405162461bcd60e51b8152600401610b35906150dd565b600260fb5560c95460ff1615610c475760405162461bcd60e51b8152600401610b3590615114565b610c55868686868686612443565b5050600160fb5550505050565b6000805160206158cc833981519152610c7b8133612524565b60026001600160a01b0384166000908152610131602052604090205460ff166002811115610cab57610cab6150a5565b1480610ce4575060016001600160a01b0384166000908152610131602052604090205460ff166002811115610ce257610ce26150a5565b145b610d485760405162461bcd60e51b815260206004820152602f60248201527f54726561737572654d61726b6574706c6163653a20436f6c6c656374696f6e2060448201526e1a5cc81b9bdd08185c1c1c9bdd9959608a1b6064820152608401610b35565b6107d0610d58602084018461519c565b63ffffffff161115610dc15760405162461bcd60e51b815260206004820152602c60248201527f54726561737572654d61726b6574706c6163653a20436f6c6c656374696f6e2060448201526b0cccaca40e8dede40d0d2ced60a31b6064820152608401610b35565b6001600160a01b0383166000908152610133602052604090208290610de682826151b9565b507f67fec56f6f9c18f46aafdc92ee08968b7cac01e9e5b3dbdd485415acf0e9773e905083610e1b6040850160208601614f03565b610e28602086018661519c565b604080516001600160a01b03948516815293909216602084015263ffffffff16908201526060015b60405180910390a1505050565b600260fb541415610e805760405162461bcd60e51b8152600401610b35906150dd565b600260fb5560c95460ff1615610ea85760405162461bcd60e51b8152600401610b3590615114565b6101385460ff16610ecb5760405162461bcd60e51b8152600401610b3590615212565b60016001600160a01b0387166000908152610131602052604090205460ff166002811115610efb57610efb6150a5565b1415610f7c57836001600160401b0316600114610f775760405162461bcd60e51b815260206004820152603460248201527f54726561737572654d61726b6574706c6163653a20746f6b656e20626964207160448201527375616e74697479203120666f722045524337323160601b6064820152608401610b35565b61107c565b60026001600160a01b0387166000908152610131602052604090205460ff166002811115610fac57610fac6150a5565b1415611015576000846001600160401b031611610f775760405162461bcd60e51b815260206004820152602160248201527f54726561737572654d61726b6574706c6163653a20626164207175616e7469746044820152607960f81b6064820152608401610b35565b60405162461bcd60e51b815260206004820152603660248201527f54726561737572654d61726b6574706c6163653a20746f6b656e206973206e6f6044820152757420617070726f76656420666f722074726164696e6760501b6064820152608401610b35565b6001600160a01b03861660009081526101366020908152604080832088845290915281206110d6918891879187918791879190335b6001600160a01b03166001600160a01b03168152602001908152602001600020612588565b7faa16fd3f89fcc221b55be8ebd56c20abf3a580c60a83d5de297e0edf750aeae8335b878787878787604051611112979695949392919061525c565b60405180910390a15050600160fb5550505050565b6000828152606560205260409020600101546111438133612524565b61114d8383612867565b505050565b6001600160a01b03811633146111c25760405162461bcd60e51b815260206004820152602f60248201527f416363657373436f6e74726f6c3a2063616e206f6e6c792072656e6f756e636560448201526e103937b632b9903337b91039b2b63360891b6064820152608401610b35565b6111cc8282612889565b5050565b6000805160206158cc8339815191526111e98133612524565b6111f16128ab565b50565b6000805160206158cc83398151915261120d8133612524565b50610138805460ff19811660ff90911615179055565b600260fb5414156112465760405162461bcd60e51b8152600401610b35906150dd565b600260fb5560005b81811015610bf257368383838181106112695761126961513e565b6060029190910191506001905061128360208301836152ae565b6001811115611294576112946150a5565b141561136b576000610137816112b06040850160208601614f03565b6001600160a01b03166001600160a01b0316815260200190815260200160002060006112d93390565b6001600160a01b031681526020810191909152604001600020805467ffffffffffffffff19166001600160401b03929092169190911790557ff5913151c29e184e3a477be2274f0b06b63cd67c1ab11e1cc103d25701cfbdf2336113436040840160208501614f03565b604080516001600160a01b0393841681529290911660208301520160405180910390a1611424565b6000610136816113816040850160208601614f03565b6001600160a01b0316815260208082019290925260409081016000908120858301803583529084528282203380845290855292909120805467ffffffffffffffff19166001600160401b0395909516949094179093557fc98088fb062dda614ae7304b89526258370705c2646039e06beff408428a6b9c92909161140791908501614f03565b836040013560405161141b939291906152cf565b60405180910390a15b508061142f81615309565b91505061124e565b6000805160206158cc8339815191526114508133612524565b6001836002811115611464576114646150a5565b141561153e576040516301ffc9a760e01b81526380ac58cd60e01b60048201526001600160a01b038516906301ffc9a790602401602060405180830381865afa1580156114b5573d6000803e3d6000fd5b505050506040513d601f19601f820116820180604052508101906114d99190615332565b6115395760405162461bcd60e51b815260206004820152602b60248201527f54726561737572654d61726b6574706c6163653a206e6f7420616e204552433760448201526a0c8c4818dbdb9d1c9858dd60aa1b6064820152608401610b35565b611628565b6002836002811115611552576115526150a5565b1415611628576040516301ffc9a760e01b8152636cdb3d1360e11b60048201526001600160a01b038516906301ffc9a790602401602060405180830381865afa1580156115a3573d6000803e3d6000fd5b505050506040513d601f19601f820116820180604052508101906115c79190615332565b6116285760405162461bcd60e51b815260206004820152602c60248201527f54726561737572654d61726b6574706c6163653a206e6f7420616e204552433160448201526b0c4d4d4818dbdb9d1c9858dd60a21b6064820152608401610b35565b6001600160a01b038216158015906116665750610135546001600160a01b0383811691161480611666575061012d546001600160a01b038381169116145b6116cb5760405162461bcd60e51b815260206004820152603060248201527f54726561737572654d61726b6574706c6163653a205061796d656e7420746f6b60448201526f195b881b9bdd081cdd5c1c1bdc9d195960821b6064820152608401610b35565b6001600160a01b038416600090815261013160205260409020805484919060ff19166001836002811115611701576117016150a5565b02179055506001600160a01b03848116600090815261013460205260409081902080546001600160a01b03191692851692909217909155517f876079e5f28457db5d4f19b6a15569030a7512eb4308523b27062fa6998baeab9061176a9086908690869061534f565b60405180910390a150505050565b6000805160206158cc8339815191526117918133612524565b6105dc83111580156117a557506105dc8211155b6117f15760405162461bcd60e51b815260206004820152601c60248201527f54726561737572654d61726b6574706c6163653a206d617820666565000000006044820152606401610b35565b61012e8390556101328290556040518381527f38e229a7f3f9c329892d08eb37c4e91ccac6d12c798d394990ca4f56028ec2669060200160405180910390a16040518281527f32837ab65d8583d89ac1b66920de55975eb33cbc0fbf00f2123197ce3b62c63e90602001610e50565b600260fb5414156118835760405162461bcd60e51b8152600401610b35906150dd565b600260fb5560c95460ff16156118ab5760405162461bcd60e51b8152600401610b3590615114565b6101385460ff166118ce5760405162461bcd60e51b8152600401610b3590615212565b6118d981600161293e565b50600160fb55565b6000805160206158cc8339815191526118fa8133612524565b6001600160a01b03821661195c5760405162461bcd60e51b8152602060048201526024808201527f5f7061796d656e74546f6b656e2063616e6e6f74206265206e756c6c206164646044820152637265737360e01b6064820152608401610b35565b5061012d80546001600160a01b0319166001600160a01b0392909216919091179055565b6001600160a01b038082166000908152610134602052604081205490911680156119aa57806119b8565b61012d546001600160a01b03165b9392505050565b6000805160206158cc8339815191526119d88133612524565b6111f161320f565b600260fb541415611a035760405162461bcd60e51b8152600401610b35906150dd565b600260fb5560c95460ff1615611a2b5760405162461bcd60e51b8152600401610b3590615114565b6101385460ff16611a4e5760405162461bcd60e51b8152600401610b3590615212565b6118d981600061293e565b6000805160206158cc833981519152611a728133612524565b6001600160a01b038216611a985760405162461bcd60e51b8152600401610b359061537f565b6101388054610100600160a81b0319166101006001600160a01b038516908102919091179091556040519081527fff578b2d68bd5715dc8d6a50dd990e7b5500f2849738885bbd03241447090e5a906020015b60405180910390a15050565b60008281526097602052604081206119b89083613267565b60009182526065602090815260408084206001600160a01b0393909316845291905290205460ff1690565b600260fb541415611b5d5760405162461bcd60e51b8152600401610b35906150dd565b600260fb5560c95460ff1615611b855760405162461bcd60e51b8152600401610b3590615114565b6001600160a01b03861660009081526101306020908152604080832088845282528083203384529091529020546001600160401b0316611bd75760405162461bcd60e51b8152600401610b35906153ca565b611be5868686868686613273565b7fde1951e410d2f4644b8dd23d6b9e5d2e862b417055f42e3939ab16b4635ec6de336110f9565b600260fb541415611c2f5760405162461bcd60e51b8152600401610b35906150dd565b600260fb5560c95460ff1615611c575760405162461bcd60e51b8152600401610b3590615114565b6000805b82811015611ca157611c83848483818110611c7857611c7861513e565b905060e00201613801565b611c8d908361540e565b915080611c9981615309565b915050611c5b565b50803414610bf25760405162461bcd60e51b815260206004820152602260248201527f54726561737572654d61726b6574706c6163653a20426164204554482076616c604482015261756560f01b6064820152608401610b35565b600260fb541415611d1f5760405162461bcd60e51b8152600401610b35906150dd565b600260fb556001600160a01b038216600081815261013060209081526040808320858452825280832033808552925280832083815560010180546001600160a01b0319169055518493927f9ba1a3cb55ce8d63d072a886f94d2a744f50cddf82128e897d0661f5ec62315891a45050600160fb55565b600054610100900460ff16611db05760005460ff1615611db4565b303b155b611e175760405162461bcd60e51b815260206004820152602e60248201527f496e697469616c697a61626c653a20636f6e747261637420697320616c72656160448201526d191e481a5b9a5d1a585b1a5e995960921b6064820152608401610b35565b600054610100900460ff16158015611e39576000805461ffff19166101011790555b6001600160a01b038216611ea25760405162461bcd60e51b815260206004820152602a60248201527f54726561737572654d61726b6574706c6163653a2063616e6e6f7420736574206044820152696164647265737328302960b01b6064820152608401610b35565b611eaa61425d565b611eb2614286565b611eba6142b9565b611ed26000805160206158cc833981519152806142e7565b611eea6000805160206158cc83398151915233612867565b611ef48485611778565b611efd83612371565b61012d80546001600160a01b0319166001600160a01b0384161790558015611f2b576000805461ff00191690555b50505050565b6000805160206158cc833981519152611f4a8133612524565b6001600160a01b038216611fac5760405162461bcd60e51b815260206004820152602360248201527f5f77657468416464726573732063616e6e6f74206265206e756c6c206164647260448201526265737360e81b6064820152608401610b35565b5061013580546001600160a01b0319166001600160a01b0392909216919091179055565b600260fb541415611ff35760405162461bcd60e51b8152600401610b35906150dd565b600260fb5560c95460ff161561201b5760405162461bcd60e51b8152600401610b3590615114565b6101385460ff1661203e5760405162461bcd60e51b8152600401610b3590615212565b60016001600160a01b0386166000908152610131602052604090205460ff16600281111561206e5761206e6150a5565b14156120dc576000846001600160401b0316116120d75760405162461bcd60e51b815260206004820152602160248201527f54726561737572654d61726b6574706c6163653a20426164207175616e7469746044820152607960f81b6064820152608401610b35565b612173565b60026001600160a01b0386166000908152610131602052604090205460ff16600281111561210c5761210c6150a5565b14156110155760405162461bcd60e51b815260206004820152603060248201527f54726561737572654d61726b6574706c6163653a204e6f20636f6c6c6563746960448201526f6f6e2062696473206f6e20313135357360801b6064820152608401610b35565b6121aa858585858561013760008c6001600160a01b03166001600160a01b0316815260200190815260200160002060006110b13390565b604080513381526001600160a01b0387811660208301526001600160401b03878116838501526001600160801b038716606084015285166080830152831660a082015290517f9f6945ee84d160722b736d12d84f9f3349075d2c78064575b40620be21bf6eef9181900360c00190a15050600160fb55505050565b600260fb5414156122485760405162461bcd60e51b8152600401610b35906150dd565b600260fb5560c95460ff16156122705760405162461bcd60e51b8152600401610b3590615114565b6001600160a01b03861660009081526101306020908152604080832088845282528083203384529091529020546001600160401b0316156122ff5760405162461bcd60e51b815260206004820152602360248201527f54726561737572654d61726b6574706c6163653a20616c7265616479206c69736044820152621d195960ea1b6064820152608401610b35565b61230d868686868686613273565b7fb21f4a0122c6667aa16da06fcb7d9d3b2688164dfb40b7253aed80ea36d88e99336110f9565b6000818152609760205260408120610b0c90614332565b6000828152606560205260409020600101546123678133612524565b61114d8383612889565b6000805160206158cc83398151915261238a8133612524565b6001600160a01b0382166123b05760405162461bcd60e51b8152600401610b359061537f565b61012f80546001600160a01b0319166001600160a01b0384169081179091556040519081527f6632de8ab33c46549f7bb29f647ea0d751157b25fe6a14b1bcc7527cdfbeb79c90602001611aeb565b6001600160a01b03163b151590565b60006001600160e01b03198216637965db0b60e01b1480610b0c57506301ffc9a760e01b6001600160e01b0319831614610b0c565b6001600160a01b03861660009081526101306020908152604080832088845282528083203384529091529020546001600160401b03161515612489878787878787613273565b80156124d7577fde1951e410d2f4644b8dd23d6b9e5d2e862b417055f42e3939ab16b4635ec6de338888888888886040516124ca979695949392919061525c565b60405180910390a161251b565b7fb21f4a0122c6667aa16da06fcb7d9d3b2688164dfb40b7253aed80ea36d88e9933888888888888604051612512979695949392919061525c565b60405180910390a15b50505050505050565b61252e8282611b0f565b6111cc57612546816001600160a01b0316601461433c565b61255183602061433c565b604051602001612562929190615452565b60408051601f198184030181529082905262461bcd60e51b8252610b35916004016154f3565b42836001600160401b0316116125b05760405162461bcd60e51b8152600401610b3590615506565b633b9aca00846001600160801b031610156125dd5760405162461bcd60e51b8152600401610b3590615552565b60006125e887611980565b9050826001600160a01b0316816001600160a01b03161461265a5760405162461bcd60e51b815260206004820152602660248201527f54726561737572654d61726b6574706c6163653a20426164207061796d656e74604482015265103a37b5b2b760d11b6064820152608401610b35565b8260006126706001600160401b03891688615596565b6001600160801b03169050806001600160a01b03831663dd62ed3e336040516001600160e01b031960e084901b1681526001600160a01b039091166004820152306024820152604401602060405180830381865afa1580156126d6573d6000803e3d6000fd5b505050506040513d601f19601f820116820180604052508101906126fa91906155c5565b1015801561277f5750806001600160a01b0383166370a08231336040516001600160e01b031960e084901b1681526001600160a01b039091166004820152602401602060405180830381865afa158015612758573d6000803e3d6000fd5b505050506040513d601f19601f8201168201806040525081019061277c91906155c5565b10155b6127f15760405162461bcd60e51b815260206004820152603f60248201527f54726561737572654d61726b6574706c6163653a204e6f7420656e6f7567682060448201527f746f6b656e73206f776e6564206f7220616c6c6f77656420666f7220626964006064820152608401610b35565b505081546001600160401b03948516600160c01b026001600160c01b036001600160801b03909716600160401b026001600160c01b0319909216959097169490941793909317939093169390931782555060010180546001600160a01b039092166001600160a01b031990921691909117905550565b61287182826144d7565b600082815260976020526040902061114d908261455d565b6128938282614572565b600082815260976020526040902061114d90826145d9565b60c95460ff166128f45760405162461bcd60e51b815260206004820152601460248201527314185d5cd8589b194e881b9bdd081c185d5cd95960621b6044820152606401610b35565b60c9805460ff191690557f5db9ee0a495bf2e6ff9c91a7834c1ba4fdd244a5e8aa4e537bd38aeae4b073aa335b6040516001600160a01b03909116815260200160405180910390a1565b61294e6060830160408401614f03565b6001600160a01b0316336001600160a01b031614156129c25760405162461bcd60e51b815260206004820152602a60248201527f54726561737572654d61726b6574706c6163653a2043616e6e6f7420737570706044820152691b1e481bdddb88189a5960b21b6064820152608401610b35565b60006129d46080840160608501615154565b6001600160401b031611612a435760405162461bcd60e51b815260206004820152603060248201527f54726561737572654d61726b6574706c6163653a204e6f7468696e6720746f2060448201526f39bab838363c903a37903134b23232b960811b6064820152608401610b35565b60006001826001811115612a5957612a596150a5565b14612adf576101366000612a706020860186614f03565b6001600160a01b03166001600160a01b031681526020019081526020016000206000846020013581526020019081526020016000206000846040016020810190612aba9190614f03565b6001600160a01b03166001600160a01b03168152602001908152602001600020612b47565b6101376000612af16020860186614f03565b6001600160a01b03166001600160a01b031681526020019081526020016000206000846040016020810190612b269190614f03565b6001600160a01b03166001600160a01b031681526020019081526020016000205b80549091506001600160401b0316612bb15760405162461bcd60e51b815260206004820152602760248201527f54726561737572654d61726b6574706c6163653a2062696420646f6573206e6f6044820152661d08195e1a5cdd60ca1b6064820152608401610b35565b805442600160c01b9091046001600160401b03161015612c135760405162461bcd60e51b815260206004820181905260248201527f54726561737572654d61726b6574706c6163653a2062696420657870697265646044820152606401610b35565b8054600160401b90046001600160801b0316612c805760405162461bcd60e51b815260206004820152602660248201527f54726561737572654d61726b6574706c6163653a2062696420707269636520696044820152651b9d985b1a5960d21b6064820152608401610b35565b612c906080840160608501615154565b81546001600160401b0391821691161015612cbd5760405162461bcd60e51b8152600401610b35906155de565b612ccd60a084016080850161516f565b8154600160401b90046001600160801b03908116911614612d425760405162461bcd60e51b815260206004820152602960248201527f54726561737572654d61726b6574706c6163653a20707269636520646f6573206044820152680dcdee840dac2e8c6d60bb1b6064820152608401610b35565b6000612d546106a86020860186614f03565b9050612d6660c0850160a08601614f03565b60018301546001600160a01b039081169116148015612da557506001600160a01b038116612d9a60c0860160a08701614f03565b6001600160a01b0316145b612dc15760405162461bcd60e51b8152600401610b3590615626565b60016101316000612dd56020880188614f03565b6001600160a01b0316815260208101919091526040016000205460ff166002811115612e0357612e036150a5565b1415612f1357612e196080850160608601615154565b6001600160401b0316600114612e8d5760405162461bcd60e51b815260206004820152603360248201527f54726561737572654d61726b6574706c6163653a2043616e6e6f7420737570706044820152726c79206d756c7469706c65204552433732317360681b6064820152608401610b35565b612e9a6020850185614f03565b6001600160a01b03166342842e0e33612eb96060880160408901614f03565b87602001356040518463ffffffff1660e01b8152600401612edc939291906152cf565b600060405180830381600087803b158015612ef657600080fd5b505af1158015612f0a573d6000803e3d6000fd5b50505050612fcc565b60026101316000612f276020880188614f03565b6001600160a01b0316815260208101919091526040016000205460ff166002811115612f5557612f556150a5565b141561101557612f686020850185614f03565b6001600160a01b031663f242432a33612f876060880160408901614f03565b6020880135612f9c60808a0160608b01615154565b604051806020016040528060008152506040518663ffffffff1660e01b8152600401612edc95949392919061566e565b604080516080808201835284546001600160401b0380821684526001600160801b03600160401b8304166020850152600160c01b909104169282019290925260018401546001600160a01b03166060808301919091526130739261303591908801908801615154565b6001600160401b031661304b6020880188614f03565b61305b6060890160408a01614f03565b3361306c60c08b0160a08c01614f03565b60006145ee565b6101385461010090046001600160a01b031615613129576101385461010090046001600160a01b031663086efe056130ae6020870187614f03565b845460405160e084901b6001600160e01b03191681526001600160a01b03909216600483015260208801356024830152600160401b90046001600160801b03166044820152606401600060405180830381600087803b15801561311057600080fd5b505af1158015613124573d6000803e3d6000fd5b505050505b7ff6b2b7813b1815a0e2e32964b4f22ec24862322d9c9c0e0eefac425dfc455ab13361315b6060870160408801614f03565b6131686020880188614f03565b602088013561317d60808a0160608b01615154565b61318d60a08b0160808c0161516f565b61319d60c08c0160a08d01614f03565b8a6040516131b29897969594939291906156b0565b60405180910390a16131ca6080850160608601615154565b825483906000906131e59084906001600160401b0316615721565b92506101000a8154816001600160401b0302191690836001600160401b0316021790555050505050565b60c95460ff16156132325760405162461bcd60e51b8152600401610b3590615114565b60c9805460ff191660011790557f62e78cea01bee320cd4e420270b5ea74000d11b0c9f74754ebdbfc544b05a2586129213390565b60006119b88383614700565b42826001600160401b03161161329b5760405162461bcd60e51b8152600401610b3590615506565b633b9aca00836001600160801b031610156132c85760405162461bcd60e51b8152600401610b3590615552565b60016001600160a01b0387166000908152610131602052604090205460ff1660028111156132f8576132f86150a5565b14156134e15785336040516331a9108f60e11b8152600481018890526001600160a01b0391821691831690636352211e90602401602060405180830381865afa158015613349573d6000803e3d6000fd5b505050506040513d601f19601f8201168201806040525081019061336d9190615749565b6001600160a01b0316146133cf5760405162461bcd60e51b8152602060048201526024808201527f54726561737572654d61726b6574706c6163653a206e6f74206f776e696e67206044820152636974656d60e01b6064820152608401610b35565b6001600160a01b03811663e985e9c5336040516001600160e01b031960e084901b1681526001600160a01b039091166004820152306024820152604401602060405180830381865afa158015613429573d6000803e3d6000fd5b505050506040513d601f19601f8201168201806040525081019061344d9190615332565b6134695760405162461bcd60e51b8152600401610b3590615766565b846001600160401b03166001146134db5760405162461bcd60e51b815260206004820152603060248201527f54726561737572654d61726b6574706c6163653a2063616e6e6f74206c69737460448201526f206d756c7469706c652045524337323160801b6064820152608401610b35565b50613700565b60026001600160a01b0387166000908152610131602052604090205460ff166002811115613511576135116150a5565b141561101557856001600160401b0385166001600160a01b03821662fdd58e336040516001600160e01b031960e084901b1681526001600160a01b039091166004820152602481018a9052604401602060405180830381865afa15801561357c573d6000803e3d6000fd5b505050506040513d601f19601f820116820180604052508101906135a091906155c5565b10156136015760405162461bcd60e51b815260206004820152602a60248201527f54726561737572654d61726b6574706c6163653a206d75737420686f6c6420656044820152696e6f756768206e66747360b01b6064820152608401610b35565b6001600160a01b03811663e985e9c5336040516001600160e01b031960e084901b1681526001600160a01b039091166004820152306024820152604401602060405180830381865afa15801561365b573d6000803e3d6000fd5b505050506040513d601f19601f8201168201806040525081019061367f9190615332565b61369b5760405162461bcd60e51b8152600401610b3590615766565b6000856001600160401b0316116134db5760405162461bcd60e51b8152602060048201526024808201527f54726561737572654d61726b6574706c6163653a206e6f7468696e6720746f206044820152631b1a5cdd60e21b6064820152608401610b35565b600061370b87611980565b9050816001600160a01b0316816001600160a01b03161461373e5760405162461bcd60e51b8152600401610b3590615626565b50604080516080810182526001600160401b0395861681526001600160801b0394851660208083019182529487168284019081526001600160a01b039485166060840190815299851660009081526101308752848120998152988652838920338a529095529190962095518654915193518616600160c01b026001600160c01b0394909516600160401b026001600160c01b03199092169516949094179390931716178255915160019091018054919092166001600160a01b0319909116179055565b60006138136060830160408401614f03565b6001600160a01b0316336001600160a01b0316141561388a5760405162461bcd60e51b815260206004820152602d60248201527f54726561737572654d61726b6574706c6163653a2043616e6e6f74206275792060448201526c796f7572206f776e206974656d60981b6064820152608401610b35565b600061389c6080840160608501615154565b6001600160401b0316116138fe5760405162461bcd60e51b815260206004820152602360248201527f54726561737572654d61726b6574706c6163653a204e6f7468696e6720746f2060448201526262757960e81b6064820152608401610b35565b6000610130816139116020860186614f03565b6001600160a01b03166001600160a01b03168152602001908152602001600020600084602001358152602001908152602001600020600084604001602081019061395b9190614f03565b6001600160a01b0390811682526020808301939093526040918201600020825160808101845281546001600160401b038082168084526001600160801b03600160401b84041697840197909752600160c01b90910416938101939093526001015416606082015291506139e05760405162461bcd60e51b8152600401610b35906153ca565b4281604001516001600160401b03161015613a495760405162461bcd60e51b8152602060048201526024808201527f54726561737572654d61726b6574706c6163653a206c697374696e67206578706044820152631a5c995960e21b6064820152608401610b35565b600081602001516001600160801b031611613ab95760405162461bcd60e51b815260206004820152602a60248201527f54726561737572654d61726b6574706c6163653a206c697374696e672070726960448201526918d9481a5b9d985b1a5960b21b6064820152608401610b35565b613ac96080840160608501615154565b6001600160401b031681600001516001600160401b03161015613afe5760405162461bcd60e51b8152600401610b35906155de565b613b0e60a084016080850161516f565b6001600160801b031681602001516001600160801b03161115613b7f5760405162461bcd60e51b8152602060048201526024808201527f54726561737572654d61726b6574706c6163653a20707269636520696e637265604482015263185cd95960e21b6064820152608401610b35565b6000613b916106a86020860186614f03565b90506000613b9e8361472a565b9050613bb060c0860160a08701614f03565b6001600160a01b0316816001600160a01b0316148015613bf057506001600160a01b038216613be560c0870160a08801614f03565b6001600160a01b0316145b613c0c5760405162461bcd60e51b8152600401610b3590615626565b613c1c60e0860160c087016157ac565b15613ca557610135546001600160a01b03828116911614613ca55760405162461bcd60e51b815260206004820152603760248201527f54726561737572654d61726b6574706c6163653a20455448206f6e6c7920757360448201527f65642077697468207765746820636f6c6c656374696f6e0000000000000000006064820152608401610b35565b60016101316000613cb96020890189614f03565b6001600160a01b0316815260208101919091526040016000205460ff166002811115613ce757613ce76150a5565b1415613df357613cfd6080860160608701615154565b6001600160401b0316600114613d6d5760405162461bcd60e51b815260206004820152602f60248201527f54726561737572654d61726b6574706c6163653a2043616e6e6f74206275792060448201526e6d756c7469706c652045524337323160881b6064820152608401610b35565b613d7a6020860186614f03565b6001600160a01b03166342842e0e613d986060880160408901614f03565b3388602001356040518463ffffffff1660e01b8152600401613dbc939291906152cf565b600060405180830381600087803b158015613dd657600080fd5b505af1158015613dea573d6000803e3d6000fd5b50505050613eac565b60026101316000613e076020890189614f03565b6001600160a01b0316815260208101919091526040016000205460ff166002811115613e3557613e356150a5565b141561101557613e486020860186614f03565b6001600160a01b031663f242432a613e666060880160408901614f03565b336020890135613e7c60808b0160608c01615154565b604051806020016040528060008152506040518663ffffffff1660e01b8152600401613dbc95949392919061566e565b613f0c83613ec06080880160608901615154565b6001600160401b0316613ed66020890189614f03565b33613ee760608b0160408c01614f03565b613ef760c08c0160a08d01614f03565b613f0760e08d0160c08e016157ac565b6145ee565b7f72d3f914473a393354e6fcd9c3cb7d2eee53924b9b856f9da274e024566292a5613f3d6060870160408801614f03565b33613f4b6020890189614f03565b6020890135613f6060808b0160608c01615154565b6020890151613f7560c08d0160a08e01614f03565b604080516001600160a01b03988916815296881660208801529487169486019490945260608501929092526001600160401b031660808401526001600160801b031660a083015290911660c082015260e00160405180910390a1613fdf6080860160608701615154565b6001600160401b031683600001516001600160401b0316141561408c57610130600061400e6020880188614f03565b6001600160a01b03166001600160a01b0316815260200190815260200160002060008660200135815260200190815260200160002060008660400160208101906140589190614f03565b6001600160a01b031681526020810191909152604001600090812090815560010180546001600160a01b0319169055614151565b61409c6080860160608701615154565b61013060006140ae6020890189614f03565b6001600160a01b03166001600160a01b0316815260200190815260200160002060008760200135815260200190815260200160002060008760400160208101906140f89190614f03565b6001600160a01b0316815260208101919091526040016000908120805490919061412c9084906001600160401b0316615721565b92506101000a8154816001600160401b0302191690836001600160401b031602179055505b6101385461010090046001600160a01b031615614203576101385461010090046001600160a01b031663086efe0561418c6020880188614f03565b6020868101516040516001600160e01b031960e086901b1681526001600160a01b0390931660048401529089013560248301526001600160801b03166044820152606401600060405180830381600087803b1580156141ea57600080fd5b505af11580156141fe573d6000803e3d6000fd5b505050505b61421360e0860160c087016157ac565b1561425257602083015161422d6080870160608801615154565b6001600160401b03166142409190615596565b6001600160801b031695945050505050565b506000949350505050565b600054610100900460ff166142845760405162461bcd60e51b8152600401610b35906157c9565b565b600054610100900460ff166142ad5760405162461bcd60e51b8152600401610b35906157c9565b60c9805460ff19169055565b600054610100900460ff166142e05760405162461bcd60e51b8152600401610b35906157c9565b600160fb55565b600082815260656020526040808220600101805490849055905190918391839186917fbd79b86ffe0ab8e8776151514217cd7cacd52c909f66475c3af44e129f0b00ff9190a4505050565b6000610b0c825490565b6060600061434b836002615814565b61435690600261540e565b6001600160401b0381111561436d5761436d615833565b6040519080825280601f01601f191660200182016040528015614397576020820181803683370190505b509050600360fc1b816000815181106143b2576143b261513e565b60200101906001600160f81b031916908160001a905350600f60fb1b816001815181106143e1576143e161513e565b60200101906001600160f81b031916908160001a9053506000614405846002615814565b61441090600161540e565b90505b6001811115614488576f181899199a1a9b1b9c1cb0b131b232b360811b85600f16601081106144445761444461513e565b1a60f81b82828151811061445a5761445a61513e565b60200101906001600160f81b031916908160001a90535060049490941c9361448181615849565b9050614413565b5083156119b85760405162461bcd60e51b815260206004820181905260248201527f537472696e67733a20686578206c656e67746820696e73756666696369656e746044820152606401610b35565b6144e18282611b0f565b6111cc5760008281526065602090815260408083206001600160a01b03851684529091529020805460ff191660011790556145193390565b6001600160a01b0316816001600160a01b0316837f2f8788117e7eff1d82e926ec794901d17c78024a50270940304540a733656f0d60405160405180910390a45050565b60006119b8836001600160a01b03841661475c565b61457c8282611b0f565b156111cc5760008281526065602090815260408083206001600160a01b0385168085529252808320805460ff1916905551339285917ff6391f5c32d9c69d2a47ea670b442974b53935d1edc7fd64eb21e047a839171b9190a45050565b60006119b8836001600160a01b0384166147ab565b6020870151829060009061460c9089906001600160801b0316615814565b6001600160a01b03808916600090815261013360205260408120549293506401000000009092041690808215614667575050610132546001600160a01b0389166000908152610133602052604090205463ffffffff16614670565b505061012e5460005b600061271061467f8487615814565b6146899190615860565b9050600061271061469a8488615814565b6146a49190615860565b61012f549091506146c2908c906001600160a01b0316848a8c61489e565b6146cf8b86838a8c61489e565b6146f08b8b836146df868b615882565b6146e99190615882565b8a8c61489e565b5050505050505050505050505050565b60008260000182815481106147175761471761513e565b9060005260206000200154905092915050565b60608101516000906001600160a01b03161561474a578160600151610b0c565b505061012d546001600160a01b031690565b60008181526001830160205260408120546147a357508154600181810184556000848152602080822090930184905584548482528286019093526040902091909155610b0c565b506000610b0c565b600081815260018301602052604081205480156148945760006147cf600183615882565b85549091506000906147e390600190615882565b90508181146148485760008660000182815481106148035761480361513e565b90600052602060002001549050808760000184815481106148265761482661513e565b6000918252602080832090910192909255918252600188019052604090208390555b855486908061485957614859615899565b600190038181906000526020600020016000905590558560010160008681526020019081526020016000206000905560019350505050610b0c565b6000915050610b0c565b826148a857614988565b8015614973576000846001600160a01b03168460405160006040518083038185875af1925050503d80600081146148fb576040519150601f19603f3d011682016040523d82523d6000602084013e614900565b606091505b505090508061496d5760405162461bcd60e51b815260206004820152603360248201527f54726561737572654d61726b6574706c6163653a2053656e64696e6720657468604482015272081dd85cc81b9bdd081cdd58d8d95cdcd99d5b606a1b6064820152608401610b35565b50614988565b6149886001600160a01b03831686868661498f565b5050505050565b611f2b846323b872dd60e01b8585856040516024016149b0939291906152cf565b60408051601f198184030181529190526020810180516001600160e01b03166001600160e01b0319909316929092179091526000614a37826040518060400160405280602081526020017f5361666545524332303a206c6f772d6c6576656c2063616c6c206661696c6564815250856001600160a01b0316614ab49092919063ffffffff16565b80519091501561114d5780806020019051810190614a559190615332565b61114d5760405162461bcd60e51b815260206004820152602a60248201527f5361666545524332303a204552433230206f7065726174696f6e20646964206e6044820152691bdd081cdd58d8d9595960b21b6064820152608401610b35565b6060614ac38484600085614acb565b949350505050565b606082471015614b2c5760405162461bcd60e51b815260206004820152602660248201527f416464726573733a20696e73756666696369656e742062616c616e636520666f6044820152651c8818d85b1b60d21b6064820152608401610b35565b6001600160a01b0385163b614b835760405162461bcd60e51b815260206004820152601d60248201527f416464726573733a2063616c6c20746f206e6f6e2d636f6e74726163740000006044820152606401610b35565b600080866001600160a01b03168587604051614b9f91906158af565b60006040518083038185875af1925050503d8060008114614bdc576040519150601f19603f3d011682016040523d82523d6000602084013e614be1565b606091505b5091509150614bf1828286614bfc565b979650505050505050565b60608315614c0b5750816119b8565b825115614c1b5782518084602001fd5b8160405162461bcd60e51b8152600401610b3591906154f3565b600060208284031215614c4757600080fd5b81356001600160e01b0319811681146119b857600080fd5b60008060208385031215614c7257600080fd5b82356001600160401b0380821115614c8957600080fd5b818501915085601f830112614c9d57600080fd5b813581811115614cac57600080fd5b86602060c083028501011115614cc157600080fd5b60209290920196919550909350505050565b6001600160a01b03811681146111f157600080fd5b80356001600160401b0381168114614cff57600080fd5b919050565b80356001600160801b0381168114614cff57600080fd5b60008060008060008060c08789031215614d3457600080fd5b8635614d3f81614cd3565b955060208701359450614d5460408801614ce8565b9350614d6260608801614d04565b9250614d7060808801614ce8565b915060a0870135614d8081614cd3565b809150509295509295509295565b6000808284036060811215614da257600080fd5b8335614dad81614cd3565b92506040601f1982011215614dc157600080fd5b506020830190509250929050565b600060208284031215614de157600080fd5b5035919050565b60008060408385031215614dfb57600080fd5b823591506020830135614e0d81614cd3565b809150509250929050565b60008060208385031215614e2b57600080fd5b82356001600160401b0380821115614e4257600080fd5b818501915085601f830112614e5657600080fd5b813581811115614e6557600080fd5b866020606083028501011115614cc157600080fd5b600080600060608486031215614e8f57600080fd5b8335614e9a81614cd3565b9250602084013560038110614eae57600080fd5b91506040840135614ebe81614cd3565b809150509250925092565b60008060408385031215614edc57600080fd5b50508035926020909101359150565b600060c08284031215614efd57600080fd5b50919050565b600060208284031215614f1557600080fd5b81356119b881614cd3565b600080600060608486031215614f3557600080fd5b8335614f4081614cd3565b9250602084013591506040840135614ebe81614cd3565b60008060408385031215614f6a57600080fd5b8235614f7581614cd3565b91506020830135614e0d81614cd3565b60008060208385031215614f9857600080fd5b82356001600160401b0380821115614faf57600080fd5b818501915085601f830112614fc357600080fd5b813581811115614fd257600080fd5b86602060e083028501011115614cc157600080fd5b60008060408385031215614ffa57600080fd5b823561500581614cd3565b946020939093013593505050565b60008060006060848603121561502857600080fd5b833592506020840135614eae81614cd3565b600080600080600060a0868803121561505257600080fd5b853561505d81614cd3565b945061506b60208701614ce8565b935061507960408701614d04565b925061508760608701614ce8565b9150608086013561509781614cd3565b809150509295509295909350565b634e487b7160e01b600052602160045260246000fd5b600381106150cb576150cb6150a5565b9052565b60208101610b0c82846150bb565b6020808252601f908201527f5265656e7472616e637947756172643a207265656e7472616e742063616c6c00604082015260600190565b60208082526010908201526f14185d5cd8589b194e881c185d5cd95960821b604082015260600190565b634e487b7160e01b600052603260045260246000fd5b60006020828403121561516657600080fd5b6119b882614ce8565b60006020828403121561518157600080fd5b6119b882614d04565b63ffffffff811681146111f157600080fd5b6000602082840312156151ae57600080fd5b81356119b88161518a565b81356151c48161518a565b63ffffffff8116905081548163ffffffff19821617835560208401356151e981614cd3565b6001600160c01b03199190911690911760209190911b640100000000600160c01b031617905550565b6020808252602a908201527f54726561737572654d61726b6574706c6163653a2042696464696e67206973206040820152696e6f742061637469766560b01b606082015260800190565b6001600160a01b039788168152958716602087015260408601949094526001600160401b0392831660608601526001600160801b039190911660808501521660a083015290911660c082015260e00190565b6000602082840312156152c057600080fd5b8135600281106119b857600080fd5b6001600160a01b039384168152919092166020820152604081019190915260600190565b634e487b7160e01b600052601160045260246000fd5b600060001982141561531d5761531d6152f3565b5060010190565b80151581146111f157600080fd5b60006020828403121561534457600080fd5b81516119b881615324565b6001600160a01b038481168252606082019061536e60208401866150bb565b808416604084015250949350505050565b6020808252602b908201527f54726561737572654d61726b6574706c6163653a2063616e6e6f74207365742060408201526a307830206164647265737360a81b606082015260800190565b60208082526024908201527f54726561737572654d61726b6574706c6163653a206e6f74206c6973746564206040820152636974656d60e01b606082015260800190565b60008219821115615421576154216152f3565b500190565b60005b83811015615441578181015183820152602001615429565b83811115611f2b5750506000910152565b7f416363657373436f6e74726f6c3a206163636f756e742000000000000000000081526000835161548a816017850160208801615426565b7001034b99036b4b9b9b4b733903937b6329607d1b60179184019182015283516154bb816028840160208801615426565b01602801949350505050565b600081518084526154df816020860160208601615426565b601f01601f19169290920160200192915050565b6020815260006119b860208301846154c7565b6020808252602c908201527f54726561737572654d61726b6574706c6163653a20696e76616c69642065787060408201526b69726174696f6e2074696d6560a01b606082015260800190565b60208082526024908201527f54726561737572654d61726b6574706c6163653a2062656c6f77206d696e20706040820152637269636560e01b606082015260800190565b60006001600160801b03808316818516818304811182151516156155bc576155bc6152f3565b02949350505050565b6000602082840312156155d757600080fd5b5051919050565b60208082526028908201527f54726561737572654d61726b6574706c6163653a206e6f7420656e6f756768206040820152677175616e7469747960c01b606082015260800190565b60208082526028908201527f54726561737572654d61726b6574706c6163653a2057726f6e67207061796d65604082015267373a103a37b5b2b760c11b606082015260800190565b6001600160a01b03868116825285166020820152604081018490526001600160401b038316606082015260a060808201819052600090614bf1908301846154c7565b6001600160a01b03898116825288811660208301528781166040830152606082018790526001600160401b03861660808301526001600160801b03851660a0830152831660c082015261010081016002831061570e5761570e6150a5565b8260e08301529998505050505050505050565b60006001600160401b0383811690831681811015615741576157416152f3565b039392505050565b60006020828403121561575b57600080fd5b81516119b881614cd3565b60208082526026908201527f54726561737572654d61726b6574706c6163653a206974656d206e6f742061706040820152651c1c9bdd995960d21b606082015260800190565b6000602082840312156157be57600080fd5b81356119b881615324565b6020808252602b908201527f496e697469616c697a61626c653a20636f6e7472616374206973206e6f74206960408201526a6e697469616c697a696e6760a81b606082015260800190565b600081600019048311821515161561582e5761582e6152f3565b500290565b634e487b7160e01b600052604160045260246000fd5b600081615858576158586152f3565b506000190190565b60008261587d57634e487b7160e01b600052601260045260246000fd5b500490565b600082821015615894576158946152f3565b500390565b634e487b7160e01b600052603160045260246000fd5b600082516158c1818460208701615426565b919091019291505056fe34d5e892b0a7ec1561fc4a5fdcb31b798cf623590906b938d356c9619e539958a26469706673582212202533b967a93e37236c6b1ebc71c06224473f9c64b2db5f5c3d7b0801ff60d23164736f6c634300080c0033",
  "devdoc": {
    "details": "This contract does not store any tokens at any time, it's only collects details \"the sale\" and approvals         from both parties and preforms non-custodial transaction by transfering NFT from owner to buying and payment         token from buying to NFT owner.",
    "events": {
      "ItemCanceled(address,address,uint256)": {
        "params": {
          "nftAddress": "which token contract holds the formerly offered token",
          "seller": "former offeror of the item",
          "tokenId": "the identifier for the formerly offered token"
        }
      },
      "ItemListed(address,address,uint256,uint64,uint128,uint64,address)": {
        "params": {
          "expirationTime": "UNIX timestamp after when this listing expires",
          "nftAddress": "which token contract holds the offered token",
          "paymentToken": "the token used to list this item",
          "pricePerItem": "the price (in units of the paymentToken) for each token offered",
          "quantity": "how many of this token identifier are offered (or 1 for a ERC-721 token)",
          "seller": "the offeror of the item",
          "tokenId": "the identifier for the offered token"
        }
      },
      "ItemSold(address,address,address,uint256,uint64,uint128,address)": {
        "params": {
          "buyer": "the buyer of the item",
          "nftAddress": "which token contract holds the sold token",
          "paymentToken": "the payment token that was used to pay for this item",
          "pricePerItem": "the price (in units of the paymentToken) for each token sold",
          "quantity": "how many of this token identifier where sold (or 1 for a ERC-721 token)",
          "seller": "the offeror of the item",
          "tokenId": "the identifier for the sold token"
        }
      },
      "ItemUpdated(address,address,uint256,uint64,uint128,uint64,address)": {
        "params": {
          "expirationTime": "UNIX timestamp after when this listing expires",
          "nftAddress": "which token contract holds the offered token",
          "paymentToken": "the token used to list this item",
          "pricePerItem": "the price (in units of the paymentToken) for each token offered",
          "quantity": "how many of this token identifier are offered (or 1 for a ERC-721 token)",
          "seller": "the offeror of the item",
          "tokenId": "the identifier for the offered token"
        }
      },
      "TokenApprovalStatusUpdated(address,uint8,address)": {
        "params": {
          "nft": "which token contract was updated",
          "paymentToken": "the token that will be used for payments for this collection",
          "status": "the new status"
        }
      },
      "UpdateCollectionOwnerFee(address,address,uint256)": {
        "params": {
          "_collection": "The collection",
          "_fee": "The fee amount (in units of basis points)",
          "_recipient": "The recipient of the fees. If the address is 0, the collection fees for this collection have been removed."
        }
      },
      "UpdateFee(uint256)": {
        "params": {
          "fee": "new fee amount (in units of basis points)"
        }
      },
      "UpdateFeeRecipient(address)": {
        "params": {
          "feeRecipient": "the new recipient to get fees"
        }
      },
      "UpdateFeeWithCollectionOwner(uint256)": {
        "params": {
          "fee": "new fee amount (in units of basis points)"
        }
      },
      "UpdateSalesTracker(address)": {
        "params": {
          "_priceTrackerAddress": "the new address to call for sales price tracking"
        }
      }
    },
    "kind": "dev",
    "methods": {
      "cancelListing(address,uint256)": {
        "params": {
          "_nftAddress": "which token contract holds the offered token",
          "_tokenId": "the identifier for the offered token"
        }
      },
      "constructor": {
        "custom:oz-upgrades-unsafe-allow": "constructor"
      },
      "createListing(address,uint256,uint64,uint128,uint64,address)": {
        "params": {
          "_expirationTime": "UNIX timestamp after when this listing expires",
          "_nftAddress": "which token contract holds the offered token",
          "_pricePerItem": "the price (in units of the paymentToken) for each token offered",
          "_quantity": "how many of this token identifier are offered (or 1 for a ERC-721 token)",
          "_tokenId": "the identifier for the offered token"
        }
      },
      "getRoleAdmin(bytes32)": {
        "details": "Returns the admin role that controls `role`. See {grantRole} and {revokeRole}. To change a role's admin, use {_setRoleAdmin}."
      },
      "getRoleMember(bytes32,uint256)": {
        "details": "Returns one of the accounts that have `role`. `index` must be a value between 0 and {getRoleMemberCount}, non-inclusive. Role bearers are not sorted in any particular way, and their ordering may change at any point. WARNING: When using {getRoleMember} and {getRoleMemberCount}, make sure you perform all queries on the same block. See the following https://forum.openzeppelin.com/t/iterating-over-elements-on-enumerableset-in-openzeppelin-contracts/2296[forum post] for more information."
      },
      "getRoleMemberCount(bytes32)": {
        "details": "Returns the number of accounts that have `role`. Can be used together with {getRoleMember} to enumerate all bearers of a role."
      },
      "grantRole(bytes32,address)": {
        "details": "Grants `role` to `account`. If `account` had not been already granted `role`, emits a {RoleGranted} event. Requirements: - the caller must have ``role``'s admin role."
      },
      "hasRole(bytes32,address)": {
        "details": "Returns `true` if `account` has been granted `role`."
      },
      "initialize(uint256,address,address)": {
        "details": "The initializer modifier ensures this is only called once, the owner should confirm this was properly         performed before publishing this contract address.",
        "params": {
          "_initialFee": "fee to be paid on each sale, in basis points",
          "_initialFeeRecipient": "wallet to collets fees",
          "_initialPaymentToken": "address of the token that is used for settlement"
        }
      },
      "pause()": {
        "details": "This is callable only by the owner. Canceling listings is not paused."
      },
      "paused()": {
        "details": "Returns true if the contract is paused, and false otherwise."
      },
      "renounceRole(bytes32,address)": {
        "details": "Revokes `role` from the calling account. Roles are often managed via {grantRole} and {revokeRole}: this function's purpose is to provide a mechanism for accounts to lose their privileges if they are compromised (such as when a trusted device is misplaced). If the calling account had been revoked `role`, emits a {RoleRevoked} event. Requirements: - the caller must be `account`."
      },
      "revokeRole(bytes32,address)": {
        "details": "Revokes `role` from `account`. If `account` had been granted `role`, emits a {RoleRevoked} event. Requirements: - the caller must have ``role``'s admin role."
      },
      "setCollectionOwnerFee(address,(uint32,address))": {
        "details": "This is callable only by the owner",
        "params": {
          "_collectionAddress": "The collection in question. This must be whitelisted.",
          "_collectionOwnerFee": "The fee and recipient for the collection. If the 0 address is passed as the recipient, collection specific fees will not be collected."
        }
      },
      "setFee(uint256,uint256)": {
        "details": "This is callable only by the owner. Both fees may not exceed MAX_FEE",
        "params": {
          "_newFee": "the updated fee amount is basis points"
        }
      },
      "setFeeRecipient(address)": {
        "details": "This is callable only by the owner.",
        "params": {
          "_newFeeRecipient": "the wallet to receive fees"
        }
      },
      "setPriceTracker(address)": {
        "details": "This is callable only by the owner.",
        "params": {
          "_priceTrackerAddress": "the wallet to receive fees"
        }
      },
      "setTokenApprovalStatus(address,uint8,address)": {
        "details": "This is callable only by the owner.",
        "params": {
          "_nft": "address of the NFT to be approved",
          "_status": "the kind of NFT approved, or NOT_APPROVED to remove approval"
        }
      },
      "supportsInterface(bytes4)": {
        "details": "See {IERC165-supportsInterface}."
      },
      "unpause()": {
        "details": "This is callable only by the owner."
      },
      "updateListing(address,uint256,uint64,uint128,uint64,address)": {
        "params": {
          "_newExpirationTime": "UNIX timestamp after when this listing expires",
          "_newPricePerItem": "the price (in units of the paymentToken) for each token offered",
          "_newQuantity": "how many of this token identifier are offered (or 1 for a ERC-721 token)",
          "_nftAddress": "which token contract holds the offered token",
          "_tokenId": "the identifier for the offered token"
        }
      }
    },
    "title": "Treasure NFT marketplace",
    "version": 1
  },
  "userdoc": {
    "events": {
      "ItemCanceled(address,address,uint256)": {
        "notice": "An item is no longer listed for sale"
      },
      "ItemListed(address,address,uint256,uint64,uint128,uint64,address)": {
        "notice": "An item was listed for sale"
      },
      "ItemSold(address,address,address,uint256,uint64,uint128,address)": {
        "notice": "A listed item was sold"
      },
      "ItemUpdated(address,address,uint256,uint64,uint128,uint64,address)": {
        "notice": "An item listing was updated"
      },
      "TokenApprovalStatusUpdated(address,uint8,address)": {
        "notice": "The approval status for a token was updated"
      },
      "UpdateCollectionOwnerFee(address,address,uint256)": {
        "notice": "A collection's fees have changed"
      },
      "UpdateFee(uint256)": {
        "notice": "The fee portion was updated"
      },
      "UpdateFeeRecipient(address)": {
        "notice": "The fee recipient was updated"
      },
      "UpdateFeeWithCollectionOwner(uint256)": {
        "notice": "The fee portion was updated for collections that have a collection owner."
      },
      "UpdateSalesTracker(address)": {
        "notice": "The sales tracker contract was update"
      }
    },
    "kind": "user",
    "methods": {
      "BASIS_POINTS()": {
        "notice": "the denominator for portion calculation, i.e. how many basis points are in 100%"
      },
      "MAX_COLLECTION_FEE()": {
        "notice": "the maximum fee which the collection owner may set"
      },
      "MAX_FEE()": {
        "notice": "the maximum fee which the owner may set (in units of basis points)"
      },
      "MIN_PRICE()": {
        "notice": "the minimum price for which any item can be sold"
      },
      "TREASURE_MARKETPLACE_ADMIN_ROLE()": {
        "notice": "TREASURE_MARKETPLACE_ADMIN_ROLE role hash"
      },
      "areBidsActive()": {
        "notice": "Indicates if bid related functions are active."
      },
      "buyItems((address,uint256,address,uint64,uint128,address,bool)[])": {
        "notice": "Buy multiple listed items. You must authorize this marketplace with your payment token to completed the buy or purchase with eth if it is a weth collection."
      },
      "cancelListing(address,uint256)": {
        "notice": "Remove an item listing"
      },
      "collectionBids(address,address)": {
        "notice": "mapping for collection level bids (721 only): nftAddress => offeror"
      },
      "collectionToCollectionOwnerFee(address)": {
        "notice": "Maps the collection address to the fees which the collection owner collects. Some collections may not have a seperate fee, such as those owned by the Treasure DAO."
      },
      "collectionToPaymentToken(address)": {
        "notice": "Maps the collection address to the payment token that will be used for purchasing. If the address is the zero address, it will use the default paymentToken."
      },
      "createListing(address,uint256,uint64,uint128,uint64,address)": {
        "notice": "Creates an item listing. You must authorize this marketplace with your item's token contract to list."
      },
      "createOrUpdateListings((address,uint256,uint64,uint128,uint64,address)[])": {
        "notice": "Create or update multiple listings."
      },
      "createOrUpdateTokenBid(address,uint256,uint64,uint128,uint64,address)": {
        "notice": "Creates a bid for a particular token."
      },
      "fee()": {
        "notice": "fee portion (in basis points) for each sale, (e.g. a value of 100 is 100/10000 = 1%). This is the fee if no collection owner fee is set."
      },
      "feeReceipient()": {
        "notice": "address that receives fees"
      },
      "feeWithCollectionOwner()": {
        "notice": "fee portion (in basis points) for each sale. This is used if a separate fee has been set for the collection owner."
      },
      "initialize(uint256,address,address)": {
        "notice": "Perform initial contract setup"
      },
      "listings(address,uint256,address)": {
        "notice": "mapping for listings, maps: nftAddress => tokenId => offeror"
      },
      "pause()": {
        "notice": "Pauses the marketplace, creatisgn and executing listings is paused"
      },
      "paymentToken()": {
        "notice": "the default token that is used for marketplace sales and fee payments. Can be overridden by collectionToTokenAddress."
      },
      "priceTrackerAddress()": {
        "notice": "Address of the contract that tracks sales and prices of collections."
      },
      "setCollectionOwnerFee(address,(uint32,address))": {
        "notice": "Updates the fee amount which is collected during sales fro a specific collection"
      },
      "setFee(uint256,uint256)": {
        "notice": "Updates the fee amount which is collected during sales, for both collections with and without owner specific fees."
      },
      "setFeeRecipient(address)": {
        "notice": "Updates the fee recipient which receives fees during sales"
      },
      "setPriceTracker(address)": {
        "notice": "Updates the fee recipient which receives fees during sales"
      },
      "setTokenApprovalStatus(address,uint8,address)": {
        "notice": "Sets a token as an approved kind of NFT or as ineligible for trading"
      },
      "tokenApprovals(address)": {
        "notice": "NFTs which the owner has approved to be sold on the marketplace, maps: nftAddress => status"
      },
      "tokenBids(address,uint256,address)": {
        "notice": "mapping for token bids (721/1155): nftAddress => tokneId => offeror"
      },
      "unpause()": {
        "notice": "Unpauses the marketplace, all functionality is restored"
      },
      "updateListing(address,uint256,uint64,uint128,uint64,address)": {
        "notice": "Updates an item listing"
      },
      "weth()": {
        "notice": "The address for weth."
      }
    },
    "notice": "This contract allows you to buy and sell NFTs from token contracts that are approved by the contract owner.         Please note that this contract is upgradeable. In the event of a compromised ProxyAdmin contract owner,         collectable tokens and payments may be at risk. To prevent this, the ProxyAdmin is owned by a multi-sig         governed by the TreasureDAO council.",
    "version": 1
  },
  "storageLayout": {
    "storage": [
      {
        "astId": 705,
        "contract": "contracts/TreasureMarketplaceTestnet.sol:TreasureMarketplaceTestnet",
        "label": "_initialized",
        "offset": 0,
        "slot": "0",
        "type": "t_bool"
      },
      {
        "astId": 708,
        "contract": "contracts/TreasureMarketplaceTestnet.sol:TreasureMarketplaceTestnet",
        "label": "_initializing",
        "offset": 1,
        "slot": "0",
        "type": "t_bool"
      },
      {
        "astId": 1766,
        "contract": "contracts/TreasureMarketplaceTestnet.sol:TreasureMarketplaceTestnet",
        "label": "__gap",
        "offset": 0,
        "slot": "1",
        "type": "t_array(t_uint256)50_storage"
      },
      {
        "astId": 2013,
        "contract": "contracts/TreasureMarketplaceTestnet.sol:TreasureMarketplaceTestnet",
        "label": "__gap",
        "offset": 0,
        "slot": "51",
        "type": "t_array(t_uint256)50_storage"
      },
      {
        "astId": 184,
        "contract": "contracts/TreasureMarketplaceTestnet.sol:TreasureMarketplaceTestnet",
        "label": "_roles",
        "offset": 0,
        "slot": "101",
        "type": "t_mapping(t_bytes32,t_struct(RoleData)179_storage)"
      },
      {
        "astId": 472,
        "contract": "contracts/TreasureMarketplaceTestnet.sol:TreasureMarketplaceTestnet",
        "label": "__gap",
        "offset": 0,
        "slot": "102",
        "type": "t_array(t_uint256)49_storage"
      },
      {
        "astId": 33,
        "contract": "contracts/TreasureMarketplaceTestnet.sol:TreasureMarketplaceTestnet",
        "label": "_roleMembers",
        "offset": 0,
        "slot": "151",
        "type": "t_mapping(t_bytes32,t_struct(AddressSet)2338_storage)"
      },
      {
        "astId": 143,
        "contract": "contracts/TreasureMarketplaceTestnet.sol:TreasureMarketplaceTestnet",
        "label": "__gap",
        "offset": 0,
        "slot": "152",
        "type": "t_array(t_uint256)49_storage"
      },
      {
        "astId": 793,
        "contract": "contracts/TreasureMarketplaceTestnet.sol:TreasureMarketplaceTestnet",
        "label": "_paused",
        "offset": 0,
        "slot": "201",
        "type": "t_bool"
      },
      {
        "astId": 882,
        "contract": "contracts/TreasureMarketplaceTestnet.sol:TreasureMarketplaceTestnet",
        "label": "__gap",
        "offset": 0,
        "slot": "202",
        "type": "t_array(t_uint256)49_storage"
      },
      {
        "astId": 897,
        "contract": "contracts/TreasureMarketplaceTestnet.sol:TreasureMarketplaceTestnet",
        "label": "_status",
        "offset": 0,
        "slot": "251",
        "type": "t_uint256"
      },
      {
        "astId": 941,
        "contract": "contracts/TreasureMarketplaceTestnet.sol:TreasureMarketplaceTestnet",
        "label": "__gap",
        "offset": 0,
        "slot": "252",
        "type": "t_array(t_uint256)49_storage"
      },
      {
        "astId": 2705,
        "contract": "contracts/TreasureMarketplaceTestnet.sol:TreasureMarketplaceTestnet",
        "label": "paymentToken",
        "offset": 0,
        "slot": "301",
        "type": "t_contract(IERC20Upgradeable)1142"
      },
      {
        "astId": 2708,
        "contract": "contracts/TreasureMarketplaceTestnet.sol:TreasureMarketplaceTestnet",
        "label": "fee",
        "offset": 0,
        "slot": "302",
        "type": "t_uint256"
      },
      {
        "astId": 2711,
        "contract": "contracts/TreasureMarketplaceTestnet.sol:TreasureMarketplaceTestnet",
        "label": "feeReceipient",
        "offset": 0,
        "slot": "303",
        "type": "t_address"
      },
      {
        "astId": 2721,
        "contract": "contracts/TreasureMarketplaceTestnet.sol:TreasureMarketplaceTestnet",
        "label": "listings",
        "offset": 0,
        "slot": "304",
        "type": "t_mapping(t_address,t_mapping(t_uint256,t_mapping(t_address,t_struct(ListingOrBid)2661_storage)))"
      },
      {
        "astId": 2727,
        "contract": "contracts/TreasureMarketplaceTestnet.sol:TreasureMarketplaceTestnet",
        "label": "tokenApprovals",
        "offset": 0,
        "slot": "305",
        "type": "t_mapping(t_address,t_enum(TokenApprovalStatus)2672)"
      },
      {
        "astId": 2730,
        "contract": "contracts/TreasureMarketplaceTestnet.sol:TreasureMarketplaceTestnet",
        "label": "feeWithCollectionOwner",
        "offset": 0,
        "slot": "306",
        "type": "t_uint256"
      },
      {
        "astId": 2736,
        "contract": "contracts/TreasureMarketplaceTestnet.sol:TreasureMarketplaceTestnet",
        "label": "collectionToCollectionOwnerFee",
        "offset": 0,
        "slot": "307",
        "type": "t_mapping(t_address,t_struct(CollectionOwnerFee)2668_storage)"
      },
      {
        "astId": 2741,
        "contract": "contracts/TreasureMarketplaceTestnet.sol:TreasureMarketplaceTestnet",
        "label": "collectionToPaymentToken",
        "offset": 0,
        "slot": "308",
        "type": "t_mapping(t_address,t_address)"
      },
      {
        "astId": 2745,
        "contract": "contracts/TreasureMarketplaceTestnet.sol:TreasureMarketplaceTestnet",
        "label": "weth",
        "offset": 0,
        "slot": "309",
        "type": "t_contract(IERC20Upgradeable)1142"
      },
      {
        "astId": 2755,
        "contract": "contracts/TreasureMarketplaceTestnet.sol:TreasureMarketplaceTestnet",
        "label": "tokenBids",
        "offset": 0,
        "slot": "310",
        "type": "t_mapping(t_address,t_mapping(t_uint256,t_mapping(t_address,t_struct(ListingOrBid)2661_storage)))"
      },
      {
        "astId": 2763,
        "contract": "contracts/TreasureMarketplaceTestnet.sol:TreasureMarketplaceTestnet",
        "label": "collectionBids",
        "offset": 0,
        "slot": "311",
        "type": "t_mapping(t_address,t_mapping(t_address,t_struct(ListingOrBid)2661_storage))"
      },
      {
        "astId": 2766,
        "contract": "contracts/TreasureMarketplaceTestnet.sol:TreasureMarketplaceTestnet",
        "label": "areBidsActive",
        "offset": 0,
        "slot": "312",
        "type": "t_bool"
      },
      {
        "astId": 2769,
        "contract": "contracts/TreasureMarketplaceTestnet.sol:TreasureMarketplaceTestnet",
        "label": "priceTrackerAddress",
        "offset": 1,
        "slot": "312",
        "type": "t_address"
      }
    ],
    "types": {
      "t_address": {
        "encoding": "inplace",
        "label": "address",
        "numberOfBytes": "20"
      },
      "t_array(t_bytes32)dyn_storage": {
        "base": "t_bytes32",
        "encoding": "dynamic_array",
        "label": "bytes32[]",
        "numberOfBytes": "32"
      },
      "t_array(t_uint256)49_storage": {
        "base": "t_uint256",
        "encoding": "inplace",
        "label": "uint256[49]",
        "numberOfBytes": "1568"
      },
      "t_array(t_uint256)50_storage": {
        "base": "t_uint256",
        "encoding": "inplace",
        "label": "uint256[50]",
        "numberOfBytes": "1600"
      },
      "t_bool": {
        "encoding": "inplace",
        "label": "bool",
        "numberOfBytes": "1"
      },
      "t_bytes32": {
        "encoding": "inplace",
        "label": "bytes32",
        "numberOfBytes": "32"
      },
      "t_contract(IERC20Upgradeable)1142": {
        "encoding": "inplace",
        "label": "contract IERC20Upgradeable",
        "numberOfBytes": "20"
      },
      "t_enum(TokenApprovalStatus)2672": {
        "encoding": "inplace",
        "label": "enum TreasureMarketplaceTestnet.TokenApprovalStatus",
        "numberOfBytes": "1"
      },
      "t_mapping(t_address,t_address)": {
        "encoding": "mapping",
        "key": "t_address",
        "label": "mapping(address => address)",
        "numberOfBytes": "32",
        "value": "t_address"
      },
      "t_mapping(t_address,t_bool)": {
        "encoding": "mapping",
        "key": "t_address",
        "label": "mapping(address => bool)",
        "numberOfBytes": "32",
        "value": "t_bool"
      },
      "t_mapping(t_address,t_enum(TokenApprovalStatus)2672)": {
        "encoding": "mapping",
        "key": "t_address",
        "label": "mapping(address => enum TreasureMarketplaceTestnet.TokenApprovalStatus)",
        "numberOfBytes": "32",
        "value": "t_enum(TokenApprovalStatus)2672"
      },
      "t_mapping(t_address,t_mapping(t_address,t_struct(ListingOrBid)2661_storage))": {
        "encoding": "mapping",
        "key": "t_address",
        "label": "mapping(address => mapping(address => struct TreasureMarketplaceTestnet.ListingOrBid))",
        "numberOfBytes": "32",
        "value": "t_mapping(t_address,t_struct(ListingOrBid)2661_storage)"
      },
      "t_mapping(t_address,t_mapping(t_uint256,t_mapping(t_address,t_struct(ListingOrBid)2661_storage)))": {
        "encoding": "mapping",
        "key": "t_address",
        "label": "mapping(address => mapping(uint256 => mapping(address => struct TreasureMarketplaceTestnet.ListingOrBid)))",
        "numberOfBytes": "32",
        "value": "t_mapping(t_uint256,t_mapping(t_address,t_struct(ListingOrBid)2661_storage))"
      },
      "t_mapping(t_address,t_struct(CollectionOwnerFee)2668_storage)": {
        "encoding": "mapping",
        "key": "t_address",
        "label": "mapping(address => struct TreasureMarketplaceTestnet.CollectionOwnerFee)",
        "numberOfBytes": "32",
        "value": "t_struct(CollectionOwnerFee)2668_storage"
      },
      "t_mapping(t_address,t_struct(ListingOrBid)2661_storage)": {
        "encoding": "mapping",
        "key": "t_address",
        "label": "mapping(address => struct TreasureMarketplaceTestnet.ListingOrBid)",
        "numberOfBytes": "32",
        "value": "t_struct(ListingOrBid)2661_storage"
      },
      "t_mapping(t_bytes32,t_struct(AddressSet)2338_storage)": {
        "encoding": "mapping",
        "key": "t_bytes32",
        "label": "mapping(bytes32 => struct EnumerableSetUpgradeable.AddressSet)",
        "numberOfBytes": "32",
        "value": "t_struct(AddressSet)2338_storage"
      },
      "t_mapping(t_bytes32,t_struct(RoleData)179_storage)": {
        "encoding": "mapping",
        "key": "t_bytes32",
        "label": "mapping(bytes32 => struct AccessControlUpgradeable.RoleData)",
        "numberOfBytes": "32",
        "value": "t_struct(RoleData)179_storage"
      },
      "t_mapping(t_bytes32,t_uint256)": {
        "encoding": "mapping",
        "key": "t_bytes32",
        "label": "mapping(bytes32 => uint256)",
        "numberOfBytes": "32",
        "value": "t_uint256"
      },
      "t_mapping(t_uint256,t_mapping(t_address,t_struct(ListingOrBid)2661_storage))": {
        "encoding": "mapping",
        "key": "t_uint256",
        "label": "mapping(uint256 => mapping(address => struct TreasureMarketplaceTestnet.ListingOrBid))",
        "numberOfBytes": "32",
        "value": "t_mapping(t_address,t_struct(ListingOrBid)2661_storage)"
      },
      "t_struct(AddressSet)2338_storage": {
        "encoding": "inplace",
        "label": "struct EnumerableSetUpgradeable.AddressSet",
        "members": [
          {
            "astId": 2337,
            "contract": "contracts/TreasureMarketplaceTestnet.sol:TreasureMarketplaceTestnet",
            "label": "_inner",
            "offset": 0,
            "slot": "0",
            "type": "t_struct(Set)2037_storage"
          }
        ],
        "numberOfBytes": "64"
      },
      "t_struct(CollectionOwnerFee)2668_storage": {
        "encoding": "inplace",
        "label": "struct TreasureMarketplaceTestnet.CollectionOwnerFee",
        "members": [
          {
            "astId": 2664,
            "contract": "contracts/TreasureMarketplaceTestnet.sol:TreasureMarketplaceTestnet",
            "label": "fee",
            "offset": 0,
            "slot": "0",
            "type": "t_uint32"
          },
          {
            "astId": 2667,
            "contract": "contracts/TreasureMarketplaceTestnet.sol:TreasureMarketplaceTestnet",
            "label": "recipient",
            "offset": 4,
            "slot": "0",
            "type": "t_address"
          }
        ],
        "numberOfBytes": "32"
      },
      "t_struct(ListingOrBid)2661_storage": {
        "encoding": "inplace",
        "label": "struct TreasureMarketplaceTestnet.ListingOrBid",
        "members": [
          {
            "astId": 2651,
            "contract": "contracts/TreasureMarketplaceTestnet.sol:TreasureMarketplaceTestnet",
            "label": "quantity",
            "offset": 0,
            "slot": "0",
            "type": "t_uint64"
          },
          {
            "astId": 2654,
            "contract": "contracts/TreasureMarketplaceTestnet.sol:TreasureMarketplaceTestnet",
            "label": "pricePerItem",
            "offset": 8,
            "slot": "0",
            "type": "t_uint128"
          },
          {
            "astId": 2657,
            "contract": "contracts/TreasureMarketplaceTestnet.sol:TreasureMarketplaceTestnet",
            "label": "expirationTime",
            "offset": 24,
            "slot": "0",
            "type": "t_uint64"
          },
          {
            "astId": 2660,
            "contract": "contracts/TreasureMarketplaceTestnet.sol:TreasureMarketplaceTestnet",
            "label": "paymentTokenAddress",
            "offset": 0,
            "slot": "1",
            "type": "t_address"
          }
        ],
        "numberOfBytes": "64"
      },
      "t_struct(RoleData)179_storage": {
        "encoding": "inplace",
        "label": "struct AccessControlUpgradeable.RoleData",
        "members": [
          {
            "astId": 176,
            "contract": "contracts/TreasureMarketplaceTestnet.sol:TreasureMarketplaceTestnet",
            "label": "members",
            "offset": 0,
            "slot": "0",
            "type": "t_mapping(t_address,t_bool)"
          },
          {
            "astId": 178,
            "contract": "contracts/TreasureMarketplaceTestnet.sol:TreasureMarketplaceTestnet",
            "label": "adminRole",
            "offset": 0,
            "slot": "1",
            "type": "t_bytes32"
          }
        ],
        "numberOfBytes": "64"
      },
      "t_struct(Set)2037_storage": {
        "encoding": "inplace",
        "label": "struct EnumerableSetUpgradeable.Set",
        "members": [
          {
            "astId": 2032,
            "contract": "contracts/TreasureMarketplaceTestnet.sol:TreasureMarketplaceTestnet",
            "label": "_values",
            "offset": 0,
            "slot": "0",
            "type": "t_array(t_bytes32)dyn_storage"
          },
          {
            "astId": 2036,
            "contract": "contracts/TreasureMarketplaceTestnet.sol:TreasureMarketplaceTestnet",
            "label": "_indexes",
            "offset": 0,
            "slot": "1",
            "type": "t_mapping(t_bytes32,t_uint256)"
          }
        ],
        "numberOfBytes": "64"
      },
      "t_uint128": {
        "encoding": "inplace",
        "label": "uint128",
        "numberOfBytes": "16"
      },
      "t_uint256": {
        "encoding": "inplace",
        "label": "uint256",
        "numberOfBytes": "32"
      },
      "t_uint32": {
        "encoding": "inplace",
        "label": "uint32",
        "numberOfBytes": "4"
      },
      "t_uint64": {
        "encoding": "inplace",
        "label": "uint64",
        "numberOfBytes": "8"
      }
    }
  }
}