{
  "address": "0x2E3b85F85628301a0Bce300Dee3A6B04195A15Ee",
  "abi": [
    {
      "inputs": [
        {
          "internalType": "uint256",
          "name": "_fee",
          "type": "uint256"
        },
        {
          "internalType": "address",
          "name": "_feeRecipient",
          "type": "address"
        },
        {
          "internalType": "address",
          "name": "_oracle",
          "type": "address"
        },
        {
          "internalType": "address",
          "name": "_paymentToken",
          "type": "address"
        }
      ],
      "stateMutability": "nonpayable",
      "type": "constructor"
    },
    {
      "anonymous": false,
      "inputs": [
        {
          "indexed": false,
          "internalType": "address",
          "name": "seller",
          "type": "address"
        },
        {
          "indexed": false,
          "internalType": "address",
          "name": "nftAddress",
          "type": "address"
        },
        {
          "indexed": false,
          "internalType": "uint256",
          "name": "tokenId",
          "type": "uint256"
        }
      ],
      "name": "ItemCanceled",
      "type": "event"
    },
    {
      "anonymous": false,
      "inputs": [
        {
          "indexed": false,
          "internalType": "address",
          "name": "seller",
          "type": "address"
        },
        {
          "indexed": false,
          "internalType": "address",
          "name": "nftAddress",
          "type": "address"
        },
        {
          "indexed": false,
          "internalType": "uint256",
          "name": "tokenId",
          "type": "uint256"
        },
        {
          "indexed": false,
          "internalType": "uint256",
          "name": "quantity",
          "type": "uint256"
        },
        {
          "indexed": false,
          "internalType": "uint256",
          "name": "pricePerItem",
          "type": "uint256"
        },
        {
          "indexed": false,
          "internalType": "uint256",
          "name": "expirationTime",
          "type": "uint256"
        }
      ],
      "name": "ItemListed",
      "type": "event"
    },
    {
      "anonymous": false,
      "inputs": [
        {
          "indexed": false,
          "internalType": "address",
          "name": "seller",
          "type": "address"
        },
        {
          "indexed": false,
          "internalType": "address",
          "name": "buyer",
          "type": "address"
        },
        {
          "indexed": false,
          "internalType": "address",
          "name": "nftAddress",
          "type": "address"
        },
        {
          "indexed": false,
          "internalType": "uint256",
          "name": "tokenId",
          "type": "uint256"
        },
        {
          "indexed": false,
          "internalType": "uint256",
          "name": "quantity",
          "type": "uint256"
        },
        {
          "indexed": false,
          "internalType": "uint256",
          "name": "pricePerItem",
          "type": "uint256"
        }
      ],
      "name": "ItemSold",
      "type": "event"
    },
    {
      "anonymous": false,
      "inputs": [
        {
          "indexed": false,
          "internalType": "address",
          "name": "seller",
          "type": "address"
        },
        {
          "indexed": false,
          "internalType": "address",
          "name": "nftAddress",
          "type": "address"
        },
        {
          "indexed": false,
          "internalType": "uint256",
          "name": "tokenId",
          "type": "uint256"
        },
        {
          "indexed": false,
          "internalType": "uint256",
          "name": "quantity",
          "type": "uint256"
        },
        {
          "indexed": false,
          "internalType": "uint256",
          "name": "pricePerItem",
          "type": "uint256"
        },
        {
          "indexed": false,
          "internalType": "uint256",
          "name": "expirationTime",
          "type": "uint256"
        }
      ],
      "name": "ItemUpdated",
      "type": "event"
    },
    {
      "anonymous": false,
      "inputs": [
        {
          "indexed": false,
          "internalType": "address",
          "name": "nft",
          "type": "address"
        }
      ],
      "name": "NftWhitelistAdd",
      "type": "event"
    },
    {
      "anonymous": false,
      "inputs": [
        {
          "indexed": false,
          "internalType": "address",
          "name": "nft",
          "type": "address"
        }
      ],
      "name": "NftWhitelistRemove",
      "type": "event"
    },
    {
      "anonymous": false,
      "inputs": [
        {
          "indexed": true,
          "internalType": "address",
          "name": "previousOwner",
          "type": "address"
        },
        {
          "indexed": true,
          "internalType": "address",
          "name": "newOwner",
          "type": "address"
        }
      ],
      "name": "OwnershipTransferred",
      "type": "event"
    },
    {
      "anonymous": false,
      "inputs": [
        {
          "indexed": false,
          "internalType": "uint256",
          "name": "fee",
          "type": "uint256"
        }
      ],
      "name": "UpdateFee",
      "type": "event"
    },
    {
      "anonymous": false,
      "inputs": [
        {
          "indexed": false,
          "internalType": "address",
          "name": "feeRecipient",
          "type": "address"
        }
      ],
      "name": "UpdateFeeRecipient",
      "type": "event"
    },
    {
      "anonymous": false,
      "inputs": [
        {
          "indexed": false,
          "internalType": "address",
          "name": "oracle",
          "type": "address"
        }
      ],
      "name": "UpdateOracle",
      "type": "event"
    },
    {
      "anonymous": false,
      "inputs": [
        {
          "indexed": false,
          "internalType": "address",
          "name": "paymentToken",
          "type": "address"
        }
      ],
      "name": "UpdatePaymentToken",
      "type": "event"
    },
    {
      "inputs": [],
      "name": "BASIS_POINTS",
      "outputs": [
        {
          "internalType": "uint256",
          "name": "",
          "type": "uint256"
        }
      ],
      "stateMutability": "view",
      "type": "function"
    },
    {
      "inputs": [
        {
          "internalType": "address",
          "name": "_nft",
          "type": "address"
        }
      ],
      "name": "addToWhitelist",
      "outputs": [],
      "stateMutability": "nonpayable",
      "type": "function"
    },
    {
      "inputs": [
        {
          "internalType": "address",
          "name": "_nftAddress",
          "type": "address"
        },
        {
          "internalType": "uint256",
          "name": "_tokenId",
          "type": "uint256"
        },
        {
          "internalType": "address",
          "name": "_owner",
          "type": "address"
        },
        {
          "internalType": "uint256",
          "name": "_quantity",
          "type": "uint256"
        }
      ],
      "name": "buyItem",
      "outputs": [],
      "stateMutability": "nonpayable",
      "type": "function"
    },
    {
      "inputs": [
        {
          "internalType": "address",
          "name": "_nftAddress",
          "type": "address"
        },
        {
          "internalType": "uint256",
          "name": "_tokenId",
          "type": "uint256"
        }
      ],
      "name": "cancelListing",
      "outputs": [],
      "stateMutability": "nonpayable",
      "type": "function"
    },
    {
      "inputs": [
        {
          "internalType": "address",
          "name": "_nftAddress",
          "type": "address"
        },
        {
          "internalType": "uint256",
          "name": "_tokenId",
          "type": "uint256"
        },
        {
          "internalType": "uint256",
          "name": "_quantity",
          "type": "uint256"
        },
        {
          "internalType": "uint256",
          "name": "_pricePerItem",
          "type": "uint256"
        },
        {
          "internalType": "uint256",
          "name": "_expirationTime",
          "type": "uint256"
        }
      ],
      "name": "createListing",
      "outputs": [],
      "stateMutability": "nonpayable",
      "type": "function"
    },
    {
      "inputs": [],
      "name": "fee",
      "outputs": [
        {
          "internalType": "uint256",
          "name": "",
          "type": "uint256"
        }
      ],
      "stateMutability": "view",
      "type": "function"
    },
    {
      "inputs": [],
      "name": "feeReceipient",
      "outputs": [
        {
          "internalType": "address",
          "name": "",
          "type": "address"
        }
      ],
      "stateMutability": "view",
      "type": "function"
    },
    {
      "inputs": [
        {
          "internalType": "address",
          "name": "",
          "type": "address"
        },
        {
          "internalType": "uint256",
          "name": "",
          "type": "uint256"
        },
        {
          "internalType": "address",
          "name": "",
          "type": "address"
        }
      ],
      "name": "listings",
      "outputs": [
        {
          "internalType": "uint256",
          "name": "quantity",
          "type": "uint256"
        },
        {
          "internalType": "uint256",
          "name": "pricePerItem",
          "type": "uint256"
        },
        {
          "internalType": "uint256",
          "name": "expirationTime",
          "type": "uint256"
        }
      ],
      "stateMutability": "view",
      "type": "function"
    },
    {
      "inputs": [
        {
          "internalType": "address",
          "name": "",
          "type": "address"
        }
      ],
      "name": "nftWhitelist",
      "outputs": [
        {
          "internalType": "bool",
          "name": "",
          "type": "bool"
        }
      ],
      "stateMutability": "view",
      "type": "function"
    },
    {
      "inputs": [],
      "name": "oracle",
      "outputs": [
        {
          "internalType": "address",
          "name": "",
          "type": "address"
        }
      ],
      "stateMutability": "view",
      "type": "function"
    },
    {
      "inputs": [],
      "name": "owner",
      "outputs": [
        {
          "internalType": "address",
          "name": "",
          "type": "address"
        }
      ],
      "stateMutability": "view",
      "type": "function"
    },
    {
      "inputs": [],
      "name": "paymentToken",
      "outputs": [
        {
          "internalType": "address",
          "name": "",
          "type": "address"
        }
      ],
      "stateMutability": "view",
      "type": "function"
    },
    {
      "inputs": [
        {
          "internalType": "address",
          "name": "_nft",
          "type": "address"
        }
      ],
      "name": "removeFromWhitelist",
      "outputs": [],
      "stateMutability": "nonpayable",
      "type": "function"
    },
    {
      "inputs": [],
      "name": "renounceOwnership",
      "outputs": [],
      "stateMutability": "nonpayable",
      "type": "function"
    },
    {
      "inputs": [
        {
          "internalType": "uint256",
          "name": "_fee",
          "type": "uint256"
        }
      ],
      "name": "setFee",
      "outputs": [],
      "stateMutability": "nonpayable",
      "type": "function"
    },
    {
      "inputs": [
        {
          "internalType": "address",
          "name": "_feeRecipient",
          "type": "address"
        }
      ],
      "name": "setFeeRecipient",
      "outputs": [],
      "stateMutability": "nonpayable",
      "type": "function"
    },
    {
      "inputs": [
        {
          "internalType": "address",
          "name": "_oracle",
          "type": "address"
        }
      ],
      "name": "setOracle",
      "outputs": [],
      "stateMutability": "nonpayable",
      "type": "function"
    },
    {
      "inputs": [
        {
          "internalType": "address",
          "name": "_newOwner",
          "type": "address"
        }
      ],
      "name": "setOracleOwner",
      "outputs": [],
      "stateMutability": "nonpayable",
      "type": "function"
    },
    {
      "inputs": [
        {
          "internalType": "address",
          "name": "_paymentToken",
          "type": "address"
        }
      ],
      "name": "setPaymentToken",
      "outputs": [],
      "stateMutability": "nonpayable",
      "type": "function"
    },
    {
      "inputs": [
        {
          "internalType": "address",
          "name": "newOwner",
          "type": "address"
        }
      ],
      "name": "transferOwnership",
      "outputs": [],
      "stateMutability": "nonpayable",
      "type": "function"
    },
    {
      "inputs": [
        {
          "internalType": "address",
          "name": "_nftAddress",
          "type": "address"
        },
        {
          "internalType": "uint256",
          "name": "_tokenId",
          "type": "uint256"
        },
        {
          "internalType": "uint256",
          "name": "_newQuantity",
          "type": "uint256"
        },
        {
          "internalType": "uint256",
          "name": "_newPricePerItem",
          "type": "uint256"
        },
        {
          "internalType": "uint256",
          "name": "_newExpirationTime",
          "type": "uint256"
        }
      ],
      "name": "updateListing",
      "outputs": [],
      "stateMutability": "nonpayable",
      "type": "function"
    }
  ],
  "transactionHash": "0x0190080661f8bb4b14b524411e8bbaa3d76bacfac7b341f1d7bc07e5f997f27e",
  "args": [
    500,
    "0xDb6Ab450178bAbCf0e467c1F3B436050d907E233",
    "0xb40BC8bF5f4dF00B0b32C56E8d3Ecd802656cCe4",
    "0x539bdE0d7Dbd336b79148AA742883198BBF60342"
  ],
  "solcInputHash": "8910363c4030e770fb83f81b403f33d9",
  "bytecode": "0x60806040523480156200001157600080fd5b50604051620029f7380380620029f783398101604081905262000034916200037c565b6200003f3362000079565b600180556200004e84620000c9565b620000598362000191565b62000064826200022b565b6200006f81620002c5565b50505050620003d0565b600080546001600160a01b038381166001600160a01b0319831681178455604051919092169283917f8be0079c531659141344cd1fd0a4f28419497f9722a3daafe3b4186f6b6457e09190a35050565b6000546001600160a01b03163314620001185760405162461bcd60e51b81526020600482018190526024820152600080516020620029d783398151915260448201526064015b60405180910390fd5b6127108110620001555760405162461bcd60e51b81526020600482015260076024820152666d61782066656560c81b60448201526064016200010f565b60048190556040518181527f38e229a7f3f9c329892d08eb37c4e91ccac6d12c798d394990ca4f56028ec266906020015b60405180910390a150565b6000546001600160a01b03163314620001dc5760405162461bcd60e51b81526020600482018190526024820152600080516020620029d783398151915260448201526064016200010f565b600580546001600160a01b0319166001600160a01b0383169081179091556040519081527f6632de8ab33c46549f7bb29f647ea0d751157b25fe6a14b1bcc7527cdfbeb79c9060200162000186565b6000546001600160a01b03163314620002765760405162461bcd60e51b81526020600482018190526024820152600080516020620029d783398151915260448201526064016200010f565b600280546001600160a01b0319166001600160a01b0383169081179091556040519081527f09ad0a3595604db9b7aef0dbd4918cea3642b96bc65ad7c9fb501a1529becd799060200162000186565b6000546001600160a01b03163314620003105760405162461bcd60e51b81526020600482018190526024820152600080516020620029d783398151915260448201526064016200010f565b600380546001600160a01b0319166001600160a01b0383169081179091556040519081527fc2125241dd55c14b337aea21dcef108a9fd20a816ae6d4d18560572afce99c4e9060200162000186565b80516001600160a01b03811681146200037757600080fd5b919050565b600080600080608085870312156200039357600080fd5b84519350620003a5602086016200035f565b9250620003b5604086016200035f565b9150620003c5606086016200035f565b905092959194509250565b6125f780620003e06000396000f3fe608060405234801561001057600080fd5b50600436106101375760003560e01c80638ab1d681116100b8578063ddca3f431161007c578063ddca3f43146102d3578063de250604146102ea578063e1f1c4a7146102fd578063e43252d714610306578063e74b981b14610319578063f2fde38b1461032c57600080fd5b80638ab1d681146102765780638b2b883e146102895780638da5cb5b1461029c5780639057f289146102ad578063b2ddee06146102c057600080fd5b80636bd3a64b116100ff5780636bd3a64b146101da5780636fad040914610235578063715018a6146102485780637adbf973146102505780637dc0d1d01461026357600080fd5b80633013ce291461013c5780633740ebb31461016c57806346b31b6e1461017f57806369fe0e2d146101b25780636a326ab1146101c7575b600080fd5b60035461014f906001600160a01b031681565b6040516001600160a01b0390911681526020015b60405180910390f35b60055461014f906001600160a01b031681565b6101a261018d366004612222565b60076020526000908152604090205460ff1681565b6040519015158152602001610163565b6101c56101c0366004612378565b61033f565b005b6101c56101d5366004612222565b6103e9565b61021a6101e8366004612288565b600660209081526000938452604080852082529284528284209052825290208054600182015460029092015490919083565b60408051938452602084019290925290820152606001610163565b6101c5610243366004612312565b610461565b6101c56108b6565b6101c561025e366004612222565b6108ec565b60025461014f906001600160a01b031681565b6101c5610284366004612222565b610964565b6101c5610297366004612222565b610a46565b6000546001600160a01b031661014f565b6101c56102bb366004612312565b610ad2565b6101c56102ce36600461225c565b611098565b6102dc60045481565b604051908152602001610163565b6101c56102f83660046122ca565b61114c565b6102dc61271081565b6101c5610314366004612222565b61198b565b6101c5610327366004612222565b611a72565b6101c561033a366004612222565b611aea565b6000546001600160a01b031633146103725760405162461bcd60e51b81526004016103699061247d565b60405180910390fd5b61271081106103ad5760405162461bcd60e51b81526020600482015260076024820152666d61782066656560c81b6044820152606401610369565b60048190556040518181527f38e229a7f3f9c329892d08eb37c4e91ccac6d12c798d394990ca4f56028ec266906020015b60405180910390a150565b6000546001600160a01b031633146104135760405162461bcd60e51b81526004016103699061247d565b600380546001600160a01b0319166001600160a01b0383169081179091556040519081527fc2125241dd55c14b337aea21dcef108a9fd20a816ae6d4d18560572afce99c4e906020016103de565b600260015414156104845760405162461bcd60e51b8152600401610369906124b2565b60026001558484336001600160a01b038084166000908152600660209081526040808320868452825280832093851683529281529082902082516060810184528154808252600183015493820193909352600290910154928101929092526104fe5760405162461bcd60e51b8152600401610369906124e9565b4285116105475760405162461bcd60e51b8152602060048201526017602482015276696e76616c69642065787069726174696f6e2074696d6560481b6044820152606401610369565b6001600160a01b03891660008181526006602090815260408083208c845282528083203384529091529081902090516301ffc9a760e01b81529091906301ffc9a79061059e906380ac58cd60e01b9060040161242c565b60206040518083038186803b1580156105b657600080fd5b505afa1580156105ca573d6000803e3d6000fd5b505050506040513d601f19601f820116820180604052508101906105ee9190612356565b1561069d5789336040516331a9108f60e11b8152600481018c90526001600160a01b0391821691831690636352211e9060240160206040518083038186803b15801561063957600080fd5b505afa15801561064d573d6000803e3d6000fd5b505050506040513d601f19601f82011682018060405250810190610671919061223f565b6001600160a01b0316146106975760405162461bcd60e51b815260040161036990612454565b50610838565b6040516301ffc9a760e01b81526001600160a01b038b16906301ffc9a7906106d090636cdb3d1360e11b9060040161242c565b60206040518083038186803b1580156106e857600080fd5b505afa1580156106fc573d6000803e3d6000fd5b505050506040513d601f19601f820116820180604052508101906107209190612356565b156107fa5789886001600160a01b03821662fdd58e336040516001600160e01b031960e084901b1681526001600160a01b039091166004820152602481018e905260440160206040518083038186803b15801561077c57600080fd5b505afa158015610790573d6000803e3d6000fd5b505050506040513d601f19601f820116820180604052508101906107b49190612391565b10156106975760405162461bcd60e51b81526020600482015260156024820152746d75737420686f6c6420656e6f756768206e66747360581b6044820152606401610369565b60405162461bcd60e51b8152602060048201526013602482015272696e76616c6964206e6674206164647265737360681b6044820152606401610369565b8781556001810187905560028101869055604080513381526001600160a01b038c1660208201528082018b9052606081018a90526080810189905260a0810188905290517f25a89891a024b83ce77c6fc45ddada8564a9534184cd91a6db6c1f542e55abd89181900360c00190a15050600180555050505050505050565b6000546001600160a01b031633146108e05760405162461bcd60e51b81526004016103699061247d565b6108ea6000611b85565b565b6000546001600160a01b031633146109165760405162461bcd60e51b81526004016103699061247d565b600280546001600160a01b0319166001600160a01b0383169081179091556040519081527f09ad0a3595604db9b7aef0dbd4918cea3642b96bc65ad7c9fb501a1529becd79906020016103de565b6000546001600160a01b0316331461098e5760405162461bcd60e51b81526004016103699061247d565b6001600160a01b038116600090815260076020526040902054819060ff166109ee5760405162461bcd60e51b81526020600482015260136024820152721b999d081b9bdd081dda1a5d195b1a5cdd1959606a1b6044820152606401610369565b6001600160a01b038216600081815260076020908152604091829020805460ff1916905590519182527f81515fd036f806bdcf104ec83b77208e94ed56358867362be3b8ec60fefbdfdb910160405180910390a15050565b6000546001600160a01b03163314610a705760405162461bcd60e51b81526004016103699061247d565b60025460405163f2fde38b60e01b81526001600160a01b0383811660048301529091169063f2fde38b90602401600060405180830381600087803b158015610ab757600080fd5b505af1158015610acb573d6000803e3d6000fd5b5050505050565b8484336001600160a01b0380841660009081526006602090815260408083208684528252808320938516835292815290829020825160608101845281548082526001830154938201939093526002909101549281019290925215610b695760405162461bcd60e51b815260206004820152600e60248201526d185b1c9958591e481b1a5cdd195960921b6044820152606401610369565b6001600160a01b038916600090815260076020526040902054899060ff16610bc95760405162461bcd60e51b81526020600482015260136024820152721b999d081b9bdd081dda1a5d195b1a5cdd1959606a1b6044820152606401610369565b85610bd45760001995505b428611610c1d5760405162461bcd60e51b8152602060048201526017602482015276696e76616c69642065787069726174696f6e2074696d6560481b6044820152606401610369565b60008811610c5f5760405162461bcd60e51b815260206004820152600f60248201526e1b9bdd1a1a5b99c81d1bc81b1a5cdd608a1b6044820152606401610369565b6040516301ffc9a760e01b81526001600160a01b038b16906301ffc9a790610c92906380ac58cd60e01b9060040161242c565b60206040518083038186803b158015610caa57600080fd5b505afa158015610cbe573d6000803e3d6000fd5b505050506040513d601f19601f82011682018060405250810190610ce29190612356565b15610e5e5789336040516331a9108f60e11b8152600481018c90526001600160a01b0391821691831690636352211e9060240160206040518083038186803b158015610d2d57600080fd5b505afa158015610d41573d6000803e3d6000fd5b505050506040513d601f19601f82011682018060405250810190610d65919061223f565b6001600160a01b031614610d8b5760405162461bcd60e51b815260040161036990612454565b6001600160a01b03811663e985e9c5336040516001600160e01b031960e084901b1681526001600160a01b03909116600482015230602482015260440160206040518083038186803b158015610de057600080fd5b505afa158015610df4573d6000803e3d6000fd5b505050506040513d601f19601f82011682018060405250810190610e189190612356565b610e585760405162461bcd60e51b81526020600482015260116024820152701a5d195b481b9bdd08185c1c1c9bdd9959607a1b6044820152606401610369565b50610fbb565b6040516301ffc9a760e01b81526001600160a01b038b16906301ffc9a790610e9190636cdb3d1360e11b9060040161242c565b60206040518083038186803b158015610ea957600080fd5b505afa158015610ebd573d6000803e3d6000fd5b505050506040513d601f19601f82011682018060405250810190610ee19190612356565b156107fa5789886001600160a01b03821662fdd58e336040516001600160e01b031960e084901b1681526001600160a01b039091166004820152602481018e905260440160206040518083038186803b158015610f3d57600080fd5b505afa158015610f51573d6000803e3d6000fd5b505050506040513d601f19601f82011682018060405250810190610f759190612391565b1015610d8b5760405162461bcd60e51b81526020600482015260156024820152746d75737420686f6c6420656e6f756768206e66747360581b6044820152606401610369565b6040805160608101825289815260208082018a90528183018990526001600160a01b038d166000908152600682528381208d82529091529182209091336001600160a01b0316815260208082019290925260409081016000208351815591830151600183015591909101516002909101557f66bd0bc88d76947965bc00f670f5c5b25aebab9fef6cb916d8c63a253ec392b733604080516001600160a01b039283168152918d16602083015281018b9052606081018a90526080810189905260a0810188905260c00160405180910390a150505050505050505050565b600260015414156110bb5760405162461bcd60e51b8152600401610369906124b2565b60026001558181336001600160a01b038084166000908152600660209081526040808320868452825280832093851683529281529082902082516060810184528154808252600183015493820193909352600290910154928101929092526111355760405162461bcd60e51b8152600401610369906124e9565b611140868633611bd5565b50506001805550505050565b6002600154141561116f5760405162461bcd60e51b8152600401610369906124b2565b600260018181556001600160a01b03808716600090815260066020908152604080832089845282528083209388168352928152908290208251606081018452815480825294820154928101929092529093015490830152859185918591906111e95760405162461bcd60e51b8152600401610369906124e9565b6001600160a01b0380891660008181526006602090815260408083208c84528252808320948b16835293815290839020835160608101855281548152600182015492810192909252600201548184015291516301ffc9a760e01b81528a928a928a926301ffc9a790611266906380ac58cd60e01b9060040161242c565b60206040518083038186803b15801561127e57600080fd5b505afa158015611292573d6000803e3d6000fd5b505050506040513d601f19601f820116820180604052508101906112b69190612356565b15611366576040516331a9108f60e11b81526004810184905284906001600160a01b038481169190831690636352211e9060240160206040518083038186803b15801561130257600080fd5b505afa158015611316573d6000803e3d6000fd5b505050506040513d601f19601f8201168201806040525081019061133a919061223f565b6001600160a01b0316146113605760405162461bcd60e51b815260040161036990612454565b50611490565b6040516301ffc9a760e01b81526001600160a01b038516906301ffc9a79061139990636cdb3d1360e11b9060040161242c565b60206040518083038186803b1580156113b157600080fd5b505afa1580156113c5573d6000803e3d6000fd5b505050506040513d601f19601f820116820180604052508101906113e99190612356565b156107fa578051604051627eeac760e11b81526001600160a01b038481166004830152602482018690528692919083169062fdd58e9060440160206040518083038186803b15801561143a57600080fd5b505afa15801561144e573d6000803e3d6000fd5b505050506040513d601f19601f820116820180604052508101906114729190612391565b10156113605760405162461bcd60e51b815260040161036990612454565b42816040015110156114d65760405162461bcd60e51b815260206004820152600f60248201526e1b1a5cdd1a5b99c8195e1c1a5c9959608a1b6044820152606401610369565b336001600160a01b038b16141561152f5760405162461bcd60e51b815260206004820152601860248201527f43616e6e6f742062757920796f7572206f776e206974656d00000000000000006044820152606401610369565b6001600160a01b03808d1660009081526006602090815260408083208f84528252808320938e1683529281529082902082516060810184528154808252600183015493820193909352600290910154928101929092528a11156115ca5760405162461bcd60e51b81526020600482015260136024820152726e6f7420656e6f756768207175616e7469747960681b6044820152606401610369565b6040516301ffc9a760e01b81526001600160a01b038e16906301ffc9a7906115fd906380ac58cd60e01b9060040161242c565b60206040518083038186803b15801561161557600080fd5b505afa158015611629573d6000803e3d6000fd5b505050506040513d601f19601f8201168201806040525081019061164d9190612356565b156116cf576001600160a01b038d166342842e0e8c336040516001600160e01b031960e085901b1681526001600160a01b03928316600482015291166024820152604481018f9052606401600060405180830381600087803b1580156116b257600080fd5b505af11580156116c6573d6000803e3d6000fd5b50505050611745565b6001600160a01b038d1663f242432a8c338f8e604051806020016040528060008152506040518663ffffffff1660e01b81526004016117129594939291906123f2565b600060405180830381600087803b15801561172c57600080fd5b505af1158015611740573d6000803e3d6000fd5b505050505b80518a14156117c757600660008e6001600160a01b03166001600160a01b0316815260200190815260200160002060008d815260200190815260200160002060008c6001600160a01b03166001600160a01b03168152602001908152602001600020600080820160009055600182016000905560028201600090555050611839565b89600660008f6001600160a01b03166001600160a01b0316815260200190815260200160002060008e815260200190815260200160002060008d6001600160a01b03166001600160a01b0316815260200190815260200160002060000160008282546118339190612553565b90915550505b7f57d8d9cd489eb6f4aa398aa92b49d164d28fde9e7000b5c186bf1b3647a9ebb78b338f8f8e86602001516040516118aa969594939291906001600160a01b03968716815294861660208601529290941660408401526060830152608082019290925260a081019190915260c00190565b60405180910390a1600260009054906101000a90046001600160a01b03166001600160a01b031663cdf229e78e8e600360009054906101000a90046001600160a01b031685602001516040518563ffffffff1660e01b815260040161193794939291906001600160a01b039485168152602081019390935292166040820152606081019190915260800190565b600060405180830381600087803b15801561195157600080fd5b505af1158015611965573d6000803e3d6000fd5b5050505061197881602001518b8d611f07565b5050600180555050505050505050505050565b6000546001600160a01b031633146119b55760405162461bcd60e51b81526004016103699061247d565b6001600160a01b03811660009081526007602052604090205460ff1615611a1e5760405162461bcd60e51b815260206004820152601760248201527f6e667420616c72656164792077686974656c69737465640000000000000000006044820152606401610369565b6001600160a01b038116600081815260076020908152604091829020805460ff1916600117905590519182527fbbf68754f1a85580419362a87907cda8f7104cfefc4cb205118366e2a2dec72891016103de565b6000546001600160a01b03163314611a9c5760405162461bcd60e51b81526004016103699061247d565b600580546001600160a01b0319166001600160a01b0383169081179091556040519081527f6632de8ab33c46549f7bb29f647ea0d751157b25fe6a14b1bcc7527cdfbeb79c906020016103de565b6000546001600160a01b03163314611b145760405162461bcd60e51b81526004016103699061247d565b6001600160a01b038116611b795760405162461bcd60e51b815260206004820152602660248201527f4f776e61626c653a206e6577206f776e657220697320746865207a65726f206160448201526564647265737360d01b6064820152608401610369565b611b8281611b85565b50565b600080546001600160a01b038381166001600160a01b0319831681178455604051919092169283917f8be0079c531659141344cd1fd0a4f28419497f9722a3daafe3b4186f6b6457e09190a35050565b6001600160a01b0380841660008181526006602090815260408083208784528252808320948616835293815290839020835160608101855281548152600182015492810192909252600201548184015291516301ffc9a760e01b81526301ffc9a790611c4c906380ac58cd60e01b9060040161242c565b60206040518083038186803b158015611c6457600080fd5b505afa158015611c78573d6000803e3d6000fd5b505050506040513d601f19601f82011682018060405250810190611c9c9190612356565b15611d4c576040516331a9108f60e11b81526004810184905284906001600160a01b038481169190831690636352211e9060240160206040518083038186803b158015611ce857600080fd5b505afa158015611cfc573d6000803e3d6000fd5b505050506040513d601f19601f82011682018060405250810190611d20919061223f565b6001600160a01b031614611d465760405162461bcd60e51b815260040161036990612454565b50611e83565b6040516301ffc9a760e01b81526001600160a01b038516906301ffc9a790611d7f90636cdb3d1360e11b9060040161242c565b60206040518083038186803b158015611d9757600080fd5b505afa158015611dab573d6000803e3d6000fd5b505050506040513d601f19601f82011682018060405250810190611dcf9190612356565b156107fa57805184906001600160a01b03821662fdd58e336040516001600160e01b031960e084901b1681526001600160a01b0390911660048201526024810188905260440160206040518083038186803b158015611e2d57600080fd5b505afa158015611e41573d6000803e3d6000fd5b505050506040513d601f19601f82011682018060405250810190611e659190612391565b1015611d465760405162461bcd60e51b815260040161036990612454565b6001600160a01b03848116600081815260066020908152604080832088845282528083209487168084529482528083208381556001810184905560020192909255815193845283019190915281018490527f9ba1a3cb55ce8d63d072a886f94d2a744f50cddf82128e897d0661f5ec6231589060600160405180910390a150505050565b6000611f138385612534565b9050600061271060045483611f289190612534565b611f329190612512565b9050611f52336005546003546001600160a01b0390811692911684611f71565b610acb3384611f618486612553565b6003546001600160a01b03169291905b604080516001600160a01b0385811660248301528416604482015260648082018490528251808303909101815260849091019091526020810180516001600160e01b03166323b872dd60e01b179052611fcb908590611fd1565b50505050565b6000612026826040518060400160405280602081526020017f5361666545524332303a206c6f772d6c6576656c2063616c6c206661696c6564815250856001600160a01b03166120a89092919063ffffffff16565b8051909150156120a357808060200190518101906120449190612356565b6120a35760405162461bcd60e51b815260206004820152602a60248201527f5361666545524332303a204552433230206f7065726174696f6e20646964206e6044820152691bdd081cdd58d8d9595960b21b6064820152608401610369565b505050565b60606120b784846000856120c1565b90505b9392505050565b6060824710156121225760405162461bcd60e51b815260206004820152602660248201527f416464726573733a20696e73756666696369656e742062616c616e636520666f6044820152651c8818d85b1b60d21b6064820152608401610369565b843b6121705760405162461bcd60e51b815260206004820152601d60248201527f416464726573733a2063616c6c20746f206e6f6e2d636f6e74726163740000006044820152606401610369565b600080866001600160a01b0316858760405161218c91906123d6565b60006040518083038185875af1925050503d80600081146121c9576040519150601f19603f3d011682016040523d82523d6000602084013e6121ce565b606091505b50915091506121de8282866121e9565b979650505050505050565b606083156121f85750816120ba565b8251156122085782518084602001fd5b8160405162461bcd60e51b81526004016103699190612441565b60006020828403121561223457600080fd5b81356120ba816125ac565b60006020828403121561225157600080fd5b81516120ba816125ac565b6000806040838503121561226f57600080fd5b823561227a816125ac565b946020939093013593505050565b60008060006060848603121561229d57600080fd5b83356122a8816125ac565b92506020840135915060408401356122bf816125ac565b809150509250925092565b600080600080608085870312156122e057600080fd5b84356122eb816125ac565b9350602085013592506040850135612302816125ac565b9396929550929360600135925050565b600080600080600060a0868803121561232a57600080fd5b8535612335816125ac565b97602087013597506040870135966060810135965060800135945092505050565b60006020828403121561236857600080fd5b815180151581146120ba57600080fd5b60006020828403121561238a57600080fd5b5035919050565b6000602082840312156123a357600080fd5b5051919050565b600081518084526123c281602086016020860161256a565b601f01601f19169290920160200192915050565b600082516123e881846020870161256a565b9190910192915050565b6001600160a01b03868116825285166020820152604081018490526060810183905260a0608082018190526000906121de908301846123aa565b6001600160e01b031991909116815260200190565b6020815260006120ba60208301846123aa565b6020808252600f908201526e6e6f74206f776e696e67206974656d60881b604082015260600190565b6020808252818101527f4f776e61626c653a2063616c6c6572206973206e6f7420746865206f776e6572604082015260600190565b6020808252601f908201527f5265656e7472616e637947756172643a207265656e7472616e742063616c6c00604082015260600190565b6020808252600f908201526e6e6f74206c6973746564206974656d60881b604082015260600190565b60008261252f57634e487b7160e01b600052601260045260246000fd5b500490565b600081600019048311821515161561254e5761254e612596565b500290565b60008282101561256557612565612596565b500390565b60005b8381101561258557818101518382015260200161256d565b83811115611fcb5750506000910152565b634e487b7160e01b600052601160045260246000fd5b6001600160a01b0381168114611b8257600080fdfea2646970667358221220d39e4c1aca951f23a08de23969e963b6a257e3de334b62c63d9970f8f191427064736f6c634300080700334f776e61626c653a2063616c6c6572206973206e6f7420746865206f776e6572",
  "devdoc": {
    "kind": "dev",
    "methods": {
      "owner()": {
        "details": "Returns the address of the current owner."
      },
      "renounceOwnership()": {
        "details": "Leaves the contract without owner. It will not be possible to call `onlyOwner` functions anymore. Can only be called by the current owner. NOTE: Renouncing ownership will leave the contract without an owner, thereby removing any functionality that is only available to the owner."
      },
      "transferOwnership(address)": {
        "details": "Transfers ownership of the contract to a new account (`newOwner`). Can only be called by the current owner."
      }
    },
    "version": 1
  },
  "userdoc": {
    "kind": "user",
    "methods": {},
    "version": 1
  },
  "storageLayout": {
    "storage": [
      {
        "astId": 591,
        "contract": "contracts/TreasureMarketplace.sol:TreasureMarketplace",
        "label": "_owner",
        "offset": 0,
        "slot": "0",
        "type": "t_address"
      },
      {
        "astId": 793,
        "contract": "contracts/TreasureMarketplace.sol:TreasureMarketplace",
        "label": "_status",
        "offset": 0,
        "slot": "1",
        "type": "t_uint256"
      },
      {
        "astId": 6130,
        "contract": "contracts/TreasureMarketplace.sol:TreasureMarketplace",
        "label": "oracle",
        "offset": 0,
        "slot": "2",
        "type": "t_address"
      },
      {
        "astId": 6132,
        "contract": "contracts/TreasureMarketplace.sol:TreasureMarketplace",
        "label": "paymentToken",
        "offset": 0,
        "slot": "3",
        "type": "t_address"
      },
      {
        "astId": 6134,
        "contract": "contracts/TreasureMarketplace.sol:TreasureMarketplace",
        "label": "fee",
        "offset": 0,
        "slot": "4",
        "type": "t_uint256"
      },
      {
        "astId": 6136,
        "contract": "contracts/TreasureMarketplace.sol:TreasureMarketplace",
        "label": "feeReceipient",
        "offset": 0,
        "slot": "5",
        "type": "t_address"
      },
      {
        "astId": 6152,
        "contract": "contracts/TreasureMarketplace.sol:TreasureMarketplace",
        "label": "listings",
        "offset": 0,
        "slot": "6",
        "type": "t_mapping(t_address,t_mapping(t_uint256,t_mapping(t_address,t_struct(Listing)6143_storage)))"
      },
      {
        "astId": 6156,
        "contract": "contracts/TreasureMarketplace.sol:TreasureMarketplace",
        "label": "nftWhitelist",
        "offset": 0,
        "slot": "7",
        "type": "t_mapping(t_address,t_bool)"
      }
    ],
    "types": {
      "t_address": {
        "encoding": "inplace",
        "label": "address",
        "numberOfBytes": "20"
      },
      "t_bool": {
        "encoding": "inplace",
        "label": "bool",
        "numberOfBytes": "1"
      },
      "t_mapping(t_address,t_bool)": {
        "encoding": "mapping",
        "key": "t_address",
        "label": "mapping(address => bool)",
        "numberOfBytes": "32",
        "value": "t_bool"
      },
      "t_mapping(t_address,t_mapping(t_uint256,t_mapping(t_address,t_struct(Listing)6143_storage)))": {
        "encoding": "mapping",
        "key": "t_address",
        "label": "mapping(address => mapping(uint256 => mapping(address => struct TreasureMarketplace.Listing)))",
        "numberOfBytes": "32",
        "value": "t_mapping(t_uint256,t_mapping(t_address,t_struct(Listing)6143_storage))"
      },
      "t_mapping(t_address,t_struct(Listing)6143_storage)": {
        "encoding": "mapping",
        "key": "t_address",
        "label": "mapping(address => struct TreasureMarketplace.Listing)",
        "numberOfBytes": "32",
        "value": "t_struct(Listing)6143_storage"
      },
      "t_mapping(t_uint256,t_mapping(t_address,t_struct(Listing)6143_storage))": {
        "encoding": "mapping",
        "key": "t_uint256",
        "label": "mapping(uint256 => mapping(address => struct TreasureMarketplace.Listing))",
        "numberOfBytes": "32",
        "value": "t_mapping(t_address,t_struct(Listing)6143_storage)"
      },
      "t_struct(Listing)6143_storage": {
        "encoding": "inplace",
        "label": "struct TreasureMarketplace.Listing",
        "members": [
          {
            "astId": 6138,
            "contract": "contracts/TreasureMarketplace.sol:TreasureMarketplace",
            "label": "quantity",
            "offset": 0,
            "slot": "0",
            "type": "t_uint256"
          },
          {
            "astId": 6140,
            "contract": "contracts/TreasureMarketplace.sol:TreasureMarketplace",
            "label": "pricePerItem",
            "offset": 0,
            "slot": "1",
            "type": "t_uint256"
          },
          {
            "astId": 6142,
            "contract": "contracts/TreasureMarketplace.sol:TreasureMarketplace",
            "label": "expirationTime",
            "offset": 0,
            "slot": "2",
            "type": "t_uint256"
          }
        ],
        "numberOfBytes": "96"
      },
      "t_uint256": {
        "encoding": "inplace",
        "label": "uint256",
        "numberOfBytes": "32"
      }
    }
  }
}