{
  "address": "0x812cdA2181ed7c45a35a691E0C85E231D218E273",
  "abi": [
    {
      "inputs": [
        {
          "internalType": "address",
          "name": "_marketplace",
          "type": "address"
        }
      ],
      "stateMutability": "nonpayable",
      "type": "constructor"
    },
    {
      "inputs": [
        {
          "internalType": "address",
          "name": "_nftAddress",
          "type": "address"
        },
        {
          "internalType": "uint256",
          "name": "_tokenId",
          "type": "uint256"
        },
        {
          "internalType": "address",
          "name": "_owner",
          "type": "address"
        },
        {
          "internalType": "uint256",
          "name": "_quantity",
          "type": "uint256"
        },
        {
          "internalType": "uint256",
          "name": "_pricePerItem",
          "type": "uint256"
        }
      ],
      "name": "buyItem",
      "outputs": [],
      "stateMutability": "nonpayable",
      "type": "function"
    },
    {
      "inputs": [],
      "name": "marketplace",
      "outputs": [
        {
          "internalType": "contract TreasureMarketplace",
          "name": "",
          "type": "address"
        }
      ],
      "stateMutability": "view",
      "type": "function"
    },
    {
      "inputs": [
        {
          "internalType": "address",
          "name": "",
          "type": "address"
        },
        {
          "internalType": "address",
          "name": "",
          "type": "address"
        },
        {
          "internalType": "uint256[]",
          "name": "",
          "type": "uint256[]"
        },
        {
          "internalType": "uint256[]",
          "name": "",
          "type": "uint256[]"
        },
        {
          "internalType": "bytes",
          "name": "",
          "type": "bytes"
        }
      ],
      "name": "onERC1155BatchReceived",
      "outputs": [
        {
          "internalType": "bytes4",
          "name": "",
          "type": "bytes4"
        }
      ],
      "stateMutability": "nonpayable",
      "type": "function"
    },
    {
      "inputs": [
        {
          "internalType": "address",
          "name": "",
          "type": "address"
        },
        {
          "internalType": "address",
          "name": "",
          "type": "address"
        },
        {
          "internalType": "uint256",
          "name": "",
          "type": "uint256"
        },
        {
          "internalType": "uint256",
          "name": "",
          "type": "uint256"
        },
        {
          "internalType": "bytes",
          "name": "",
          "type": "bytes"
        }
      ],
      "name": "onERC1155Received",
      "outputs": [
        {
          "internalType": "bytes4",
          "name": "",
          "type": "bytes4"
        }
      ],
      "stateMutability": "nonpayable",
      "type": "function"
    },
    {
      "inputs": [
        {
          "internalType": "address",
          "name": "",
          "type": "address"
        },
        {
          "internalType": "address",
          "name": "",
          "type": "address"
        },
        {
          "internalType": "uint256",
          "name": "",
          "type": "uint256"
        },
        {
          "internalType": "bytes",
          "name": "",
          "type": "bytes"
        }
      ],
      "name": "onERC721Received",
      "outputs": [
        {
          "internalType": "bytes4",
          "name": "",
          "type": "bytes4"
        }
      ],
      "stateMutability": "nonpayable",
      "type": "function"
    },
    {
      "inputs": [
        {
          "internalType": "bytes4",
          "name": "interfaceId",
          "type": "bytes4"
        }
      ],
      "name": "supportsInterface",
      "outputs": [
        {
          "internalType": "bool",
          "name": "",
          "type": "bool"
        }
      ],
      "stateMutability": "view",
      "type": "function"
    },
    {
      "inputs": [],
      "name": "withdraw",
      "outputs": [],
      "stateMutability": "nonpayable",
      "type": "function"
    },
    {
      "inputs": [
        {
          "internalType": "address",
          "name": "_nftAddress",
          "type": "address"
        },
        {
          "internalType": "uint256",
          "name": "_tokenId",
          "type": "uint256"
        },
        {
          "internalType": "uint256",
          "name": "_quantity",
          "type": "uint256"
        }
      ],
      "name": "withdrawNFT",
      "outputs": [],
      "stateMutability": "nonpayable",
      "type": "function"
    }
  ],
  "transactionHash": "0x36b63fdaeae0abf4d4676d1cd50312be147039a069c96e05407aa6549c54e7ec",
  "args": [
    "0x2E3b85F85628301a0Bce300Dee3A6B04195A15Ee"
  ],
  "solcInputHash": "7ac90951cafe9f943003fe95efb9dd0e",
  "bytecode": "0x608060405234801561001057600080fd5b5060405161134238038061134283398101604081905261002f91610054565b600080546001600160a01b0319166001600160a01b0392909216919091179055610084565b60006020828403121561006657600080fd5b81516001600160a01b038116811461007d57600080fd5b9392505050565b6112af806100936000396000f3fe608060405234801561001057600080fd5b50600436106100885760003560e01c80637d1a65331161005b5780637d1a653314610109578063abc8c7af1461011c578063bc197c8114610147578063f23a6e611461016657600080fd5b806301ffc9a71461008d578063150b7a02146100b55780633ccfd60b146100ec5780634d67ad76146100f6575b600080fd5b6100a061009b3660046110be565b610185565b60405190151581526020015b60405180910390f35b6100d36100c3366004610f40565b630a85bd0160e11b949350505050565b6040516001600160e01b031990911681526020016100ac565b6100f46101bc565b005b6100f4610104366004611067565b610359565b6100f4610117366004611015565b6105a8565b60005461012f906001600160a01b031681565b6040516001600160a01b0390911681526020016100ac565b6100d3610155366004610e92565b63bc197c8160e01b95945050505050565b6100d3610174366004610fac565b63f23a6e6160e01b95945050505050565b60006001600160e01b03198216630271189760e51b14806101b657506301ffc9a760e01b6001600160e01b03198316145b92915050565b60008060009054906101000a90046001600160a01b03166001600160a01b0316633013ce296040518163ffffffff1660e01b815260040160206040518083038186803b15801561020b57600080fd5b505afa15801561021f573d6000803e3d6000fd5b505050506040513d601f19601f820116820180604052508101906102439190610e75565b90506103563060008054906101000a90046001600160a01b03166001600160a01b0316638da5cb5b6040518163ffffffff1660e01b815260040160206040518083038186803b15801561029557600080fd5b505afa1580156102a9573d6000803e3d6000fd5b505050506040513d601f19601f820116820180604052508101906102cd9190610e75565b6040516370a0823160e01b81523060048201526001600160a01b038516906370a082319060240160206040518083038186803b15801561030c57600080fd5b505afa158015610320573d6000803e3d6000fd5b505050506040513d601f19601f8201168201806040525081019061034491906110e8565b6001600160a01b03851692919061099e565b50565b6040516301ffc9a760e01b81526380ac58cd60e01b60048201526001600160a01b038416906301ffc9a79060240160206040518083038186803b15801561039f57600080fd5b505afa1580156103b3573d6000803e3d6000fd5b505050506040513d601f19601f820116820180604052508101906103d7919061109c565b156104dd57826001600160a01b03166342842e0e3060008054906101000a90046001600160a01b03166001600160a01b0316638da5cb5b6040518163ffffffff1660e01b815260040160206040518083038186803b15801561043857600080fd5b505afa15801561044c573d6000803e3d6000fd5b505050506040513d601f19601f820116820180604052508101906104709190610e75565b6040516001600160e01b031960e085901b1681526001600160a01b03928316600482015291166024820152604481018590526064015b600060405180830381600087803b1580156104c057600080fd5b505af11580156104d4573d6000803e3d6000fd5b50505050505050565b826001600160a01b031663f242432a3060008054906101000a90046001600160a01b03166001600160a01b0316638da5cb5b6040518163ffffffff1660e01b815260040160206040518083038186803b15801561053957600080fd5b505afa15801561054d573d6000803e3d6000fd5b505050506040513d601f19601f820116820180604052508101906105719190610e75565b8585604051806020016040528060008152506040518663ffffffff1660e01b81526004016104a6959493929190611177565b505050565b60008054604051636bd3a64b60e01b81526001600160a01b03888116600483015260248201889052868116604483015290911690636bd3a64b9060640160606040518083038186803b1580156105fd57600080fd5b505afa158015610611573d6000803e3d6000fd5b505050506040513d601f19601f820116820180604052508101906106359190611101565b509150508181146106855760405162461bcd60e51b815260206004820152601560248201527470726963655065724974656d206368616e6765642160581b60448201526064015b60405180910390fd5b600061069184846111f5565b905061072e33308360008054906101000a90046001600160a01b03166001600160a01b0316633013ce296040518163ffffffff1660e01b815260040160206040518083038186803b1580156106e557600080fd5b505afa1580156106f9573d6000803e3d6000fd5b505050506040513d601f19601f8201168201806040525081019061071d9190610e75565b6001600160a01b031692919061099e565b60005460408051633013ce2960e01b815290516107c0926001600160a01b03169184918391633013ce29916004808301926020929190829003018186803b15801561077857600080fd5b505afa15801561078c573d6000803e3d6000fd5b505050506040513d601f19601f820116820180604052508101906107b09190610e75565b6001600160a01b03169190610a0f565b600054604051633789418160e21b81526001600160a01b038981166004830152602482018990528781166044830152606482018790529091169063de25060490608401600060405180830381600087803b15801561081d57600080fd5b505af1158015610831573d6000803e3d6000fd5b50506040516301ffc9a760e01b81526380ac58cd60e01b60048201526001600160a01b038a1692506301ffc9a7915060240160206040518083038186803b15801561087b57600080fd5b505afa15801561088f573d6000803e3d6000fd5b505050506040513d601f19601f820116820180604052508101906108b3919061109c565b1561092357604051632142170760e11b8152306004820152336024820152604481018790526001600160a01b038816906342842e0e90606401600060405180830381600087803b15801561090657600080fd5b505af115801561091a573d6000803e3d6000fd5b505050506104d4565b60408051602081018252600081529051637921219560e11b81526001600160a01b0389169163f242432a9161096391309133918c918b9190600401611177565b600060405180830381600087803b15801561097d57600080fd5b505af1158015610991573d6000803e3d6000fd5b5050505050505050505050565b6040516001600160a01b0380851660248301528316604482015260648101829052610a099085906323b872dd60e01b906084015b60408051601f198184030181529190526020810180516001600160e01b03166001600160e01b031990931692909217909152610b33565b50505050565b801580610a985750604051636eb1769f60e11b81523060048201526001600160a01b03838116602483015284169063dd62ed3e9060440160206040518083038186803b158015610a5e57600080fd5b505afa158015610a72573d6000803e3d6000fd5b505050506040513d601f19601f82011682018060405250810190610a9691906110e8565b155b610b035760405162461bcd60e51b815260206004820152603660248201527f5361666545524332303a20617070726f76652066726f6d206e6f6e2d7a65726f60448201527520746f206e6f6e2d7a65726f20616c6c6f77616e636560501b606482015260840161067c565b6040516001600160a01b0383166024820152604481018290526105a390849063095ea7b360e01b906064016109d2565b6000610b88826040518060400160405280602081526020017f5361666545524332303a206c6f772d6c6576656c2063616c6c206661696c6564815250856001600160a01b0316610c059092919063ffffffff16565b8051909150156105a35780806020019051810190610ba6919061109c565b6105a35760405162461bcd60e51b815260206004820152602a60248201527f5361666545524332303a204552433230206f7065726174696f6e20646964206e6044820152691bdd081cdd58d8d9595960b21b606482015260840161067c565b6060610c148484600085610c1e565b90505b9392505050565b606082471015610c7f5760405162461bcd60e51b815260206004820152602660248201527f416464726573733a20696e73756666696369656e742062616c616e636520666f6044820152651c8818d85b1b60d21b606482015260840161067c565b843b610ccd5760405162461bcd60e51b815260206004820152601d60248201527f416464726573733a2063616c6c20746f206e6f6e2d636f6e7472616374000000604482015260640161067c565b600080866001600160a01b03168587604051610ce9919061115b565b60006040518083038185875af1925050503d8060008114610d26576040519150601f19603f3d011682016040523d82523d6000602084013e610d2b565b606091505b5091509150610d3b828286610d46565b979650505050505050565b60608315610d55575081610c17565b825115610d655782518084602001fd5b8160405162461bcd60e51b815260040161067c91906111b1565b600082601f830112610d9057600080fd5b8135602067ffffffffffffffff821115610dac57610dac61124e565b8160051b610dbb8282016111c4565b838152828101908684018388018501891015610dd657600080fd5b600093505b85841015610df9578035835260019390930192918401918401610ddb565b50979650505050505050565b600082601f830112610e1657600080fd5b813567ffffffffffffffff811115610e3057610e3061124e565b610e43601f8201601f19166020016111c4565b818152846020838601011115610e5857600080fd5b816020850160208301376000918101602001919091529392505050565b600060208284031215610e8757600080fd5b8151610c1781611264565b600080600080600060a08688031215610eaa57600080fd5b8535610eb581611264565b94506020860135610ec581611264565b9350604086013567ffffffffffffffff80821115610ee257600080fd5b610eee89838a01610d7f565b94506060880135915080821115610f0457600080fd5b610f1089838a01610d7f565b93506080880135915080821115610f2657600080fd5b50610f3388828901610e05565b9150509295509295909350565b60008060008060808587031215610f5657600080fd5b8435610f6181611264565b93506020850135610f7181611264565b925060408501359150606085013567ffffffffffffffff811115610f9457600080fd5b610fa087828801610e05565b91505092959194509250565b600080600080600060a08688031215610fc457600080fd5b8535610fcf81611264565b94506020860135610fdf81611264565b93506040860135925060608601359150608086013567ffffffffffffffff81111561100957600080fd5b610f3388828901610e05565b600080600080600060a0868803121561102d57600080fd5b853561103881611264565b945060208601359350604086013561104f81611264565b94979396509394606081013594506080013592915050565b60008060006060848603121561107c57600080fd5b833561108781611264565b95602085013595506040909401359392505050565b6000602082840312156110ae57600080fd5b81518015158114610c1757600080fd5b6000602082840312156110d057600080fd5b81356001600160e01b031981168114610c1757600080fd5b6000602082840312156110fa57600080fd5b5051919050565b60008060006060848603121561111657600080fd5b8351925060208401519150604084015190509250925092565b60008151808452611147816020860160208601611222565b601f01601f19169290920160200192915050565b6000825161116d818460208701611222565b9190910192915050565b6001600160a01b03868116825285166020820152604081018490526060810183905260a060808201819052600090610d3b9083018461112f565b602081526000610c17602083018461112f565b604051601f8201601f1916810167ffffffffffffffff811182821017156111ed576111ed61124e565b604052919050565b600081600019048311821515161561121d57634e487b7160e01b600052601160045260246000fd5b500290565b60005b8381101561123d578181015183820152602001611225565b83811115610a095750506000910152565b634e487b7160e01b600052604160045260246000fd5b6001600160a01b038116811461035657600080fdfea26469706673582212205d2704883adf0a02939553ee3e90804a92167339e712417dc2841e80e7e1c0b664736f6c63430008070033",
  "devdoc": {
    "kind": "dev",
    "methods": {
      "onERC721Received(address,address,uint256,bytes)": {
        "details": "See {IERC721Receiver-onERC721Received}. Always returns `IERC721Receiver.onERC721Received.selector`."
      },
      "supportsInterface(bytes4)": {
        "details": "See {IERC165-supportsInterface}."
      }
    },
    "version": 1
  },
  "userdoc": {
    "kind": "user",
    "methods": {},
    "version": 1
  },
  "storageLayout": {
    "storage": [
      {
        "astId": 7282,
        "contract": "contracts/TreasureMarketplaceBuyer.sol:TreasureMarketplaceBuyer",
        "label": "marketplace",
        "offset": 0,
        "slot": "0",
        "type": "t_contract(TreasureMarketplace)7255"
      }
    ],
    "types": {
      "t_contract(TreasureMarketplace)7255": {
        "encoding": "inplace",
        "label": "contract TreasureMarketplace",
        "numberOfBytes": "20"
      }
    }
  }
}