{
  "address": "0x39b3d8ec92c0df4bc4A4c798c0e40Ef40d5A8446",
  "abi": [
    {
      "anonymous": false,
      "inputs": [
        {
          "indexed": true,
          "internalType": "address",
          "name": "_collection",
          "type": "address"
        },
        {
          "indexed": true,
          "internalType": "enum FloorType",
          "name": "_floorType",
          "type": "uint8"
        },
        {
          "indexed": false,
          "internalType": "uint256",
          "name": "_oldAverage",
          "type": "uint256"
        },
        {
          "indexed": false,
          "internalType": "uint256",
          "name": "_salePrice",
          "type": "uint256"
        },
        {
          "indexed": false,
          "internalType": "uint256",
          "name": "_newAverage",
          "type": "uint256"
        }
      ],
      "name": "AveragePriceUpdated",
      "type": "event"
    },
    {
      "anonymous": false,
      "inputs": [
        {
          "indexed": true,
          "internalType": "address",
          "name": "previousOwner",
          "type": "address"
        },
        {
          "indexed": true,
          "internalType": "address",
          "name": "newOwner",
          "type": "address"
        }
      ],
      "name": "OwnershipTransferred",
      "type": "event"
    },
    {
      "inputs": [
        {
          "internalType": "address",
          "name": "_collection",
          "type": "address"
        },
        {
          "internalType": "enum FloorType",
          "name": "_floorType",
          "type": "uint8"
        }
      ],
      "name": "getAveragePriceForCollection",
      "outputs": [
        {
          "internalType": "uint256",
          "name": "",
          "type": "uint256"
        }
      ],
      "stateMutability": "view",
      "type": "function"
    },
    {
      "inputs": [
        {
          "internalType": "address",
          "name": "_treasureMarketplaceContract",
          "type": "address"
        },
        {
          "internalType": "address",
          "name": "_legionContract",
          "type": "address"
        },
        {
          "internalType": "address",
          "name": "_legionMetadata",
          "type": "address"
        }
      ],
      "name": "initialize",
      "outputs": [],
      "stateMutability": "nonpayable",
      "type": "function"
    },
    {
      "inputs": [],
      "name": "legionContract",
      "outputs": [
        {
          "internalType": "address",
          "name": "",
          "type": "address"
        }
      ],
      "stateMutability": "view",
      "type": "function"
    },
    {
      "inputs": [],
      "name": "legionMetadata",
      "outputs": [
        {
          "internalType": "address",
          "name": "",
          "type": "address"
        }
      ],
      "stateMutability": "view",
      "type": "function"
    },
    {
      "inputs": [],
      "name": "owner",
      "outputs": [
        {
          "internalType": "address",
          "name": "",
          "type": "address"
        }
      ],
      "stateMutability": "view",
      "type": "function"
    },
    {
      "inputs": [
        {
          "internalType": "address",
          "name": "_collection",
          "type": "address"
        },
        {
          "internalType": "uint256",
          "name": "_tokenId",
          "type": "uint256"
        },
        {
          "internalType": "uint256",
          "name": "_salePrice",
          "type": "uint256"
        }
      ],
      "name": "recordSale",
      "outputs": [],
      "stateMutability": "nonpayable",
      "type": "function"
    },
    {
      "inputs": [],
      "name": "renounceOwnership",
      "outputs": [],
      "stateMutability": "nonpayable",
      "type": "function"
    },
    {
      "inputs": [
        {
          "internalType": "address",
          "name": "newOwner",
          "type": "address"
        }
      ],
      "name": "transferOwnership",
      "outputs": [],
      "stateMutability": "nonpayable",
      "type": "function"
    },
    {
      "inputs": [],
      "name": "treasureMarketplaceContract",
      "outputs": [
        {
          "internalType": "address",
          "name": "",
          "type": "address"
        }
      ],
      "stateMutability": "view",
      "type": "function"
    }
  ],
  "transactionHash": "0x94365c037c6082346f07915bd7792478f6a2264e60ccf2e71e47058a43dba13b",
  "args": [],
  "numDeployments": 1,
  "solcInputHash": "fe3b295ed08e5abcd0e8cfc8b8f96ba2",
  "bytecode": "0x608060405234801561001057600080fd5b5061098d806100206000396000f3fe608060405234801561001057600080fd5b50600436106100935760003560e01c80638bf69d10116100665780638bf69d10146101065780638da5cb5b14610119578063c0c53b8b1461012a578063c99606091461013d578063f2fde38b1461015057600080fd5b8063086efe05146100985780635a0dd041146100ad5780635c8cd012146100dd578063715018a6146100fe575b600080fd5b6100ab6100a63660046107a3565b610163565b005b6066546100c0906001600160a01b031681565b6040516001600160a01b0390911681526020015b60405180910390f35b6100f06100eb3660046107d6565b61040a565b6040519081526020016100d4565b6100ab61045d565b6067546100c0906001600160a01b031681565b6033546001600160a01b03166100c0565b6100ab610138366004610811565b6104c3565b6065546100c0906001600160a01b031681565b6100ab61015e366004610854565b610610565b6065546001600160a01b031633146101b35760405162461bcd60e51b815260206004820152600e60248201526d24b73b30b634b21031b0b63632b960911b60448201526064015b60405180910390fd5b6066546001600160a01b038481169116146101cd57505050565b60675460405163058f37e360e51b81526004810184905260009182916001600160a01b039091169063b1e6fc60906024016040805180830381865afa15801561021a573d6000803e3d6000fd5b505050506040513d601f19601f8201168201806040525081019061023e9190610876565b90925090506000826002811115610257576102576108ad565b14610263575050505050565b60006004826005811115610279576102796108ad565b1415610287575060016102d3565b600382600581111561029b5761029b6108ad565b14156102a9575060026102d3565b60018260058111156102bd576102bd6108ad565b14156102cb575060036102d3565b505050505050565b6066546001600160a01b0316600090815260686020526040812081836003811115610300576103006108ad565b6003811115610311576103116108ad565b81526020019081526020016000205490506000816000141561033457508461034e565b61034b8287600182811c82821c0192909116160190565b90505b6066546001600160a01b03166000908152606860205260408120829185600381111561037c5761037c6108ad565b600381111561038d5761038d6108ad565b81526020810191909152604001600020558260038111156103b0576103b06108ad565b60665460408051858152602081018a90529081018490526001600160a01b03909116907f94ce7d95088db68446c2873749e58bf5c6c30caba0b50c329f61a3f54127fe059060600160405180910390a35050505050505050565b6001600160a01b038216600090815260686020526040812081836003811115610435576104356108ad565b6003811115610446576104466108ad565b815260200190815260200160002054905092915050565b6033546001600160a01b031633146104b75760405162461bcd60e51b815260206004820181905260248201527f4f776e61626c653a2063616c6c6572206973206e6f7420746865206f776e657260448201526064016101aa565b6104c160006106db565b565b600054610100900460ff166104de5760005460ff16156104e2565b303b155b6105455760405162461bcd60e51b815260206004820152602e60248201527f496e697469616c697a61626c653a20636f6e747261637420697320616c72656160448201526d191e481a5b9a5d1a585b1a5e995960921b60648201526084016101aa565b600054610100900460ff16158015610567576000805461ffff19166101011790555b6001600160a01b03841661058d5760405162461bcd60e51b81526004016101aa906108c3565b6001600160a01b0383166105b35760405162461bcd60e51b81526004016101aa906108c3565b6105bb61072d565b606580546001600160a01b038087166001600160a01b031992831617909255606680548684169083161790556067805492851692909116919091179055801561060a576000805461ff00191690555b50505050565b6033546001600160a01b0316331461066a5760405162461bcd60e51b815260206004820181905260248201527f4f776e61626c653a2063616c6c6572206973206e6f7420746865206f776e657260448201526064016101aa565b6001600160a01b0381166106cf5760405162461bcd60e51b815260206004820152602660248201527f4f776e61626c653a206e6577206f776e657220697320746865207a65726f206160448201526564647265737360d01b60648201526084016101aa565b6106d8816106db565b50565b603380546001600160a01b038381166001600160a01b0319831681179093556040519116919082907f8be0079c531659141344cd1fd0a4f28419497f9722a3daafe3b4186f6b6457e090600090a35050565b600054610100900460ff166107545760405162461bcd60e51b81526004016101aa9061090c565b6104c1600054610100900460ff1661077e5760405162461bcd60e51b81526004016101aa9061090c565b6104c1336106db565b80356001600160a01b038116811461079e57600080fd5b919050565b6000806000606084860312156107b857600080fd5b6107c184610787565b95602085013595506040909401359392505050565b600080604083850312156107e957600080fd5b6107f283610787565b915060208301356004811061080657600080fd5b809150509250929050565b60008060006060848603121561082657600080fd5b61082f84610787565b925061083d60208501610787565b915061084b60408501610787565b90509250925092565b60006020828403121561086657600080fd5b61086f82610787565b9392505050565b6000806040838503121561088957600080fd5b82516003811061089857600080fd5b60208401519092506006811061080657600080fd5b634e487b7160e01b600052602160045260246000fd5b60208082526029908201527f54726561737572654e465450726963696e673a2063616e6e6f7420736574206160408201526864647265737328302960b81b606082015260800190565b6020808252602b908201527f496e697469616c697a61626c653a20636f6e7472616374206973206e6f74206960408201526a6e697469616c697a696e6760a81b60608201526080019056fea264697066735822122046ec08b3c36538031e89cae79425811d6344eedf95cb3dfc629e3fc6b18179b664736f6c634300080c0033",
  "devdoc": {
    "kind": "dev",
    "methods": {
      "getAveragePriceForCollection(address,uint8)": {
        "details": "Provide a floor type to receive a recorded sub-floor average         Collections not containing subfloor records should be queried with FloorType.FLOOR",
        "params": {
          "_collection": "address of collection to get floor price average of",
          "_floorType": "the sub-floor average of the given collection"
        }
      },
      "initialize(address,address,address)": {
        "details": "The initializer modifier ensures this is only called once, the owner should confirm this was properly         performed before publishing this contract address.",
        "params": {
          "_legionContract": "address of the legion collection",
          "_treasureMarketplaceContract": "address of treasure marketplace"
        }
      },
      "owner()": {
        "details": "Returns the address of the current owner."
      },
      "recordSale(address,uint256,uint256)": {
        "details": "If an average does not yet exist, the new average will be _salePrice         avg will be stored as FloorType.FLOOR unless special sub-floor criteria is met",
        "params": {
          "_collection": "Address of the collection that had a token sale",
          "_salePrice": "The amount the sale was for",
          "_tokenId": "The token sold"
        }
      },
      "renounceOwnership()": {
        "details": "Leaves the contract without owner. It will not be possible to call `onlyOwner` functions anymore. Can only be called by the current owner. NOTE: Renouncing ownership will leave the contract without an owner, thereby removing any functionality that is only available to the owner."
      },
      "transferOwnership(address)": {
        "details": "Transfers ownership of the contract to a new account (`newOwner`). Can only be called by the current owner."
      }
    },
    "version": 1
  },
  "userdoc": {
    "kind": "user",
    "methods": {
      "getAveragePriceForCollection(address,uint8)": {
        "notice": "Return the current floor average for a given collection"
      },
      "initialize(address,address,address)": {
        "notice": "Perform initial contract setup"
      },
      "recordSale(address,uint256,uint256)": {
        "notice": "Record sale price and update floor pricing averages"
      }
    },
    "version": 1
  },
  "storageLayout": {
    "storage": [
      {
        "astId": 130,
        "contract": "contracts/TreasureNFTPriceTracker.sol:TreasureNFTPriceTracker",
        "label": "_initialized",
        "offset": 0,
        "slot": "0",
        "type": "t_bool"
      },
      {
        "astId": 133,
        "contract": "contracts/TreasureNFTPriceTracker.sol:TreasureNFTPriceTracker",
        "label": "_initializing",
        "offset": 1,
        "slot": "0",
        "type": "t_bool"
      },
      {
        "astId": 481,
        "contract": "contracts/TreasureNFTPriceTracker.sol:TreasureNFTPriceTracker",
        "label": "__gap",
        "offset": 0,
        "slot": "1",
        "type": "t_array(t_uint256)50_storage"
      },
      {
        "astId": 10,
        "contract": "contracts/TreasureNFTPriceTracker.sol:TreasureNFTPriceTracker",
        "label": "_owner",
        "offset": 0,
        "slot": "51",
        "type": "t_address"
      },
      {
        "astId": 122,
        "contract": "contracts/TreasureNFTPriceTracker.sol:TreasureNFTPriceTracker",
        "label": "__gap",
        "offset": 0,
        "slot": "52",
        "type": "t_array(t_uint256)49_storage"
      },
      {
        "astId": 3008,
        "contract": "contracts/TreasureNFTPriceTracker.sol:TreasureNFTPriceTracker",
        "label": "treasureMarketplaceContract",
        "offset": 0,
        "slot": "101",
        "type": "t_address"
      },
      {
        "astId": 3010,
        "contract": "contracts/TreasureNFTPriceTracker.sol:TreasureNFTPriceTracker",
        "label": "legionContract",
        "offset": 0,
        "slot": "102",
        "type": "t_address"
      },
      {
        "astId": 3012,
        "contract": "contracts/TreasureNFTPriceTracker.sol:TreasureNFTPriceTracker",
        "label": "legionMetadata",
        "offset": 0,
        "slot": "103",
        "type": "t_address"
      },
      {
        "astId": 3019,
        "contract": "contracts/TreasureNFTPriceTracker.sol:TreasureNFTPriceTracker",
        "label": "collectionToFloorTypeToPriceAvg",
        "offset": 0,
        "slot": "104",
        "type": "t_mapping(t_address,t_mapping(t_enum(FloorType)3286,t_uint256))"
      }
    ],
    "types": {
      "t_address": {
        "encoding": "inplace",
        "label": "address",
        "numberOfBytes": "20"
      },
      "t_array(t_uint256)49_storage": {
        "base": "t_uint256",
        "encoding": "inplace",
        "label": "uint256[49]",
        "numberOfBytes": "1568"
      },
      "t_array(t_uint256)50_storage": {
        "base": "t_uint256",
        "encoding": "inplace",
        "label": "uint256[50]",
        "numberOfBytes": "1600"
      },
      "t_bool": {
        "encoding": "inplace",
        "label": "bool",
        "numberOfBytes": "1"
      },
      "t_enum(FloorType)3286": {
        "encoding": "inplace",
        "label": "enum FloorType",
        "numberOfBytes": "1"
      },
      "t_mapping(t_address,t_mapping(t_enum(FloorType)3286,t_uint256))": {
        "encoding": "mapping",
        "key": "t_address",
        "label": "mapping(address => mapping(enum FloorType => uint256))",
        "numberOfBytes": "32",
        "value": "t_mapping(t_enum(FloorType)3286,t_uint256)"
      },
      "t_mapping(t_enum(FloorType)3286,t_uint256)": {
        "encoding": "mapping",
        "key": "t_enum(FloorType)3286",
        "label": "mapping(enum FloorType => uint256)",
        "numberOfBytes": "32",
        "value": "t_uint256"
      },
      "t_uint256": {
        "encoding": "inplace",
        "label": "uint256",
        "numberOfBytes": "32"
      }
    }
  }
}