{
  "address": "0x20623365E132d35dae373902A25D8B2e28c8F13d",
  "abi": [
    {
      "inputs": [],
      "stateMutability": "nonpayable",
      "type": "constructor"
    },
    {
      "anonymous": false,
      "inputs": [
        {
          "indexed": false,
          "internalType": "address",
          "name": "seller",
          "type": "address"
        },
        {
          "indexed": false,
          "internalType": "address",
          "name": "bidder",
          "type": "address"
        },
        {
          "indexed": false,
          "internalType": "address",
          "name": "nftAddress",
          "type": "address"
        },
        {
          "indexed": false,
          "internalType": "uint256",
          "name": "tokenId",
          "type": "uint256"
        },
        {
          "indexed": false,
          "internalType": "uint64",
          "name": "quantity",
          "type": "uint64"
        },
        {
          "indexed": false,
          "internalType": "uint128",
          "name": "pricePerItem",
          "type": "uint128"
        },
        {
          "indexed": false,
          "internalType": "address",
          "name": "paymentToken",
          "type": "address"
        },
        {
          "indexed": false,
          "internalType": "enum BidType",
          "name": "bidType",
          "type": "uint8"
        }
      ],
      "name": "BidAccepted",
      "type": "event"
    },
    {
      "anonymous": false,
      "inputs": [
        {
          "indexed": false,
          "internalType": "address",
          "name": "bidder",
          "type": "address"
        },
        {
          "indexed": false,
          "internalType": "address",
          "name": "nftAddress",
          "type": "address"
        }
      ],
      "name": "CollectionBidCancelled",
      "type": "event"
    },
    {
      "anonymous": false,
      "inputs": [
        {
          "indexed": false,
          "internalType": "address",
          "name": "bidder",
          "type": "address"
        },
        {
          "indexed": false,
          "internalType": "address",
          "name": "nftAddress",
          "type": "address"
        },
        {
          "indexed": false,
          "internalType": "uint64",
          "name": "quantity",
          "type": "uint64"
        },
        {
          "indexed": false,
          "internalType": "uint128",
          "name": "pricePerItem",
          "type": "uint128"
        },
        {
          "indexed": false,
          "internalType": "uint64",
          "name": "expirationTime",
          "type": "uint64"
        },
        {
          "indexed": false,
          "internalType": "address",
          "name": "paymentToken",
          "type": "address"
        }
      ],
      "name": "CollectionBidCreatedOrUpdated",
      "type": "event"
    },
    {
      "anonymous": false,
      "inputs": [
        {
          "indexed": true,
          "internalType": "address",
          "name": "seller",
          "type": "address"
        },
        {
          "indexed": true,
          "internalType": "address",
          "name": "nftAddress",
          "type": "address"
        },
        {
          "indexed": true,
          "internalType": "uint256",
          "name": "tokenId",
          "type": "uint256"
        }
      ],
      "name": "ItemCanceled",
      "type": "event"
    },
    {
      "anonymous": false,
      "inputs": [
        {
          "indexed": false,
          "internalType": "address",
          "name": "seller",
          "type": "address"
        },
        {
          "indexed": false,
          "internalType": "address",
          "name": "nftAddress",
          "type": "address"
        },
        {
          "indexed": false,
          "internalType": "uint256",
          "name": "tokenId",
          "type": "uint256"
        },
        {
          "indexed": false,
          "internalType": "uint64",
          "name": "quantity",
          "type": "uint64"
        },
        {
          "indexed": false,
          "internalType": "uint128",
          "name": "pricePerItem",
          "type": "uint128"
        },
        {
          "indexed": false,
          "internalType": "uint64",
          "name": "expirationTime",
          "type": "uint64"
        },
        {
          "indexed": false,
          "internalType": "address",
          "name": "paymentToken",
          "type": "address"
        }
      ],
      "name": "ItemListed",
      "type": "event"
    },
    {
      "anonymous": false,
      "inputs": [
        {
          "indexed": false,
          "internalType": "address",
          "name": "seller",
          "type": "address"
        },
        {
          "indexed": false,
          "internalType": "address",
          "name": "buyer",
          "type": "address"
        },
        {
          "indexed": false,
          "internalType": "address",
          "name": "nftAddress",
          "type": "address"
        },
        {
          "indexed": false,
          "internalType": "uint256",
          "name": "tokenId",
          "type": "uint256"
        },
        {
          "indexed": false,
          "internalType": "uint64",
          "name": "quantity",
          "type": "uint64"
        },
        {
          "indexed": false,
          "internalType": "uint128",
          "name": "pricePerItem",
          "type": "uint128"
        },
        {
          "indexed": false,
          "internalType": "address",
          "name": "paymentToken",
          "type": "address"
        }
      ],
      "name": "ItemSold",
      "type": "event"
    },
    {
      "anonymous": false,
      "inputs": [
        {
          "indexed": false,
          "internalType": "address",
          "name": "seller",
          "type": "address"
        },
        {
          "indexed": false,
          "internalType": "address",
          "name": "nftAddress",
          "type": "address"
        },
        {
          "indexed": false,
          "internalType": "uint256",
          "name": "tokenId",
          "type": "uint256"
        },
        {
          "indexed": false,
          "internalType": "uint64",
          "name": "quantity",
          "type": "uint64"
        },
        {
          "indexed": false,
          "internalType": "uint128",
          "name": "pricePerItem",
          "type": "uint128"
        },
        {
          "indexed": false,
          "internalType": "uint64",
          "name": "expirationTime",
          "type": "uint64"
        },
        {
          "indexed": false,
          "internalType": "address",
          "name": "paymentToken",
          "type": "address"
        }
      ],
      "name": "ItemUpdated",
      "type": "event"
    },
    {
      "anonymous": false,
      "inputs": [
        {
          "indexed": false,
          "internalType": "address",
          "name": "account",
          "type": "address"
        }
      ],
      "name": "Paused",
      "type": "event"
    },
    {
      "anonymous": false,
      "inputs": [
        {
          "indexed": true,
          "internalType": "bytes32",
          "name": "role",
          "type": "bytes32"
        },
        {
          "indexed": true,
          "internalType": "bytes32",
          "name": "previousAdminRole",
          "type": "bytes32"
        },
        {
          "indexed": true,
          "internalType": "bytes32",
          "name": "newAdminRole",
          "type": "bytes32"
        }
      ],
      "name": "RoleAdminChanged",
      "type": "event"
    },
    {
      "anonymous": false,
      "inputs": [
        {
          "indexed": true,
          "internalType": "bytes32",
          "name": "role",
          "type": "bytes32"
        },
        {
          "indexed": true,
          "internalType": "address",
          "name": "account",
          "type": "address"
        },
        {
          "indexed": true,
          "internalType": "address",
          "name": "sender",
          "type": "address"
        }
      ],
      "name": "RoleGranted",
      "type": "event"
    },
    {
      "anonymous": false,
      "inputs": [
        {
          "indexed": true,
          "internalType": "bytes32",
          "name": "role",
          "type": "bytes32"
        },
        {
          "indexed": true,
          "internalType": "address",
          "name": "account",
          "type": "address"
        },
        {
          "indexed": true,
          "internalType": "address",
          "name": "sender",
          "type": "address"
        }
      ],
      "name": "RoleRevoked",
      "type": "event"
    },
    {
      "anonymous": false,
      "inputs": [
        {
          "indexed": false,
          "internalType": "address",
          "name": "nft",
          "type": "address"
        },
        {
          "indexed": false,
          "internalType": "enum TreasureMarketplace.TokenApprovalStatus",
          "name": "status",
          "type": "uint8"
        },
        {
          "indexed": false,
          "internalType": "address",
          "name": "paymentToken",
          "type": "address"
        }
      ],
      "name": "TokenApprovalStatusUpdated",
      "type": "event"
    },
    {
      "anonymous": false,
      "inputs": [
        {
          "indexed": false,
          "internalType": "address",
          "name": "bidder",
          "type": "address"
        },
        {
          "indexed": false,
          "internalType": "address",
          "name": "nftAddress",
          "type": "address"
        },
        {
          "indexed": false,
          "internalType": "uint256",
          "name": "tokenId",
          "type": "uint256"
        }
      ],
      "name": "TokenBidCancelled",
      "type": "event"
    },
    {
      "anonymous": false,
      "inputs": [
        {
          "indexed": false,
          "internalType": "address",
          "name": "bidder",
          "type": "address"
        },
        {
          "indexed": false,
          "internalType": "address",
          "name": "nftAddress",
          "type": "address"
        },
        {
          "indexed": false,
          "internalType": "uint256",
          "name": "tokenId",
          "type": "uint256"
        },
        {
          "indexed": false,
          "internalType": "uint64",
          "name": "quantity",
          "type": "uint64"
        },
        {
          "indexed": false,
          "internalType": "uint128",
          "name": "pricePerItem",
          "type": "uint128"
        },
        {
          "indexed": false,
          "internalType": "uint64",
          "name": "expirationTime",
          "type": "uint64"
        },
        {
          "indexed": false,
          "internalType": "address",
          "name": "paymentToken",
          "type": "address"
        }
      ],
      "name": "TokenBidCreatedOrUpdated",
      "type": "event"
    },
    {
      "anonymous": false,
      "inputs": [
        {
          "indexed": false,
          "internalType": "address",
          "name": "account",
          "type": "address"
        }
      ],
      "name": "Unpaused",
      "type": "event"
    },
    {
      "anonymous": false,
      "inputs": [
        {
          "indexed": false,
          "internalType": "address",
          "name": "_collection",
          "type": "address"
        },
        {
          "indexed": false,
          "internalType": "address",
          "name": "_recipient",
          "type": "address"
        },
        {
          "indexed": false,
          "internalType": "uint256",
          "name": "_fee",
          "type": "uint256"
        }
      ],
      "name": "UpdateCollectionOwnerFee",
      "type": "event"
    },
    {
      "anonymous": false,
      "inputs": [
        {
          "indexed": false,
          "internalType": "uint256",
          "name": "fee",
          "type": "uint256"
        }
      ],
      "name": "UpdateFee",
      "type": "event"
    },
    {
      "anonymous": false,
      "inputs": [
        {
          "indexed": false,
          "internalType": "address",
          "name": "feeRecipient",
          "type": "address"
        }
      ],
      "name": "UpdateFeeRecipient",
      "type": "event"
    },
    {
      "anonymous": false,
      "inputs": [
        {
          "indexed": false,
          "internalType": "uint256",
          "name": "fee",
          "type": "uint256"
        }
      ],
      "name": "UpdateFeeWithCollectionOwner",
      "type": "event"
    },
    {
      "inputs": [],
      "name": "BASIS_POINTS",
      "outputs": [
        {
          "internalType": "uint256",
          "name": "",
          "type": "uint256"
        }
      ],
      "stateMutability": "view",
      "type": "function"
    },
    {
      "inputs": [],
      "name": "DEFAULT_ADMIN_ROLE",
      "outputs": [
        {
          "internalType": "bytes32",
          "name": "",
          "type": "bytes32"
        }
      ],
      "stateMutability": "view",
      "type": "function"
    },
    {
      "inputs": [],
      "name": "MAX_COLLECTION_FEE",
      "outputs": [
        {
          "internalType": "uint256",
          "name": "",
          "type": "uint256"
        }
      ],
      "stateMutability": "view",
      "type": "function"
    },
    {
      "inputs": [],
      "name": "MAX_FEE",
      "outputs": [
        {
          "internalType": "uint256",
          "name": "",
          "type": "uint256"
        }
      ],
      "stateMutability": "view",
      "type": "function"
    },
    {
      "inputs": [],
      "name": "MIN_PRICE",
      "outputs": [
        {
          "internalType": "uint256",
          "name": "",
          "type": "uint256"
        }
      ],
      "stateMutability": "view",
      "type": "function"
    },
    {
      "inputs": [],
      "name": "TREASURE_MARKETPLACE_ADMIN_ROLE",
      "outputs": [
        {
          "internalType": "bytes32",
          "name": "",
          "type": "bytes32"
        }
      ],
      "stateMutability": "view",
      "type": "function"
    },
    {
      "inputs": [
        {
          "components": [
            {
              "internalType": "address",
              "name": "nftAddress",
              "type": "address"
            },
            {
              "internalType": "uint256",
              "name": "tokenId",
              "type": "uint256"
            },
            {
              "internalType": "address",
              "name": "bidder",
              "type": "address"
            },
            {
              "internalType": "uint64",
              "name": "quantity",
              "type": "uint64"
            },
            {
              "internalType": "uint128",
              "name": "pricePerItem",
              "type": "uint128"
            },
            {
              "internalType": "address",
              "name": "paymentToken",
              "type": "address"
            }
          ],
          "internalType": "struct AcceptBidParams",
          "name": "_acceptBidParams",
          "type": "tuple"
        }
      ],
      "name": "acceptCollectionBid",
      "outputs": [],
      "stateMutability": "nonpayable",
      "type": "function"
    },
    {
      "inputs": [
        {
          "components": [
            {
              "internalType": "address",
              "name": "nftAddress",
              "type": "address"
            },
            {
              "internalType": "uint256",
              "name": "tokenId",
              "type": "uint256"
            },
            {
              "internalType": "address",
              "name": "bidder",
              "type": "address"
            },
            {
              "internalType": "uint64",
              "name": "quantity",
              "type": "uint64"
            },
            {
              "internalType": "uint128",
              "name": "pricePerItem",
              "type": "uint128"
            },
            {
              "internalType": "address",
              "name": "paymentToken",
              "type": "address"
            }
          ],
          "internalType": "struct AcceptBidParams",
          "name": "_acceptBidParams",
          "type": "tuple"
        }
      ],
      "name": "acceptTokenBid",
      "outputs": [],
      "stateMutability": "nonpayable",
      "type": "function"
    },
    {
      "inputs": [],
      "name": "areBidsActive",
      "outputs": [
        {
          "internalType": "bool",
          "name": "",
          "type": "bool"
        }
      ],
      "stateMutability": "view",
      "type": "function"
    },
    {
      "inputs": [
        {
          "components": [
            {
              "internalType": "address",
              "name": "nftAddress",
              "type": "address"
            },
            {
              "internalType": "uint256",
              "name": "tokenId",
              "type": "uint256"
            },
            {
              "internalType": "address",
              "name": "owner",
              "type": "address"
            },
            {
              "internalType": "uint64",
              "name": "quantity",
              "type": "uint64"
            },
            {
              "internalType": "uint128",
              "name": "maxPricePerItem",
              "type": "uint128"
            },
            {
              "internalType": "address",
              "name": "paymentToken",
              "type": "address"
            },
            {
              "internalType": "bool",
              "name": "usingEth",
              "type": "bool"
            }
          ],
          "internalType": "struct BuyItemParams[]",
          "name": "_buyItemParams",
          "type": "tuple[]"
        }
      ],
      "name": "buyItems",
      "outputs": [],
      "stateMutability": "payable",
      "type": "function"
    },
    {
      "inputs": [
        {
          "internalType": "address",
          "name": "_nftAddress",
          "type": "address"
        },
        {
          "internalType": "uint256",
          "name": "_tokenId",
          "type": "uint256"
        }
      ],
      "name": "cancelListing",
      "outputs": [],
      "stateMutability": "nonpayable",
      "type": "function"
    },
    {
      "inputs": [
        {
          "components": [
            {
              "internalType": "enum BidType",
              "name": "bidType",
              "type": "uint8"
            },
            {
              "internalType": "address",
              "name": "nftAddress",
              "type": "address"
            },
            {
              "internalType": "uint256",
              "name": "tokenId",
              "type": "uint256"
            }
          ],
          "internalType": "struct CancelBidParams[]",
          "name": "_cancelBidParams",
          "type": "tuple[]"
        }
      ],
      "name": "cancelManyBids",
      "outputs": [],
      "stateMutability": "nonpayable",
      "type": "function"
    },
    {
      "inputs": [
        {
          "internalType": "address",
          "name": "",
          "type": "address"
        },
        {
          "internalType": "address",
          "name": "",
          "type": "address"
        }
      ],
      "name": "collectionBids",
      "outputs": [
        {
          "internalType": "uint64",
          "name": "quantity",
          "type": "uint64"
        },
        {
          "internalType": "uint128",
          "name": "pricePerItem",
          "type": "uint128"
        },
        {
          "internalType": "uint64",
          "name": "expirationTime",
          "type": "uint64"
        },
        {
          "internalType": "address",
          "name": "paymentTokenAddress",
          "type": "address"
        }
      ],
      "stateMutability": "view",
      "type": "function"
    },
    {
      "inputs": [
        {
          "internalType": "address",
          "name": "",
          "type": "address"
        }
      ],
      "name": "collectionToCollectionOwnerFee",
      "outputs": [
        {
          "internalType": "uint32",
          "name": "fee",
          "type": "uint32"
        },
        {
          "internalType": "address",
          "name": "recipient",
          "type": "address"
        }
      ],
      "stateMutability": "view",
      "type": "function"
    },
    {
      "inputs": [
        {
          "internalType": "address",
          "name": "",
          "type": "address"
        }
      ],
      "name": "collectionToPaymentToken",
      "outputs": [
        {
          "internalType": "address",
          "name": "",
          "type": "address"
        }
      ],
      "stateMutability": "view",
      "type": "function"
    },
    {
      "inputs": [
        {
          "internalType": "address",
          "name": "_nftAddress",
          "type": "address"
        },
        {
          "internalType": "uint256",
          "name": "_tokenId",
          "type": "uint256"
        },
        {
          "internalType": "uint64",
          "name": "_quantity",
          "type": "uint64"
        },
        {
          "internalType": "uint128",
          "name": "_pricePerItem",
          "type": "uint128"
        },
        {
          "internalType": "uint64",
          "name": "_expirationTime",
          "type": "uint64"
        },
        {
          "internalType": "address",
          "name": "_paymentToken",
          "type": "address"
        }
      ],
      "name": "createListing",
      "outputs": [],
      "stateMutability": "nonpayable",
      "type": "function"
    },
    {
      "inputs": [
        {
          "internalType": "address",
          "name": "_nftAddress",
          "type": "address"
        },
        {
          "internalType": "uint64",
          "name": "_quantity",
          "type": "uint64"
        },
        {
          "internalType": "uint128",
          "name": "_pricePerItem",
          "type": "uint128"
        },
        {
          "internalType": "uint64",
          "name": "_expirationTime",
          "type": "uint64"
        },
        {
          "internalType": "address",
          "name": "_paymentToken",
          "type": "address"
        }
      ],
      "name": "createOrUpdateCollectionBid",
      "outputs": [],
      "stateMutability": "nonpayable",
      "type": "function"
    },
    {
      "inputs": [
        {
          "internalType": "address",
          "name": "_nftAddress",
          "type": "address"
        },
        {
          "internalType": "uint256",
          "name": "_tokenId",
          "type": "uint256"
        },
        {
          "internalType": "uint64",
          "name": "_quantity",
          "type": "uint64"
        },
        {
          "internalType": "uint128",
          "name": "_pricePerItem",
          "type": "uint128"
        },
        {
          "internalType": "uint64",
          "name": "_expirationTime",
          "type": "uint64"
        },
        {
          "internalType": "address",
          "name": "_paymentToken",
          "type": "address"
        }
      ],
      "name": "createOrUpdateTokenBid",
      "outputs": [],
      "stateMutability": "nonpayable",
      "type": "function"
    },
    {
      "inputs": [],
      "name": "fee",
      "outputs": [
        {
          "internalType": "uint256",
          "name": "",
          "type": "uint256"
        }
      ],
      "stateMutability": "view",
      "type": "function"
    },
    {
      "inputs": [],
      "name": "feeReceipient",
      "outputs": [
        {
          "internalType": "address",
          "name": "",
          "type": "address"
        }
      ],
      "stateMutability": "view",
      "type": "function"
    },
    {
      "inputs": [],
      "name": "feeWithCollectionOwner",
      "outputs": [
        {
          "internalType": "uint256",
          "name": "",
          "type": "uint256"
        }
      ],
      "stateMutability": "view",
      "type": "function"
    },
    {
      "inputs": [
        {
          "internalType": "address",
          "name": "_collection",
          "type": "address"
        }
      ],
      "name": "getPaymentTokenForCollection",
      "outputs": [
        {
          "internalType": "address",
          "name": "",
          "type": "address"
        }
      ],
      "stateMutability": "view",
      "type": "function"
    },
    {
      "inputs": [
        {
          "internalType": "bytes32",
          "name": "role",
          "type": "bytes32"
        }
      ],
      "name": "getRoleAdmin",
      "outputs": [
        {
          "internalType": "bytes32",
          "name": "",
          "type": "bytes32"
        }
      ],
      "stateMutability": "view",
      "type": "function"
    },
    {
      "inputs": [
        {
          "internalType": "bytes32",
          "name": "role",
          "type": "bytes32"
        },
        {
          "internalType": "uint256",
          "name": "index",
          "type": "uint256"
        }
      ],
      "name": "getRoleMember",
      "outputs": [
        {
          "internalType": "address",
          "name": "",
          "type": "address"
        }
      ],
      "stateMutability": "view",
      "type": "function"
    },
    {
      "inputs": [
        {
          "internalType": "bytes32",
          "name": "role",
          "type": "bytes32"
        }
      ],
      "name": "getRoleMemberCount",
      "outputs": [
        {
          "internalType": "uint256",
          "name": "",
          "type": "uint256"
        }
      ],
      "stateMutability": "view",
      "type": "function"
    },
    {
      "inputs": [
        {
          "internalType": "bytes32",
          "name": "role",
          "type": "bytes32"
        },
        {
          "internalType": "address",
          "name": "account",
          "type": "address"
        }
      ],
      "name": "grantRole",
      "outputs": [],
      "stateMutability": "nonpayable",
      "type": "function"
    },
    {
      "inputs": [
        {
          "internalType": "bytes32",
          "name": "role",
          "type": "bytes32"
        },
        {
          "internalType": "address",
          "name": "account",
          "type": "address"
        }
      ],
      "name": "hasRole",
      "outputs": [
        {
          "internalType": "bool",
          "name": "",
          "type": "bool"
        }
      ],
      "stateMutability": "view",
      "type": "function"
    },
    {
      "inputs": [
        {
          "internalType": "uint256",
          "name": "_initialFee",
          "type": "uint256"
        },
        {
          "internalType": "address",
          "name": "_initialFeeRecipient",
          "type": "address"
        },
        {
          "internalType": "contract IERC20Upgradeable",
          "name": "_initialPaymentToken",
          "type": "address"
        }
      ],
      "name": "initialize",
      "outputs": [],
      "stateMutability": "nonpayable",
      "type": "function"
    },
    {
      "inputs": [
        {
          "internalType": "address",
          "name": "",
          "type": "address"
        },
        {
          "internalType": "uint256",
          "name": "",
          "type": "uint256"
        },
        {
          "internalType": "address",
          "name": "",
          "type": "address"
        }
      ],
      "name": "listings",
      "outputs": [
        {
          "internalType": "uint64",
          "name": "quantity",
          "type": "uint64"
        },
        {
          "internalType": "uint128",
          "name": "pricePerItem",
          "type": "uint128"
        },
        {
          "internalType": "uint64",
          "name": "expirationTime",
          "type": "uint64"
        },
        {
          "internalType": "address",
          "name": "paymentTokenAddress",
          "type": "address"
        }
      ],
      "stateMutability": "view",
      "type": "function"
    },
    {
      "inputs": [],
      "name": "pause",
      "outputs": [],
      "stateMutability": "nonpayable",
      "type": "function"
    },
    {
      "inputs": [],
      "name": "paused",
      "outputs": [
        {
          "internalType": "bool",
          "name": "",
          "type": "bool"
        }
      ],
      "stateMutability": "view",
      "type": "function"
    },
    {
      "inputs": [],
      "name": "paymentToken",
      "outputs": [
        {
          "internalType": "contract IERC20Upgradeable",
          "name": "",
          "type": "address"
        }
      ],
      "stateMutability": "view",
      "type": "function"
    },
    {
      "inputs": [
        {
          "internalType": "bytes32",
          "name": "role",
          "type": "bytes32"
        },
        {
          "internalType": "address",
          "name": "account",
          "type": "address"
        }
      ],
      "name": "renounceRole",
      "outputs": [],
      "stateMutability": "nonpayable",
      "type": "function"
    },
    {
      "inputs": [
        {
          "internalType": "bytes32",
          "name": "role",
          "type": "bytes32"
        },
        {
          "internalType": "address",
          "name": "account",
          "type": "address"
        }
      ],
      "name": "revokeRole",
      "outputs": [],
      "stateMutability": "nonpayable",
      "type": "function"
    },
    {
      "inputs": [
        {
          "internalType": "address",
          "name": "_collectionAddress",
          "type": "address"
        },
        {
          "components": [
            {
              "internalType": "uint32",
              "name": "fee",
              "type": "uint32"
            },
            {
              "internalType": "address",
              "name": "recipient",
              "type": "address"
            }
          ],
          "internalType": "struct TreasureMarketplace.CollectionOwnerFee",
          "name": "_collectionOwnerFee",
          "type": "tuple"
        }
      ],
      "name": "setCollectionOwnerFee",
      "outputs": [],
      "stateMutability": "nonpayable",
      "type": "function"
    },
    {
      "inputs": [
        {
          "internalType": "uint256",
          "name": "_newFee",
          "type": "uint256"
        },
        {
          "internalType": "uint256",
          "name": "_newFeeWithCollectionOwner",
          "type": "uint256"
        }
      ],
      "name": "setFee",
      "outputs": [],
      "stateMutability": "nonpayable",
      "type": "function"
    },
    {
      "inputs": [
        {
          "internalType": "address",
          "name": "_newFeeRecipient",
          "type": "address"
        }
      ],
      "name": "setFeeRecipient",
      "outputs": [],
      "stateMutability": "nonpayable",
      "type": "function"
    },
    {
      "inputs": [
        {
          "internalType": "address",
          "name": "_nft",
          "type": "address"
        },
        {
          "internalType": "enum TreasureMarketplace.TokenApprovalStatus",
          "name": "_status",
          "type": "uint8"
        },
        {
          "internalType": "address",
          "name": "_paymentToken",
          "type": "address"
        }
      ],
      "name": "setTokenApprovalStatus",
      "outputs": [],
      "stateMutability": "nonpayable",
      "type": "function"
    },
    {
      "inputs": [
        {
          "internalType": "address",
          "name": "_wethAddress",
          "type": "address"
        }
      ],
      "name": "setWeth",
      "outputs": [],
      "stateMutability": "nonpayable",
      "type": "function"
    },
    {
      "inputs": [
        {
          "internalType": "bytes4",
          "name": "interfaceId",
          "type": "bytes4"
        }
      ],
      "name": "supportsInterface",
      "outputs": [
        {
          "internalType": "bool",
          "name": "",
          "type": "bool"
        }
      ],
      "stateMutability": "view",
      "type": "function"
    },
    {
      "inputs": [],
      "name": "toggleAreBidsActive",
      "outputs": [],
      "stateMutability": "nonpayable",
      "type": "function"
    },
    {
      "inputs": [
        {
          "internalType": "address",
          "name": "",
          "type": "address"
        }
      ],
      "name": "tokenApprovals",
      "outputs": [
        {
          "internalType": "enum TreasureMarketplace.TokenApprovalStatus",
          "name": "",
          "type": "uint8"
        }
      ],
      "stateMutability": "view",
      "type": "function"
    },
    {
      "inputs": [
        {
          "internalType": "address",
          "name": "",
          "type": "address"
        },
        {
          "internalType": "uint256",
          "name": "",
          "type": "uint256"
        },
        {
          "internalType": "address",
          "name": "",
          "type": "address"
        }
      ],
      "name": "tokenBids",
      "outputs": [
        {
          "internalType": "uint64",
          "name": "quantity",
          "type": "uint64"
        },
        {
          "internalType": "uint128",
          "name": "pricePerItem",
          "type": "uint128"
        },
        {
          "internalType": "uint64",
          "name": "expirationTime",
          "type": "uint64"
        },
        {
          "internalType": "address",
          "name": "paymentTokenAddress",
          "type": "address"
        }
      ],
      "stateMutability": "view",
      "type": "function"
    },
    {
      "inputs": [],
      "name": "unpause",
      "outputs": [],
      "stateMutability": "nonpayable",
      "type": "function"
    },
    {
      "inputs": [
        {
          "internalType": "address",
          "name": "_nftAddress",
          "type": "address"
        },
        {
          "internalType": "uint256",
          "name": "_tokenId",
          "type": "uint256"
        },
        {
          "internalType": "uint64",
          "name": "_newQuantity",
          "type": "uint64"
        },
        {
          "internalType": "uint128",
          "name": "_newPricePerItem",
          "type": "uint128"
        },
        {
          "internalType": "uint64",
          "name": "_newExpirationTime",
          "type": "uint64"
        },
        {
          "internalType": "address",
          "name": "_paymentToken",
          "type": "address"
        }
      ],
      "name": "updateListing",
      "outputs": [],
      "stateMutability": "nonpayable",
      "type": "function"
    },
    {
      "inputs": [],
      "name": "weth",
      "outputs": [
        {
          "internalType": "contract IERC20Upgradeable",
          "name": "",
          "type": "address"
        }
      ],
      "stateMutability": "view",
      "type": "function"
    }
  ],
  "transactionHash": "0x79ad5954ce4f8191cae38b6f523b884e564e5bf0f0a9e38a75117836049eeaa6",
  "args": [],
  "numDeployments": 2,
  "solcInputHash": "09a175fa8b203925ef52b36dcecb0138",
  "bytecode": "0x60806040523480156200001157600080fd5b50600054610100900460ff166200002f5760005460ff161562000039565b62000039620000de565b620000a15760405162461bcd60e51b815260206004820152602e60248201527f496e697469616c697a61626c653a20636f6e747261637420697320616c72656160448201526d191e481a5b9a5d1a585b1a5e995960921b606482015260840160405180910390fd5b600054610100900460ff16158015620000c4576000805461ffff19166101011790555b8015620000d7576000805461ff00191690555b506200010b565b6000620000f630620000fc60201b620020ee1760201c565b15905090565b6001600160a01b03163b151590565b6152c8806200011b6000396000f3fe60806040526004361061027d5760003560e01c80639010d07c1161014f578063bc063e1a116100c1578063ddca3f431161007a578063ddca3f43146108c2578063e1f1c4a7146108d9578063e74b981b146108ef578063e76c17131461090f578063e8a5f2001461094d578063f4930d3e146109b857600080fd5b8063bc063e1a146107b4578063c564e3a1146107ca578063c5da1183146107ea578063c7cbcb3e1461080a578063ca15c87314610882578063d547741f146108a257600080fd5b8063a07076b211610113578063a07076b214610714578063a217fddf14610727578063ad9f20a61461073c578063b2ddee0614610754578063b4988fd014610774578063b8d1452f1461079457600080fd5b80639010d07c1461062c57806391d148541461064c5780639858bc9f1461066c57806398803a83146106825780639a867aab146106f457600080fd5b806344c7f047116101f35780636bd3a64b116101ac5780636bd3a64b146104cf578063785a8678146105895780637945e944146105a05780638456cb59146105c057806384fa3146146105d55780638852e220146105f557600080fd5b806344c7f047146104225780634aecaa25146104375780634e96358d1461045757806352f7c988146104775780635c975abb14610497578063656b67ad146104af57600080fd5b80632f2ff15d116102455780632f2ff15d146103525780633013ce291461037257806336568abe146103ab5780633740ebb3146103cb5780633f4ba83a146103ec5780633fc8cef31461040157600080fd5b806301ffc9a714610282578063083aded7146102b757806319d89436146102d2578063248a9ca3146102f45780632c45209814610332575b600080fd5b34801561028e57600080fd5b506102a261029d3660046146db565b6109da565b60405190151581526020015b60405180910390f35b3480156102c357600080fd5b50610138546102a29060ff1681565b3480156102de57600080fd5b506102f26102ed36600461471a565b610a05565b005b34801561030057600080fd5b5061032461030f36600461475b565b60009081526065602052604090206001015490565b6040519081526020016102ae565b34801561033e57600080fd5b506102f261034d3660046147a7565b610c05565b34801561035e57600080fd5b506102f261036d36600461481a565b610f06565b34801561037e57600080fd5b5061012d54610393906001600160a01b031681565b6040516001600160a01b0390911681526020016102ae565b3480156103b757600080fd5b506102f26103c636600461481a565b610f31565b3480156103d757600080fd5b5061012f54610393906001600160a01b031681565b3480156103f857600080fd5b506102f2610faf565b34801561040d57600080fd5b5061013554610393906001600160a01b031681565b34801561042e57600080fd5b506102f2610fd3565b34801561044357600080fd5b506102f261045236600461484a565b611002565b34801561046357600080fd5b506102f26104723660046148be565b611220565b34801561048357600080fd5b506102f261049236600461490d565b611561565b3480156104a357600080fd5b5060c95460ff166102a2565b3480156104bb57600080fd5b506102f26104ca36600461492f565b611649565b3480156104db57600080fd5b506105476104ea366004614947565b610130602090815260009384526040808520825292845282842090528252902080546001909101546001600160401b03808316926001600160801b03600160401b82041692600160c01b909104909116906001600160a01b031684565b604080516001600160401b0395861681526001600160801b0394909416602085015291909316908201526001600160a01b0390911660608201526080016102ae565b34801561059557600080fd5b506103246101325481565b3480156105ac57600080fd5b506103936105bb36600461497e565b6116ca565b3480156105cc57600080fd5b506102f2611709565b3480156105e157600080fd5b506102f26105f036600461492f565b61172a565b34801561060157600080fd5b5061039361061036600461497e565b610134602052600090815260409020546001600160a01b031681565b34801561063857600080fd5b5061039361064736600461490d565b6117a3565b34801561065857600080fd5b506102a261066736600461481a565b6117bb565b34801561067857600080fd5b506103246102ee81565b34801561068e57600080fd5b5061054761069d36600461499b565b610137602090815260009283526040808420909152908252902080546001909101546001600160401b03808316926001600160801b03600160401b82041692600160c01b909104909116906001600160a01b031684565b34801561070057600080fd5b506102f261070f3660046147a7565b6117e6565b6102f26107223660046149c9565b6118b8565b34801561073357600080fd5b50610324600081565b34801561074857600080fd5b50610324633b9aca0081565b34801561076057600080fd5b506102f261076f366004614a2b565b6119a8565b34801561078057600080fd5b506102f261078f366004614a57565b611a41565b3480156107a057600080fd5b506102f26107af36600461497e565b611bdd565b3480156107c057600080fd5b506103246105dc81565b3480156107d657600080fd5b506102f26107e5366004614a7e565b611c74565b3480156107f657600080fd5b506102f26108053660046147a7565b611ec9565b34801561081657600080fd5b50610547610825366004614947565b610136602090815260009384526040808520825292845282842090528252902080546001909101546001600160401b03808316926001600160801b03600160401b82041692600160c01b909104909116906001600160a01b031684565b34801561088e57600080fd5b5061032461089d36600461475b565b611fd8565b3480156108ae57600080fd5b506102f26108bd36600461481a565b611fef565b3480156108ce57600080fd5b5061032461012e5481565b3480156108e557600080fd5b5061032461271081565b3480156108fb57600080fd5b506102f261090a36600461497e565b612015565b34801561091b57600080fd5b5061094061092a36600461497e565b6101316020526000908152604090205460ff1681565b6040516102ae9190614b13565b34801561095957600080fd5b5061099461096836600461497e565b6101336020526000908152604090205463ffffffff81169064010000000090046001600160a01b031682565b6040805163ffffffff90931683526001600160a01b039091166020830152016102ae565b3480156109c457600080fd5b5061032460008051602061527383398151915281565b60006001600160e01b03198216635a05180f60e01b14806109ff57506109ff826120fd565b92915050565b600080516020615273833981519152610a1e8133612132565b60026001600160a01b0384166000908152610131602052604090205460ff166002811115610a4e57610a4e614ae9565b1480610a87575060016001600160a01b0384166000908152610131602052604090205460ff166002811115610a8557610a85614ae9565b145b610af05760405162461bcd60e51b815260206004820152602f60248201527f54726561737572654d61726b6574706c6163653a20436f6c6c656374696f6e2060448201526e1a5cc81b9bdd08185c1c1c9bdd9959608a1b60648201526084015b60405180910390fd5b6102ee610b006020840184614b33565b63ffffffff161115610b695760405162461bcd60e51b815260206004820152602c60248201527f54726561737572654d61726b6574706c6163653a20436f6c6c656374696f6e2060448201526b0cccaca40e8dede40d0d2ced60a31b6064820152608401610ae7565b6001600160a01b0383166000908152610133602052604090208290610b8e8282614b50565b507f67fec56f6f9c18f46aafdc92ee08968b7cac01e9e5b3dbdd485415acf0e9773e905083610bc3604085016020860161497e565b610bd06020860186614b33565b604080516001600160a01b03948516815293909216602084015263ffffffff16908201526060015b60405180910390a1505050565b600260fb541415610c285760405162461bcd60e51b8152600401610ae790614ba9565b600260fb5560c95460ff1615610c505760405162461bcd60e51b8152600401610ae790614be0565b6101385460ff16610c735760405162461bcd60e51b8152600401610ae790614c0a565b60016001600160a01b0387166000908152610131602052604090205460ff166002811115610ca357610ca3614ae9565b1415610d2457836001600160401b0316600114610d1f5760405162461bcd60e51b815260206004820152603460248201527f54726561737572654d61726b6574706c6163653a20746f6b656e20626964207160448201527375616e74697479203120666f722045524337323160601b6064820152608401610ae7565b610e24565b60026001600160a01b0387166000908152610131602052604090205460ff166002811115610d5457610d54614ae9565b1415610dbd576000846001600160401b031611610d1f5760405162461bcd60e51b815260206004820152602160248201527f54726561737572654d61726b6574706c6163653a20626164207175616e7469746044820152607960f81b6064820152608401610ae7565b60405162461bcd60e51b815260206004820152603660248201527f54726561737572654d61726b6574706c6163653a20746f6b656e206973206e6f6044820152757420617070726f76656420666f722074726164696e6760501b6064820152608401610ae7565b6001600160a01b0386166000908152610136602090815260408083208884529091528120610e7e918891879187918791879190335b6001600160a01b03166001600160a01b03168152602001908152602001600020612196565b7faa16fd3f89fcc221b55be8ebd56c20abf3a580c60a83d5de297e0edf750aeae8335b604080516001600160a01b039283168152828a1660208201529081018890526001600160401b0380881660608301526001600160801b0387166080830152851660a082015290831660c082015260e00160405180910390a15050600160fb5550505050565b600082815260656020526040902060010154610f228133612132565b610f2c8383612475565b505050565b6001600160a01b0381163314610fa15760405162461bcd60e51b815260206004820152602f60248201527f416363657373436f6e74726f6c3a2063616e206f6e6c792072656e6f756e636560448201526e103937b632b9903337b91039b2b63360891b6064820152608401610ae7565b610fab8282612497565b5050565b600080516020615273833981519152610fc88133612132565b610fd06124b9565b50565b600080516020615273833981519152610fec8133612132565b50610138805460ff19811660ff90911615179055565b600260fb5414156110255760405162461bcd60e51b8152600401610ae790614ba9565b600260fb5560005b81811015611216573683838381811061104857611048614c54565b606002919091019150600190506110626020830183614c6a565b600181111561107357611073614ae9565b141561114a5760006101378161108f604085016020860161497e565b6001600160a01b03166001600160a01b0316815260200190815260200160002060006110b83390565b6001600160a01b031681526020810191909152604001600020805467ffffffffffffffff19166001600160401b03929092169190911790557ff5913151c29e184e3a477be2274f0b06b63cd67c1ab11e1cc103d25701cfbdf233611122604084016020850161497e565b604080516001600160a01b0393841681529290911660208301520160405180910390a1611203565b600061013681611160604085016020860161497e565b6001600160a01b0316815260208082019290925260409081016000908120858301803583529084528282203380845290855292909120805467ffffffffffffffff19166001600160401b0395909516949094179093557fc98088fb062dda614ae7304b89526258370705c2646039e06beff408428a6b9c9290916111e69190850161497e565b83604001356040516111fa93929190614c8b565b60405180910390a15b508061120e81614cc5565b91505061102d565b5050600160fb5550565b6000805160206152738339815191526112398133612132565b600183600281111561124d5761124d614ae9565b1415611327576040516301ffc9a760e01b81526380ac58cd60e01b60048201526001600160a01b038516906301ffc9a790602401602060405180830381865afa15801561129e573d6000803e3d6000fd5b505050506040513d601f19601f820116820180604052508101906112c29190614cee565b6113225760405162461bcd60e51b815260206004820152602b60248201527f54726561737572654d61726b6574706c6163653a206e6f7420616e204552433760448201526a0c8c4818dbdb9d1c9858dd60aa1b6064820152608401610ae7565b611411565b600283600281111561133b5761133b614ae9565b1415611411576040516301ffc9a760e01b8152636cdb3d1360e11b60048201526001600160a01b038516906301ffc9a790602401602060405180830381865afa15801561138c573d6000803e3d6000fd5b505050506040513d601f19601f820116820180604052508101906113b09190614cee565b6114115760405162461bcd60e51b815260206004820152602c60248201527f54726561737572654d61726b6574706c6163653a206e6f7420616e204552433160448201526b0c4d4d4818dbdb9d1c9858dd60a21b6064820152608401610ae7565b6001600160a01b0382161580159061144f5750610135546001600160a01b038381169116148061144f575061012d546001600160a01b038381169116145b6114b45760405162461bcd60e51b815260206004820152603060248201527f54726561737572654d61726b6574706c6163653a205061796d656e7420746f6b60448201526f195b881b9bdd081cdd5c1c1bdc9d195960821b6064820152608401610ae7565b6001600160a01b038416600090815261013160205260409020805484919060ff191660018360028111156114ea576114ea614ae9565b02179055506001600160a01b03848116600090815261013460205260409081902080546001600160a01b03191692851692909217909155517f876079e5f28457db5d4f19b6a15569030a7512eb4308523b27062fa6998baeab9061155390869086908690614d0b565b60405180910390a150505050565b60008051602061527383398151915261157a8133612132565b6105dc831115801561158e57506105dc8211155b6115da5760405162461bcd60e51b815260206004820152601c60248201527f54726561737572654d61726b6574706c6163653a206d617820666565000000006044820152606401610ae7565b61012e8390556101328290556040518381527f38e229a7f3f9c329892d08eb37c4e91ccac6d12c798d394990ca4f56028ec2669060200160405180910390a16040518281527f32837ab65d8583d89ac1b66920de55975eb33cbc0fbf00f2123197ce3b62c63e90602001610bf8565b600260fb54141561166c5760405162461bcd60e51b8152600401610ae790614ba9565b600260fb5560c95460ff16156116945760405162461bcd60e51b8152600401610ae790614be0565b6101385460ff166116b75760405162461bcd60e51b8152600401610ae790614c0a565b6116c281600161254c565b50600160fb55565b6001600160a01b038082166000908152610134602052604081205490911680156116f45780611702565b61012d546001600160a01b03165b9392505050565b6000805160206152738339815191526117228133612132565b610fd0612d67565b600260fb54141561174d5760405162461bcd60e51b8152600401610ae790614ba9565b600260fb5560c95460ff16156117755760405162461bcd60e51b8152600401610ae790614be0565b6101385460ff166117985760405162461bcd60e51b8152600401610ae790614c0a565b6116c281600061254c565b60008281526097602052604081206117029083612dbf565b60009182526065602090815260408084206001600160a01b0393909316845291905290205460ff1690565b600260fb5414156118095760405162461bcd60e51b8152600401610ae790614ba9565b600260fb5560c95460ff16156118315760405162461bcd60e51b8152600401610ae790614be0565b6001600160a01b03861660009081526101306020908152604080832088845282528083203384529091529020546001600160401b03166118835760405162461bcd60e51b8152600401610ae790614d3b565b611891868686868686612dcb565b7fde1951e410d2f4644b8dd23d6b9e5d2e862b417055f42e3939ab16b4635ec6de33610ea1565b600260fb5414156118db5760405162461bcd60e51b8152600401610ae790614ba9565b600260fb5560c95460ff16156119035760405162461bcd60e51b8152600401610ae790614be0565b6000805b8281101561194d5761192f84848381811061192457611924614c54565b905060e00201613359565b6119399083614d7f565b91508061194581614cc5565b915050611907565b508034146112165760405162461bcd60e51b815260206004820152602260248201527f54726561737572654d61726b6574706c6163653a20426164204554482076616c604482015261756560f01b6064820152608401610ae7565b600260fb5414156119cb5760405162461bcd60e51b8152600401610ae790614ba9565b600260fb556001600160a01b038216600081815261013060209081526040808320858452825280832033808552925280832083815560010180546001600160a01b0319169055518493927f9ba1a3cb55ce8d63d072a886f94d2a744f50cddf82128e897d0661f5ec62315891a45050600160fb55565b600054610100900460ff16611a5c5760005460ff1615611a60565b303b155b611ac35760405162461bcd60e51b815260206004820152602e60248201527f496e697469616c697a61626c653a20636f6e747261637420697320616c72656160448201526d191e481a5b9a5d1a585b1a5e995960921b6064820152608401610ae7565b600054610100900460ff16158015611ae5576000805461ffff19166101011790555b6001600160a01b038216611b4e5760405162461bcd60e51b815260206004820152602a60248201527f54726561737572654d61726b6574706c6163653a2063616e6e6f7420736574206044820152696164647265737328302960b01b6064820152608401610ae7565b611b56613d03565b611b5e613d2c565b611b66613d5f565b611b7e60008051602061527383398151915280613d8d565b611b9660008051602061527383398151915233612475565b611ba08485611561565b611ba983612015565b61012d80546001600160a01b0319166001600160a01b0384161790558015611bd7576000805461ff00191690555b50505050565b600080516020615273833981519152611bf68133612132565b610135546001600160a01b031615611c505760405162461bcd60e51b815260206004820152601860248201527f57455448206164647265737320616c72656164792073657400000000000000006044820152606401610ae7565b5061013580546001600160a01b0319166001600160a01b0392909216919091179055565b600260fb541415611c975760405162461bcd60e51b8152600401610ae790614ba9565b600260fb5560c95460ff1615611cbf5760405162461bcd60e51b8152600401610ae790614be0565b6101385460ff16611ce25760405162461bcd60e51b8152600401610ae790614c0a565b60016001600160a01b0386166000908152610131602052604090205460ff166002811115611d1257611d12614ae9565b1415611d80576000846001600160401b031611611d7b5760405162461bcd60e51b815260206004820152602160248201527f54726561737572654d61726b6574706c6163653a20426164207175616e7469746044820152607960f81b6064820152608401610ae7565b611e17565b60026001600160a01b0386166000908152610131602052604090205460ff166002811115611db057611db0614ae9565b1415610dbd5760405162461bcd60e51b815260206004820152603060248201527f54726561737572654d61726b6574706c6163653a204e6f20636f6c6c6563746960448201526f6f6e2062696473206f6e20313135357360801b6064820152608401610ae7565b611e4e858585858561013760008c6001600160a01b03166001600160a01b031681526020019081526020016000206000610e593390565b604080513381526001600160a01b0387811660208301526001600160401b03878116838501526001600160801b038716606084015285166080830152831660a082015290517f9f6945ee84d160722b736d12d84f9f3349075d2c78064575b40620be21bf6eef9181900360c00190a15050600160fb55505050565b600260fb541415611eec5760405162461bcd60e51b8152600401610ae790614ba9565b600260fb5560c95460ff1615611f145760405162461bcd60e51b8152600401610ae790614be0565b6001600160a01b03861660009081526101306020908152604080832088845282528083203384529091529020546001600160401b031615611fa35760405162461bcd60e51b815260206004820152602360248201527f54726561737572654d61726b6574706c6163653a20616c7265616479206c69736044820152621d195960ea1b6064820152608401610ae7565b611fb1868686868686612dcb565b7fb21f4a0122c6667aa16da06fcb7d9d3b2688164dfb40b7253aed80ea36d88e9933610ea1565b60008181526097602052604081206109ff90613dd8565b60008281526065602052604090206001015461200b8133612132565b610f2c8383612497565b60008051602061527383398151915261202e8133612132565b6001600160a01b0382166120985760405162461bcd60e51b815260206004820152602b60248201527f54726561737572654d61726b6574706c6163653a2063616e6e6f74207365742060448201526a307830206164647265737360a81b6064820152608401610ae7565b61012f80546001600160a01b0319166001600160a01b0384169081179091556040519081527f6632de8ab33c46549f7bb29f647ea0d751157b25fe6a14b1bcc7527cdfbeb79c9060200160405180910390a15050565b6001600160a01b03163b151590565b60006001600160e01b03198216637965db0b60e01b14806109ff57506301ffc9a760e01b6001600160e01b03198316146109ff565b61213c82826117bb565b610fab57612154816001600160a01b03166014613de2565b61215f836020613de2565b604051602001612170929190614dc3565b60408051601f198184030181529082905262461bcd60e51b8252610ae791600401614e64565b42836001600160401b0316116121be5760405162461bcd60e51b8152600401610ae790614e77565b633b9aca00846001600160801b031610156121eb5760405162461bcd60e51b8152600401610ae790614ec3565b60006121f6876116ca565b9050826001600160a01b0316816001600160a01b0316146122685760405162461bcd60e51b815260206004820152602660248201527f54726561737572654d61726b6574706c6163653a20426164207061796d656e74604482015265103a37b5b2b760d11b6064820152608401610ae7565b82600061227e6001600160401b03891688614f07565b6001600160801b03169050806001600160a01b03831663dd62ed3e336040516001600160e01b031960e084901b1681526001600160a01b039091166004820152306024820152604401602060405180830381865afa1580156122e4573d6000803e3d6000fd5b505050506040513d601f19601f820116820180604052508101906123089190614f36565b1015801561238d5750806001600160a01b0383166370a08231336040516001600160e01b031960e084901b1681526001600160a01b039091166004820152602401602060405180830381865afa158015612366573d6000803e3d6000fd5b505050506040513d601f19601f8201168201806040525081019061238a9190614f36565b10155b6123ff5760405162461bcd60e51b815260206004820152603f60248201527f54726561737572654d61726b6574706c6163653a204e6f7420656e6f7567682060448201527f746f6b656e73206f776e6564206f7220616c6c6f77656420666f7220626964006064820152608401610ae7565b505081546001600160401b03948516600160c01b026001600160c01b036001600160801b03909716600160401b026001600160c01b0319909216959097169490941793909317939093169390931782555060010180546001600160a01b039092166001600160a01b031990921691909117905550565b61247f8282613f7d565b6000828152609760205260409020610f2c9082614003565b6124a18282614018565b6000828152609760205260409020610f2c908261407f565b60c95460ff166125025760405162461bcd60e51b815260206004820152601460248201527314185d5cd8589b194e881b9bdd081c185d5cd95960621b6044820152606401610ae7565b60c9805460ff191690557f5db9ee0a495bf2e6ff9c91a7834c1ba4fdd244a5e8aa4e537bd38aeae4b073aa335b6040516001600160a01b03909116815260200160405180910390a1565b61255c606083016040840161497e565b6001600160a01b0316336001600160a01b031614156125d05760405162461bcd60e51b815260206004820152602a60248201527f54726561737572654d61726b6574706c6163653a2043616e6e6f7420737570706044820152691b1e481bdddb88189a5960b21b6064820152608401610ae7565b60006125e26080840160608501614f4f565b6001600160401b0316116126515760405162461bcd60e51b815260206004820152603060248201527f54726561737572654d61726b6574706c6163653a204e6f7468696e6720746f2060448201526f39bab838363c903a37903134b23232b960811b6064820152608401610ae7565b6000600182600181111561266757612667614ae9565b146126ed57610136600061267e602086018661497e565b6001600160a01b03166001600160a01b0316815260200190815260200160002060008460200135815260200190815260200160002060008460400160208101906126c8919061497e565b6001600160a01b03166001600160a01b03168152602001908152602001600020612755565b61013760006126ff602086018661497e565b6001600160a01b03166001600160a01b031681526020019081526020016000206000846040016020810190612734919061497e565b6001600160a01b03166001600160a01b031681526020019081526020016000205b80549091506001600160401b03166127bf5760405162461bcd60e51b815260206004820152602760248201527f54726561737572654d61726b6574706c6163653a2062696420646f6573206e6f6044820152661d08195e1a5cdd60ca1b6064820152608401610ae7565b805442600160c01b9091046001600160401b031610156128215760405162461bcd60e51b815260206004820181905260248201527f54726561737572654d61726b6574706c6163653a2062696420657870697265646044820152606401610ae7565b8054600160401b90046001600160801b031661288e5760405162461bcd60e51b815260206004820152602660248201527f54726561737572654d61726b6574706c6163653a2062696420707269636520696044820152651b9d985b1a5960d21b6064820152608401610ae7565b61289e6080840160608501614f4f565b81546001600160401b03918216911610156128cb5760405162461bcd60e51b8152600401610ae790614f6a565b6128db60a0840160808501614fb2565b8154600160401b90046001600160801b039081169116146129505760405162461bcd60e51b815260206004820152602960248201527f54726561737572654d61726b6574706c6163653a20707269636520646f6573206044820152680dcdee840dac2e8c6d60bb1b6064820152608401610ae7565b60006129626105bb602086018661497e565b905061297460c0850160a0860161497e565b60018301546001600160a01b0390811691161480156129b357506001600160a01b0381166129a860c0860160a0870161497e565b6001600160a01b0316145b6129cf5760405162461bcd60e51b8152600401610ae790614fcd565b600161013160006129e3602088018861497e565b6001600160a01b0316815260208101919091526040016000205460ff166002811115612a1157612a11614ae9565b1415612b2157612a276080850160608601614f4f565b6001600160401b0316600114612a9b5760405162461bcd60e51b815260206004820152603360248201527f54726561737572654d61726b6574706c6163653a2043616e6e6f7420737570706044820152726c79206d756c7469706c65204552433732317360681b6064820152608401610ae7565b612aa8602085018561497e565b6001600160a01b03166342842e0e33612ac7606088016040890161497e565b87602001356040518463ffffffff1660e01b8152600401612aea93929190614c8b565b600060405180830381600087803b158015612b0457600080fd5b505af1158015612b18573d6000803e3d6000fd5b50505050612bda565b60026101316000612b35602088018861497e565b6001600160a01b0316815260208101919091526040016000205460ff166002811115612b6357612b63614ae9565b1415610dbd57612b76602085018561497e565b6001600160a01b031663f242432a33612b95606088016040890161497e565b6020880135612baa60808a0160608b01614f4f565b604051806020016040528060008152506040518663ffffffff1660e01b8152600401612aea959493929190615015565b604080516080808201835284546001600160401b0380821684526001600160801b03600160401b8304166020850152600160c01b909104169282019290925260018401546001600160a01b0316606080830191909152612c8192612c4391908801908801614f4f565b6001600160401b0316612c59602088018861497e565b612c696060890160408a0161497e565b33612c7a60c08b0160a08c0161497e565b6000614094565b7ff6b2b7813b1815a0e2e32964b4f22ec24862322d9c9c0e0eefac425dfc455ab133612cb3606087016040880161497e565b612cc0602088018861497e565b6020880135612cd560808a0160608b01614f4f565b612ce560a08b0160808c01614fb2565b612cf560c08c0160a08d0161497e565b8a604051612d0a989796959493929190615057565b60405180910390a1612d226080850160608601614f4f565b82548390600090612d3d9084906001600160401b03166150c8565b92506101000a8154816001600160401b0302191690836001600160401b0316021790555050505050565b60c95460ff1615612d8a5760405162461bcd60e51b8152600401610ae790614be0565b60c9805460ff191660011790557f62e78cea01bee320cd4e420270b5ea74000d11b0c9f74754ebdbfc544b05a25861252f3390565b600061170283836141a6565b42826001600160401b031611612df35760405162461bcd60e51b8152600401610ae790614e77565b633b9aca00836001600160801b03161015612e205760405162461bcd60e51b8152600401610ae790614ec3565b60016001600160a01b0387166000908152610131602052604090205460ff166002811115612e5057612e50614ae9565b14156130395785336040516331a9108f60e11b8152600481018890526001600160a01b0391821691831690636352211e90602401602060405180830381865afa158015612ea1573d6000803e3d6000fd5b505050506040513d601f19601f82011682018060405250810190612ec591906150f0565b6001600160a01b031614612f275760405162461bcd60e51b8152602060048201526024808201527f54726561737572654d61726b6574706c6163653a206e6f74206f776e696e67206044820152636974656d60e01b6064820152608401610ae7565b6001600160a01b03811663e985e9c5336040516001600160e01b031960e084901b1681526001600160a01b039091166004820152306024820152604401602060405180830381865afa158015612f81573d6000803e3d6000fd5b505050506040513d601f19601f82011682018060405250810190612fa59190614cee565b612fc15760405162461bcd60e51b8152600401610ae79061510d565b846001600160401b03166001146130335760405162461bcd60e51b815260206004820152603060248201527f54726561737572654d61726b6574706c6163653a2063616e6e6f74206c69737460448201526f206d756c7469706c652045524337323160801b6064820152608401610ae7565b50613258565b60026001600160a01b0387166000908152610131602052604090205460ff16600281111561306957613069614ae9565b1415610dbd57856001600160401b0385166001600160a01b03821662fdd58e336040516001600160e01b031960e084901b1681526001600160a01b039091166004820152602481018a9052604401602060405180830381865afa1580156130d4573d6000803e3d6000fd5b505050506040513d601f19601f820116820180604052508101906130f89190614f36565b10156131595760405162461bcd60e51b815260206004820152602a60248201527f54726561737572654d61726b6574706c6163653a206d75737420686f6c6420656044820152696e6f756768206e66747360b01b6064820152608401610ae7565b6001600160a01b03811663e985e9c5336040516001600160e01b031960e084901b1681526001600160a01b039091166004820152306024820152604401602060405180830381865afa1580156131b3573d6000803e3d6000fd5b505050506040513d601f19601f820116820180604052508101906131d79190614cee565b6131f35760405162461bcd60e51b8152600401610ae79061510d565b6000856001600160401b0316116130335760405162461bcd60e51b8152602060048201526024808201527f54726561737572654d61726b6574706c6163653a206e6f7468696e6720746f206044820152631b1a5cdd60e21b6064820152608401610ae7565b6000613263876116ca565b9050816001600160a01b0316816001600160a01b0316146132965760405162461bcd60e51b8152600401610ae790614fcd565b50604080516080810182526001600160401b0395861681526001600160801b0394851660208083019182529487168284019081526001600160a01b039485166060840190815299851660009081526101308752848120998152988652838920338a529095529190962095518654915193518616600160c01b026001600160c01b0394909516600160401b026001600160c01b03199092169516949094179390931716178255915160019091018054919092166001600160a01b0319909116179055565b600061336b606083016040840161497e565b6001600160a01b0316336001600160a01b031614156133e25760405162461bcd60e51b815260206004820152602d60248201527f54726561737572654d61726b6574706c6163653a2043616e6e6f74206275792060448201526c796f7572206f776e206974656d60981b6064820152608401610ae7565b60006133f46080840160608501614f4f565b6001600160401b0316116134565760405162461bcd60e51b815260206004820152602360248201527f54726561737572654d61726b6574706c6163653a204e6f7468696e6720746f2060448201526262757960e81b6064820152608401610ae7565b600061013081613469602086018661497e565b6001600160a01b03166001600160a01b0316815260200190815260200160002060008460200135815260200190815260200160002060008460400160208101906134b3919061497e565b6001600160a01b0390811682526020808301939093526040918201600020825160808101845281546001600160401b038082168084526001600160801b03600160401b84041697840197909752600160c01b90910416938101939093526001015416606082015291506135385760405162461bcd60e51b8152600401610ae790614d3b565b4281604001516001600160401b031610156135a15760405162461bcd60e51b8152602060048201526024808201527f54726561737572654d61726b6574706c6163653a206c697374696e67206578706044820152631a5c995960e21b6064820152608401610ae7565b600081602001516001600160801b0316116136115760405162461bcd60e51b815260206004820152602a60248201527f54726561737572654d61726b6574706c6163653a206c697374696e672070726960448201526918d9481a5b9d985b1a5960b21b6064820152608401610ae7565b6136216080840160608501614f4f565b6001600160401b031681600001516001600160401b031610156136565760405162461bcd60e51b8152600401610ae790614f6a565b61366660a0840160808501614fb2565b6001600160801b031681602001516001600160801b031611156136d75760405162461bcd60e51b8152602060048201526024808201527f54726561737572654d61726b6574706c6163653a20707269636520696e637265604482015263185cd95960e21b6064820152608401610ae7565b60006136e96105bb602086018661497e565b905060006136f6836141d0565b905061370860c0860160a0870161497e565b6001600160a01b0316816001600160a01b031614801561374857506001600160a01b03821661373d60c0870160a0880161497e565b6001600160a01b0316145b6137645760405162461bcd60e51b8152600401610ae790614fcd565b61377460e0860160c08701615153565b156137fd57610135546001600160a01b038281169116146137fd5760405162461bcd60e51b815260206004820152603760248201527f54726561737572654d61726b6574706c6163653a20455448206f6e6c7920757360448201527f65642077697468207765746820636f6c6c656374696f6e0000000000000000006064820152608401610ae7565b60016101316000613811602089018961497e565b6001600160a01b0316815260208101919091526040016000205460ff16600281111561383f5761383f614ae9565b141561394b576138556080860160608701614f4f565b6001600160401b03166001146138c55760405162461bcd60e51b815260206004820152602f60248201527f54726561737572654d61726b6574706c6163653a2043616e6e6f74206275792060448201526e6d756c7469706c652045524337323160881b6064820152608401610ae7565b6138d2602086018661497e565b6001600160a01b03166342842e0e6138f0606088016040890161497e565b3388602001356040518463ffffffff1660e01b815260040161391493929190614c8b565b600060405180830381600087803b15801561392e57600080fd5b505af1158015613942573d6000803e3d6000fd5b50505050613a04565b6002610131600061395f602089018961497e565b6001600160a01b0316815260208101919091526040016000205460ff16600281111561398d5761398d614ae9565b1415610dbd576139a0602086018661497e565b6001600160a01b031663f242432a6139be606088016040890161497e565b3360208901356139d460808b0160608c01614f4f565b604051806020016040528060008152506040518663ffffffff1660e01b8152600401613914959493929190615015565b613a6483613a186080880160608901614f4f565b6001600160401b0316613a2e602089018961497e565b33613a3f60608b0160408c0161497e565b613a4f60c08c0160a08d0161497e565b613a5f60e08d0160c08e01615153565b614094565b7f72d3f914473a393354e6fcd9c3cb7d2eee53924b9b856f9da274e024566292a5613a95606087016040880161497e565b33613aa3602089018961497e565b6020890135613ab860808b0160608c01614f4f565b6020890151613acd60c08d0160a08e0161497e565b604080516001600160a01b03988916815296881660208801529487169486019490945260608501929092526001600160401b031660808401526001600160801b031660a083015290911660c082015260e00160405180910390a1613b376080860160608701614f4f565b6001600160401b031683600001516001600160401b03161415613be4576101306000613b66602088018861497e565b6001600160a01b03166001600160a01b031681526020019081526020016000206000866020013581526020019081526020016000206000866040016020810190613bb0919061497e565b6001600160a01b031681526020810191909152604001600090812090815560010180546001600160a01b0319169055613ca9565b613bf46080860160608701614f4f565b6101306000613c06602089018961497e565b6001600160a01b03166001600160a01b031681526020019081526020016000206000876020013581526020019081526020016000206000876040016020810190613c50919061497e565b6001600160a01b03168152602081019190915260400160009081208054909190613c849084906001600160401b03166150c8565b92506101000a8154816001600160401b0302191690836001600160401b031602179055505b613cb960e0860160c08701615153565b15613cf8576020830151613cd36080870160608801614f4f565b6001600160401b0316613ce69190614f07565b6001600160801b031695945050505050565b506000949350505050565b600054610100900460ff16613d2a5760405162461bcd60e51b8152600401610ae790615170565b565b600054610100900460ff16613d535760405162461bcd60e51b8152600401610ae790615170565b60c9805460ff19169055565b600054610100900460ff16613d865760405162461bcd60e51b8152600401610ae790615170565b600160fb55565b600082815260656020526040808220600101805490849055905190918391839186917fbd79b86ffe0ab8e8776151514217cd7cacd52c909f66475c3af44e129f0b00ff9190a4505050565b60006109ff825490565b60606000613df18360026151bb565b613dfc906002614d7f565b6001600160401b03811115613e1357613e136151da565b6040519080825280601f01601f191660200182016040528015613e3d576020820181803683370190505b509050600360fc1b81600081518110613e5857613e58614c54565b60200101906001600160f81b031916908160001a905350600f60fb1b81600181518110613e8757613e87614c54565b60200101906001600160f81b031916908160001a9053506000613eab8460026151bb565b613eb6906001614d7f565b90505b6001811115613f2e576f181899199a1a9b1b9c1cb0b131b232b360811b85600f1660108110613eea57613eea614c54565b1a60f81b828281518110613f0057613f00614c54565b60200101906001600160f81b031916908160001a90535060049490941c93613f27816151f0565b9050613eb9565b5083156117025760405162461bcd60e51b815260206004820181905260248201527f537472696e67733a20686578206c656e67746820696e73756666696369656e746044820152606401610ae7565b613f8782826117bb565b610fab5760008281526065602090815260408083206001600160a01b03851684529091529020805460ff19166001179055613fbf3390565b6001600160a01b0316816001600160a01b0316837f2f8788117e7eff1d82e926ec794901d17c78024a50270940304540a733656f0d60405160405180910390a45050565b6000611702836001600160a01b038416614202565b61402282826117bb565b15610fab5760008281526065602090815260408083206001600160a01b0385168085529252808320805460ff1916905551339285917ff6391f5c32d9c69d2a47ea670b442974b53935d1edc7fd64eb21e047a839171b9190a45050565b6000611702836001600160a01b038416614251565b602087015182906000906140b29089906001600160801b03166151bb565b6001600160a01b0380891660009081526101336020526040812054929350640100000000909204169080821561410d575050610132546001600160a01b0389166000908152610133602052604090205463ffffffff16614116565b505061012e5460005b600061271061412584876151bb565b61412f9190615207565b9050600061271061414084886151bb565b61414a9190615207565b61012f54909150614168908c906001600160a01b0316848a8c614344565b6141758b86838a8c614344565b6141968b8b83614185868b615229565b61418f9190615229565b8a8c614344565b5050505050505050505050505050565b60008260000182815481106141bd576141bd614c54565b9060005260206000200154905092915050565b60608101516000906001600160a01b0316156141f05781606001516109ff565b505061012d546001600160a01b031690565b6000818152600183016020526040812054614249575081546001818101845560008481526020808220909301849055845484825282860190935260409020919091556109ff565b5060006109ff565b6000818152600183016020526040812054801561433a576000614275600183615229565b855490915060009061428990600190615229565b90508181146142ee5760008660000182815481106142a9576142a9614c54565b90600052602060002001549050808760000184815481106142cc576142cc614c54565b6000918252602080832090910192909255918252600188019052604090208390555b85548690806142ff576142ff615240565b6001900381819060005260206000200160009055905585600101600086815260200190815260200160002060009055600193505050506109ff565b60009150506109ff565b8261434e5761442e565b8015614419576000846001600160a01b03168460405160006040518083038185875af1925050503d80600081146143a1576040519150601f19603f3d011682016040523d82523d6000602084013e6143a6565b606091505b50509050806144135760405162461bcd60e51b815260206004820152603360248201527f54726561737572654d61726b6574706c6163653a2053656e64696e6720657468604482015272081dd85cc81b9bdd081cdd58d8d95cdcd99d5b606a1b6064820152608401610ae7565b5061442e565b61442e6001600160a01b038316868686614435565b5050505050565b611bd7846323b872dd60e01b85858560405160240161445693929190614c8b565b60408051601f198184030181529190526020810180516001600160e01b03166001600160e01b03199093169290921790915260006144dd826040518060400160405280602081526020017f5361666545524332303a206c6f772d6c6576656c2063616c6c206661696c6564815250856001600160a01b031661455a9092919063ffffffff16565b805190915015610f2c57808060200190518101906144fb9190614cee565b610f2c5760405162461bcd60e51b815260206004820152602a60248201527f5361666545524332303a204552433230206f7065726174696f6e20646964206e6044820152691bdd081cdd58d8d9595960b21b6064820152608401610ae7565b60606145698484600085614571565b949350505050565b6060824710156145d25760405162461bcd60e51b815260206004820152602660248201527f416464726573733a20696e73756666696369656e742062616c616e636520666f6044820152651c8818d85b1b60d21b6064820152608401610ae7565b6001600160a01b0385163b6146295760405162461bcd60e51b815260206004820152601d60248201527f416464726573733a2063616c6c20746f206e6f6e2d636f6e74726163740000006044820152606401610ae7565b600080866001600160a01b031685876040516146459190615256565b60006040518083038185875af1925050503d8060008114614682576040519150601f19603f3d011682016040523d82523d6000602084013e614687565b606091505b50915091506146978282866146a2565b979650505050505050565b606083156146b1575081611702565b8251156146c15782518084602001fd5b8160405162461bcd60e51b8152600401610ae79190614e64565b6000602082840312156146ed57600080fd5b81356001600160e01b03198116811461170257600080fd5b6001600160a01b0381168114610fd057600080fd5b600080828403606081121561472e57600080fd5b833561473981614705565b92506040601f198201121561474d57600080fd5b506020830190509250929050565b60006020828403121561476d57600080fd5b5035919050565b80356001600160401b038116811461478b57600080fd5b919050565b80356001600160801b038116811461478b57600080fd5b60008060008060008060c087890312156147c057600080fd5b86356147cb81614705565b9550602087013594506147e060408801614774565b93506147ee60608801614790565b92506147fc60808801614774565b915060a087013561480c81614705565b809150509295509295509295565b6000806040838503121561482d57600080fd5b82359150602083013561483f81614705565b809150509250929050565b6000806020838503121561485d57600080fd5b82356001600160401b038082111561487457600080fd5b818501915085601f83011261488857600080fd5b81358181111561489757600080fd5b8660206060830285010111156148ac57600080fd5b60209290920196919550909350505050565b6000806000606084860312156148d357600080fd5b83356148de81614705565b92506020840135600381106148f257600080fd5b9150604084013561490281614705565b809150509250925092565b6000806040838503121561492057600080fd5b50508035926020909101359150565b600060c0828403121561494157600080fd5b50919050565b60008060006060848603121561495c57600080fd5b833561496781614705565b925060208401359150604084013561490281614705565b60006020828403121561499057600080fd5b813561170281614705565b600080604083850312156149ae57600080fd5b82356149b981614705565b9150602083013561483f81614705565b600080602083850312156149dc57600080fd5b82356001600160401b03808211156149f357600080fd5b818501915085601f830112614a0757600080fd5b813581811115614a1657600080fd5b86602060e0830285010111156148ac57600080fd5b60008060408385031215614a3e57600080fd5b8235614a4981614705565b946020939093013593505050565b600080600060608486031215614a6c57600080fd5b8335925060208401356148f281614705565b600080600080600060a08688031215614a9657600080fd5b8535614aa181614705565b9450614aaf60208701614774565b9350614abd60408701614790565b9250614acb60608701614774565b91506080860135614adb81614705565b809150509295509295909350565b634e487b7160e01b600052602160045260246000fd5b60038110614b0f57614b0f614ae9565b9052565b602081016109ff8284614aff565b63ffffffff81168114610fd057600080fd5b600060208284031215614b4557600080fd5b813561170281614b21565b8135614b5b81614b21565b63ffffffff8116905081548163ffffffff1982161783556020840135614b8081614705565b6001600160c01b03199190911690911760209190911b640100000000600160c01b031617905550565b6020808252601f908201527f5265656e7472616e637947756172643a207265656e7472616e742063616c6c00604082015260600190565b60208082526010908201526f14185d5cd8589b194e881c185d5cd95960821b604082015260600190565b6020808252602a908201527f54726561737572654d61726b6574706c6163653a2042696464696e67206973206040820152696e6f742061637469766560b01b606082015260800190565b634e487b7160e01b600052603260045260246000fd5b600060208284031215614c7c57600080fd5b81356002811061170257600080fd5b6001600160a01b039384168152919092166020820152604081019190915260600190565b634e487b7160e01b600052601160045260246000fd5b6000600019821415614cd957614cd9614caf565b5060010190565b8015158114610fd057600080fd5b600060208284031215614d0057600080fd5b815161170281614ce0565b6001600160a01b0384811682526060820190614d2a6020840186614aff565b808416604084015250949350505050565b60208082526024908201527f54726561737572654d61726b6574706c6163653a206e6f74206c6973746564206040820152636974656d60e01b606082015260800190565b60008219821115614d9257614d92614caf565b500190565b60005b83811015614db2578181015183820152602001614d9a565b83811115611bd75750506000910152565b7f416363657373436f6e74726f6c3a206163636f756e7420000000000000000000815260008351614dfb816017850160208801614d97565b7001034b99036b4b9b9b4b733903937b6329607d1b6017918401918201528351614e2c816028840160208801614d97565b01602801949350505050565b60008151808452614e50816020860160208601614d97565b601f01601f19169290920160200192915050565b6020815260006117026020830184614e38565b6020808252602c908201527f54726561737572654d61726b6574706c6163653a20696e76616c69642065787060408201526b69726174696f6e2074696d6560a01b606082015260800190565b60208082526024908201527f54726561737572654d61726b6574706c6163653a2062656c6f77206d696e20706040820152637269636560e01b606082015260800190565b60006001600160801b0380831681851681830481118215151615614f2d57614f2d614caf565b02949350505050565b600060208284031215614f4857600080fd5b5051919050565b600060208284031215614f6157600080fd5b61170282614774565b60208082526028908201527f54726561737572654d61726b6574706c6163653a206e6f7420656e6f756768206040820152677175616e7469747960c01b606082015260800190565b600060208284031215614fc457600080fd5b61170282614790565b60208082526028908201527f54726561737572654d61726b6574706c6163653a2057726f6e67207061796d65604082015267373a103a37b5b2b760c11b606082015260800190565b6001600160a01b03868116825285166020820152604081018490526001600160401b038316606082015260a06080820181905260009061469790830184614e38565b6001600160a01b03898116825288811660208301528781166040830152606082018790526001600160401b03861660808301526001600160801b03851660a0830152831660c08201526101008101600283106150b5576150b5614ae9565b8260e08301529998505050505050505050565b60006001600160401b03838116908316818110156150e8576150e8614caf565b039392505050565b60006020828403121561510257600080fd5b815161170281614705565b60208082526026908201527f54726561737572654d61726b6574706c6163653a206974656d206e6f742061706040820152651c1c9bdd995960d21b606082015260800190565b60006020828403121561516557600080fd5b813561170281614ce0565b6020808252602b908201527f496e697469616c697a61626c653a20636f6e7472616374206973206e6f74206960408201526a6e697469616c697a696e6760a81b606082015260800190565b60008160001904831182151516156151d5576151d5614caf565b500290565b634e487b7160e01b600052604160045260246000fd5b6000816151ff576151ff614caf565b506000190190565b60008261522457634e487b7160e01b600052601260045260246000fd5b500490565b60008282101561523b5761523b614caf565b500390565b634e487b7160e01b600052603160045260246000fd5b60008251615268818460208701614d97565b919091019291505056fe34d5e892b0a7ec1561fc4a5fdcb31b798cf623590906b938d356c9619e539958a2646970667358221220948d1f919a58f49ab2f4aabd17dbd40320d97e7b6f022f5225910436e283cb8464736f6c634300080c0033",
  "devdoc": {
    "details": "This contract does not store any tokens at any time, it's only collects details \"the sale\" and approvals         from both parties and preforms non-custodial transaction by transfering NFT from owner to buying and payment         token from buying to NFT owner.",
    "events": {
      "ItemCanceled(address,address,uint256)": {
        "params": {
          "nftAddress": "which token contract holds the formerly offered token",
          "seller": "former offeror of the item",
          "tokenId": "the identifier for the formerly offered token"
        }
      },
      "ItemListed(address,address,uint256,uint64,uint128,uint64,address)": {
        "params": {
          "expirationTime": "UNIX timestamp after when this listing expires",
          "nftAddress": "which token contract holds the offered token",
          "paymentToken": "the token used to list this item",
          "pricePerItem": "the price (in units of the paymentToken) for each token offered",
          "quantity": "how many of this token identifier are offered (or 1 for a ERC-721 token)",
          "seller": "the offeror of the item",
          "tokenId": "the identifier for the offered token"
        }
      },
      "ItemSold(address,address,address,uint256,uint64,uint128,address)": {
        "params": {
          "buyer": "the buyer of the item",
          "nftAddress": "which token contract holds the sold token",
          "paymentToken": "the payment token that was used to pay for this item",
          "pricePerItem": "the price (in units of the paymentToken) for each token sold",
          "quantity": "how many of this token identifier where sold (or 1 for a ERC-721 token)",
          "seller": "the offeror of the item",
          "tokenId": "the identifier for the sold token"
        }
      },
      "ItemUpdated(address,address,uint256,uint64,uint128,uint64,address)": {
        "params": {
          "expirationTime": "UNIX timestamp after when this listing expires",
          "nftAddress": "which token contract holds the offered token",
          "paymentToken": "the token used to list this item",
          "pricePerItem": "the price (in units of the paymentToken) for each token offered",
          "quantity": "how many of this token identifier are offered (or 1 for a ERC-721 token)",
          "seller": "the offeror of the item",
          "tokenId": "the identifier for the offered token"
        }
      },
      "TokenApprovalStatusUpdated(address,uint8,address)": {
        "params": {
          "nft": "which token contract was updated",
          "paymentToken": "the token that will be used for payments for this collection",
          "status": "the new status"
        }
      },
      "UpdateCollectionOwnerFee(address,address,uint256)": {
        "params": {
          "_collection": "The collection",
          "_fee": "The fee amount (in units of basis points)",
          "_recipient": "The recipient of the fees. If the address is 0, the collection fees for this collection have been removed."
        }
      },
      "UpdateFee(uint256)": {
        "params": {
          "fee": "new fee amount (in units of basis points)"
        }
      },
      "UpdateFeeRecipient(address)": {
        "params": {
          "feeRecipient": "the new recipient to get fees"
        }
      },
      "UpdateFeeWithCollectionOwner(uint256)": {
        "params": {
          "fee": "new fee amount (in units of basis points)"
        }
      }
    },
    "kind": "dev",
    "methods": {
      "cancelListing(address,uint256)": {
        "params": {
          "_nftAddress": "which token contract holds the offered token",
          "_tokenId": "the identifier for the offered token"
        }
      },
      "constructor": {
        "custom:oz-upgrades-unsafe-allow": "constructor"
      },
      "createListing(address,uint256,uint64,uint128,uint64,address)": {
        "params": {
          "_expirationTime": "UNIX timestamp after when this listing expires",
          "_nftAddress": "which token contract holds the offered token",
          "_pricePerItem": "the price (in units of the paymentToken) for each token offered",
          "_quantity": "how many of this token identifier are offered (or 1 for a ERC-721 token)",
          "_tokenId": "the identifier for the offered token"
        }
      },
      "getRoleAdmin(bytes32)": {
        "details": "Returns the admin role that controls `role`. See {grantRole} and {revokeRole}. To change a role's admin, use {_setRoleAdmin}."
      },
      "getRoleMember(bytes32,uint256)": {
        "details": "Returns one of the accounts that have `role`. `index` must be a value between 0 and {getRoleMemberCount}, non-inclusive. Role bearers are not sorted in any particular way, and their ordering may change at any point. WARNING: When using {getRoleMember} and {getRoleMemberCount}, make sure you perform all queries on the same block. See the following https://forum.openzeppelin.com/t/iterating-over-elements-on-enumerableset-in-openzeppelin-contracts/2296[forum post] for more information."
      },
      "getRoleMemberCount(bytes32)": {
        "details": "Returns the number of accounts that have `role`. Can be used together with {getRoleMember} to enumerate all bearers of a role."
      },
      "grantRole(bytes32,address)": {
        "details": "Grants `role` to `account`. If `account` had not been already granted `role`, emits a {RoleGranted} event. Requirements: - the caller must have ``role``'s admin role."
      },
      "hasRole(bytes32,address)": {
        "details": "Returns `true` if `account` has been granted `role`."
      },
      "initialize(uint256,address,address)": {
        "details": "The initializer modifier ensures this is only called once, the owner should confirm this was properly         performed before publishing this contract address.",
        "params": {
          "_initialFee": "fee to be paid on each sale, in basis points",
          "_initialFeeRecipient": "wallet to collets fees",
          "_initialPaymentToken": "address of the token that is used for settlement"
        }
      },
      "pause()": {
        "details": "This is callable only by the owner. Canceling listings is not paused."
      },
      "paused()": {
        "details": "Returns true if the contract is paused, and false otherwise."
      },
      "renounceRole(bytes32,address)": {
        "details": "Revokes `role` from the calling account. Roles are often managed via {grantRole} and {revokeRole}: this function's purpose is to provide a mechanism for accounts to lose their privileges if they are compromised (such as when a trusted device is misplaced). If the calling account had been revoked `role`, emits a {RoleRevoked} event. Requirements: - the caller must be `account`."
      },
      "revokeRole(bytes32,address)": {
        "details": "Revokes `role` from `account`. If `account` had been granted `role`, emits a {RoleRevoked} event. Requirements: - the caller must have ``role``'s admin role."
      },
      "setCollectionOwnerFee(address,(uint32,address))": {
        "details": "This is callable only by the owner",
        "params": {
          "_collectionAddress": "The collection in question. This must be whitelisted.",
          "_collectionOwnerFee": "The fee and recipient for the collection. If the 0 address is passed as the recipient, collection specific fees will not be collected."
        }
      },
      "setFee(uint256,uint256)": {
        "details": "This is callable only by the owner. Both fees may not exceed MAX_FEE",
        "params": {
          "_newFee": "the updated fee amount is basis points"
        }
      },
      "setFeeRecipient(address)": {
        "details": "This is callable only by the owner.",
        "params": {
          "_newFeeRecipient": "the wallet to receive fees"
        }
      },
      "setTokenApprovalStatus(address,uint8,address)": {
        "details": "This is callable only by the owner.",
        "params": {
          "_nft": "address of the NFT to be approved",
          "_status": "the kind of NFT approved, or NOT_APPROVED to remove approval"
        }
      },
      "supportsInterface(bytes4)": {
        "details": "See {IERC165-supportsInterface}."
      },
      "unpause()": {
        "details": "This is callable only by the owner."
      },
      "updateListing(address,uint256,uint64,uint128,uint64,address)": {
        "params": {
          "_newExpirationTime": "UNIX timestamp after when this listing expires",
          "_newPricePerItem": "the price (in units of the paymentToken) for each token offered",
          "_newQuantity": "how many of this token identifier are offered (or 1 for a ERC-721 token)",
          "_nftAddress": "which token contract holds the offered token",
          "_tokenId": "the identifier for the offered token"
        }
      }
    },
    "title": "Treasure NFT marketplace",
    "version": 1
  },
  "userdoc": {
    "events": {
      "ItemCanceled(address,address,uint256)": {
        "notice": "An item is no longer listed for sale"
      },
      "ItemListed(address,address,uint256,uint64,uint128,uint64,address)": {
        "notice": "An item was listed for sale"
      },
      "ItemSold(address,address,address,uint256,uint64,uint128,address)": {
        "notice": "A listed item was sold"
      },
      "ItemUpdated(address,address,uint256,uint64,uint128,uint64,address)": {
        "notice": "An item listing was updated"
      },
      "TokenApprovalStatusUpdated(address,uint8,address)": {
        "notice": "The approval status for a token was updated"
      },
      "UpdateCollectionOwnerFee(address,address,uint256)": {
        "notice": "A collection's fees have changed"
      },
      "UpdateFee(uint256)": {
        "notice": "The fee portion was updated"
      },
      "UpdateFeeRecipient(address)": {
        "notice": "The fee recipient was updated"
      },
      "UpdateFeeWithCollectionOwner(uint256)": {
        "notice": "The fee portion was updated for collections that have a collection owner."
      }
    },
    "kind": "user",
    "methods": {
      "BASIS_POINTS()": {
        "notice": "the denominator for portion calculation, i.e. how many basis points are in 100%"
      },
      "MAX_COLLECTION_FEE()": {
        "notice": "the maximum fee which the collection owner may set"
      },
      "MAX_FEE()": {
        "notice": "the maximum fee which the owner may set (in units of basis points)"
      },
      "MIN_PRICE()": {
        "notice": "the minimum price for which any item can be sold"
      },
      "TREASURE_MARKETPLACE_ADMIN_ROLE()": {
        "notice": "TREASURE_MARKETPLACE_ADMIN_ROLE role hash"
      },
      "areBidsActive()": {
        "notice": "Indicates if bid related functions are active."
      },
      "buyItems((address,uint256,address,uint64,uint128,address,bool)[])": {
        "notice": "Buy multiple listed items. You must authorize this marketplace with your payment token to completed the buy or purchase with eth if it is a weth collection."
      },
      "cancelListing(address,uint256)": {
        "notice": "Remove an item listing"
      },
      "collectionBids(address,address)": {
        "notice": "mapping for collection level bids (721 only): nftAddress => offeror"
      },
      "collectionToCollectionOwnerFee(address)": {
        "notice": "Maps the collection address to the fees which the collection owner collects. Some collections may not have a seperate fee, such as those owned by the Treasure DAO."
      },
      "collectionToPaymentToken(address)": {
        "notice": "Maps the collection address to the payment token that will be used for purchasing. If the address is the zero address, it will use the default paymentToken."
      },
      "createListing(address,uint256,uint64,uint128,uint64,address)": {
        "notice": "Creates an item listing. You must authorize this marketplace with your item's token contract to list."
      },
      "createOrUpdateTokenBid(address,uint256,uint64,uint128,uint64,address)": {
        "notice": "Creates a bid for a particular token."
      },
      "fee()": {
        "notice": "fee portion (in basis points) for each sale, (e.g. a value of 100 is 100/10000 = 1%). This is the fee if no collection owner fee is set."
      },
      "feeReceipient()": {
        "notice": "address that receives fees"
      },
      "feeWithCollectionOwner()": {
        "notice": "fee portion (in basis points) for each sale. This is used if a separate fee has been set for the collection owner."
      },
      "initialize(uint256,address,address)": {
        "notice": "Perform initial contract setup"
      },
      "listings(address,uint256,address)": {
        "notice": "mapping for listings, maps: nftAddress => tokenId => offeror"
      },
      "pause()": {
        "notice": "Pauses the marketplace, creatisgn and executing listings is paused"
      },
      "paymentToken()": {
        "notice": "the default token that is used for marketplace sales and fee payments. Can be overridden by collectionToTokenAddress."
      },
      "setCollectionOwnerFee(address,(uint32,address))": {
        "notice": "Updates the fee amount which is collected during sales fro a specific collection"
      },
      "setFee(uint256,uint256)": {
        "notice": "Updates the fee amount which is collected during sales, for both collections with and without owner specific fees."
      },
      "setFeeRecipient(address)": {
        "notice": "Updates the fee recipient which receives fees during sales"
      },
      "setTokenApprovalStatus(address,uint8,address)": {
        "notice": "Sets a token as an approved kind of NFT or as ineligible for trading"
      },
      "tokenApprovals(address)": {
        "notice": "NFTs which the owner has approved to be sold on the marketplace, maps: nftAddress => status"
      },
      "tokenBids(address,uint256,address)": {
        "notice": "mapping for token bids (721/1155): nftAddress => tokneId => offeror"
      },
      "unpause()": {
        "notice": "Unpauses the marketplace, all functionality is restored"
      },
      "updateListing(address,uint256,uint64,uint128,uint64,address)": {
        "notice": "Updates an item listing"
      },
      "weth()": {
        "notice": "The address for weth."
      }
    },
    "notice": "This contract allows you to buy and sell NFTs from token contracts that are approved by the contract owner.         Please note that this contract is upgradeable. In the event of a compromised ProxyAdmin contract owner,         collectable tokens and payments may be at risk. To prevent this, the ProxyAdmin is owned by a multi-sig         governed by the TreasureDAO council.",
    "version": 1
  },
  "storageLayout": {
    "storage": [
      {
        "astId": 705,
        "contract": "contracts/TreasureMarketplace.sol:TreasureMarketplace",
        "label": "_initialized",
        "offset": 0,
        "slot": "0",
        "type": "t_bool"
      },
      {
        "astId": 708,
        "contract": "contracts/TreasureMarketplace.sol:TreasureMarketplace",
        "label": "_initializing",
        "offset": 1,
        "slot": "0",
        "type": "t_bool"
      },
      {
        "astId": 1766,
        "contract": "contracts/TreasureMarketplace.sol:TreasureMarketplace",
        "label": "__gap",
        "offset": 0,
        "slot": "1",
        "type": "t_array(t_uint256)50_storage"
      },
      {
        "astId": 2013,
        "contract": "contracts/TreasureMarketplace.sol:TreasureMarketplace",
        "label": "__gap",
        "offset": 0,
        "slot": "51",
        "type": "t_array(t_uint256)50_storage"
      },
      {
        "astId": 184,
        "contract": "contracts/TreasureMarketplace.sol:TreasureMarketplace",
        "label": "_roles",
        "offset": 0,
        "slot": "101",
        "type": "t_mapping(t_bytes32,t_struct(RoleData)179_storage)"
      },
      {
        "astId": 472,
        "contract": "contracts/TreasureMarketplace.sol:TreasureMarketplace",
        "label": "__gap",
        "offset": 0,
        "slot": "102",
        "type": "t_array(t_uint256)49_storage"
      },
      {
        "astId": 33,
        "contract": "contracts/TreasureMarketplace.sol:TreasureMarketplace",
        "label": "_roleMembers",
        "offset": 0,
        "slot": "151",
        "type": "t_mapping(t_bytes32,t_struct(AddressSet)2338_storage)"
      },
      {
        "astId": 143,
        "contract": "contracts/TreasureMarketplace.sol:TreasureMarketplace",
        "label": "__gap",
        "offset": 0,
        "slot": "152",
        "type": "t_array(t_uint256)49_storage"
      },
      {
        "astId": 793,
        "contract": "contracts/TreasureMarketplace.sol:TreasureMarketplace",
        "label": "_paused",
        "offset": 0,
        "slot": "201",
        "type": "t_bool"
      },
      {
        "astId": 882,
        "contract": "contracts/TreasureMarketplace.sol:TreasureMarketplace",
        "label": "__gap",
        "offset": 0,
        "slot": "202",
        "type": "t_array(t_uint256)49_storage"
      },
      {
        "astId": 897,
        "contract": "contracts/TreasureMarketplace.sol:TreasureMarketplace",
        "label": "_status",
        "offset": 0,
        "slot": "251",
        "type": "t_uint256"
      },
      {
        "astId": 941,
        "contract": "contracts/TreasureMarketplace.sol:TreasureMarketplace",
        "label": "__gap",
        "offset": 0,
        "slot": "252",
        "type": "t_array(t_uint256)49_storage"
      },
      {
        "astId": 2704,
        "contract": "contracts/TreasureMarketplace.sol:TreasureMarketplace",
        "label": "paymentToken",
        "offset": 0,
        "slot": "301",
        "type": "t_contract(IERC20Upgradeable)1142"
      },
      {
        "astId": 2707,
        "contract": "contracts/TreasureMarketplace.sol:TreasureMarketplace",
        "label": "fee",
        "offset": 0,
        "slot": "302",
        "type": "t_uint256"
      },
      {
        "astId": 2710,
        "contract": "contracts/TreasureMarketplace.sol:TreasureMarketplace",
        "label": "feeReceipient",
        "offset": 0,
        "slot": "303",
        "type": "t_address"
      },
      {
        "astId": 2720,
        "contract": "contracts/TreasureMarketplace.sol:TreasureMarketplace",
        "label": "listings",
        "offset": 0,
        "slot": "304",
        "type": "t_mapping(t_address,t_mapping(t_uint256,t_mapping(t_address,t_struct(ListingOrBid)2660_storage)))"
      },
      {
        "astId": 2726,
        "contract": "contracts/TreasureMarketplace.sol:TreasureMarketplace",
        "label": "tokenApprovals",
        "offset": 0,
        "slot": "305",
        "type": "t_mapping(t_address,t_enum(TokenApprovalStatus)2671)"
      },
      {
        "astId": 2729,
        "contract": "contracts/TreasureMarketplace.sol:TreasureMarketplace",
        "label": "feeWithCollectionOwner",
        "offset": 0,
        "slot": "306",
        "type": "t_uint256"
      },
      {
        "astId": 2735,
        "contract": "contracts/TreasureMarketplace.sol:TreasureMarketplace",
        "label": "collectionToCollectionOwnerFee",
        "offset": 0,
        "slot": "307",
        "type": "t_mapping(t_address,t_struct(CollectionOwnerFee)2667_storage)"
      },
      {
        "astId": 2740,
        "contract": "contracts/TreasureMarketplace.sol:TreasureMarketplace",
        "label": "collectionToPaymentToken",
        "offset": 0,
        "slot": "308",
        "type": "t_mapping(t_address,t_address)"
      },
      {
        "astId": 2744,
        "contract": "contracts/TreasureMarketplace.sol:TreasureMarketplace",
        "label": "weth",
        "offset": 0,
        "slot": "309",
        "type": "t_contract(IERC20Upgradeable)1142"
      },
      {
        "astId": 2754,
        "contract": "contracts/TreasureMarketplace.sol:TreasureMarketplace",
        "label": "tokenBids",
        "offset": 0,
        "slot": "310",
        "type": "t_mapping(t_address,t_mapping(t_uint256,t_mapping(t_address,t_struct(ListingOrBid)2660_storage)))"
      },
      {
        "astId": 2762,
        "contract": "contracts/TreasureMarketplace.sol:TreasureMarketplace",
        "label": "collectionBids",
        "offset": 0,
        "slot": "311",
        "type": "t_mapping(t_address,t_mapping(t_address,t_struct(ListingOrBid)2660_storage))"
      },
      {
        "astId": 2765,
        "contract": "contracts/TreasureMarketplace.sol:TreasureMarketplace",
        "label": "areBidsActive",
        "offset": 0,
        "slot": "312",
        "type": "t_bool"
      }
    ],
    "types": {
      "t_address": {
        "encoding": "inplace",
        "label": "address",
        "numberOfBytes": "20"
      },
      "t_array(t_bytes32)dyn_storage": {
        "base": "t_bytes32",
        "encoding": "dynamic_array",
        "label": "bytes32[]",
        "numberOfBytes": "32"
      },
      "t_array(t_uint256)49_storage": {
        "base": "t_uint256",
        "encoding": "inplace",
        "label": "uint256[49]",
        "numberOfBytes": "1568"
      },
      "t_array(t_uint256)50_storage": {
        "base": "t_uint256",
        "encoding": "inplace",
        "label": "uint256[50]",
        "numberOfBytes": "1600"
      },
      "t_bool": {
        "encoding": "inplace",
        "label": "bool",
        "numberOfBytes": "1"
      },
      "t_bytes32": {
        "encoding": "inplace",
        "label": "bytes32",
        "numberOfBytes": "32"
      },
      "t_contract(IERC20Upgradeable)1142": {
        "encoding": "inplace",
        "label": "contract IERC20Upgradeable",
        "numberOfBytes": "20"
      },
      "t_enum(TokenApprovalStatus)2671": {
        "encoding": "inplace",
        "label": "enum TreasureMarketplace.TokenApprovalStatus",
        "numberOfBytes": "1"
      },
      "t_mapping(t_address,t_address)": {
        "encoding": "mapping",
        "key": "t_address",
        "label": "mapping(address => address)",
        "numberOfBytes": "32",
        "value": "t_address"
      },
      "t_mapping(t_address,t_bool)": {
        "encoding": "mapping",
        "key": "t_address",
        "label": "mapping(address => bool)",
        "numberOfBytes": "32",
        "value": "t_bool"
      },
      "t_mapping(t_address,t_enum(TokenApprovalStatus)2671)": {
        "encoding": "mapping",
        "key": "t_address",
        "label": "mapping(address => enum TreasureMarketplace.TokenApprovalStatus)",
        "numberOfBytes": "32",
        "value": "t_enum(TokenApprovalStatus)2671"
      },
      "t_mapping(t_address,t_mapping(t_address,t_struct(ListingOrBid)2660_storage))": {
        "encoding": "mapping",
        "key": "t_address",
        "label": "mapping(address => mapping(address => struct TreasureMarketplace.ListingOrBid))",
        "numberOfBytes": "32",
        "value": "t_mapping(t_address,t_struct(ListingOrBid)2660_storage)"
      },
      "t_mapping(t_address,t_mapping(t_uint256,t_mapping(t_address,t_struct(ListingOrBid)2660_storage)))": {
        "encoding": "mapping",
        "key": "t_address",
        "label": "mapping(address => mapping(uint256 => mapping(address => struct TreasureMarketplace.ListingOrBid)))",
        "numberOfBytes": "32",
        "value": "t_mapping(t_uint256,t_mapping(t_address,t_struct(ListingOrBid)2660_storage))"
      },
      "t_mapping(t_address,t_struct(CollectionOwnerFee)2667_storage)": {
        "encoding": "mapping",
        "key": "t_address",
        "label": "mapping(address => struct TreasureMarketplace.CollectionOwnerFee)",
        "numberOfBytes": "32",
        "value": "t_struct(CollectionOwnerFee)2667_storage"
      },
      "t_mapping(t_address,t_struct(ListingOrBid)2660_storage)": {
        "encoding": "mapping",
        "key": "t_address",
        "label": "mapping(address => struct TreasureMarketplace.ListingOrBid)",
        "numberOfBytes": "32",
        "value": "t_struct(ListingOrBid)2660_storage"
      },
      "t_mapping(t_bytes32,t_struct(AddressSet)2338_storage)": {
        "encoding": "mapping",
        "key": "t_bytes32",
        "label": "mapping(bytes32 => struct EnumerableSetUpgradeable.AddressSet)",
        "numberOfBytes": "32",
        "value": "t_struct(AddressSet)2338_storage"
      },
      "t_mapping(t_bytes32,t_struct(RoleData)179_storage)": {
        "encoding": "mapping",
        "key": "t_bytes32",
        "label": "mapping(bytes32 => struct AccessControlUpgradeable.RoleData)",
        "numberOfBytes": "32",
        "value": "t_struct(RoleData)179_storage"
      },
      "t_mapping(t_bytes32,t_uint256)": {
        "encoding": "mapping",
        "key": "t_bytes32",
        "label": "mapping(bytes32 => uint256)",
        "numberOfBytes": "32",
        "value": "t_uint256"
      },
      "t_mapping(t_uint256,t_mapping(t_address,t_struct(ListingOrBid)2660_storage))": {
        "encoding": "mapping",
        "key": "t_uint256",
        "label": "mapping(uint256 => mapping(address => struct TreasureMarketplace.ListingOrBid))",
        "numberOfBytes": "32",
        "value": "t_mapping(t_address,t_struct(ListingOrBid)2660_storage)"
      },
      "t_struct(AddressSet)2338_storage": {
        "encoding": "inplace",
        "label": "struct EnumerableSetUpgradeable.AddressSet",
        "members": [
          {
            "astId": 2337,
            "contract": "contracts/TreasureMarketplace.sol:TreasureMarketplace",
            "label": "_inner",
            "offset": 0,
            "slot": "0",
            "type": "t_struct(Set)2037_storage"
          }
        ],
        "numberOfBytes": "64"
      },
      "t_struct(CollectionOwnerFee)2667_storage": {
        "encoding": "inplace",
        "label": "struct TreasureMarketplace.CollectionOwnerFee",
        "members": [
          {
            "astId": 2663,
            "contract": "contracts/TreasureMarketplace.sol:TreasureMarketplace",
            "label": "fee",
            "offset": 0,
            "slot": "0",
            "type": "t_uint32"
          },
          {
            "astId": 2666,
            "contract": "contracts/TreasureMarketplace.sol:TreasureMarketplace",
            "label": "recipient",
            "offset": 4,
            "slot": "0",
            "type": "t_address"
          }
        ],
        "numberOfBytes": "32"
      },
      "t_struct(ListingOrBid)2660_storage": {
        "encoding": "inplace",
        "label": "struct TreasureMarketplace.ListingOrBid",
        "members": [
          {
            "astId": 2650,
            "contract": "contracts/TreasureMarketplace.sol:TreasureMarketplace",
            "label": "quantity",
            "offset": 0,
            "slot": "0",
            "type": "t_uint64"
          },
          {
            "astId": 2653,
            "contract": "contracts/TreasureMarketplace.sol:TreasureMarketplace",
            "label": "pricePerItem",
            "offset": 8,
            "slot": "0",
            "type": "t_uint128"
          },
          {
            "astId": 2656,
            "contract": "contracts/TreasureMarketplace.sol:TreasureMarketplace",
            "label": "expirationTime",
            "offset": 24,
            "slot": "0",
            "type": "t_uint64"
          },
          {
            "astId": 2659,
            "contract": "contracts/TreasureMarketplace.sol:TreasureMarketplace",
            "label": "paymentTokenAddress",
            "offset": 0,
            "slot": "1",
            "type": "t_address"
          }
        ],
        "numberOfBytes": "64"
      },
      "t_struct(RoleData)179_storage": {
        "encoding": "inplace",
        "label": "struct AccessControlUpgradeable.RoleData",
        "members": [
          {
            "astId": 176,
            "contract": "contracts/TreasureMarketplace.sol:TreasureMarketplace",
            "label": "members",
            "offset": 0,
            "slot": "0",
            "type": "t_mapping(t_address,t_bool)"
          },
          {
            "astId": 178,
            "contract": "contracts/TreasureMarketplace.sol:TreasureMarketplace",
            "label": "adminRole",
            "offset": 0,
            "slot": "1",
            "type": "t_bytes32"
          }
        ],
        "numberOfBytes": "64"
      },
      "t_struct(Set)2037_storage": {
        "encoding": "inplace",
        "label": "struct EnumerableSetUpgradeable.Set",
        "members": [
          {
            "astId": 2032,
            "contract": "contracts/TreasureMarketplace.sol:TreasureMarketplace",
            "label": "_values",
            "offset": 0,
            "slot": "0",
            "type": "t_array(t_bytes32)dyn_storage"
          },
          {
            "astId": 2036,
            "contract": "contracts/TreasureMarketplace.sol:TreasureMarketplace",
            "label": "_indexes",
            "offset": 0,
            "slot": "1",
            "type": "t_mapping(t_bytes32,t_uint256)"
          }
        ],
        "numberOfBytes": "64"
      },
      "t_uint128": {
        "encoding": "inplace",
        "label": "uint128",
        "numberOfBytes": "16"
      },
      "t_uint256": {
        "encoding": "inplace",
        "label": "uint256",
        "numberOfBytes": "32"
      },
      "t_uint32": {
        "encoding": "inplace",
        "label": "uint32",
        "numberOfBytes": "4"
      },
      "t_uint64": {
        "encoding": "inplace",
        "label": "uint64",
        "numberOfBytes": "8"
      }
    }
  }
}