{
  "address": "0x4FC1C2E2b8A6832E49a74f1332dc20772F843eEa",
  "abi": [
    {
      "inputs": [],
      "stateMutability": "nonpayable",
      "type": "constructor"
    },
    {
      "anonymous": false,
      "inputs": [
        {
          "indexed": true,
          "internalType": "address",
          "name": "seller",
          "type": "address"
        },
        {
          "indexed": true,
          "internalType": "address",
          "name": "nftAddress",
          "type": "address"
        },
        {
          "indexed": true,
          "internalType": "uint256",
          "name": "tokenId",
          "type": "uint256"
        }
      ],
      "name": "ItemCanceled",
      "type": "event"
    },
    {
      "anonymous": false,
      "inputs": [
        {
          "indexed": false,
          "internalType": "address",
          "name": "seller",
          "type": "address"
        },
        {
          "indexed": false,
          "internalType": "address",
          "name": "nftAddress",
          "type": "address"
        },
        {
          "indexed": false,
          "internalType": "uint256",
          "name": "tokenId",
          "type": "uint256"
        },
        {
          "indexed": false,
          "internalType": "uint64",
          "name": "quantity",
          "type": "uint64"
        },
        {
          "indexed": false,
          "internalType": "uint128",
          "name": "pricePerItem",
          "type": "uint128"
        },
        {
          "indexed": false,
          "internalType": "uint64",
          "name": "expirationTime",
          "type": "uint64"
        }
      ],
      "name": "ItemListed",
      "type": "event"
    },
    {
      "anonymous": false,
      "inputs": [
        {
          "indexed": false,
          "internalType": "address",
          "name": "seller",
          "type": "address"
        },
        {
          "indexed": false,
          "internalType": "address",
          "name": "buyer",
          "type": "address"
        },
        {
          "indexed": false,
          "internalType": "address",
          "name": "nftAddress",
          "type": "address"
        },
        {
          "indexed": false,
          "internalType": "uint256",
          "name": "tokenId",
          "type": "uint256"
        },
        {
          "indexed": false,
          "internalType": "uint64",
          "name": "quantity",
          "type": "uint64"
        },
        {
          "indexed": false,
          "internalType": "uint128",
          "name": "pricePerItem",
          "type": "uint128"
        }
      ],
      "name": "ItemSold",
      "type": "event"
    },
    {
      "anonymous": false,
      "inputs": [
        {
          "indexed": false,
          "internalType": "address",
          "name": "seller",
          "type": "address"
        },
        {
          "indexed": false,
          "internalType": "address",
          "name": "nftAddress",
          "type": "address"
        },
        {
          "indexed": false,
          "internalType": "uint256",
          "name": "tokenId",
          "type": "uint256"
        },
        {
          "indexed": false,
          "internalType": "uint64",
          "name": "quantity",
          "type": "uint64"
        },
        {
          "indexed": false,
          "internalType": "uint128",
          "name": "pricePerItem",
          "type": "uint128"
        },
        {
          "indexed": false,
          "internalType": "uint64",
          "name": "expirationTime",
          "type": "uint64"
        }
      ],
      "name": "ItemUpdated",
      "type": "event"
    },
    {
      "anonymous": false,
      "inputs": [
        {
          "indexed": false,
          "internalType": "address",
          "name": "account",
          "type": "address"
        }
      ],
      "name": "Paused",
      "type": "event"
    },
    {
      "anonymous": false,
      "inputs": [
        {
          "indexed": true,
          "internalType": "bytes32",
          "name": "role",
          "type": "bytes32"
        },
        {
          "indexed": true,
          "internalType": "bytes32",
          "name": "previousAdminRole",
          "type": "bytes32"
        },
        {
          "indexed": true,
          "internalType": "bytes32",
          "name": "newAdminRole",
          "type": "bytes32"
        }
      ],
      "name": "RoleAdminChanged",
      "type": "event"
    },
    {
      "anonymous": false,
      "inputs": [
        {
          "indexed": true,
          "internalType": "bytes32",
          "name": "role",
          "type": "bytes32"
        },
        {
          "indexed": true,
          "internalType": "address",
          "name": "account",
          "type": "address"
        },
        {
          "indexed": true,
          "internalType": "address",
          "name": "sender",
          "type": "address"
        }
      ],
      "name": "RoleGranted",
      "type": "event"
    },
    {
      "anonymous": false,
      "inputs": [
        {
          "indexed": true,
          "internalType": "bytes32",
          "name": "role",
          "type": "bytes32"
        },
        {
          "indexed": true,
          "internalType": "address",
          "name": "account",
          "type": "address"
        },
        {
          "indexed": true,
          "internalType": "address",
          "name": "sender",
          "type": "address"
        }
      ],
      "name": "RoleRevoked",
      "type": "event"
    },
    {
      "anonymous": false,
      "inputs": [
        {
          "indexed": false,
          "internalType": "address",
          "name": "nft",
          "type": "address"
        },
        {
          "indexed": false,
          "internalType": "enum TreasureMarketplace.TokenApprovalStatus",
          "name": "status",
          "type": "uint8"
        }
      ],
      "name": "TokenApprovalStatusUpdated",
      "type": "event"
    },
    {
      "anonymous": false,
      "inputs": [
        {
          "indexed": false,
          "internalType": "address",
          "name": "account",
          "type": "address"
        }
      ],
      "name": "Unpaused",
      "type": "event"
    },
    {
      "anonymous": false,
      "inputs": [
        {
          "indexed": false,
          "internalType": "address",
          "name": "_collection",
          "type": "address"
        },
        {
          "indexed": false,
          "internalType": "address",
          "name": "_recipient",
          "type": "address"
        },
        {
          "indexed": false,
          "internalType": "uint256",
          "name": "_fee",
          "type": "uint256"
        }
      ],
      "name": "UpdateCollectionOwnerFee",
      "type": "event"
    },
    {
      "anonymous": false,
      "inputs": [
        {
          "indexed": false,
          "internalType": "uint256",
          "name": "fee",
          "type": "uint256"
        }
      ],
      "name": "UpdateFee",
      "type": "event"
    },
    {
      "anonymous": false,
      "inputs": [
        {
          "indexed": false,
          "internalType": "address",
          "name": "feeRecipient",
          "type": "address"
        }
      ],
      "name": "UpdateFeeRecipient",
      "type": "event"
    },
    {
      "anonymous": false,
      "inputs": [
        {
          "indexed": false,
          "internalType": "uint256",
          "name": "fee",
          "type": "uint256"
        }
      ],
      "name": "UpdateFeeWithCollectionOwner",
      "type": "event"
    },
    {
      "inputs": [],
      "name": "BASIS_POINTS",
      "outputs": [
        {
          "internalType": "uint256",
          "name": "",
          "type": "uint256"
        }
      ],
      "stateMutability": "view",
      "type": "function"
    },
    {
      "inputs": [],
      "name": "DEFAULT_ADMIN_ROLE",
      "outputs": [
        {
          "internalType": "bytes32",
          "name": "",
          "type": "bytes32"
        }
      ],
      "stateMutability": "view",
      "type": "function"
    },
    {
      "inputs": [],
      "name": "MAX_COLLECTION_FEE",
      "outputs": [
        {
          "internalType": "uint256",
          "name": "",
          "type": "uint256"
        }
      ],
      "stateMutability": "view",
      "type": "function"
    },
    {
      "inputs": [],
      "name": "MAX_FEE",
      "outputs": [
        {
          "internalType": "uint256",
          "name": "",
          "type": "uint256"
        }
      ],
      "stateMutability": "view",
      "type": "function"
    },
    {
      "inputs": [],
      "name": "MIN_PRICE",
      "outputs": [
        {
          "internalType": "uint256",
          "name": "",
          "type": "uint256"
        }
      ],
      "stateMutability": "view",
      "type": "function"
    },
    {
      "inputs": [],
      "name": "TREASURE_MARKETPLACE_ADMIN_ROLE",
      "outputs": [
        {
          "internalType": "bytes32",
          "name": "",
          "type": "bytes32"
        }
      ],
      "stateMutability": "view",
      "type": "function"
    },
    {
      "inputs": [
        {
          "internalType": "address",
          "name": "_nftAddress",
          "type": "address"
        },
        {
          "internalType": "uint256",
          "name": "_tokenId",
          "type": "uint256"
        },
        {
          "internalType": "address",
          "name": "_owner",
          "type": "address"
        },
        {
          "internalType": "uint64",
          "name": "_quantity",
          "type": "uint64"
        },
        {
          "internalType": "uint128",
          "name": "_maxPricePerItem",
          "type": "uint128"
        }
      ],
      "name": "buyItem",
      "outputs": [],
      "stateMutability": "nonpayable",
      "type": "function"
    },
    {
      "inputs": [
        {
          "internalType": "address",
          "name": "_nftAddress",
          "type": "address"
        },
        {
          "internalType": "uint256",
          "name": "_tokenId",
          "type": "uint256"
        }
      ],
      "name": "cancelListing",
      "outputs": [],
      "stateMutability": "nonpayable",
      "type": "function"
    },
    {
      "inputs": [
        {
          "internalType": "address",
          "name": "",
          "type": "address"
        }
      ],
      "name": "collectionToCollectionOwnerFee",
      "outputs": [
        {
          "internalType": "uint32",
          "name": "fee",
          "type": "uint32"
        },
        {
          "internalType": "address",
          "name": "recipient",
          "type": "address"
        }
      ],
      "stateMutability": "view",
      "type": "function"
    },
    {
      "inputs": [
        {
          "internalType": "address",
          "name": "_nftAddress",
          "type": "address"
        },
        {
          "internalType": "uint256",
          "name": "_tokenId",
          "type": "uint256"
        },
        {
          "internalType": "uint64",
          "name": "_quantity",
          "type": "uint64"
        },
        {
          "internalType": "uint128",
          "name": "_pricePerItem",
          "type": "uint128"
        },
        {
          "internalType": "uint64",
          "name": "_expirationTime",
          "type": "uint64"
        }
      ],
      "name": "createListing",
      "outputs": [],
      "stateMutability": "nonpayable",
      "type": "function"
    },
    {
      "inputs": [],
      "name": "fee",
      "outputs": [
        {
          "internalType": "uint256",
          "name": "",
          "type": "uint256"
        }
      ],
      "stateMutability": "view",
      "type": "function"
    },
    {
      "inputs": [],
      "name": "feeReceipient",
      "outputs": [
        {
          "internalType": "address",
          "name": "",
          "type": "address"
        }
      ],
      "stateMutability": "view",
      "type": "function"
    },
    {
      "inputs": [],
      "name": "feeWithCollectionOwner",
      "outputs": [
        {
          "internalType": "uint256",
          "name": "",
          "type": "uint256"
        }
      ],
      "stateMutability": "view",
      "type": "function"
    },
    {
      "inputs": [
        {
          "internalType": "bytes32",
          "name": "role",
          "type": "bytes32"
        }
      ],
      "name": "getRoleAdmin",
      "outputs": [
        {
          "internalType": "bytes32",
          "name": "",
          "type": "bytes32"
        }
      ],
      "stateMutability": "view",
      "type": "function"
    },
    {
      "inputs": [
        {
          "internalType": "bytes32",
          "name": "role",
          "type": "bytes32"
        },
        {
          "internalType": "uint256",
          "name": "index",
          "type": "uint256"
        }
      ],
      "name": "getRoleMember",
      "outputs": [
        {
          "internalType": "address",
          "name": "",
          "type": "address"
        }
      ],
      "stateMutability": "view",
      "type": "function"
    },
    {
      "inputs": [
        {
          "internalType": "bytes32",
          "name": "role",
          "type": "bytes32"
        }
      ],
      "name": "getRoleMemberCount",
      "outputs": [
        {
          "internalType": "uint256",
          "name": "",
          "type": "uint256"
        }
      ],
      "stateMutability": "view",
      "type": "function"
    },
    {
      "inputs": [
        {
          "internalType": "bytes32",
          "name": "role",
          "type": "bytes32"
        },
        {
          "internalType": "address",
          "name": "account",
          "type": "address"
        }
      ],
      "name": "grantRole",
      "outputs": [],
      "stateMutability": "nonpayable",
      "type": "function"
    },
    {
      "inputs": [
        {
          "internalType": "bytes32",
          "name": "role",
          "type": "bytes32"
        },
        {
          "internalType": "address",
          "name": "account",
          "type": "address"
        }
      ],
      "name": "hasRole",
      "outputs": [
        {
          "internalType": "bool",
          "name": "",
          "type": "bool"
        }
      ],
      "stateMutability": "view",
      "type": "function"
    },
    {
      "inputs": [
        {
          "internalType": "uint256",
          "name": "_initialFee",
          "type": "uint256"
        },
        {
          "internalType": "address",
          "name": "_initialFeeRecipient",
          "type": "address"
        },
        {
          "internalType": "contract IERC20Upgradeable",
          "name": "_initialPaymentToken",
          "type": "address"
        }
      ],
      "name": "initialize",
      "outputs": [],
      "stateMutability": "nonpayable",
      "type": "function"
    },
    {
      "inputs": [
        {
          "internalType": "address",
          "name": "",
          "type": "address"
        },
        {
          "internalType": "uint256",
          "name": "",
          "type": "uint256"
        },
        {
          "internalType": "address",
          "name": "",
          "type": "address"
        }
      ],
      "name": "listings",
      "outputs": [
        {
          "internalType": "uint64",
          "name": "quantity",
          "type": "uint64"
        },
        {
          "internalType": "uint128",
          "name": "pricePerItem",
          "type": "uint128"
        },
        {
          "internalType": "uint64",
          "name": "expirationTime",
          "type": "uint64"
        }
      ],
      "stateMutability": "view",
      "type": "function"
    },
    {
      "inputs": [],
      "name": "pause",
      "outputs": [],
      "stateMutability": "nonpayable",
      "type": "function"
    },
    {
      "inputs": [],
      "name": "paused",
      "outputs": [
        {
          "internalType": "bool",
          "name": "",
          "type": "bool"
        }
      ],
      "stateMutability": "view",
      "type": "function"
    },
    {
      "inputs": [],
      "name": "paymentToken",
      "outputs": [
        {
          "internalType": "contract IERC20Upgradeable",
          "name": "",
          "type": "address"
        }
      ],
      "stateMutability": "view",
      "type": "function"
    },
    {
      "inputs": [
        {
          "internalType": "bytes32",
          "name": "role",
          "type": "bytes32"
        },
        {
          "internalType": "address",
          "name": "account",
          "type": "address"
        }
      ],
      "name": "renounceRole",
      "outputs": [],
      "stateMutability": "nonpayable",
      "type": "function"
    },
    {
      "inputs": [
        {
          "internalType": "bytes32",
          "name": "role",
          "type": "bytes32"
        },
        {
          "internalType": "address",
          "name": "account",
          "type": "address"
        }
      ],
      "name": "revokeRole",
      "outputs": [],
      "stateMutability": "nonpayable",
      "type": "function"
    },
    {
      "inputs": [
        {
          "internalType": "address",
          "name": "_collectionAddress",
          "type": "address"
        },
        {
          "components": [
            {
              "internalType": "uint32",
              "name": "fee",
              "type": "uint32"
            },
            {
              "internalType": "address",
              "name": "recipient",
              "type": "address"
            }
          ],
          "internalType": "struct TreasureMarketplace.CollectionOwnerFee",
          "name": "_collectionOwnerFee",
          "type": "tuple"
        }
      ],
      "name": "setCollectionOwnerFee",
      "outputs": [],
      "stateMutability": "nonpayable",
      "type": "function"
    },
    {
      "inputs": [
        {
          "internalType": "uint256",
          "name": "_newFee",
          "type": "uint256"
        },
        {
          "internalType": "uint256",
          "name": "_newFeeWithCollectionOwner",
          "type": "uint256"
        }
      ],
      "name": "setFee",
      "outputs": [],
      "stateMutability": "nonpayable",
      "type": "function"
    },
    {
      "inputs": [
        {
          "internalType": "address",
          "name": "_newFeeRecipient",
          "type": "address"
        }
      ],
      "name": "setFeeRecipient",
      "outputs": [],
      "stateMutability": "nonpayable",
      "type": "function"
    },
    {
      "inputs": [
        {
          "internalType": "address",
          "name": "_nft",
          "type": "address"
        },
        {
          "internalType": "enum TreasureMarketplace.TokenApprovalStatus",
          "name": "_status",
          "type": "uint8"
        }
      ],
      "name": "setTokenApprovalStatus",
      "outputs": [],
      "stateMutability": "nonpayable",
      "type": "function"
    },
    {
      "inputs": [
        {
          "internalType": "bytes4",
          "name": "interfaceId",
          "type": "bytes4"
        }
      ],
      "name": "supportsInterface",
      "outputs": [
        {
          "internalType": "bool",
          "name": "",
          "type": "bool"
        }
      ],
      "stateMutability": "view",
      "type": "function"
    },
    {
      "inputs": [
        {
          "internalType": "address",
          "name": "",
          "type": "address"
        }
      ],
      "name": "tokenApprovals",
      "outputs": [
        {
          "internalType": "enum TreasureMarketplace.TokenApprovalStatus",
          "name": "",
          "type": "uint8"
        }
      ],
      "stateMutability": "view",
      "type": "function"
    },
    {
      "inputs": [],
      "name": "unpause",
      "outputs": [],
      "stateMutability": "nonpayable",
      "type": "function"
    },
    {
      "inputs": [
        {
          "internalType": "address",
          "name": "_nftAddress",
          "type": "address"
        },
        {
          "internalType": "uint256",
          "name": "_tokenId",
          "type": "uint256"
        },
        {
          "internalType": "uint64",
          "name": "_newQuantity",
          "type": "uint64"
        },
        {
          "internalType": "uint128",
          "name": "_newPricePerItem",
          "type": "uint128"
        },
        {
          "internalType": "uint64",
          "name": "_newExpirationTime",
          "type": "uint64"
        }
      ],
      "name": "updateListing",
      "outputs": [],
      "stateMutability": "nonpayable",
      "type": "function"
    }
  ],
  "transactionHash": "0xccc6f37579efb6e40b80181c9aaf9e68cd91d9655617534110205da25d5bf65c",
  "args": [],
  "numDeployments": 2,
  "solcInputHash": "8dce0c260e8e7a34d729159e80582ca2",
  "bytecode": "0x60806040523480156200001157600080fd5b50600054610100900460ff166200002f5760005460ff161562000039565b62000039620000de565b620000a15760405162461bcd60e51b815260206004820152602e60248201527f496e697469616c697a61626c653a20636f6e747261637420697320616c72656160448201526d191e481a5b9a5d1a585b1a5e995960921b606482015260840160405180910390fd5b600054610100900460ff16158015620000c4576000805461ffff19166101011790555b8015620000d7576000805461ff00191690555b506200010b565b6000620000f630620000fc60201b6200180c1760201c565b15905090565b6001600160a01b03163b151590565b613059806200011b6000396000f3fe608060405234801561001057600080fd5b50600436106101fb5760003560e01c80639010d07c1161011a578063ca15c873116100ad578063e1f1c4a71161007c578063e1f1c4a714610483578063e74b981b1461048c578063e76c17131461049f578063e8a5f200146104d0578063f4930d3e1461052e57600080fd5b8063ca15c87314610440578063d547741f14610453578063dc4bb22d14610466578063ddca3f431461047957600080fd5b8063ad9f20a6116100e9578063ad9f20a614610406578063b2ddee0614610411578063b4988fd014610424578063bc063e1a1461043757600080fd5b80639010d07c146103cf57806391d14854146103e25780639858bc9f146103f5578063a217fddf146103fe57600080fd5b8063452f44b3116101925780636bd3a64b116101615780636bd3a64b14610320578063764d63c7146103aa578063785a8678146103bd5780638456cb59146103c757600080fd5b8063452f44b3146102dc57806352f7c988146102ef5780635c975abb146103025780636943acce1461030d57600080fd5b80633013ce29116101ce5780633013ce291461028157806336568abe146102ad5780633740ebb3146102c05780633f4ba83a146102d457600080fd5b806301ffc9a71461020057806319d8943614610228578063248a9ca31461023d5780632f2ff15d1461026e575b600080fd5b61021361020e36600461287d565b610543565b60405190151581526020015b60405180910390f35b61023b6102363660046128bc565b61056e565b005b61026061024b3660046128fd565b60009081526065602052604090206001015490565b60405190815260200161021f565b61023b61027c366004612916565b61076e565b61012d54610295906001600160a01b031681565b6040516001600160a01b03909116815260200161021f565b61023b6102bb366004612916565b610799565b61012f54610295906001600160a01b031681565b61023b610817565b61023b6102ea366004612946565b61083b565b61023b6102fd366004612978565b610a98565b60c95460ff16610213565b61023b61031b3660046129cd565b610b80565b61037861032e366004612a2f565b6101306020908152600093845260408085208252928452828420905282529020546001600160401b03808216916001600160801b03600160401b82041691600160c01b9091041683565b604080516001600160401b0394851681526001600160801b03909316602084015292169181019190915260600161021f565b61023b6103b8366004612a71565b611231565b6102606101325481565b61023b611396565b6102956103dd366004612978565b6113b7565b6102136103f0366004612916565b6113d6565b6102606102ee81565b610260600081565b610260633b9aca0081565b61023b61041f366004612ac5565b611401565b61023b610432366004612af1565b611489565b6102606105dc81565b61026061044e3660046128fd565b611625565b61023b610461366004612916565b61163c565b61023b610474366004612a71565b611662565b61026061012e5481565b61026061271081565b61023b61049a366004612b28565b611733565b6104c36104ad366004612b28565b6101316020526000908152604090205460ff1681565b60405161021f9190612b7d565b61050a6104de366004612b28565b6101336020526000908152604090205463ffffffff81169064010000000090046001600160a01b031682565b6040805163ffffffff90931683526001600160a01b0390911660208301520161021f565b61026060008051602061300483398151915281565b60006001600160e01b03198216635a05180f60e01b148061056857506105688261181b565b92915050565b6000805160206130048339815191526105878133611850565b60026001600160a01b0384166000908152610131602052604090205460ff1660028111156105b7576105b7612b45565b14806105f0575060016001600160a01b0384166000908152610131602052604090205460ff1660028111156105ee576105ee612b45565b145b6106595760405162461bcd60e51b815260206004820152602f60248201527f54726561737572654d61726b6574706c6163653a20436f6c6c656374696f6e2060448201526e1a5cc81b9bdd08185c1c1c9bdd9959608a1b60648201526084015b60405180910390fd5b6102ee6106696020840184612b9d565b63ffffffff1611156106d25760405162461bcd60e51b815260206004820152602c60248201527f54726561737572654d61726b6574706c6163653a20436f6c6c656374696f6e2060448201526b0cccaca40e8dede40d0d2ced60a31b6064820152608401610650565b6001600160a01b03831660009081526101336020526040902082906106f78282612bba565b507f67fec56f6f9c18f46aafdc92ee08968b7cac01e9e5b3dbdd485415acf0e9773e90508361072c6040850160208601612b28565b6107396020860186612b9d565b604080516001600160a01b03948516815293909216602084015263ffffffff16908201526060015b60405180910390a1505050565b60008281526065602052604090206001015461078a8133611850565b61079483836118b4565b505050565b6001600160a01b03811633146108095760405162461bcd60e51b815260206004820152602f60248201527f416363657373436f6e74726f6c3a2063616e206f6e6c792072656e6f756e636560448201526e103937b632b9903337b91039b2b63360891b6064820152608401610650565b61081382826118d6565b5050565b6000805160206130048339815191526108308133611850565b6108386118f8565b50565b6000805160206130048339815191526108548133611850565b600182600281111561086857610868612b45565b1415610942576040516301ffc9a760e01b81526380ac58cd60e01b60048201526001600160a01b038416906301ffc9a790602401602060405180830381865afa1580156108b9573d6000803e3d6000fd5b505050506040513d601f19601f820116820180604052508101906108dd9190612c13565b61093d5760405162461bcd60e51b815260206004820152602b60248201527f54726561737572654d61726b6574706c6163653a206e6f7420616e204552433760448201526a0c8c4818dbdb9d1c9858dd60aa1b6064820152608401610650565b610a2c565b600282600281111561095657610956612b45565b1415610a2c576040516301ffc9a760e01b8152636cdb3d1360e11b60048201526001600160a01b038416906301ffc9a790602401602060405180830381865afa1580156109a7573d6000803e3d6000fd5b505050506040513d601f19601f820116820180604052508101906109cb9190612c13565b610a2c5760405162461bcd60e51b815260206004820152602c60248201527f54726561737572654d61726b6574706c6163653a206e6f7420616e204552433160448201526b0c4d4d4818dbdb9d1c9858dd60a21b6064820152608401610650565b6001600160a01b038316600090815261013160205260409020805483919060ff19166001836002811115610a6257610a62612b45565b02179055507fca446620807f89a7a1b4e55f8d40d10825d760be101a4deba2ff4a67c8bca9518383604051610761929190612c35565b600080516020613004833981519152610ab18133611850565b6105dc8311158015610ac557506105dc8211155b610b115760405162461bcd60e51b815260206004820152601c60248201527f54726561737572654d61726b6574706c6163653a206d617820666565000000006044820152606401610650565b61012e8390556101328290556040518381527f38e229a7f3f9c329892d08eb37c4e91ccac6d12c798d394990ca4f56028ec2669060200160405180910390a16040518281527f32837ab65d8583d89ac1b66920de55975eb33cbc0fbf00f2123197ce3b62c63e90602001610761565b600260fb541415610ba35760405162461bcd60e51b815260040161065090612c52565b600260fb5560c95460ff1615610bcb5760405162461bcd60e51b815260040161065090612c89565b336001600160a01b0384161415610c3a5760405162461bcd60e51b815260206004820152602d60248201527f54726561737572654d61726b6574706c6163653a2043616e6e6f74206275792060448201526c796f7572206f776e206974656d60981b6064820152608401610650565b6000826001600160401b031611610c9f5760405162461bcd60e51b815260206004820152602360248201527f54726561737572654d61726b6574706c6163653a204e6f7468696e6720746f2060448201526262757960e81b6064820152608401610650565b6001600160a01b038086166000908152610130602090815260408083208884528252808320938716835292815290829020825160608101845290546001600160401b038082168084526001600160801b03600160401b84041694840194909452600160c01b9091041692810192909252610d2b5760405162461bcd60e51b815260040161065090612cb3565b4281604001516001600160401b03161015610d945760405162461bcd60e51b8152602060048201526024808201527f54726561737572654d61726b6574706c6163653a206c697374696e67206578706044820152631a5c995960e21b6064820152608401610650565b600081602001516001600160801b031611610e045760405162461bcd60e51b815260206004820152602a60248201527f54726561737572654d61726b6574706c6163653a206c697374696e672070726960448201526918d9481a5b9d985b1a5960b21b6064820152608401610650565b80516001600160401b0380851691161015610e725760405162461bcd60e51b815260206004820152602860248201527f54726561737572654d61726b6574706c6163653a206e6f7420656e6f756768206044820152677175616e7469747960c01b6064820152608401610650565b816001600160801b031681602001516001600160801b03161115610ee45760405162461bcd60e51b8152602060048201526024808201527f54726561737572654d61726b6574706c6163653a20707269636520696e637265604482015263185cd95960e21b6064820152608401610650565b60016001600160a01b0387166000908152610131602052604090205460ff166002811115610f1457610f14612b45565b1415610ff957826001600160401b0316600114610f8b5760405162461bcd60e51b815260206004820152602f60248201527f54726561737572654d61726b6574706c6163653a2043616e6e6f74206275792060448201526e6d756c7469706c652045524337323160881b6064820152608401610650565b604051632142170760e11b81526001600160a01b038581166004830152336024830152604482018790528716906342842e0e906064015b600060405180830381600087803b158015610fdc57600080fd5b505af1158015610ff0573d6000803e3d6000fd5b505050506110d6565b60026001600160a01b0387166000908152610131602052604090205460ff16600281111561102957611029612b45565b141561106f5760408051602081018252600081529051637921219560e11b81526001600160a01b0388169163f242432a91610fc291889133918b918a9190600401612d4f565b60405162461bcd60e51b815260206004820152603660248201527f54726561737572654d61726b6574706c6163653a20746f6b656e206973206e6f6044820152757420617070726f76656420666f722074726164696e6760501b6064820152608401610650565b6110eb81846001600160401b0316888761198b565b602081810151604080516001600160a01b038089168252339482019490945292891683820152606083018890526001600160401b03861660808401526001600160801b0390911660a0830152517f8f236686c9ab7948a1cc5985ed36b4de9780519f75380d5ea3ac498f9270e17f9181900360c00190a1826001600160401b031681600001516001600160401b031614156111b6576001600160a01b038087166000908152610130602090815260408083208984528252808320938816835292905290812055611224565b6001600160a01b038087166000908152610130602090815260408083208984528252808320938816835292905290812080548592906111ff9084906001600160401b0316612da7565b92506101000a8154816001600160401b0302191690836001600160401b031602179055505b5050600160fb5550505050565b600260fb5414156112545760405162461bcd60e51b815260040161065090612c52565b600260fb5560c95460ff161561127c5760405162461bcd60e51b815260040161065090612c89565b6001600160a01b03851660009081526101306020908152604080832087845282528083203384529091529020546001600160401b03161561130b5760405162461bcd60e51b815260206004820152602360248201527f54726561737572654d61726b6574706c6163653a20616c7265616479206c69736044820152621d195960ea1b6064820152608401610650565b6113188585858585611ac0565b7f83bf900e0d7defb9558918eb50503be072490d1437edf6aba38f0c5d940b0131335b604080516001600160a01b039283168152918816602083015281018690526001600160401b0380861660608301526001600160801b0385166080830152831660a082015260c00160405180910390a15050600160fb55505050565b6000805160206130048339815191526113af8133611850565b61083861206f565b60008281526097602052604081206113cf90836120c7565b9392505050565b60009182526065602090815260408084206001600160a01b0393909316845291905290205460ff1690565b600260fb5414156114245760405162461bcd60e51b815260040161065090612c52565b600260fb556001600160a01b0382166000818152610130602090815260408083208584528252808320338085529252808320839055518493927f9ba1a3cb55ce8d63d072a886f94d2a744f50cddf82128e897d0661f5ec62315891a45050600160fb55565b600054610100900460ff166114a45760005460ff16156114a8565b303b155b61150b5760405162461bcd60e51b815260206004820152602e60248201527f496e697469616c697a61626c653a20636f6e747261637420697320616c72656160448201526d191e481a5b9a5d1a585b1a5e995960921b6064820152608401610650565b600054610100900460ff1615801561152d576000805461ffff19166101011790555b6001600160a01b0382166115965760405162461bcd60e51b815260206004820152602a60248201527f54726561737572654d61726b6574706c6163653a2063616e6e6f7420736574206044820152696164647265737328302960b01b6064820152608401610650565b61159e6120d3565b6115a66120fc565b6115ae61212f565b6115c66000805160206130048339815191528061215d565b6115de600080516020613004833981519152336118b4565b6115e88485610a98565b6115f183611733565b61012d80546001600160a01b0319166001600160a01b038416179055801561161f576000805461ff00191690555b50505050565b6000818152609760205260408120610568906121a8565b6000828152606560205260409020600101546116588133611850565b61079483836118d6565b600260fb5414156116855760405162461bcd60e51b815260040161065090612c52565b600260fb5560c95460ff16156116ad5760405162461bcd60e51b815260040161065090612c89565b6001600160a01b03851660009081526101306020908152604080832087845282528083203384529091529020546001600160401b03166116ff5760405162461bcd60e51b815260040161065090612cb3565b61170c8585858585611ac0565b7f99cef4217225de117fe8739e7620ea9ad6e284897615196f6013fcf54735d44e3361133b565b60008051602061300483398151915261174c8133611850565b6001600160a01b0382166117b65760405162461bcd60e51b815260206004820152602b60248201527f54726561737572654d61726b6574706c6163653a2063616e6e6f74207365742060448201526a307830206164647265737360a81b6064820152608401610650565b61012f80546001600160a01b0319166001600160a01b0384169081179091556040519081527f6632de8ab33c46549f7bb29f647ea0d751157b25fe6a14b1bcc7527cdfbeb79c9060200160405180910390a15050565b6001600160a01b03163b151590565b60006001600160e01b03198216637965db0b60e01b148061056857506301ffc9a760e01b6001600160e01b0319831614610568565b61185a82826113d6565b61081357611872816001600160a01b031660146121b2565b61187d8360206121b2565b60405160200161188e929190612dcf565b60408051601f198184030181529082905262461bcd60e51b825261065091600401612e44565b6118be828261234d565b600082815260976020526040902061079490826123d3565b6118e082826123e8565b6000828152609760205260409020610794908261244f565b60c95460ff166119415760405162461bcd60e51b815260206004820152601460248201527314185d5cd8589b194e881b9bdd081c185d5cd95960621b6044820152606401610650565b60c9805460ff191690557f5db9ee0a495bf2e6ff9c91a7834c1ba4fdd244a5e8aa4e537bd38aeae4b073aa335b6040516001600160a01b03909116815260200160405180910390a1565b60008385602001516001600160801b03166119a69190612e57565b6001600160a01b03808516600090815261013360205260408120549293506401000000009092041690808215611a01575050610132546001600160a01b0385166000908152610133602052604090205463ffffffff16611a0a565b505061012e5460005b6000612710611a198487612e57565b611a239190612e76565b90506000612710611a348488612e57565b611a3e9190612e76565b90508115611a6657611a663361012f5461012d546001600160a01b0390811692911685612464565b8015611a8557611a853361012d546001600160a01b0316908784612464565b611ab4338883611a95868b612e98565b611a9f9190612e98565b61012d546001600160a01b0316929190612464565b50505050505050505050565b42816001600160401b031611611b2d5760405162461bcd60e51b815260206004820152602c60248201527f54726561737572654d61726b6574706c6163653a20696e76616c69642065787060448201526b69726174696f6e2074696d6560a01b6064820152608401610650565b633b9aca00826001600160801b03161015611b965760405162461bcd60e51b8152602060048201526024808201527f54726561737572654d61726b6574706c6163653a2062656c6f77206d696e20706044820152637269636560e01b6064820152608401610650565b60016001600160a01b0386166000908152610131602052604090205460ff166002811115611bc657611bc6612b45565b1415611daf5784336040516331a9108f60e11b8152600481018790526001600160a01b0391821691831690636352211e90602401602060405180830381865afa158015611c17573d6000803e3d6000fd5b505050506040513d601f19601f82011682018060405250810190611c3b9190612eaf565b6001600160a01b031614611c9d5760405162461bcd60e51b8152602060048201526024808201527f54726561737572654d61726b6574706c6163653a206e6f74206f776e696e67206044820152636974656d60e01b6064820152608401610650565b6001600160a01b03811663e985e9c5336040516001600160e01b031960e084901b1681526001600160a01b039091166004820152306024820152604401602060405180830381865afa158015611cf7573d6000803e3d6000fd5b505050506040513d601f19601f82011682018060405250810190611d1b9190612c13565b611d375760405162461bcd60e51b815260040161065090612ecc565b836001600160401b0316600114611da95760405162461bcd60e51b815260206004820152603060248201527f54726561737572654d61726b6574706c6163653a2063616e6e6f74206c69737460448201526f206d756c7469706c652045524337323160801b6064820152608401610650565b50611fce565b60026001600160a01b0386166000908152610131602052604090205460ff166002811115611ddf57611ddf612b45565b141561106f57846001600160401b0384166001600160a01b03821662fdd58e336040516001600160e01b031960e084901b1681526001600160a01b03909116600482015260248101899052604401602060405180830381865afa158015611e4a573d6000803e3d6000fd5b505050506040513d601f19601f82011682018060405250810190611e6e9190612f12565b1015611ecf5760405162461bcd60e51b815260206004820152602a60248201527f54726561737572654d61726b6574706c6163653a206d75737420686f6c6420656044820152696e6f756768206e66747360b01b6064820152608401610650565b6001600160a01b03811663e985e9c5336040516001600160e01b031960e084901b1681526001600160a01b039091166004820152306024820152604401602060405180830381865afa158015611f29573d6000803e3d6000fd5b505050506040513d601f19601f82011682018060405250810190611f4d9190612c13565b611f695760405162461bcd60e51b815260040161065090612ecc565b6000846001600160401b031611611da95760405162461bcd60e51b8152602060048201526024808201527f54726561737572654d61726b6574706c6163653a206e6f7468696e6720746f206044820152631b1a5cdd60e21b6064820152608401610650565b604080516060810182526001600160401b0394851681526001600160801b0393841660208083019182529386168284019081526001600160a01b039890981660009081526101308552838120978152968452828720338852909352942093518454915195518416600160c01b026001600160c01b0396909316600160401b026001600160c01b03199092169316929092179190911792909216919091179055565b60c95460ff16156120925760405162461bcd60e51b815260040161065090612c89565b60c9805460ff191660011790557f62e78cea01bee320cd4e420270b5ea74000d11b0c9f74754ebdbfc544b05a25861196e3390565b60006113cf83836124be565b600054610100900460ff166120fa5760405162461bcd60e51b815260040161065090612f2b565b565b600054610100900460ff166121235760405162461bcd60e51b815260040161065090612f2b565b60c9805460ff19169055565b600054610100900460ff166121565760405162461bcd60e51b815260040161065090612f2b565b600160fb55565b600082815260656020526040808220600101805490849055905190918391839186917fbd79b86ffe0ab8e8776151514217cd7cacd52c909f66475c3af44e129f0b00ff9190a4505050565b6000610568825490565b606060006121c1836002612e57565b6121cc906002612f76565b6001600160401b038111156121e3576121e3612f8e565b6040519080825280601f01601f19166020018201604052801561220d576020820181803683370190505b509050600360fc1b8160008151811061222857612228612fa4565b60200101906001600160f81b031916908160001a905350600f60fb1b8160018151811061225757612257612fa4565b60200101906001600160f81b031916908160001a905350600061227b846002612e57565b612286906001612f76565b90505b60018111156122fe576f181899199a1a9b1b9c1cb0b131b232b360811b85600f16601081106122ba576122ba612fa4565b1a60f81b8282815181106122d0576122d0612fa4565b60200101906001600160f81b031916908160001a90535060049490941c936122f781612fba565b9050612289565b5083156113cf5760405162461bcd60e51b815260206004820181905260248201527f537472696e67733a20686578206c656e67746820696e73756666696369656e746044820152606401610650565b61235782826113d6565b6108135760008281526065602090815260408083206001600160a01b03851684529091529020805460ff1916600117905561238f3390565b6001600160a01b0316816001600160a01b0316837f2f8788117e7eff1d82e926ec794901d17c78024a50270940304540a733656f0d60405160405180910390a45050565b60006113cf836001600160a01b0384166124e8565b6123f282826113d6565b156108135760008281526065602090815260408083206001600160a01b0385168085529252808320805460ff1916905551339285917ff6391f5c32d9c69d2a47ea670b442974b53935d1edc7fd64eb21e047a839171b9190a45050565b60006113cf836001600160a01b038416612537565b604080516001600160a01b0385811660248301528416604482015260648082018490528251808303909101815260849091019091526020810180516001600160e01b03166323b872dd60e01b17905261161f90859061262a565b60008260000182815481106124d5576124d5612fa4565b9060005260206000200154905092915050565b600081815260018301602052604081205461252f57508154600181810184556000848152602080822090930184905584548482528286019093526040902091909155610568565b506000610568565b6000818152600183016020526040812054801561262057600061255b600183612e98565b855490915060009061256f90600190612e98565b90508181146125d457600086600001828154811061258f5761258f612fa4565b90600052602060002001549050808760000184815481106125b2576125b2612fa4565b6000918252602080832090910192909255918252600188019052604090208390555b85548690806125e5576125e5612fd1565b600190038181906000526020600020016000905590558560010160008681526020019081526020016000206000905560019350505050610568565b6000915050610568565b600061267f826040518060400160405280602081526020017f5361666545524332303a206c6f772d6c6576656c2063616c6c206661696c6564815250856001600160a01b03166126fc9092919063ffffffff16565b805190915015610794578080602001905181019061269d9190612c13565b6107945760405162461bcd60e51b815260206004820152602a60248201527f5361666545524332303a204552433230206f7065726174696f6e20646964206e6044820152691bdd081cdd58d8d9595960b21b6064820152608401610650565b606061270b8484600085612713565b949350505050565b6060824710156127745760405162461bcd60e51b815260206004820152602660248201527f416464726573733a20696e73756666696369656e742062616c616e636520666f6044820152651c8818d85b1b60d21b6064820152608401610650565b6001600160a01b0385163b6127cb5760405162461bcd60e51b815260206004820152601d60248201527f416464726573733a2063616c6c20746f206e6f6e2d636f6e74726163740000006044820152606401610650565b600080866001600160a01b031685876040516127e79190612fe7565b60006040518083038185875af1925050503d8060008114612824576040519150601f19603f3d011682016040523d82523d6000602084013e612829565b606091505b5091509150612839828286612844565b979650505050505050565b606083156128535750816113cf565b8251156128635782518084602001fd5b8160405162461bcd60e51b81526004016106509190612e44565b60006020828403121561288f57600080fd5b81356001600160e01b0319811681146113cf57600080fd5b6001600160a01b038116811461083857600080fd5b60008082840360608112156128d057600080fd5b83356128db816128a7565b92506040601f19820112156128ef57600080fd5b506020830190509250929050565b60006020828403121561290f57600080fd5b5035919050565b6000806040838503121561292957600080fd5b82359150602083013561293b816128a7565b809150509250929050565b6000806040838503121561295957600080fd5b8235612964816128a7565b915060208301356003811061293b57600080fd5b6000806040838503121561298b57600080fd5b50508035926020909101359150565b80356001600160401b03811681146129b157600080fd5b919050565b80356001600160801b03811681146129b157600080fd5b600080600080600060a086880312156129e557600080fd5b85356129f0816128a7565b9450602086013593506040860135612a07816128a7565b9250612a156060870161299a565b9150612a23608087016129b6565b90509295509295909350565b600080600060608486031215612a4457600080fd5b8335612a4f816128a7565b9250602084013591506040840135612a66816128a7565b809150509250925092565b600080600080600060a08688031215612a8957600080fd5b8535612a94816128a7565b945060208601359350612aa96040870161299a565b9250612ab7606087016129b6565b9150612a236080870161299a565b60008060408385031215612ad857600080fd5b8235612ae3816128a7565b946020939093013593505050565b600080600060608486031215612b0657600080fd5b833592506020840135612b18816128a7565b91506040840135612a66816128a7565b600060208284031215612b3a57600080fd5b81356113cf816128a7565b634e487b7160e01b600052602160045260246000fd5b60038110612b7957634e487b7160e01b600052602160045260246000fd5b9052565b602081016105688284612b5b565b63ffffffff8116811461083857600080fd5b600060208284031215612baf57600080fd5b81356113cf81612b8b565b8135612bc581612b8b565b63ffffffff8116905081548163ffffffff1982161783556020840135612bea816128a7565b6001600160c01b03199190911690911760209190911b640100000000600160c01b031617905550565b600060208284031215612c2557600080fd5b815180151581146113cf57600080fd5b6001600160a01b0383168152604081016113cf6020830184612b5b565b6020808252601f908201527f5265656e7472616e637947756172643a207265656e7472616e742063616c6c00604082015260600190565b60208082526010908201526f14185d5cd8589b194e881c185d5cd95960821b604082015260600190565b60208082526024908201527f54726561737572654d61726b6574706c6163653a206e6f74206c6973746564206040820152636974656d60e01b606082015260800190565b60005b83811015612d12578181015183820152602001612cfa565b8381111561161f5750506000910152565b60008151808452612d3b816020860160208601612cf7565b601f01601f19169290920160200192915050565b6001600160a01b03868116825285166020820152604081018490526001600160401b038316606082015260a06080820181905260009061283990830184612d23565b634e487b7160e01b600052601160045260246000fd5b60006001600160401b0383811690831681811015612dc757612dc7612d91565b039392505050565b7f416363657373436f6e74726f6c3a206163636f756e7420000000000000000000815260008351612e07816017850160208801612cf7565b7001034b99036b4b9b9b4b733903937b6329607d1b6017918401918201528351612e38816028840160208801612cf7565b01602801949350505050565b6020815260006113cf6020830184612d23565b6000816000190483118215151615612e7157612e71612d91565b500290565b600082612e9357634e487b7160e01b600052601260045260246000fd5b500490565b600082821015612eaa57612eaa612d91565b500390565b600060208284031215612ec157600080fd5b81516113cf816128a7565b60208082526026908201527f54726561737572654d61726b6574706c6163653a206974656d206e6f742061706040820152651c1c9bdd995960d21b606082015260800190565b600060208284031215612f2457600080fd5b5051919050565b6020808252602b908201527f496e697469616c697a61626c653a20636f6e7472616374206973206e6f74206960408201526a6e697469616c697a696e6760a81b606082015260800190565b60008219821115612f8957612f89612d91565b500190565b634e487b7160e01b600052604160045260246000fd5b634e487b7160e01b600052603260045260246000fd5b600081612fc957612fc9612d91565b506000190190565b634e487b7160e01b600052603160045260246000fd5b60008251612ff9818460208701612cf7565b919091019291505056fe34d5e892b0a7ec1561fc4a5fdcb31b798cf623590906b938d356c9619e539958a264697066735822122045fda8d2b6a03353b87cfcdd4b452bb9012ad1e3435bdc9b4fbc4444f4da8e0164736f6c634300080c0033",
  "devdoc": {
    "details": "This contract does not store any tokens at any time, it's only collects details \"the sale\" and approvals         from both parties and preforms non-custodial transaction by transfering NFT from owner to buying and payment         token from buying to NFT owner.",
    "events": {
      "ItemCanceled(address,address,uint256)": {
        "params": {
          "nftAddress": "which token contract holds the formerly offered token",
          "seller": "former offeror of the item",
          "tokenId": "the identifier for the formerly offered token"
        }
      },
      "ItemListed(address,address,uint256,uint64,uint128,uint64)": {
        "params": {
          "expirationTime": "UNIX timestamp after when this listing expires",
          "nftAddress": "which token contract holds the offered token",
          "pricePerItem": "the price (in units of the paymentToken) for each token offered",
          "quantity": "how many of this token identifier are offered (or 1 for a ERC-721 token)",
          "seller": "the offeror of the item",
          "tokenId": "the identifier for the offered token"
        }
      },
      "ItemSold(address,address,address,uint256,uint64,uint128)": {
        "params": {
          "buyer": "the buyer of the item",
          "nftAddress": "which token contract holds the sold token",
          "pricePerItem": "the price (in units of the paymentToken) for each token sold",
          "quantity": "how many of this token identifier where sold (or 1 for a ERC-721 token)",
          "seller": "the offeror of the item",
          "tokenId": "the identifier for the sold token"
        }
      },
      "ItemUpdated(address,address,uint256,uint64,uint128,uint64)": {
        "params": {
          "expirationTime": "UNIX timestamp after when this listing expires",
          "nftAddress": "which token contract holds the offered token",
          "pricePerItem": "the price (in units of the paymentToken) for each token offered",
          "quantity": "how many of this token identifier are offered (or 1 for a ERC-721 token)",
          "seller": "the offeror of the item",
          "tokenId": "the identifier for the offered token"
        }
      },
      "TokenApprovalStatusUpdated(address,uint8)": {
        "params": {
          "nft": "which token contract was updated",
          "status": "the new status"
        }
      },
      "UpdateCollectionOwnerFee(address,address,uint256)": {
        "params": {
          "_collection": "The collection",
          "_fee": "The fee amount (in units of basis points)",
          "_recipient": "The recipient of the fees. If the address is 0, the collection fees for this collection have been removed."
        }
      },
      "UpdateFee(uint256)": {
        "params": {
          "fee": "new fee amount (in units of basis points)"
        }
      },
      "UpdateFeeRecipient(address)": {
        "params": {
          "feeRecipient": "the new recipient to get fees"
        }
      },
      "UpdateFeeWithCollectionOwner(uint256)": {
        "params": {
          "fee": "new fee amount (in units of basis points)"
        }
      }
    },
    "kind": "dev",
    "methods": {
      "buyItem(address,uint256,address,uint64,uint128)": {
        "params": {
          "_maxPricePerItem": "the maximum price (in units of the paymentToken) for each token offered",
          "_nftAddress": "which token contract holds the offered token",
          "_owner": "current owner of the item(s) to be bought",
          "_quantity": "how many of this token identifier to be bought (or 1 for a ERC-721 token)",
          "_tokenId": "the identifier for the token to be bought"
        }
      },
      "cancelListing(address,uint256)": {
        "params": {
          "_nftAddress": "which token contract holds the offered token",
          "_tokenId": "the identifier for the offered token"
        }
      },
      "constructor": {
        "custom:oz-upgrades-unsafe-allow": "constructor"
      },
      "createListing(address,uint256,uint64,uint128,uint64)": {
        "params": {
          "_expirationTime": "UNIX timestamp after when this listing expires",
          "_nftAddress": "which token contract holds the offered token",
          "_pricePerItem": "the price (in units of the paymentToken) for each token offered",
          "_quantity": "how many of this token identifier are offered (or 1 for a ERC-721 token)",
          "_tokenId": "the identifier for the offered token"
        }
      },
      "getRoleAdmin(bytes32)": {
        "details": "Returns the admin role that controls `role`. See {grantRole} and {revokeRole}. To change a role's admin, use {_setRoleAdmin}."
      },
      "getRoleMember(bytes32,uint256)": {
        "details": "Returns one of the accounts that have `role`. `index` must be a value between 0 and {getRoleMemberCount}, non-inclusive. Role bearers are not sorted in any particular way, and their ordering may change at any point. WARNING: When using {getRoleMember} and {getRoleMemberCount}, make sure you perform all queries on the same block. See the following https://forum.openzeppelin.com/t/iterating-over-elements-on-enumerableset-in-openzeppelin-contracts/2296[forum post] for more information."
      },
      "getRoleMemberCount(bytes32)": {
        "details": "Returns the number of accounts that have `role`. Can be used together with {getRoleMember} to enumerate all bearers of a role."
      },
      "grantRole(bytes32,address)": {
        "details": "Grants `role` to `account`. If `account` had not been already granted `role`, emits a {RoleGranted} event. Requirements: - the caller must have ``role``'s admin role."
      },
      "hasRole(bytes32,address)": {
        "details": "Returns `true` if `account` has been granted `role`."
      },
      "initialize(uint256,address,address)": {
        "details": "The initializer modifier ensures this is only called once, the owner should confirm this was properly         performed before publishing this contract address.",
        "params": {
          "_initialFee": "fee to be paid on each sale, in basis points",
          "_initialFeeRecipient": "wallet to collets fees",
          "_initialPaymentToken": "address of the token that is used for settlement"
        }
      },
      "pause()": {
        "details": "This is callable only by the owner. Canceling listings is not paused."
      },
      "paused()": {
        "details": "Returns true if the contract is paused, and false otherwise."
      },
      "renounceRole(bytes32,address)": {
        "details": "Revokes `role` from the calling account. Roles are often managed via {grantRole} and {revokeRole}: this function's purpose is to provide a mechanism for accounts to lose their privileges if they are compromised (such as when a trusted device is misplaced). If the calling account had been revoked `role`, emits a {RoleRevoked} event. Requirements: - the caller must be `account`."
      },
      "revokeRole(bytes32,address)": {
        "details": "Revokes `role` from `account`. If `account` had been granted `role`, emits a {RoleRevoked} event. Requirements: - the caller must have ``role``'s admin role."
      },
      "setCollectionOwnerFee(address,(uint32,address))": {
        "details": "This is callable only by the owner",
        "params": {
          "_collectionAddress": "The collection in question. This must be whitelisted.",
          "_collectionOwnerFee": "The fee and recipient for the collection. If the 0 address is passed as the recipient, collection specific fees will not be collected."
        }
      },
      "setFee(uint256,uint256)": {
        "details": "This is callable only by the owner. Both fees may not exceed MAX_FEE",
        "params": {
          "_newFee": "the updated fee amount is basis points"
        }
      },
      "setFeeRecipient(address)": {
        "details": "This is callable only by the owner.",
        "params": {
          "_newFeeRecipient": "the wallet to receive fees"
        }
      },
      "setTokenApprovalStatus(address,uint8)": {
        "details": "This is callable only by the owner.",
        "params": {
          "_nft": "address of the NFT to be approved",
          "_status": "the kind of NFT approved, or NOT_APPROVED to remove approval"
        }
      },
      "supportsInterface(bytes4)": {
        "details": "See {IERC165-supportsInterface}."
      },
      "unpause()": {
        "details": "This is callable only by the owner."
      },
      "updateListing(address,uint256,uint64,uint128,uint64)": {
        "params": {
          "_newExpirationTime": "UNIX timestamp after when this listing expires",
          "_newPricePerItem": "the price (in units of the paymentToken) for each token offered",
          "_newQuantity": "how many of this token identifier are offered (or 1 for a ERC-721 token)",
          "_nftAddress": "which token contract holds the offered token",
          "_tokenId": "the identifier for the offered token"
        }
      }
    },
    "title": "Treasure NFT marketplace",
    "version": 1
  },
  "userdoc": {
    "events": {
      "ItemCanceled(address,address,uint256)": {
        "notice": "An item is no longer listed for sale"
      },
      "ItemListed(address,address,uint256,uint64,uint128,uint64)": {
        "notice": "An item was listed for sale"
      },
      "ItemSold(address,address,address,uint256,uint64,uint128)": {
        "notice": "A listed item was sold"
      },
      "ItemUpdated(address,address,uint256,uint64,uint128,uint64)": {
        "notice": "An item listing was updated"
      },
      "TokenApprovalStatusUpdated(address,uint8)": {
        "notice": "The approval status for a token was updated"
      },
      "UpdateCollectionOwnerFee(address,address,uint256)": {
        "notice": "A collection's fees have changed"
      },
      "UpdateFee(uint256)": {
        "notice": "The fee portion was updated"
      },
      "UpdateFeeRecipient(address)": {
        "notice": "The fee recipient was updated"
      },
      "UpdateFeeWithCollectionOwner(uint256)": {
        "notice": "The fee portion was updated for collections that have a collection owner."
      }
    },
    "kind": "user",
    "methods": {
      "BASIS_POINTS()": {
        "notice": "the denominator for portion calculation, i.e. how many basis points are in 100%"
      },
      "MAX_COLLECTION_FEE()": {
        "notice": "the maximum fee which the collection owner may set"
      },
      "MAX_FEE()": {
        "notice": "the maximum fee which the owner may set (in units of basis points)"
      },
      "MIN_PRICE()": {
        "notice": "the minimum price for which any item can be sold"
      },
      "TREASURE_MARKETPLACE_ADMIN_ROLE()": {
        "notice": "TREASURE_MARKETPLACE_ADMIN_ROLE role hash"
      },
      "buyItem(address,uint256,address,uint64,uint128)": {
        "notice": "Buy a listed item. You must authorize this marketplace with your payment token to completed the buy."
      },
      "cancelListing(address,uint256)": {
        "notice": "Remove an item listing"
      },
      "collectionToCollectionOwnerFee(address)": {
        "notice": "Maps the collection address to the fees which the collection owner collects. Some collections may not have a seperate fee, such as those owned by the Treasure DAO."
      },
      "createListing(address,uint256,uint64,uint128,uint64)": {
        "notice": "Creates an item listing. You must authorize this marketplace with your item's token contract to list."
      },
      "fee()": {
        "notice": "fee portion (in basis points) for each sale, (e.g. a value of 100 is 100/10000 = 1%). This is the fee if no collection owner fee is set."
      },
      "feeReceipient()": {
        "notice": "address that receives fees"
      },
      "feeWithCollectionOwner()": {
        "notice": "fee portion (in basis points) for each sale. This is used if a separate fee has been set for the collection owner."
      },
      "initialize(uint256,address,address)": {
        "notice": "Perform initial contract setup"
      },
      "listings(address,uint256,address)": {
        "notice": "mapping for listings, maps: nftAddress => tokenId => offeror"
      },
      "pause()": {
        "notice": "Pauses the marketplace, creatisgn and executing listings is paused"
      },
      "paymentToken()": {
        "notice": "which token is used for marketplace sales and fee payments"
      },
      "setCollectionOwnerFee(address,(uint32,address))": {
        "notice": "Updates the fee amount which is collected during sales fro a specific collection"
      },
      "setFee(uint256,uint256)": {
        "notice": "Updates the fee amount which is collected during sales, for both collections with and without owner specific fees."
      },
      "setFeeRecipient(address)": {
        "notice": "Updates the fee recipient which receives fees during sales"
      },
      "setTokenApprovalStatus(address,uint8)": {
        "notice": "Sets a token as an approved kind of NFT or as ineligible for trading"
      },
      "tokenApprovals(address)": {
        "notice": "NFTs which the owner has approved to be sold on the marketplace, maps: nftAddress => status"
      },
      "unpause()": {
        "notice": "Unpauses the marketplace, all functionality is restored"
      },
      "updateListing(address,uint256,uint64,uint128,uint64)": {
        "notice": "Updates an item listing"
      }
    },
    "notice": "This contract allows you to buy and sell NFTs from token contracts that are approved by the contract owner.         Please note that this contract is upgradeable. In the event of a compromised ProxyAdmin contract owner,         collectable tokens and payments may be at risk. To prevent this, the ProxyAdmin is owned by a multi-sig         governed by the TreasureDAO council.",
    "version": 1
  },
  "storageLayout": {
    "storage": [
      {
        "astId": 705,
        "contract": "contracts/TreasureMarketplace.sol:TreasureMarketplace",
        "label": "_initialized",
        "offset": 0,
        "slot": "0",
        "type": "t_bool"
      },
      {
        "astId": 708,
        "contract": "contracts/TreasureMarketplace.sol:TreasureMarketplace",
        "label": "_initializing",
        "offset": 1,
        "slot": "0",
        "type": "t_bool"
      },
      {
        "astId": 1766,
        "contract": "contracts/TreasureMarketplace.sol:TreasureMarketplace",
        "label": "__gap",
        "offset": 0,
        "slot": "1",
        "type": "t_array(t_uint256)50_storage"
      },
      {
        "astId": 2013,
        "contract": "contracts/TreasureMarketplace.sol:TreasureMarketplace",
        "label": "__gap",
        "offset": 0,
        "slot": "51",
        "type": "t_array(t_uint256)50_storage"
      },
      {
        "astId": 184,
        "contract": "contracts/TreasureMarketplace.sol:TreasureMarketplace",
        "label": "_roles",
        "offset": 0,
        "slot": "101",
        "type": "t_mapping(t_bytes32,t_struct(RoleData)179_storage)"
      },
      {
        "astId": 472,
        "contract": "contracts/TreasureMarketplace.sol:TreasureMarketplace",
        "label": "__gap",
        "offset": 0,
        "slot": "102",
        "type": "t_array(t_uint256)49_storage"
      },
      {
        "astId": 33,
        "contract": "contracts/TreasureMarketplace.sol:TreasureMarketplace",
        "label": "_roleMembers",
        "offset": 0,
        "slot": "151",
        "type": "t_mapping(t_bytes32,t_struct(AddressSet)2338_storage)"
      },
      {
        "astId": 143,
        "contract": "contracts/TreasureMarketplace.sol:TreasureMarketplace",
        "label": "__gap",
        "offset": 0,
        "slot": "152",
        "type": "t_array(t_uint256)49_storage"
      },
      {
        "astId": 793,
        "contract": "contracts/TreasureMarketplace.sol:TreasureMarketplace",
        "label": "_paused",
        "offset": 0,
        "slot": "201",
        "type": "t_bool"
      },
      {
        "astId": 882,
        "contract": "contracts/TreasureMarketplace.sol:TreasureMarketplace",
        "label": "__gap",
        "offset": 0,
        "slot": "202",
        "type": "t_array(t_uint256)49_storage"
      },
      {
        "astId": 897,
        "contract": "contracts/TreasureMarketplace.sol:TreasureMarketplace",
        "label": "_status",
        "offset": 0,
        "slot": "251",
        "type": "t_uint256"
      },
      {
        "astId": 941,
        "contract": "contracts/TreasureMarketplace.sol:TreasureMarketplace",
        "label": "__gap",
        "offset": 0,
        "slot": "252",
        "type": "t_array(t_uint256)49_storage"
      },
      {
        "astId": 2701,
        "contract": "contracts/TreasureMarketplace.sol:TreasureMarketplace",
        "label": "paymentToken",
        "offset": 0,
        "slot": "301",
        "type": "t_contract(IERC20Upgradeable)1142"
      },
      {
        "astId": 2704,
        "contract": "contracts/TreasureMarketplace.sol:TreasureMarketplace",
        "label": "fee",
        "offset": 0,
        "slot": "302",
        "type": "t_uint256"
      },
      {
        "astId": 2707,
        "contract": "contracts/TreasureMarketplace.sol:TreasureMarketplace",
        "label": "feeReceipient",
        "offset": 0,
        "slot": "303",
        "type": "t_address"
      },
      {
        "astId": 2717,
        "contract": "contracts/TreasureMarketplace.sol:TreasureMarketplace",
        "label": "listings",
        "offset": 0,
        "slot": "304",
        "type": "t_mapping(t_address,t_mapping(t_uint256,t_mapping(t_address,t_struct(Listing)2657_storage)))"
      },
      {
        "astId": 2723,
        "contract": "contracts/TreasureMarketplace.sol:TreasureMarketplace",
        "label": "tokenApprovals",
        "offset": 0,
        "slot": "305",
        "type": "t_mapping(t_address,t_enum(TokenApprovalStatus)2668)"
      },
      {
        "astId": 2726,
        "contract": "contracts/TreasureMarketplace.sol:TreasureMarketplace",
        "label": "feeWithCollectionOwner",
        "offset": 0,
        "slot": "306",
        "type": "t_uint256"
      },
      {
        "astId": 2732,
        "contract": "contracts/TreasureMarketplace.sol:TreasureMarketplace",
        "label": "collectionToCollectionOwnerFee",
        "offset": 0,
        "slot": "307",
        "type": "t_mapping(t_address,t_struct(CollectionOwnerFee)2664_storage)"
      }
    ],
    "types": {
      "t_address": {
        "encoding": "inplace",
        "label": "address",
        "numberOfBytes": "20"
      },
      "t_array(t_bytes32)dyn_storage": {
        "base": "t_bytes32",
        "encoding": "dynamic_array",
        "label": "bytes32[]",
        "numberOfBytes": "32"
      },
      "t_array(t_uint256)49_storage": {
        "base": "t_uint256",
        "encoding": "inplace",
        "label": "uint256[49]",
        "numberOfBytes": "1568"
      },
      "t_array(t_uint256)50_storage": {
        "base": "t_uint256",
        "encoding": "inplace",
        "label": "uint256[50]",
        "numberOfBytes": "1600"
      },
      "t_bool": {
        "encoding": "inplace",
        "label": "bool",
        "numberOfBytes": "1"
      },
      "t_bytes32": {
        "encoding": "inplace",
        "label": "bytes32",
        "numberOfBytes": "32"
      },
      "t_contract(IERC20Upgradeable)1142": {
        "encoding": "inplace",
        "label": "contract IERC20Upgradeable",
        "numberOfBytes": "20"
      },
      "t_enum(TokenApprovalStatus)2668": {
        "encoding": "inplace",
        "label": "enum TreasureMarketplace.TokenApprovalStatus",
        "numberOfBytes": "1"
      },
      "t_mapping(t_address,t_bool)": {
        "encoding": "mapping",
        "key": "t_address",
        "label": "mapping(address => bool)",
        "numberOfBytes": "32",
        "value": "t_bool"
      },
      "t_mapping(t_address,t_enum(TokenApprovalStatus)2668)": {
        "encoding": "mapping",
        "key": "t_address",
        "label": "mapping(address => enum TreasureMarketplace.TokenApprovalStatus)",
        "numberOfBytes": "32",
        "value": "t_enum(TokenApprovalStatus)2668"
      },
      "t_mapping(t_address,t_mapping(t_uint256,t_mapping(t_address,t_struct(Listing)2657_storage)))": {
        "encoding": "mapping",
        "key": "t_address",
        "label": "mapping(address => mapping(uint256 => mapping(address => struct TreasureMarketplace.Listing)))",
        "numberOfBytes": "32",
        "value": "t_mapping(t_uint256,t_mapping(t_address,t_struct(Listing)2657_storage))"
      },
      "t_mapping(t_address,t_struct(CollectionOwnerFee)2664_storage)": {
        "encoding": "mapping",
        "key": "t_address",
        "label": "mapping(address => struct TreasureMarketplace.CollectionOwnerFee)",
        "numberOfBytes": "32",
        "value": "t_struct(CollectionOwnerFee)2664_storage"
      },
      "t_mapping(t_address,t_struct(Listing)2657_storage)": {
        "encoding": "mapping",
        "key": "t_address",
        "label": "mapping(address => struct TreasureMarketplace.Listing)",
        "numberOfBytes": "32",
        "value": "t_struct(Listing)2657_storage"
      },
      "t_mapping(t_bytes32,t_struct(AddressSet)2338_storage)": {
        "encoding": "mapping",
        "key": "t_bytes32",
        "label": "mapping(bytes32 => struct EnumerableSetUpgradeable.AddressSet)",
        "numberOfBytes": "32",
        "value": "t_struct(AddressSet)2338_storage"
      },
      "t_mapping(t_bytes32,t_struct(RoleData)179_storage)": {
        "encoding": "mapping",
        "key": "t_bytes32",
        "label": "mapping(bytes32 => struct AccessControlUpgradeable.RoleData)",
        "numberOfBytes": "32",
        "value": "t_struct(RoleData)179_storage"
      },
      "t_mapping(t_bytes32,t_uint256)": {
        "encoding": "mapping",
        "key": "t_bytes32",
        "label": "mapping(bytes32 => uint256)",
        "numberOfBytes": "32",
        "value": "t_uint256"
      },
      "t_mapping(t_uint256,t_mapping(t_address,t_struct(Listing)2657_storage))": {
        "encoding": "mapping",
        "key": "t_uint256",
        "label": "mapping(uint256 => mapping(address => struct TreasureMarketplace.Listing))",
        "numberOfBytes": "32",
        "value": "t_mapping(t_address,t_struct(Listing)2657_storage)"
      },
      "t_struct(AddressSet)2338_storage": {
        "encoding": "inplace",
        "label": "struct EnumerableSetUpgradeable.AddressSet",
        "members": [
          {
            "astId": 2337,
            "contract": "contracts/TreasureMarketplace.sol:TreasureMarketplace",
            "label": "_inner",
            "offset": 0,
            "slot": "0",
            "type": "t_struct(Set)2037_storage"
          }
        ],
        "numberOfBytes": "64"
      },
      "t_struct(CollectionOwnerFee)2664_storage": {
        "encoding": "inplace",
        "label": "struct TreasureMarketplace.CollectionOwnerFee",
        "members": [
          {
            "astId": 2660,
            "contract": "contracts/TreasureMarketplace.sol:TreasureMarketplace",
            "label": "fee",
            "offset": 0,
            "slot": "0",
            "type": "t_uint32"
          },
          {
            "astId": 2663,
            "contract": "contracts/TreasureMarketplace.sol:TreasureMarketplace",
            "label": "recipient",
            "offset": 4,
            "slot": "0",
            "type": "t_address"
          }
        ],
        "numberOfBytes": "32"
      },
      "t_struct(Listing)2657_storage": {
        "encoding": "inplace",
        "label": "struct TreasureMarketplace.Listing",
        "members": [
          {
            "astId": 2650,
            "contract": "contracts/TreasureMarketplace.sol:TreasureMarketplace",
            "label": "quantity",
            "offset": 0,
            "slot": "0",
            "type": "t_uint64"
          },
          {
            "astId": 2653,
            "contract": "contracts/TreasureMarketplace.sol:TreasureMarketplace",
            "label": "pricePerItem",
            "offset": 8,
            "slot": "0",
            "type": "t_uint128"
          },
          {
            "astId": 2656,
            "contract": "contracts/TreasureMarketplace.sol:TreasureMarketplace",
            "label": "expirationTime",
            "offset": 24,
            "slot": "0",
            "type": "t_uint64"
          }
        ],
        "numberOfBytes": "32"
      },
      "t_struct(RoleData)179_storage": {
        "encoding": "inplace",
        "label": "struct AccessControlUpgradeable.RoleData",
        "members": [
          {
            "astId": 176,
            "contract": "contracts/TreasureMarketplace.sol:TreasureMarketplace",
            "label": "members",
            "offset": 0,
            "slot": "0",
            "type": "t_mapping(t_address,t_bool)"
          },
          {
            "astId": 178,
            "contract": "contracts/TreasureMarketplace.sol:TreasureMarketplace",
            "label": "adminRole",
            "offset": 0,
            "slot": "1",
            "type": "t_bytes32"
          }
        ],
        "numberOfBytes": "64"
      },
      "t_struct(Set)2037_storage": {
        "encoding": "inplace",
        "label": "struct EnumerableSetUpgradeable.Set",
        "members": [
          {
            "astId": 2032,
            "contract": "contracts/TreasureMarketplace.sol:TreasureMarketplace",
            "label": "_values",
            "offset": 0,
            "slot": "0",
            "type": "t_array(t_bytes32)dyn_storage"
          },
          {
            "astId": 2036,
            "contract": "contracts/TreasureMarketplace.sol:TreasureMarketplace",
            "label": "_indexes",
            "offset": 0,
            "slot": "1",
            "type": "t_mapping(t_bytes32,t_uint256)"
          }
        ],
        "numberOfBytes": "64"
      },
      "t_uint128": {
        "encoding": "inplace",
        "label": "uint128",
        "numberOfBytes": "16"
      },
      "t_uint256": {
        "encoding": "inplace",
        "label": "uint256",
        "numberOfBytes": "32"
      },
      "t_uint32": {
        "encoding": "inplace",
        "label": "uint32",
        "numberOfBytes": "4"
      },
      "t_uint64": {
        "encoding": "inplace",
        "label": "uint64",
        "numberOfBytes": "8"
      }
    }
  }
}