{
  "address": "0x2dF807b923CA0Aa63642A53254150110ef39D7a9",
  "abi": [
    {
      "inputs": [],
      "stateMutability": "nonpayable",
      "type": "constructor"
    },
    {
      "anonymous": false,
      "inputs": [
        {
          "indexed": true,
          "internalType": "address",
          "name": "seller",
          "type": "address"
        },
        {
          "indexed": true,
          "internalType": "address",
          "name": "nftAddress",
          "type": "address"
        },
        {
          "indexed": true,
          "internalType": "uint256",
          "name": "tokenId",
          "type": "uint256"
        }
      ],
      "name": "ItemCanceled",
      "type": "event"
    },
    {
      "anonymous": false,
      "inputs": [
        {
          "indexed": false,
          "internalType": "address",
          "name": "seller",
          "type": "address"
        },
        {
          "indexed": false,
          "internalType": "address",
          "name": "nftAddress",
          "type": "address"
        },
        {
          "indexed": false,
          "internalType": "uint256",
          "name": "tokenId",
          "type": "uint256"
        },
        {
          "indexed": false,
          "internalType": "uint64",
          "name": "quantity",
          "type": "uint64"
        },
        {
          "indexed": false,
          "internalType": "uint128",
          "name": "pricePerItem",
          "type": "uint128"
        },
        {
          "indexed": false,
          "internalType": "uint64",
          "name": "expirationTime",
          "type": "uint64"
        }
      ],
      "name": "ItemListed",
      "type": "event"
    },
    {
      "anonymous": false,
      "inputs": [
        {
          "indexed": false,
          "internalType": "address",
          "name": "seller",
          "type": "address"
        },
        {
          "indexed": false,
          "internalType": "address",
          "name": "buyer",
          "type": "address"
        },
        {
          "indexed": false,
          "internalType": "address",
          "name": "nftAddress",
          "type": "address"
        },
        {
          "indexed": false,
          "internalType": "uint256",
          "name": "tokenId",
          "type": "uint256"
        },
        {
          "indexed": false,
          "internalType": "uint64",
          "name": "quantity",
          "type": "uint64"
        },
        {
          "indexed": false,
          "internalType": "uint128",
          "name": "pricePerItem",
          "type": "uint128"
        }
      ],
      "name": "ItemSold",
      "type": "event"
    },
    {
      "anonymous": false,
      "inputs": [
        {
          "indexed": false,
          "internalType": "address",
          "name": "seller",
          "type": "address"
        },
        {
          "indexed": false,
          "internalType": "address",
          "name": "nftAddress",
          "type": "address"
        },
        {
          "indexed": false,
          "internalType": "uint256",
          "name": "tokenId",
          "type": "uint256"
        },
        {
          "indexed": false,
          "internalType": "uint64",
          "name": "quantity",
          "type": "uint64"
        },
        {
          "indexed": false,
          "internalType": "uint128",
          "name": "pricePerItem",
          "type": "uint128"
        },
        {
          "indexed": false,
          "internalType": "uint64",
          "name": "expirationTime",
          "type": "uint64"
        }
      ],
      "name": "ItemUpdated",
      "type": "event"
    },
    {
      "anonymous": false,
      "inputs": [
        {
          "indexed": false,
          "internalType": "address",
          "name": "account",
          "type": "address"
        }
      ],
      "name": "Paused",
      "type": "event"
    },
    {
      "anonymous": false,
      "inputs": [
        {
          "indexed": true,
          "internalType": "bytes32",
          "name": "role",
          "type": "bytes32"
        },
        {
          "indexed": true,
          "internalType": "bytes32",
          "name": "previousAdminRole",
          "type": "bytes32"
        },
        {
          "indexed": true,
          "internalType": "bytes32",
          "name": "newAdminRole",
          "type": "bytes32"
        }
      ],
      "name": "RoleAdminChanged",
      "type": "event"
    },
    {
      "anonymous": false,
      "inputs": [
        {
          "indexed": true,
          "internalType": "bytes32",
          "name": "role",
          "type": "bytes32"
        },
        {
          "indexed": true,
          "internalType": "address",
          "name": "account",
          "type": "address"
        },
        {
          "indexed": true,
          "internalType": "address",
          "name": "sender",
          "type": "address"
        }
      ],
      "name": "RoleGranted",
      "type": "event"
    },
    {
      "anonymous": false,
      "inputs": [
        {
          "indexed": true,
          "internalType": "bytes32",
          "name": "role",
          "type": "bytes32"
        },
        {
          "indexed": true,
          "internalType": "address",
          "name": "account",
          "type": "address"
        },
        {
          "indexed": true,
          "internalType": "address",
          "name": "sender",
          "type": "address"
        }
      ],
      "name": "RoleRevoked",
      "type": "event"
    },
    {
      "anonymous": false,
      "inputs": [
        {
          "indexed": false,
          "internalType": "address",
          "name": "nft",
          "type": "address"
        },
        {
          "indexed": false,
          "internalType": "enum TreasureMarketplace.TokenApprovalStatus",
          "name": "status",
          "type": "uint8"
        }
      ],
      "name": "TokenApprovalStatusUpdated",
      "type": "event"
    },
    {
      "anonymous": false,
      "inputs": [
        {
          "indexed": false,
          "internalType": "address",
          "name": "account",
          "type": "address"
        }
      ],
      "name": "Unpaused",
      "type": "event"
    },
    {
      "anonymous": false,
      "inputs": [
        {
          "indexed": false,
          "internalType": "uint256",
          "name": "fee",
          "type": "uint256"
        }
      ],
      "name": "UpdateFee",
      "type": "event"
    },
    {
      "anonymous": false,
      "inputs": [
        {
          "indexed": false,
          "internalType": "address",
          "name": "feeRecipient",
          "type": "address"
        }
      ],
      "name": "UpdateFeeRecipient",
      "type": "event"
    },
    {
      "inputs": [],
      "name": "BASIS_POINTS",
      "outputs": [
        {
          "internalType": "uint256",
          "name": "",
          "type": "uint256"
        }
      ],
      "stateMutability": "view",
      "type": "function"
    },
    {
      "inputs": [],
      "name": "DEFAULT_ADMIN_ROLE",
      "outputs": [
        {
          "internalType": "bytes32",
          "name": "",
          "type": "bytes32"
        }
      ],
      "stateMutability": "view",
      "type": "function"
    },
    {
      "inputs": [],
      "name": "MAX_FEE",
      "outputs": [
        {
          "internalType": "uint256",
          "name": "",
          "type": "uint256"
        }
      ],
      "stateMutability": "view",
      "type": "function"
    },
    {
      "inputs": [],
      "name": "MIN_PRICE",
      "outputs": [
        {
          "internalType": "uint256",
          "name": "",
          "type": "uint256"
        }
      ],
      "stateMutability": "view",
      "type": "function"
    },
    {
      "inputs": [],
      "name": "TREASURE_MARKETPLACE_ADMIN_ROLE",
      "outputs": [
        {
          "internalType": "bytes32",
          "name": "",
          "type": "bytes32"
        }
      ],
      "stateMutability": "view",
      "type": "function"
    },
    {
      "inputs": [
        {
          "internalType": "address",
          "name": "_nftAddress",
          "type": "address"
        },
        {
          "internalType": "uint256",
          "name": "_tokenId",
          "type": "uint256"
        },
        {
          "internalType": "address",
          "name": "_owner",
          "type": "address"
        },
        {
          "internalType": "uint64",
          "name": "_quantity",
          "type": "uint64"
        },
        {
          "internalType": "uint128",
          "name": "_maxPricePerItem",
          "type": "uint128"
        }
      ],
      "name": "buyItem",
      "outputs": [],
      "stateMutability": "nonpayable",
      "type": "function"
    },
    {
      "inputs": [
        {
          "internalType": "address",
          "name": "_nftAddress",
          "type": "address"
        },
        {
          "internalType": "uint256",
          "name": "_tokenId",
          "type": "uint256"
        }
      ],
      "name": "cancelListing",
      "outputs": [],
      "stateMutability": "nonpayable",
      "type": "function"
    },
    {
      "inputs": [
        {
          "internalType": "address",
          "name": "_nftAddress",
          "type": "address"
        },
        {
          "internalType": "uint256",
          "name": "_tokenId",
          "type": "uint256"
        },
        {
          "internalType": "uint64",
          "name": "_quantity",
          "type": "uint64"
        },
        {
          "internalType": "uint128",
          "name": "_pricePerItem",
          "type": "uint128"
        },
        {
          "internalType": "uint64",
          "name": "_expirationTime",
          "type": "uint64"
        }
      ],
      "name": "createListing",
      "outputs": [],
      "stateMutability": "nonpayable",
      "type": "function"
    },
    {
      "inputs": [],
      "name": "fee",
      "outputs": [
        {
          "internalType": "uint256",
          "name": "",
          "type": "uint256"
        }
      ],
      "stateMutability": "view",
      "type": "function"
    },
    {
      "inputs": [],
      "name": "feeReceipient",
      "outputs": [
        {
          "internalType": "address",
          "name": "",
          "type": "address"
        }
      ],
      "stateMutability": "view",
      "type": "function"
    },
    {
      "inputs": [
        {
          "internalType": "bytes32",
          "name": "role",
          "type": "bytes32"
        }
      ],
      "name": "getRoleAdmin",
      "outputs": [
        {
          "internalType": "bytes32",
          "name": "",
          "type": "bytes32"
        }
      ],
      "stateMutability": "view",
      "type": "function"
    },
    {
      "inputs": [
        {
          "internalType": "bytes32",
          "name": "role",
          "type": "bytes32"
        },
        {
          "internalType": "uint256",
          "name": "index",
          "type": "uint256"
        }
      ],
      "name": "getRoleMember",
      "outputs": [
        {
          "internalType": "address",
          "name": "",
          "type": "address"
        }
      ],
      "stateMutability": "view",
      "type": "function"
    },
    {
      "inputs": [
        {
          "internalType": "bytes32",
          "name": "role",
          "type": "bytes32"
        }
      ],
      "name": "getRoleMemberCount",
      "outputs": [
        {
          "internalType": "uint256",
          "name": "",
          "type": "uint256"
        }
      ],
      "stateMutability": "view",
      "type": "function"
    },
    {
      "inputs": [
        {
          "internalType": "bytes32",
          "name": "role",
          "type": "bytes32"
        },
        {
          "internalType": "address",
          "name": "account",
          "type": "address"
        }
      ],
      "name": "grantRole",
      "outputs": [],
      "stateMutability": "nonpayable",
      "type": "function"
    },
    {
      "inputs": [
        {
          "internalType": "bytes32",
          "name": "role",
          "type": "bytes32"
        },
        {
          "internalType": "address",
          "name": "account",
          "type": "address"
        }
      ],
      "name": "hasRole",
      "outputs": [
        {
          "internalType": "bool",
          "name": "",
          "type": "bool"
        }
      ],
      "stateMutability": "view",
      "type": "function"
    },
    {
      "inputs": [
        {
          "internalType": "uint256",
          "name": "_initialFee",
          "type": "uint256"
        },
        {
          "internalType": "address",
          "name": "_initialFeeRecipient",
          "type": "address"
        },
        {
          "internalType": "contract IERC20Upgradeable",
          "name": "_initialPaymentToken",
          "type": "address"
        }
      ],
      "name": "initialize",
      "outputs": [],
      "stateMutability": "nonpayable",
      "type": "function"
    },
    {
      "inputs": [
        {
          "internalType": "address",
          "name": "",
          "type": "address"
        },
        {
          "internalType": "uint256",
          "name": "",
          "type": "uint256"
        },
        {
          "internalType": "address",
          "name": "",
          "type": "address"
        }
      ],
      "name": "listings",
      "outputs": [
        {
          "internalType": "uint64",
          "name": "quantity",
          "type": "uint64"
        },
        {
          "internalType": "uint128",
          "name": "pricePerItem",
          "type": "uint128"
        },
        {
          "internalType": "uint64",
          "name": "expirationTime",
          "type": "uint64"
        }
      ],
      "stateMutability": "view",
      "type": "function"
    },
    {
      "inputs": [],
      "name": "pause",
      "outputs": [],
      "stateMutability": "nonpayable",
      "type": "function"
    },
    {
      "inputs": [],
      "name": "paused",
      "outputs": [
        {
          "internalType": "bool",
          "name": "",
          "type": "bool"
        }
      ],
      "stateMutability": "view",
      "type": "function"
    },
    {
      "inputs": [],
      "name": "paymentToken",
      "outputs": [
        {
          "internalType": "contract IERC20Upgradeable",
          "name": "",
          "type": "address"
        }
      ],
      "stateMutability": "view",
      "type": "function"
    },
    {
      "inputs": [
        {
          "internalType": "bytes32",
          "name": "role",
          "type": "bytes32"
        },
        {
          "internalType": "address",
          "name": "account",
          "type": "address"
        }
      ],
      "name": "renounceRole",
      "outputs": [],
      "stateMutability": "nonpayable",
      "type": "function"
    },
    {
      "inputs": [
        {
          "internalType": "bytes32",
          "name": "role",
          "type": "bytes32"
        },
        {
          "internalType": "address",
          "name": "account",
          "type": "address"
        }
      ],
      "name": "revokeRole",
      "outputs": [],
      "stateMutability": "nonpayable",
      "type": "function"
    },
    {
      "inputs": [
        {
          "internalType": "uint256",
          "name": "_newFee",
          "type": "uint256"
        }
      ],
      "name": "setFee",
      "outputs": [],
      "stateMutability": "nonpayable",
      "type": "function"
    },
    {
      "inputs": [
        {
          "internalType": "address",
          "name": "_newFeeRecipient",
          "type": "address"
        }
      ],
      "name": "setFeeRecipient",
      "outputs": [],
      "stateMutability": "nonpayable",
      "type": "function"
    },
    {
      "inputs": [
        {
          "internalType": "address",
          "name": "_nft",
          "type": "address"
        },
        {
          "internalType": "enum TreasureMarketplace.TokenApprovalStatus",
          "name": "_status",
          "type": "uint8"
        }
      ],
      "name": "setTokenApprovalStatus",
      "outputs": [],
      "stateMutability": "nonpayable",
      "type": "function"
    },
    {
      "inputs": [
        {
          "internalType": "bytes4",
          "name": "interfaceId",
          "type": "bytes4"
        }
      ],
      "name": "supportsInterface",
      "outputs": [
        {
          "internalType": "bool",
          "name": "",
          "type": "bool"
        }
      ],
      "stateMutability": "view",
      "type": "function"
    },
    {
      "inputs": [
        {
          "internalType": "address",
          "name": "",
          "type": "address"
        }
      ],
      "name": "tokenApprovals",
      "outputs": [
        {
          "internalType": "enum TreasureMarketplace.TokenApprovalStatus",
          "name": "",
          "type": "uint8"
        }
      ],
      "stateMutability": "view",
      "type": "function"
    },
    {
      "inputs": [],
      "name": "unpause",
      "outputs": [],
      "stateMutability": "nonpayable",
      "type": "function"
    },
    {
      "inputs": [
        {
          "internalType": "address",
          "name": "_nftAddress",
          "type": "address"
        },
        {
          "internalType": "uint256",
          "name": "_tokenId",
          "type": "uint256"
        },
        {
          "internalType": "uint64",
          "name": "_newQuantity",
          "type": "uint64"
        },
        {
          "internalType": "uint128",
          "name": "_newPricePerItem",
          "type": "uint128"
        },
        {
          "internalType": "uint64",
          "name": "_newExpirationTime",
          "type": "uint64"
        }
      ],
      "name": "updateListing",
      "outputs": [],
      "stateMutability": "nonpayable",
      "type": "function"
    }
  ],
  "transactionHash": "0x6a07ee4132c5b336aefeac290dd5da74f76ba50a63a01592392f0527921d0ac6",
  "args": [],
  "numDeployments": 1,
  "solcInputHash": "2e238d3d58f67f0fb08b8bed10e09f34",
  "bytecode": "0x60806040523480156200001157600080fd5b50600054610100900460ff166200002f5760005460ff161562000039565b62000039620000de565b620000a15760405162461bcd60e51b815260206004820152602e60248201527f496e697469616c697a61626c653a20636f6e747261637420697320616c72656160448201526d191e481a5b9a5d1a585b1a5e995960921b606482015260840160405180910390fd5b600054610100900460ff16158015620000c4576000805461ffff19166101011790555b8015620000d7576000805461ff00191690555b506200010b565b6000620000f630620000fc60201b6200159e1760201c565b15905090565b6001600160a01b03163b151590565b612c1c806200011b6000396000f3fe608060405234801561001057600080fd5b50600436106101cf5760003560e01c80639010d07c11610104578063ca15c873116100a2578063e1f1c4a711610071578063e1f1c4a714610431578063e74b981b1461043a578063e76c17131461044d578063f4930d3e1461047e57600080fd5b8063ca15c873146103ee578063d547741f14610401578063dc4bb22d14610414578063ddca3f431461042757600080fd5b8063ad9f20a6116100de578063ad9f20a6146103b4578063b2ddee06146103bf578063b4988fd0146103d2578063bc063e1a146103e557600080fd5b80639010d07c1461038657806391d1485414610399578063a217fddf146103ac57600080fd5b8063452f44b31161017157806369fe0e2d1161014b57806369fe0e2d146102ce5780636bd3a64b146102e1578063764d63c71461036b5780638456cb591461037e57600080fd5b8063452f44b31461029d5780635c975abb146102b05780636943acce146102bb57600080fd5b80633013ce29116101ad5780633013ce291461024257806336568abe1461026e5780633740ebb3146102815780633f4ba83a1461029557600080fd5b806301ffc9a7146101d4578063248a9ca3146101fc5780632f2ff15d1461022d575b600080fd5b6101e76101e23660046124da565b610493565b60405190151581526020015b60405180910390f35b61021f61020a366004612504565b60009081526065602052604090206001015490565b6040519081526020016101f3565b61024061023b366004612532565b6104be565b005b61012d54610256906001600160a01b031681565b6040516001600160a01b0390911681526020016101f3565b61024061027c366004612532565b6104e9565b61012f54610256906001600160a01b031681565b61024061056c565b6102406102ab366004612562565b610590565b60c95460ff166101e7565b6102406102c93660046125c7565b6107fa565b6102406102dc366004612504565b610f22565b6103396102ef366004612629565b6101306020908152600093845260408085208252928452828420905282529020546001600160401b03808216916001600160801b03600160401b82041691600160c01b9091041683565b604080516001600160401b0394851681526001600160801b0390931660208401529216918101919091526060016101f3565b61024061037936600461266b565b610fcb565b610240611130565b6102566103943660046126bf565b611151565b6101e76103a7366004612532565b611170565b61021f600081565b61021f633b9aca0081565b6102406103cd3660046126e1565b61119b565b6102406103e036600461270d565b611223565b61021f6105dc81565b61021f6103fc366004612504565b6113be565b61024061040f366004612532565b6113d5565b61024061042236600461266b565b6113fb565b61021f61012e5481565b61021f61271081565b610240610448366004612744565b6114cc565b61047161045b366004612744565b6101316020526000908152604090205460ff1681565b6040516101f39190612799565b61021f600080516020612bc783398151915281565b60006001600160e01b03198216635a05180f60e01b14806104b857506104b8826115ad565b92915050565b6000828152606560205260409020600101546104da81336115e2565b6104e48383611646565b505050565b6001600160a01b038116331461055e5760405162461bcd60e51b815260206004820152602f60248201527f416363657373436f6e74726f6c3a2063616e206f6e6c792072656e6f756e636560448201526e103937b632b9903337b91039b2b63360891b60648201526084015b60405180910390fd5b6105688282611668565b5050565b600080516020612bc783398151915261058581336115e2565b61058d61168a565b50565b600080516020612bc78339815191526105a981336115e2565b60018260028111156105bd576105bd612761565b1415610697576040516301ffc9a760e01b81526380ac58cd60e01b60048201526001600160a01b038416906301ffc9a790602401602060405180830381865afa15801561060e573d6000803e3d6000fd5b505050506040513d601f19601f8201168201806040525081019061063291906127a7565b6106925760405162461bcd60e51b815260206004820152602b60248201527f54726561737572654d61726b6574706c6163653a206e6f7420616e204552433760448201526a0c8c4818dbdb9d1c9858dd60aa1b6064820152608401610555565b610781565b60028260028111156106ab576106ab612761565b1415610781576040516301ffc9a760e01b8152636cdb3d1360e11b60048201526001600160a01b038416906301ffc9a790602401602060405180830381865afa1580156106fc573d6000803e3d6000fd5b505050506040513d601f19601f8201168201806040525081019061072091906127a7565b6107815760405162461bcd60e51b815260206004820152602c60248201527f54726561737572654d61726b6574706c6163653a206e6f7420616e204552433160448201526b0c4d4d4818dbdb9d1c9858dd60a21b6064820152608401610555565b6001600160a01b038316600090815261013160205260409020805483919060ff191660018360028111156107b7576107b7612761565b02179055507fca446620807f89a7a1b4e55f8d40d10825d760be101a4deba2ff4a67c8bca95183836040516107ed9291906127c9565b60405180910390a1505050565b600260fb54141561081d5760405162461bcd60e51b8152600401610555906127e6565b600260fb5560c95460ff16156108455760405162461bcd60e51b81526004016105559061281d565b336001600160a01b03841614156108b45760405162461bcd60e51b815260206004820152602d60248201527f54726561737572654d61726b6574706c6163653a2043616e6e6f74206275792060448201526c796f7572206f776e206974656d60981b6064820152608401610555565b6000826001600160401b0316116109195760405162461bcd60e51b815260206004820152602360248201527f54726561737572654d61726b6574706c6163653a204e6f7468696e6720746f2060448201526262757960e81b6064820152608401610555565b6001600160a01b038086166000908152610130602090815260408083208884528252808320938716835292815290829020825160608101845290546001600160401b038082168084526001600160801b03600160401b84041694840194909452600160c01b90910416928101929092526109a55760405162461bcd60e51b815260040161055590612847565b4281604001516001600160401b03161015610a0e5760405162461bcd60e51b8152602060048201526024808201527f54726561737572654d61726b6574706c6163653a206c697374696e67206578706044820152631a5c995960e21b6064820152608401610555565b600081602001516001600160801b031611610a7e5760405162461bcd60e51b815260206004820152602a60248201527f54726561737572654d61726b6574706c6163653a206c697374696e672070726960448201526918d9481a5b9d985b1a5960b21b6064820152608401610555565b80516001600160401b0380851691161015610aec5760405162461bcd60e51b815260206004820152602860248201527f54726561737572654d61726b6574706c6163653a206e6f7420656e6f756768206044820152677175616e7469747960c01b6064820152608401610555565b816001600160801b031681602001516001600160801b03161115610b5e5760405162461bcd60e51b8152602060048201526024808201527f54726561737572654d61726b6574706c6163653a20707269636520696e637265604482015263185cd95960e21b6064820152608401610555565b60016001600160a01b0387166000908152610131602052604090205460ff166002811115610b8e57610b8e612761565b1415610c7357826001600160401b0316600114610c055760405162461bcd60e51b815260206004820152602f60248201527f54726561737572654d61726b6574706c6163653a2043616e6e6f74206275792060448201526e6d756c7469706c652045524337323160881b6064820152608401610555565b604051632142170760e11b81526001600160a01b038581166004830152336024830152604482018790528716906342842e0e906064015b600060405180830381600087803b158015610c5657600080fd5b505af1158015610c6a573d6000803e3d6000fd5b50505050610d50565b60026001600160a01b0387166000908152610131602052604090205460ff166002811115610ca357610ca3612761565b1415610ce95760408051602081018252600081529051637921219560e11b81526001600160a01b0388169163f242432a91610c3c91889133918b918a91906004016128e3565b60405162461bcd60e51b815260206004820152603660248201527f54726561737572654d61726b6574706c6163653a20746f6b656e206973206e6f6044820152757420617070726f76656420666f722074726164696e6760501b6064820152608401610555565b6000836001600160401b03168260200151610d6b919061293b565b6001600160801b03169050600061271061012e5483610d8a919061296a565b610d949190612989565b9050610db63361012f5461012d546001600160a01b039081169291168461171d565b610dda3387610dc584866129ab565b61012d546001600160a01b031692919061171d565b602083810151604080516001600160a01b03808b1682523394820194909452928b1683820152606083018a90526001600160401b03881660808401526001600160801b0390911660a0830152517f8f236686c9ab7948a1cc5985ed36b4de9780519f75380d5ea3ac498f9270e17f9181900360c00190a1846001600160401b031683600001516001600160401b03161415610ea5576001600160a01b038089166000908152610130602090815260408083208b84528252808320938a16835292905290812055610f13565b6001600160a01b038089166000908152610130602090815260408083208b84528252808320938a1683529290529081208054879290610eee9084906001600160401b03166129c2565b92506101000a8154816001600160401b0302191690836001600160401b031602179055505b5050600160fb55505050505050565b600080516020612bc7833981519152610f3b81336115e2565b6105dc821115610f8d5760405162461bcd60e51b815260206004820152601c60248201527f54726561737572654d61726b6574706c6163653a206d617820666565000000006044820152606401610555565b61012e8290556040518281527f38e229a7f3f9c329892d08eb37c4e91ccac6d12c798d394990ca4f56028ec266906020015b60405180910390a15050565b600260fb541415610fee5760405162461bcd60e51b8152600401610555906127e6565b600260fb5560c95460ff16156110165760405162461bcd60e51b81526004016105559061281d565b6001600160a01b03851660009081526101306020908152604080832087845282528083203384529091529020546001600160401b0316156110a55760405162461bcd60e51b815260206004820152602360248201527f54726561737572654d61726b6574706c6163653a20616c7265616479206c69736044820152621d195960ea1b6064820152608401610555565b6110b28585858585611777565b7f83bf900e0d7defb9558918eb50503be072490d1437edf6aba38f0c5d940b0131335b604080516001600160a01b039283168152918816602083015281018690526001600160401b0380861660608301526001600160801b0385166080830152831660a082015260c00160405180910390a15050600160fb55505050565b600080516020612bc783398151915261114981336115e2565b61058d611d26565b60008281526097602052604081206111699083611d7e565b9392505050565b60009182526065602090815260408084206001600160a01b0393909316845291905290205460ff1690565b600260fb5414156111be5760405162461bcd60e51b8152600401610555906127e6565b600260fb556001600160a01b0382166000818152610130602090815260408083208584528252808320338085529252808320839055518493927f9ba1a3cb55ce8d63d072a886f94d2a744f50cddf82128e897d0661f5ec62315891a45050600160fb55565b600054610100900460ff1661123e5760005460ff1615611242565b303b155b6112a55760405162461bcd60e51b815260206004820152602e60248201527f496e697469616c697a61626c653a20636f6e747261637420697320616c72656160448201526d191e481a5b9a5d1a585b1a5e995960921b6064820152608401610555565b600054610100900460ff161580156112c7576000805461ffff19166101011790555b6001600160a01b0382166113305760405162461bcd60e51b815260206004820152602a60248201527f54726561737572654d61726b6574706c6163653a2063616e6e6f7420736574206044820152696164647265737328302960b01b6064820152608401610555565b611338611d8a565b611340611db3565b611348611de6565b611360600080516020612bc783398151915280611e14565b611378600080516020612bc783398151915233611646565b61138184610f22565b61138a836114cc565b61012d80546001600160a01b0319166001600160a01b03841617905580156113b8576000805461ff00191690555b50505050565b60008181526097602052604081206104b890611e5f565b6000828152606560205260409020600101546113f181336115e2565b6104e48383611668565b600260fb54141561141e5760405162461bcd60e51b8152600401610555906127e6565b600260fb5560c95460ff16156114465760405162461bcd60e51b81526004016105559061281d565b6001600160a01b03851660009081526101306020908152604080832087845282528083203384529091529020546001600160401b03166114985760405162461bcd60e51b815260040161055590612847565b6114a58585858585611777565b7f99cef4217225de117fe8739e7620ea9ad6e284897615196f6013fcf54735d44e336110d5565b600080516020612bc78339815191526114e581336115e2565b6001600160a01b03821661154f5760405162461bcd60e51b815260206004820152602b60248201527f54726561737572654d61726b6574706c6163653a2063616e6e6f74207365742060448201526a307830206164647265737360a81b6064820152608401610555565b61012f80546001600160a01b0319166001600160a01b0384169081179091556040519081527f6632de8ab33c46549f7bb29f647ea0d751157b25fe6a14b1bcc7527cdfbeb79c90602001610fbf565b6001600160a01b03163b151590565b60006001600160e01b03198216637965db0b60e01b14806104b857506301ffc9a760e01b6001600160e01b03198316146104b8565b6115ec8282611170565b61056857611604816001600160a01b03166014611e69565b61160f836020611e69565b6040516020016116209291906129ea565b60408051601f198184030181529082905262461bcd60e51b825261055591600401612a5f565b6116508282612004565b60008281526097602052604090206104e4908261208a565b611672828261209f565b60008281526097602052604090206104e49082612106565b60c95460ff166116d35760405162461bcd60e51b815260206004820152601460248201527314185d5cd8589b194e881b9bdd081c185d5cd95960621b6044820152606401610555565b60c9805460ff191690557f5db9ee0a495bf2e6ff9c91a7834c1ba4fdd244a5e8aa4e537bd38aeae4b073aa335b6040516001600160a01b03909116815260200160405180910390a1565b604080516001600160a01b0385811660248301528416604482015260648082018490528251808303909101815260849091019091526020810180516001600160e01b03166323b872dd60e01b1790526113b890859061211b565b42816001600160401b0316116117e45760405162461bcd60e51b815260206004820152602c60248201527f54726561737572654d61726b6574706c6163653a20696e76616c69642065787060448201526b69726174696f6e2074696d6560a01b6064820152608401610555565b633b9aca00826001600160801b0316101561184d5760405162461bcd60e51b8152602060048201526024808201527f54726561737572654d61726b6574706c6163653a2062656c6f77206d696e20706044820152637269636560e01b6064820152608401610555565b60016001600160a01b0386166000908152610131602052604090205460ff16600281111561187d5761187d612761565b1415611a665784336040516331a9108f60e11b8152600481018790526001600160a01b0391821691831690636352211e90602401602060405180830381865afa1580156118ce573d6000803e3d6000fd5b505050506040513d601f19601f820116820180604052508101906118f29190612a72565b6001600160a01b0316146119545760405162461bcd60e51b8152602060048201526024808201527f54726561737572654d61726b6574706c6163653a206e6f74206f776e696e67206044820152636974656d60e01b6064820152608401610555565b6001600160a01b03811663e985e9c5336040516001600160e01b031960e084901b1681526001600160a01b039091166004820152306024820152604401602060405180830381865afa1580156119ae573d6000803e3d6000fd5b505050506040513d601f19601f820116820180604052508101906119d291906127a7565b6119ee5760405162461bcd60e51b815260040161055590612a8f565b836001600160401b0316600114611a605760405162461bcd60e51b815260206004820152603060248201527f54726561737572654d61726b6574706c6163653a2063616e6e6f74206c69737460448201526f206d756c7469706c652045524337323160801b6064820152608401610555565b50611c85565b60026001600160a01b0386166000908152610131602052604090205460ff166002811115611a9657611a96612761565b1415610ce957846001600160401b0384166001600160a01b03821662fdd58e336040516001600160e01b031960e084901b1681526001600160a01b03909116600482015260248101899052604401602060405180830381865afa158015611b01573d6000803e3d6000fd5b505050506040513d601f19601f82011682018060405250810190611b259190612ad5565b1015611b865760405162461bcd60e51b815260206004820152602a60248201527f54726561737572654d61726b6574706c6163653a206d75737420686f6c6420656044820152696e6f756768206e66747360b01b6064820152608401610555565b6001600160a01b03811663e985e9c5336040516001600160e01b031960e084901b1681526001600160a01b039091166004820152306024820152604401602060405180830381865afa158015611be0573d6000803e3d6000fd5b505050506040513d601f19601f82011682018060405250810190611c0491906127a7565b611c205760405162461bcd60e51b815260040161055590612a8f565b6000846001600160401b031611611a605760405162461bcd60e51b8152602060048201526024808201527f54726561737572654d61726b6574706c6163653a206e6f7468696e6720746f206044820152631b1a5cdd60e21b6064820152608401610555565b604080516060810182526001600160401b0394851681526001600160801b0393841660208083019182529386168284019081526001600160a01b039890981660009081526101308552838120978152968452828720338852909352942093518454915195518416600160c01b026001600160c01b0396909316600160401b026001600160c01b03199092169316929092179190911792909216919091179055565b60c95460ff1615611d495760405162461bcd60e51b81526004016105559061281d565b60c9805460ff191660011790557f62e78cea01bee320cd4e420270b5ea74000d11b0c9f74754ebdbfc544b05a2586117003390565b600061116983836121ed565b600054610100900460ff16611db15760405162461bcd60e51b815260040161055590612aee565b565b600054610100900460ff16611dda5760405162461bcd60e51b815260040161055590612aee565b60c9805460ff19169055565b600054610100900460ff16611e0d5760405162461bcd60e51b815260040161055590612aee565b600160fb55565b600082815260656020526040808220600101805490849055905190918391839186917fbd79b86ffe0ab8e8776151514217cd7cacd52c909f66475c3af44e129f0b00ff9190a4505050565b60006104b8825490565b60606000611e7883600261296a565b611e83906002612b39565b6001600160401b03811115611e9a57611e9a612b51565b6040519080825280601f01601f191660200182016040528015611ec4576020820181803683370190505b509050600360fc1b81600081518110611edf57611edf612b67565b60200101906001600160f81b031916908160001a905350600f60fb1b81600181518110611f0e57611f0e612b67565b60200101906001600160f81b031916908160001a9053506000611f3284600261296a565b611f3d906001612b39565b90505b6001811115611fb5576f181899199a1a9b1b9c1cb0b131b232b360811b85600f1660108110611f7157611f71612b67565b1a60f81b828281518110611f8757611f87612b67565b60200101906001600160f81b031916908160001a90535060049490941c93611fae81612b7d565b9050611f40565b5083156111695760405162461bcd60e51b815260206004820181905260248201527f537472696e67733a20686578206c656e67746820696e73756666696369656e746044820152606401610555565b61200e8282611170565b6105685760008281526065602090815260408083206001600160a01b03851684529091529020805460ff191660011790556120463390565b6001600160a01b0316816001600160a01b0316837f2f8788117e7eff1d82e926ec794901d17c78024a50270940304540a733656f0d60405160405180910390a45050565b6000611169836001600160a01b038416612217565b6120a98282611170565b156105685760008281526065602090815260408083206001600160a01b0385168085529252808320805460ff1916905551339285917ff6391f5c32d9c69d2a47ea670b442974b53935d1edc7fd64eb21e047a839171b9190a45050565b6000611169836001600160a01b038416612266565b6000612170826040518060400160405280602081526020017f5361666545524332303a206c6f772d6c6576656c2063616c6c206661696c6564815250856001600160a01b03166123599092919063ffffffff16565b8051909150156104e4578080602001905181019061218e91906127a7565b6104e45760405162461bcd60e51b815260206004820152602a60248201527f5361666545524332303a204552433230206f7065726174696f6e20646964206e6044820152691bdd081cdd58d8d9595960b21b6064820152608401610555565b600082600001828154811061220457612204612b67565b9060005260206000200154905092915050565b600081815260018301602052604081205461225e575081546001818101845560008481526020808220909301849055845484825282860190935260409020919091556104b8565b5060006104b8565b6000818152600183016020526040812054801561234f57600061228a6001836129ab565b855490915060009061229e906001906129ab565b90508181146123035760008660000182815481106122be576122be612b67565b90600052602060002001549050808760000184815481106122e1576122e1612b67565b6000918252602080832090910192909255918252600188019052604090208390555b855486908061231457612314612b94565b6001900381819060005260206000200160009055905585600101600086815260200190815260200160002060009055600193505050506104b8565b60009150506104b8565b60606123688484600085612370565b949350505050565b6060824710156123d15760405162461bcd60e51b815260206004820152602660248201527f416464726573733a20696e73756666696369656e742062616c616e636520666f6044820152651c8818d85b1b60d21b6064820152608401610555565b6001600160a01b0385163b6124285760405162461bcd60e51b815260206004820152601d60248201527f416464726573733a2063616c6c20746f206e6f6e2d636f6e74726163740000006044820152606401610555565b600080866001600160a01b031685876040516124449190612baa565b60006040518083038185875af1925050503d8060008114612481576040519150601f19603f3d011682016040523d82523d6000602084013e612486565b606091505b50915091506124968282866124a1565b979650505050505050565b606083156124b0575081611169565b8251156124c05782518084602001fd5b8160405162461bcd60e51b81526004016105559190612a5f565b6000602082840312156124ec57600080fd5b81356001600160e01b03198116811461116957600080fd5b60006020828403121561251657600080fd5b5035919050565b6001600160a01b038116811461058d57600080fd5b6000806040838503121561254557600080fd5b8235915060208301356125578161251d565b809150509250929050565b6000806040838503121561257557600080fd5b82356125808161251d565b915060208301356003811061255757600080fd5b80356001600160401b03811681146125ab57600080fd5b919050565b80356001600160801b03811681146125ab57600080fd5b600080600080600060a086880312156125df57600080fd5b85356125ea8161251d565b94506020860135935060408601356126018161251d565b925061260f60608701612594565b915061261d608087016125b0565b90509295509295909350565b60008060006060848603121561263e57600080fd5b83356126498161251d565b92506020840135915060408401356126608161251d565b809150509250925092565b600080600080600060a0868803121561268357600080fd5b853561268e8161251d565b9450602086013593506126a360408701612594565b92506126b1606087016125b0565b915061261d60808701612594565b600080604083850312156126d257600080fd5b50508035926020909101359150565b600080604083850312156126f457600080fd5b82356126ff8161251d565b946020939093013593505050565b60008060006060848603121561272257600080fd5b8335925060208401356127348161251d565b915060408401356126608161251d565b60006020828403121561275657600080fd5b81356111698161251d565b634e487b7160e01b600052602160045260246000fd5b6003811061279557634e487b7160e01b600052602160045260246000fd5b9052565b602081016104b88284612777565b6000602082840312156127b957600080fd5b8151801515811461116957600080fd5b6001600160a01b0383168152604081016111696020830184612777565b6020808252601f908201527f5265656e7472616e637947756172643a207265656e7472616e742063616c6c00604082015260600190565b60208082526010908201526f14185d5cd8589b194e881c185d5cd95960821b604082015260600190565b60208082526024908201527f54726561737572654d61726b6574706c6163653a206e6f74206c6973746564206040820152636974656d60e01b606082015260800190565b60005b838110156128a657818101518382015260200161288e565b838111156113b85750506000910152565b600081518084526128cf81602086016020860161288b565b601f01601f19169290920160200192915050565b6001600160a01b03868116825285166020820152604081018490526001600160401b038316606082015260a060808201819052600090612496908301846128b7565b634e487b7160e01b600052601160045260246000fd5b60006001600160801b038083168185168183048111821515161561296157612961612925565b02949350505050565b600081600019048311821515161561298457612984612925565b500290565b6000826129a657634e487b7160e01b600052601260045260246000fd5b500490565b6000828210156129bd576129bd612925565b500390565b60006001600160401b03838116908316818110156129e2576129e2612925565b039392505050565b7f416363657373436f6e74726f6c3a206163636f756e7420000000000000000000815260008351612a2281601785016020880161288b565b7001034b99036b4b9b9b4b733903937b6329607d1b6017918401918201528351612a5381602884016020880161288b565b01602801949350505050565b60208152600061116960208301846128b7565b600060208284031215612a8457600080fd5b81516111698161251d565b60208082526026908201527f54726561737572654d61726b6574706c6163653a206974656d206e6f742061706040820152651c1c9bdd995960d21b606082015260800190565b600060208284031215612ae757600080fd5b5051919050565b6020808252602b908201527f496e697469616c697a61626c653a20636f6e7472616374206973206e6f74206960408201526a6e697469616c697a696e6760a81b606082015260800190565b60008219821115612b4c57612b4c612925565b500190565b634e487b7160e01b600052604160045260246000fd5b634e487b7160e01b600052603260045260246000fd5b600081612b8c57612b8c612925565b506000190190565b634e487b7160e01b600052603160045260246000fd5b60008251612bbc81846020870161288b565b919091019291505056fe34d5e892b0a7ec1561fc4a5fdcb31b798cf623590906b938d356c9619e539958a26469706673582212207586f2a12569b18282fc263ad288570ddcb62be13b7581f44f55581fced9a93a64736f6c634300080c0033",
  "devdoc": {
    "details": "This contract does not store any tokens at any time, it's only collects details \"the sale\" and approvals         from both parties and preforms non-custodial transaction by transfering NFT from owner to buying and payment         token from buying to NFT owner.",
    "events": {
      "ItemCanceled(address,address,uint256)": {
        "params": {
          "nftAddress": "which token contract holds the formerly offered token",
          "seller": "former offeror of the item",
          "tokenId": "the identifier for the formerly offered token"
        }
      },
      "ItemListed(address,address,uint256,uint64,uint128,uint64)": {
        "params": {
          "expirationTime": "UNIX timestamp after when this listing expires",
          "nftAddress": "which token contract holds the offered token",
          "pricePerItem": "the price (in units of the paymentToken) for each token offered",
          "quantity": "how many of this token identifier are offered (or 1 for a ERC-721 token)",
          "seller": "the offeror of the item",
          "tokenId": "the identifier for the offered token"
        }
      },
      "ItemSold(address,address,address,uint256,uint64,uint128)": {
        "params": {
          "buyer": "the buyer of the item",
          "nftAddress": "which token contract holds the sold token",
          "pricePerItem": "the price (in units of the paymentToken) for each token sold",
          "quantity": "how many of this token identifier where sold (or 1 for a ERC-721 token)",
          "seller": "the offeror of the item",
          "tokenId": "the identifier for the sold token"
        }
      },
      "ItemUpdated(address,address,uint256,uint64,uint128,uint64)": {
        "params": {
          "expirationTime": "UNIX timestamp after when this listing expires",
          "nftAddress": "which token contract holds the offered token",
          "pricePerItem": "the price (in units of the paymentToken) for each token offered",
          "quantity": "how many of this token identifier are offered (or 1 for a ERC-721 token)",
          "seller": "the offeror of the item",
          "tokenId": "the identifier for the offered token"
        }
      },
      "TokenApprovalStatusUpdated(address,uint8)": {
        "params": {
          "nft": "which token contract was updated",
          "status": "the new status"
        }
      },
      "UpdateFee(uint256)": {
        "params": {
          "fee": "new fee amount (in units of basis points)"
        }
      },
      "UpdateFeeRecipient(address)": {
        "params": {
          "feeRecipient": "the new recipient to get fees"
        }
      }
    },
    "kind": "dev",
    "methods": {
      "buyItem(address,uint256,address,uint64,uint128)": {
        "params": {
          "_maxPricePerItem": "the maximum price (in units of the paymentToken) for each token offered",
          "_nftAddress": "which token contract holds the offered token",
          "_owner": "current owner of the item(s) to be bought",
          "_quantity": "how many of this token identifier to be bought (or 1 for a ERC-721 token)",
          "_tokenId": "the identifier for the token to be bought"
        }
      },
      "cancelListing(address,uint256)": {
        "params": {
          "_nftAddress": "which token contract holds the offered token",
          "_tokenId": "the identifier for the offered token"
        }
      },
      "constructor": {
        "custom:oz-upgrades-unsafe-allow": "constructor"
      },
      "createListing(address,uint256,uint64,uint128,uint64)": {
        "params": {
          "_expirationTime": "UNIX timestamp after when this listing expires",
          "_nftAddress": "which token contract holds the offered token",
          "_pricePerItem": "the price (in units of the paymentToken) for each token offered",
          "_quantity": "how many of this token identifier are offered (or 1 for a ERC-721 token)",
          "_tokenId": "the identifier for the offered token"
        }
      },
      "getRoleAdmin(bytes32)": {
        "details": "Returns the admin role that controls `role`. See {grantRole} and {revokeRole}. To change a role's admin, use {_setRoleAdmin}."
      },
      "getRoleMember(bytes32,uint256)": {
        "details": "Returns one of the accounts that have `role`. `index` must be a value between 0 and {getRoleMemberCount}, non-inclusive. Role bearers are not sorted in any particular way, and their ordering may change at any point. WARNING: When using {getRoleMember} and {getRoleMemberCount}, make sure you perform all queries on the same block. See the following https://forum.openzeppelin.com/t/iterating-over-elements-on-enumerableset-in-openzeppelin-contracts/2296[forum post] for more information."
      },
      "getRoleMemberCount(bytes32)": {
        "details": "Returns the number of accounts that have `role`. Can be used together with {getRoleMember} to enumerate all bearers of a role."
      },
      "grantRole(bytes32,address)": {
        "details": "Grants `role` to `account`. If `account` had not been already granted `role`, emits a {RoleGranted} event. Requirements: - the caller must have ``role``'s admin role."
      },
      "hasRole(bytes32,address)": {
        "details": "Returns `true` if `account` has been granted `role`."
      },
      "initialize(uint256,address,address)": {
        "details": "The initializer modifier ensures this is only called once, the owner should confirm this was properly         performed before publishing this contract address.",
        "params": {
          "_initialFee": "fee to be paid on each sale, in basis points",
          "_initialFeeRecipient": "wallet to collets fees",
          "_initialPaymentToken": "address of the token that is used for settlement"
        }
      },
      "pause()": {
        "details": "This is callable only by the owner. Canceling listings is not paused."
      },
      "paused()": {
        "details": "Returns true if the contract is paused, and false otherwise."
      },
      "renounceRole(bytes32,address)": {
        "details": "Revokes `role` from the calling account. Roles are often managed via {grantRole} and {revokeRole}: this function's purpose is to provide a mechanism for accounts to lose their privileges if they are compromised (such as when a trusted device is misplaced). If the calling account had been revoked `role`, emits a {RoleRevoked} event. Requirements: - the caller must be `account`."
      },
      "revokeRole(bytes32,address)": {
        "details": "Revokes `role` from `account`. If `account` had been granted `role`, emits a {RoleRevoked} event. Requirements: - the caller must have ``role``'s admin role."
      },
      "setFee(uint256)": {
        "details": "This is callable only by the owner. Fee may not exceed MAX_FEE",
        "params": {
          "_newFee": "the updated fee amount is basis points"
        }
      },
      "setFeeRecipient(address)": {
        "details": "This is callable only by the owner.",
        "params": {
          "_newFeeRecipient": "the wallet to receive fees"
        }
      },
      "setTokenApprovalStatus(address,uint8)": {
        "details": "This is callable only by the owner.",
        "params": {
          "_nft": "address of the NFT to be approved",
          "_status": "the kind of NFT approved, or NOT_APPROVED to remove approval"
        }
      },
      "supportsInterface(bytes4)": {
        "details": "See {IERC165-supportsInterface}."
      },
      "unpause()": {
        "details": "This is callable only by the owner."
      },
      "updateListing(address,uint256,uint64,uint128,uint64)": {
        "params": {
          "_newExpirationTime": "UNIX timestamp after when this listing expires",
          "_newPricePerItem": "the price (in units of the paymentToken) for each token offered",
          "_newQuantity": "how many of this token identifier are offered (or 1 for a ERC-721 token)",
          "_nftAddress": "which token contract holds the offered token",
          "_tokenId": "the identifier for the offered token"
        }
      }
    },
    "title": "Treasure NFT marketplace",
    "version": 1
  },
  "userdoc": {
    "events": {
      "ItemCanceled(address,address,uint256)": {
        "notice": "An item is no longer listed for sale"
      },
      "ItemListed(address,address,uint256,uint64,uint128,uint64)": {
        "notice": "An item was listed for sale"
      },
      "ItemSold(address,address,address,uint256,uint64,uint128)": {
        "notice": "A listed item was sold"
      },
      "ItemUpdated(address,address,uint256,uint64,uint128,uint64)": {
        "notice": "An item listing was updated"
      },
      "TokenApprovalStatusUpdated(address,uint8)": {
        "notice": "The approval status for a token was updated"
      },
      "UpdateFee(uint256)": {
        "notice": "The fee portion was updated"
      },
      "UpdateFeeRecipient(address)": {
        "notice": "The fee recipient was updated"
      }
    },
    "kind": "user",
    "methods": {
      "BASIS_POINTS()": {
        "notice": "the denominator for portion calculation, i.e. how many basis points are in 100%"
      },
      "MAX_FEE()": {
        "notice": "the maximum fee which the owner may set (in units of basis points)"
      },
      "MIN_PRICE()": {
        "notice": "the minimum price for which any item can be sold"
      },
      "TREASURE_MARKETPLACE_ADMIN_ROLE()": {
        "notice": "TREASURE_MARKETPLACE_ADMIN_ROLE role hash"
      },
      "buyItem(address,uint256,address,uint64,uint128)": {
        "notice": "Buy a listed item. You must authorize this marketplace with your payment token to completed the buy."
      },
      "cancelListing(address,uint256)": {
        "notice": "Remove an item listing"
      },
      "createListing(address,uint256,uint64,uint128,uint64)": {
        "notice": "Creates an item listing. You must authorize this marketplace with your item's token contract to list."
      },
      "fee()": {
        "notice": "fee portion (in basis points) for each sale, (e.g. a value of 100 is 100/10000 = 1%)"
      },
      "feeReceipient()": {
        "notice": "address that receives fees"
      },
      "initialize(uint256,address,address)": {
        "notice": "Perform initial contract setup"
      },
      "listings(address,uint256,address)": {
        "notice": "mapping for listings, maps: nftAddress => tokenId => offeror"
      },
      "pause()": {
        "notice": "Pauses the marketplace, creatisgn and executing listings is paused"
      },
      "paymentToken()": {
        "notice": "which token is used for marketplace sales and fee payments"
      },
      "setFee(uint256)": {
        "notice": "Updates the fee amount which is collected during sales"
      },
      "setFeeRecipient(address)": {
        "notice": "Updates the fee recipient which receives fees during sales"
      },
      "setTokenApprovalStatus(address,uint8)": {
        "notice": "Sets a token as an approved kind of NFT or as ineligible for trading"
      },
      "tokenApprovals(address)": {
        "notice": "NFTs which the owner has approved to be sold on the marketplace, maps: nftAddress => status"
      },
      "unpause()": {
        "notice": "Unpauses the marketplace, all functionality is restored"
      },
      "updateListing(address,uint256,uint64,uint128,uint64)": {
        "notice": "Updates an item listing"
      }
    },
    "notice": "This contract allows you to buy and sell NFTs from token contracts that are approved by the contract owner.         Please note that this contract is upgradeable. In the event of a compromised ProxyAdmin contract owner,         collectable tokens and payments may be at risk. To prevent this, the ProxyAdmin is owned by a multi-sig         governed by the TreasureDAO council.",
    "version": 1
  },
  "storageLayout": {
    "storage": [
      {
        "astId": 705,
        "contract": "contracts/TreasureMarketplace.sol:TreasureMarketplace",
        "label": "_initialized",
        "offset": 0,
        "slot": "0",
        "type": "t_bool"
      },
      {
        "astId": 708,
        "contract": "contracts/TreasureMarketplace.sol:TreasureMarketplace",
        "label": "_initializing",
        "offset": 1,
        "slot": "0",
        "type": "t_bool"
      },
      {
        "astId": 1766,
        "contract": "contracts/TreasureMarketplace.sol:TreasureMarketplace",
        "label": "__gap",
        "offset": 0,
        "slot": "1",
        "type": "t_array(t_uint256)50_storage"
      },
      {
        "astId": 2013,
        "contract": "contracts/TreasureMarketplace.sol:TreasureMarketplace",
        "label": "__gap",
        "offset": 0,
        "slot": "51",
        "type": "t_array(t_uint256)50_storage"
      },
      {
        "astId": 184,
        "contract": "contracts/TreasureMarketplace.sol:TreasureMarketplace",
        "label": "_roles",
        "offset": 0,
        "slot": "101",
        "type": "t_mapping(t_bytes32,t_struct(RoleData)179_storage)"
      },
      {
        "astId": 472,
        "contract": "contracts/TreasureMarketplace.sol:TreasureMarketplace",
        "label": "__gap",
        "offset": 0,
        "slot": "102",
        "type": "t_array(t_uint256)49_storage"
      },
      {
        "astId": 33,
        "contract": "contracts/TreasureMarketplace.sol:TreasureMarketplace",
        "label": "_roleMembers",
        "offset": 0,
        "slot": "151",
        "type": "t_mapping(t_bytes32,t_struct(AddressSet)2338_storage)"
      },
      {
        "astId": 143,
        "contract": "contracts/TreasureMarketplace.sol:TreasureMarketplace",
        "label": "__gap",
        "offset": 0,
        "slot": "152",
        "type": "t_array(t_uint256)49_storage"
      },
      {
        "astId": 793,
        "contract": "contracts/TreasureMarketplace.sol:TreasureMarketplace",
        "label": "_paused",
        "offset": 0,
        "slot": "201",
        "type": "t_bool"
      },
      {
        "astId": 882,
        "contract": "contracts/TreasureMarketplace.sol:TreasureMarketplace",
        "label": "__gap",
        "offset": 0,
        "slot": "202",
        "type": "t_array(t_uint256)49_storage"
      },
      {
        "astId": 897,
        "contract": "contracts/TreasureMarketplace.sol:TreasureMarketplace",
        "label": "_status",
        "offset": 0,
        "slot": "251",
        "type": "t_uint256"
      },
      {
        "astId": 941,
        "contract": "contracts/TreasureMarketplace.sol:TreasureMarketplace",
        "label": "__gap",
        "offset": 0,
        "slot": "252",
        "type": "t_array(t_uint256)49_storage"
      },
      {
        "astId": 2690,
        "contract": "contracts/TreasureMarketplace.sol:TreasureMarketplace",
        "label": "paymentToken",
        "offset": 0,
        "slot": "301",
        "type": "t_contract(IERC20Upgradeable)1142"
      },
      {
        "astId": 2693,
        "contract": "contracts/TreasureMarketplace.sol:TreasureMarketplace",
        "label": "fee",
        "offset": 0,
        "slot": "302",
        "type": "t_uint256"
      },
      {
        "astId": 2696,
        "contract": "contracts/TreasureMarketplace.sol:TreasureMarketplace",
        "label": "feeReceipient",
        "offset": 0,
        "slot": "303",
        "type": "t_address"
      },
      {
        "astId": 2706,
        "contract": "contracts/TreasureMarketplace.sol:TreasureMarketplace",
        "label": "listings",
        "offset": 0,
        "slot": "304",
        "type": "t_mapping(t_address,t_mapping(t_uint256,t_mapping(t_address,t_struct(Listing)2657_storage)))"
      },
      {
        "astId": 2712,
        "contract": "contracts/TreasureMarketplace.sol:TreasureMarketplace",
        "label": "tokenApprovals",
        "offset": 0,
        "slot": "305",
        "type": "t_mapping(t_address,t_enum(TokenApprovalStatus)2661)"
      }
    ],
    "types": {
      "t_address": {
        "encoding": "inplace",
        "label": "address",
        "numberOfBytes": "20"
      },
      "t_array(t_bytes32)dyn_storage": {
        "base": "t_bytes32",
        "encoding": "dynamic_array",
        "label": "bytes32[]",
        "numberOfBytes": "32"
      },
      "t_array(t_uint256)49_storage": {
        "base": "t_uint256",
        "encoding": "inplace",
        "label": "uint256[49]",
        "numberOfBytes": "1568"
      },
      "t_array(t_uint256)50_storage": {
        "base": "t_uint256",
        "encoding": "inplace",
        "label": "uint256[50]",
        "numberOfBytes": "1600"
      },
      "t_bool": {
        "encoding": "inplace",
        "label": "bool",
        "numberOfBytes": "1"
      },
      "t_bytes32": {
        "encoding": "inplace",
        "label": "bytes32",
        "numberOfBytes": "32"
      },
      "t_contract(IERC20Upgradeable)1142": {
        "encoding": "inplace",
        "label": "contract IERC20Upgradeable",
        "numberOfBytes": "20"
      },
      "t_enum(TokenApprovalStatus)2661": {
        "encoding": "inplace",
        "label": "enum TreasureMarketplace.TokenApprovalStatus",
        "numberOfBytes": "1"
      },
      "t_mapping(t_address,t_bool)": {
        "encoding": "mapping",
        "key": "t_address",
        "label": "mapping(address => bool)",
        "numberOfBytes": "32",
        "value": "t_bool"
      },
      "t_mapping(t_address,t_enum(TokenApprovalStatus)2661)": {
        "encoding": "mapping",
        "key": "t_address",
        "label": "mapping(address => enum TreasureMarketplace.TokenApprovalStatus)",
        "numberOfBytes": "32",
        "value": "t_enum(TokenApprovalStatus)2661"
      },
      "t_mapping(t_address,t_mapping(t_uint256,t_mapping(t_address,t_struct(Listing)2657_storage)))": {
        "encoding": "mapping",
        "key": "t_address",
        "label": "mapping(address => mapping(uint256 => mapping(address => struct TreasureMarketplace.Listing)))",
        "numberOfBytes": "32",
        "value": "t_mapping(t_uint256,t_mapping(t_address,t_struct(Listing)2657_storage))"
      },
      "t_mapping(t_address,t_struct(Listing)2657_storage)": {
        "encoding": "mapping",
        "key": "t_address",
        "label": "mapping(address => struct TreasureMarketplace.Listing)",
        "numberOfBytes": "32",
        "value": "t_struct(Listing)2657_storage"
      },
      "t_mapping(t_bytes32,t_struct(AddressSet)2338_storage)": {
        "encoding": "mapping",
        "key": "t_bytes32",
        "label": "mapping(bytes32 => struct EnumerableSetUpgradeable.AddressSet)",
        "numberOfBytes": "32",
        "value": "t_struct(AddressSet)2338_storage"
      },
      "t_mapping(t_bytes32,t_struct(RoleData)179_storage)": {
        "encoding": "mapping",
        "key": "t_bytes32",
        "label": "mapping(bytes32 => struct AccessControlUpgradeable.RoleData)",
        "numberOfBytes": "32",
        "value": "t_struct(RoleData)179_storage"
      },
      "t_mapping(t_bytes32,t_uint256)": {
        "encoding": "mapping",
        "key": "t_bytes32",
        "label": "mapping(bytes32 => uint256)",
        "numberOfBytes": "32",
        "value": "t_uint256"
      },
      "t_mapping(t_uint256,t_mapping(t_address,t_struct(Listing)2657_storage))": {
        "encoding": "mapping",
        "key": "t_uint256",
        "label": "mapping(uint256 => mapping(address => struct TreasureMarketplace.Listing))",
        "numberOfBytes": "32",
        "value": "t_mapping(t_address,t_struct(Listing)2657_storage)"
      },
      "t_struct(AddressSet)2338_storage": {
        "encoding": "inplace",
        "label": "struct EnumerableSetUpgradeable.AddressSet",
        "members": [
          {
            "astId": 2337,
            "contract": "contracts/TreasureMarketplace.sol:TreasureMarketplace",
            "label": "_inner",
            "offset": 0,
            "slot": "0",
            "type": "t_struct(Set)2037_storage"
          }
        ],
        "numberOfBytes": "64"
      },
      "t_struct(Listing)2657_storage": {
        "encoding": "inplace",
        "label": "struct TreasureMarketplace.Listing",
        "members": [
          {
            "astId": 2650,
            "contract": "contracts/TreasureMarketplace.sol:TreasureMarketplace",
            "label": "quantity",
            "offset": 0,
            "slot": "0",
            "type": "t_uint64"
          },
          {
            "astId": 2653,
            "contract": "contracts/TreasureMarketplace.sol:TreasureMarketplace",
            "label": "pricePerItem",
            "offset": 8,
            "slot": "0",
            "type": "t_uint128"
          },
          {
            "astId": 2656,
            "contract": "contracts/TreasureMarketplace.sol:TreasureMarketplace",
            "label": "expirationTime",
            "offset": 24,
            "slot": "0",
            "type": "t_uint64"
          }
        ],
        "numberOfBytes": "32"
      },
      "t_struct(RoleData)179_storage": {
        "encoding": "inplace",
        "label": "struct AccessControlUpgradeable.RoleData",
        "members": [
          {
            "astId": 176,
            "contract": "contracts/TreasureMarketplace.sol:TreasureMarketplace",
            "label": "members",
            "offset": 0,
            "slot": "0",
            "type": "t_mapping(t_address,t_bool)"
          },
          {
            "astId": 178,
            "contract": "contracts/TreasureMarketplace.sol:TreasureMarketplace",
            "label": "adminRole",
            "offset": 0,
            "slot": "1",
            "type": "t_bytes32"
          }
        ],
        "numberOfBytes": "64"
      },
      "t_struct(Set)2037_storage": {
        "encoding": "inplace",
        "label": "struct EnumerableSetUpgradeable.Set",
        "members": [
          {
            "astId": 2032,
            "contract": "contracts/TreasureMarketplace.sol:TreasureMarketplace",
            "label": "_values",
            "offset": 0,
            "slot": "0",
            "type": "t_array(t_bytes32)dyn_storage"
          },
          {
            "astId": 2036,
            "contract": "contracts/TreasureMarketplace.sol:TreasureMarketplace",
            "label": "_indexes",
            "offset": 0,
            "slot": "1",
            "type": "t_mapping(t_bytes32,t_uint256)"
          }
        ],
        "numberOfBytes": "64"
      },
      "t_uint128": {
        "encoding": "inplace",
        "label": "uint128",
        "numberOfBytes": "16"
      },
      "t_uint256": {
        "encoding": "inplace",
        "label": "uint256",
        "numberOfBytes": "32"
      },
      "t_uint64": {
        "encoding": "inplace",
        "label": "uint64",
        "numberOfBytes": "8"
      }
    }
  }
}