{
  "address": "0x7F9a4639E81D6f1b2693772DD3F7Dc7C35eb489B",
  "abi": [
    {
      "inputs": [],
      "stateMutability": "nonpayable",
      "type": "constructor"
    },
    {
      "anonymous": false,
      "inputs": [
        {
          "indexed": false,
          "internalType": "address",
          "name": "seller",
          "type": "address"
        },
        {
          "indexed": false,
          "internalType": "address",
          "name": "bidder",
          "type": "address"
        },
        {
          "indexed": false,
          "internalType": "address",
          "name": "nftAddress",
          "type": "address"
        },
        {
          "indexed": false,
          "internalType": "uint256",
          "name": "tokenId",
          "type": "uint256"
        },
        {
          "indexed": false,
          "internalType": "uint64",
          "name": "quantity",
          "type": "uint64"
        },
        {
          "indexed": false,
          "internalType": "uint128",
          "name": "pricePerItem",
          "type": "uint128"
        },
        {
          "indexed": false,
          "internalType": "address",
          "name": "paymentToken",
          "type": "address"
        },
        {
          "indexed": false,
          "internalType": "enum BidType",
          "name": "bidType",
          "type": "uint8"
        }
      ],
      "name": "BidAccepted",
      "type": "event"
    },
    {
      "anonymous": false,
      "inputs": [
        {
          "indexed": false,
          "internalType": "address",
          "name": "bidder",
          "type": "address"
        },
        {
          "indexed": false,
          "internalType": "address",
          "name": "nftAddress",
          "type": "address"
        }
      ],
      "name": "CollectionBidCancelled",
      "type": "event"
    },
    {
      "anonymous": false,
      "inputs": [
        {
          "indexed": false,
          "internalType": "address",
          "name": "bidder",
          "type": "address"
        },
        {
          "indexed": false,
          "internalType": "address",
          "name": "nftAddress",
          "type": "address"
        },
        {
          "indexed": false,
          "internalType": "uint64",
          "name": "quantity",
          "type": "uint64"
        },
        {
          "indexed": false,
          "internalType": "uint128",
          "name": "pricePerItem",
          "type": "uint128"
        },
        {
          "indexed": false,
          "internalType": "uint64",
          "name": "expirationTime",
          "type": "uint64"
        },
        {
          "indexed": false,
          "internalType": "address",
          "name": "paymentToken",
          "type": "address"
        }
      ],
      "name": "CollectionBidCreatedOrUpdated",
      "type": "event"
    },
    {
      "anonymous": false,
      "inputs": [
        {
          "indexed": true,
          "internalType": "address",
          "name": "seller",
          "type": "address"
        },
        {
          "indexed": true,
          "internalType": "address",
          "name": "nftAddress",
          "type": "address"
        },
        {
          "indexed": true,
          "internalType": "uint256",
          "name": "tokenId",
          "type": "uint256"
        }
      ],
      "name": "ItemCanceled",
      "type": "event"
    },
    {
      "anonymous": false,
      "inputs": [
        {
          "indexed": false,
          "internalType": "address",
          "name": "seller",
          "type": "address"
        },
        {
          "indexed": false,
          "internalType": "address",
          "name": "nftAddress",
          "type": "address"
        },
        {
          "indexed": false,
          "internalType": "uint256",
          "name": "tokenId",
          "type": "uint256"
        },
        {
          "indexed": false,
          "internalType": "uint64",
          "name": "quantity",
          "type": "uint64"
        },
        {
          "indexed": false,
          "internalType": "uint128",
          "name": "pricePerItem",
          "type": "uint128"
        },
        {
          "indexed": false,
          "internalType": "uint64",
          "name": "expirationTime",
          "type": "uint64"
        },
        {
          "indexed": false,
          "internalType": "address",
          "name": "paymentToken",
          "type": "address"
        }
      ],
      "name": "ItemListed",
      "type": "event"
    },
    {
      "anonymous": false,
      "inputs": [
        {
          "indexed": false,
          "internalType": "address",
          "name": "seller",
          "type": "address"
        },
        {
          "indexed": false,
          "internalType": "address",
          "name": "buyer",
          "type": "address"
        },
        {
          "indexed": false,
          "internalType": "address",
          "name": "nftAddress",
          "type": "address"
        },
        {
          "indexed": false,
          "internalType": "uint256",
          "name": "tokenId",
          "type": "uint256"
        },
        {
          "indexed": false,
          "internalType": "uint64",
          "name": "quantity",
          "type": "uint64"
        },
        {
          "indexed": false,
          "internalType": "uint128",
          "name": "pricePerItem",
          "type": "uint128"
        },
        {
          "indexed": false,
          "internalType": "address",
          "name": "paymentToken",
          "type": "address"
        }
      ],
      "name": "ItemSold",
      "type": "event"
    },
    {
      "anonymous": false,
      "inputs": [
        {
          "indexed": false,
          "internalType": "address",
          "name": "seller",
          "type": "address"
        },
        {
          "indexed": false,
          "internalType": "address",
          "name": "nftAddress",
          "type": "address"
        },
        {
          "indexed": false,
          "internalType": "uint256",
          "name": "tokenId",
          "type": "uint256"
        },
        {
          "indexed": false,
          "internalType": "uint64",
          "name": "quantity",
          "type": "uint64"
        },
        {
          "indexed": false,
          "internalType": "uint128",
          "name": "pricePerItem",
          "type": "uint128"
        },
        {
          "indexed": false,
          "internalType": "uint64",
          "name": "expirationTime",
          "type": "uint64"
        },
        {
          "indexed": false,
          "internalType": "address",
          "name": "paymentToken",
          "type": "address"
        }
      ],
      "name": "ItemUpdated",
      "type": "event"
    },
    {
      "anonymous": false,
      "inputs": [
        {
          "indexed": false,
          "internalType": "address",
          "name": "account",
          "type": "address"
        }
      ],
      "name": "Paused",
      "type": "event"
    },
    {
      "anonymous": false,
      "inputs": [
        {
          "indexed": true,
          "internalType": "bytes32",
          "name": "role",
          "type": "bytes32"
        },
        {
          "indexed": true,
          "internalType": "bytes32",
          "name": "previousAdminRole",
          "type": "bytes32"
        },
        {
          "indexed": true,
          "internalType": "bytes32",
          "name": "newAdminRole",
          "type": "bytes32"
        }
      ],
      "name": "RoleAdminChanged",
      "type": "event"
    },
    {
      "anonymous": false,
      "inputs": [
        {
          "indexed": true,
          "internalType": "bytes32",
          "name": "role",
          "type": "bytes32"
        },
        {
          "indexed": true,
          "internalType": "address",
          "name": "account",
          "type": "address"
        },
        {
          "indexed": true,
          "internalType": "address",
          "name": "sender",
          "type": "address"
        }
      ],
      "name": "RoleGranted",
      "type": "event"
    },
    {
      "anonymous": false,
      "inputs": [
        {
          "indexed": true,
          "internalType": "bytes32",
          "name": "role",
          "type": "bytes32"
        },
        {
          "indexed": true,
          "internalType": "address",
          "name": "account",
          "type": "address"
        },
        {
          "indexed": true,
          "internalType": "address",
          "name": "sender",
          "type": "address"
        }
      ],
      "name": "RoleRevoked",
      "type": "event"
    },
    {
      "anonymous": false,
      "inputs": [
        {
          "indexed": false,
          "internalType": "address",
          "name": "nft",
          "type": "address"
        },
        {
          "indexed": false,
          "internalType": "enum TreasureMarketplace.TokenApprovalStatus",
          "name": "status",
          "type": "uint8"
        },
        {
          "indexed": false,
          "internalType": "address",
          "name": "paymentToken",
          "type": "address"
        }
      ],
      "name": "TokenApprovalStatusUpdated",
      "type": "event"
    },
    {
      "anonymous": false,
      "inputs": [
        {
          "indexed": false,
          "internalType": "address",
          "name": "bidder",
          "type": "address"
        },
        {
          "indexed": false,
          "internalType": "address",
          "name": "nftAddress",
          "type": "address"
        },
        {
          "indexed": false,
          "internalType": "uint256",
          "name": "tokenId",
          "type": "uint256"
        }
      ],
      "name": "TokenBidCancelled",
      "type": "event"
    },
    {
      "anonymous": false,
      "inputs": [
        {
          "indexed": false,
          "internalType": "address",
          "name": "bidder",
          "type": "address"
        },
        {
          "indexed": false,
          "internalType": "address",
          "name": "nftAddress",
          "type": "address"
        },
        {
          "indexed": false,
          "internalType": "uint256",
          "name": "tokenId",
          "type": "uint256"
        },
        {
          "indexed": false,
          "internalType": "uint64",
          "name": "quantity",
          "type": "uint64"
        },
        {
          "indexed": false,
          "internalType": "uint128",
          "name": "pricePerItem",
          "type": "uint128"
        },
        {
          "indexed": false,
          "internalType": "uint64",
          "name": "expirationTime",
          "type": "uint64"
        },
        {
          "indexed": false,
          "internalType": "address",
          "name": "paymentToken",
          "type": "address"
        }
      ],
      "name": "TokenBidCreatedOrUpdated",
      "type": "event"
    },
    {
      "anonymous": false,
      "inputs": [
        {
          "indexed": false,
          "internalType": "address",
          "name": "account",
          "type": "address"
        }
      ],
      "name": "Unpaused",
      "type": "event"
    },
    {
      "anonymous": false,
      "inputs": [
        {
          "indexed": false,
          "internalType": "address",
          "name": "_collection",
          "type": "address"
        },
        {
          "indexed": false,
          "internalType": "address",
          "name": "_recipient",
          "type": "address"
        },
        {
          "indexed": false,
          "internalType": "uint256",
          "name": "_fee",
          "type": "uint256"
        }
      ],
      "name": "UpdateCollectionOwnerFee",
      "type": "event"
    },
    {
      "anonymous": false,
      "inputs": [
        {
          "indexed": false,
          "internalType": "uint256",
          "name": "fee",
          "type": "uint256"
        }
      ],
      "name": "UpdateFee",
      "type": "event"
    },
    {
      "anonymous": false,
      "inputs": [
        {
          "indexed": false,
          "internalType": "address",
          "name": "feeRecipient",
          "type": "address"
        }
      ],
      "name": "UpdateFeeRecipient",
      "type": "event"
    },
    {
      "anonymous": false,
      "inputs": [
        {
          "indexed": false,
          "internalType": "uint256",
          "name": "fee",
          "type": "uint256"
        }
      ],
      "name": "UpdateFeeWithCollectionOwner",
      "type": "event"
    },
    {
      "anonymous": false,
      "inputs": [
        {
          "indexed": false,
          "internalType": "address",
          "name": "_priceTrackerAddress",
          "type": "address"
        }
      ],
      "name": "UpdateSalesTracker",
      "type": "event"
    },
    {
      "inputs": [],
      "name": "BASIS_POINTS",
      "outputs": [
        {
          "internalType": "uint256",
          "name": "",
          "type": "uint256"
        }
      ],
      "stateMutability": "view",
      "type": "function"
    },
    {
      "inputs": [],
      "name": "DEFAULT_ADMIN_ROLE",
      "outputs": [
        {
          "internalType": "bytes32",
          "name": "",
          "type": "bytes32"
        }
      ],
      "stateMutability": "view",
      "type": "function"
    },
    {
      "inputs": [],
      "name": "MAX_COLLECTION_FEE",
      "outputs": [
        {
          "internalType": "uint256",
          "name": "",
          "type": "uint256"
        }
      ],
      "stateMutability": "view",
      "type": "function"
    },
    {
      "inputs": [],
      "name": "MAX_FEE",
      "outputs": [
        {
          "internalType": "uint256",
          "name": "",
          "type": "uint256"
        }
      ],
      "stateMutability": "view",
      "type": "function"
    },
    {
      "inputs": [],
      "name": "MIN_PRICE",
      "outputs": [
        {
          "internalType": "uint256",
          "name": "",
          "type": "uint256"
        }
      ],
      "stateMutability": "view",
      "type": "function"
    },
    {
      "inputs": [],
      "name": "TREASURE_MARKETPLACE_ADMIN_ROLE",
      "outputs": [
        {
          "internalType": "bytes32",
          "name": "",
          "type": "bytes32"
        }
      ],
      "stateMutability": "view",
      "type": "function"
    },
    {
      "inputs": [
        {
          "components": [
            {
              "internalType": "address",
              "name": "nftAddress",
              "type": "address"
            },
            {
              "internalType": "uint256",
              "name": "tokenId",
              "type": "uint256"
            },
            {
              "internalType": "address",
              "name": "bidder",
              "type": "address"
            },
            {
              "internalType": "uint64",
              "name": "quantity",
              "type": "uint64"
            },
            {
              "internalType": "uint128",
              "name": "pricePerItem",
              "type": "uint128"
            },
            {
              "internalType": "address",
              "name": "paymentToken",
              "type": "address"
            }
          ],
          "internalType": "struct AcceptBidParams",
          "name": "_acceptBidParams",
          "type": "tuple"
        }
      ],
      "name": "acceptCollectionBid",
      "outputs": [],
      "stateMutability": "nonpayable",
      "type": "function"
    },
    {
      "inputs": [
        {
          "components": [
            {
              "internalType": "address",
              "name": "nftAddress",
              "type": "address"
            },
            {
              "internalType": "uint256",
              "name": "tokenId",
              "type": "uint256"
            },
            {
              "internalType": "address",
              "name": "bidder",
              "type": "address"
            },
            {
              "internalType": "uint64",
              "name": "quantity",
              "type": "uint64"
            },
            {
              "internalType": "uint128",
              "name": "pricePerItem",
              "type": "uint128"
            },
            {
              "internalType": "address",
              "name": "paymentToken",
              "type": "address"
            }
          ],
          "internalType": "struct AcceptBidParams",
          "name": "_acceptBidParams",
          "type": "tuple"
        }
      ],
      "name": "acceptTokenBid",
      "outputs": [],
      "stateMutability": "nonpayable",
      "type": "function"
    },
    {
      "inputs": [],
      "name": "areBidsActive",
      "outputs": [
        {
          "internalType": "bool",
          "name": "",
          "type": "bool"
        }
      ],
      "stateMutability": "view",
      "type": "function"
    },
    {
      "inputs": [
        {
          "components": [
            {
              "internalType": "address",
              "name": "nftAddress",
              "type": "address"
            },
            {
              "internalType": "uint256",
              "name": "tokenId",
              "type": "uint256"
            },
            {
              "internalType": "address",
              "name": "owner",
              "type": "address"
            },
            {
              "internalType": "uint64",
              "name": "quantity",
              "type": "uint64"
            },
            {
              "internalType": "uint128",
              "name": "maxPricePerItem",
              "type": "uint128"
            },
            {
              "internalType": "address",
              "name": "paymentToken",
              "type": "address"
            },
            {
              "internalType": "bool",
              "name": "usingEth",
              "type": "bool"
            }
          ],
          "internalType": "struct BuyItemParams[]",
          "name": "_buyItemParams",
          "type": "tuple[]"
        }
      ],
      "name": "buyItems",
      "outputs": [],
      "stateMutability": "payable",
      "type": "function"
    },
    {
      "inputs": [
        {
          "internalType": "address",
          "name": "_nftAddress",
          "type": "address"
        },
        {
          "internalType": "uint256",
          "name": "_tokenId",
          "type": "uint256"
        }
      ],
      "name": "cancelListing",
      "outputs": [],
      "stateMutability": "nonpayable",
      "type": "function"
    },
    {
      "inputs": [
        {
          "components": [
            {
              "internalType": "enum BidType",
              "name": "bidType",
              "type": "uint8"
            },
            {
              "internalType": "address",
              "name": "nftAddress",
              "type": "address"
            },
            {
              "internalType": "uint256",
              "name": "tokenId",
              "type": "uint256"
            }
          ],
          "internalType": "struct CancelBidParams[]",
          "name": "_cancelBidParams",
          "type": "tuple[]"
        }
      ],
      "name": "cancelManyBids",
      "outputs": [],
      "stateMutability": "nonpayable",
      "type": "function"
    },
    {
      "inputs": [
        {
          "internalType": "address",
          "name": "",
          "type": "address"
        },
        {
          "internalType": "address",
          "name": "",
          "type": "address"
        }
      ],
      "name": "collectionBids",
      "outputs": [
        {
          "internalType": "uint64",
          "name": "quantity",
          "type": "uint64"
        },
        {
          "internalType": "uint128",
          "name": "pricePerItem",
          "type": "uint128"
        },
        {
          "internalType": "uint64",
          "name": "expirationTime",
          "type": "uint64"
        },
        {
          "internalType": "address",
          "name": "paymentTokenAddress",
          "type": "address"
        }
      ],
      "stateMutability": "view",
      "type": "function"
    },
    {
      "inputs": [
        {
          "internalType": "address",
          "name": "",
          "type": "address"
        }
      ],
      "name": "collectionToCollectionOwnerFee",
      "outputs": [
        {
          "internalType": "uint32",
          "name": "fee",
          "type": "uint32"
        },
        {
          "internalType": "address",
          "name": "recipient",
          "type": "address"
        }
      ],
      "stateMutability": "view",
      "type": "function"
    },
    {
      "inputs": [
        {
          "internalType": "address",
          "name": "",
          "type": "address"
        }
      ],
      "name": "collectionToPaymentToken",
      "outputs": [
        {
          "internalType": "address",
          "name": "",
          "type": "address"
        }
      ],
      "stateMutability": "view",
      "type": "function"
    },
    {
      "inputs": [
        {
          "internalType": "address",
          "name": "_nftAddress",
          "type": "address"
        },
        {
          "internalType": "uint256",
          "name": "_tokenId",
          "type": "uint256"
        },
        {
          "internalType": "uint64",
          "name": "_quantity",
          "type": "uint64"
        },
        {
          "internalType": "uint128",
          "name": "_pricePerItem",
          "type": "uint128"
        },
        {
          "internalType": "uint64",
          "name": "_expirationTime",
          "type": "uint64"
        },
        {
          "internalType": "address",
          "name": "_paymentToken",
          "type": "address"
        }
      ],
      "name": "createListing",
      "outputs": [],
      "stateMutability": "nonpayable",
      "type": "function"
    },
    {
      "inputs": [
        {
          "internalType": "address",
          "name": "_nftAddress",
          "type": "address"
        },
        {
          "internalType": "uint64",
          "name": "_quantity",
          "type": "uint64"
        },
        {
          "internalType": "uint128",
          "name": "_pricePerItem",
          "type": "uint128"
        },
        {
          "internalType": "uint64",
          "name": "_expirationTime",
          "type": "uint64"
        },
        {
          "internalType": "address",
          "name": "_paymentToken",
          "type": "address"
        }
      ],
      "name": "createOrUpdateCollectionBid",
      "outputs": [],
      "stateMutability": "nonpayable",
      "type": "function"
    },
    {
      "inputs": [
        {
          "internalType": "address",
          "name": "_nftAddress",
          "type": "address"
        },
        {
          "internalType": "uint256",
          "name": "_tokenId",
          "type": "uint256"
        },
        {
          "internalType": "uint64",
          "name": "_quantity",
          "type": "uint64"
        },
        {
          "internalType": "uint128",
          "name": "_pricePerItem",
          "type": "uint128"
        },
        {
          "internalType": "uint64",
          "name": "_expirationTime",
          "type": "uint64"
        },
        {
          "internalType": "address",
          "name": "_paymentToken",
          "type": "address"
        }
      ],
      "name": "createOrUpdateListing",
      "outputs": [],
      "stateMutability": "nonpayable",
      "type": "function"
    },
    {
      "inputs": [
        {
          "internalType": "address",
          "name": "_nftAddress",
          "type": "address"
        },
        {
          "internalType": "uint256",
          "name": "_tokenId",
          "type": "uint256"
        },
        {
          "internalType": "uint64",
          "name": "_quantity",
          "type": "uint64"
        },
        {
          "internalType": "uint128",
          "name": "_pricePerItem",
          "type": "uint128"
        },
        {
          "internalType": "uint64",
          "name": "_expirationTime",
          "type": "uint64"
        },
        {
          "internalType": "address",
          "name": "_paymentToken",
          "type": "address"
        }
      ],
      "name": "createOrUpdateTokenBid",
      "outputs": [],
      "stateMutability": "nonpayable",
      "type": "function"
    },
    {
      "inputs": [],
      "name": "fee",
      "outputs": [
        {
          "internalType": "uint256",
          "name": "",
          "type": "uint256"
        }
      ],
      "stateMutability": "view",
      "type": "function"
    },
    {
      "inputs": [],
      "name": "feeReceipient",
      "outputs": [
        {
          "internalType": "address",
          "name": "",
          "type": "address"
        }
      ],
      "stateMutability": "view",
      "type": "function"
    },
    {
      "inputs": [],
      "name": "feeWithCollectionOwner",
      "outputs": [
        {
          "internalType": "uint256",
          "name": "",
          "type": "uint256"
        }
      ],
      "stateMutability": "view",
      "type": "function"
    },
    {
      "inputs": [
        {
          "internalType": "address",
          "name": "_collection",
          "type": "address"
        }
      ],
      "name": "getPaymentTokenForCollection",
      "outputs": [
        {
          "internalType": "address",
          "name": "",
          "type": "address"
        }
      ],
      "stateMutability": "view",
      "type": "function"
    },
    {
      "inputs": [
        {
          "internalType": "bytes32",
          "name": "role",
          "type": "bytes32"
        }
      ],
      "name": "getRoleAdmin",
      "outputs": [
        {
          "internalType": "bytes32",
          "name": "",
          "type": "bytes32"
        }
      ],
      "stateMutability": "view",
      "type": "function"
    },
    {
      "inputs": [
        {
          "internalType": "bytes32",
          "name": "role",
          "type": "bytes32"
        },
        {
          "internalType": "uint256",
          "name": "index",
          "type": "uint256"
        }
      ],
      "name": "getRoleMember",
      "outputs": [
        {
          "internalType": "address",
          "name": "",
          "type": "address"
        }
      ],
      "stateMutability": "view",
      "type": "function"
    },
    {
      "inputs": [
        {
          "internalType": "bytes32",
          "name": "role",
          "type": "bytes32"
        }
      ],
      "name": "getRoleMemberCount",
      "outputs": [
        {
          "internalType": "uint256",
          "name": "",
          "type": "uint256"
        }
      ],
      "stateMutability": "view",
      "type": "function"
    },
    {
      "inputs": [
        {
          "internalType": "bytes32",
          "name": "role",
          "type": "bytes32"
        },
        {
          "internalType": "address",
          "name": "account",
          "type": "address"
        }
      ],
      "name": "grantRole",
      "outputs": [],
      "stateMutability": "nonpayable",
      "type": "function"
    },
    {
      "inputs": [
        {
          "internalType": "bytes32",
          "name": "role",
          "type": "bytes32"
        },
        {
          "internalType": "address",
          "name": "account",
          "type": "address"
        }
      ],
      "name": "hasRole",
      "outputs": [
        {
          "internalType": "bool",
          "name": "",
          "type": "bool"
        }
      ],
      "stateMutability": "view",
      "type": "function"
    },
    {
      "inputs": [
        {
          "internalType": "uint256",
          "name": "_initialFee",
          "type": "uint256"
        },
        {
          "internalType": "address",
          "name": "_initialFeeRecipient",
          "type": "address"
        },
        {
          "internalType": "contract IERC20Upgradeable",
          "name": "_initialPaymentToken",
          "type": "address"
        }
      ],
      "name": "initialize",
      "outputs": [],
      "stateMutability": "nonpayable",
      "type": "function"
    },
    {
      "inputs": [
        {
          "internalType": "address",
          "name": "",
          "type": "address"
        },
        {
          "internalType": "uint256",
          "name": "",
          "type": "uint256"
        },
        {
          "internalType": "address",
          "name": "",
          "type": "address"
        }
      ],
      "name": "listings",
      "outputs": [
        {
          "internalType": "uint64",
          "name": "quantity",
          "type": "uint64"
        },
        {
          "internalType": "uint128",
          "name": "pricePerItem",
          "type": "uint128"
        },
        {
          "internalType": "uint64",
          "name": "expirationTime",
          "type": "uint64"
        },
        {
          "internalType": "address",
          "name": "paymentTokenAddress",
          "type": "address"
        }
      ],
      "stateMutability": "view",
      "type": "function"
    },
    {
      "inputs": [],
      "name": "pause",
      "outputs": [],
      "stateMutability": "nonpayable",
      "type": "function"
    },
    {
      "inputs": [],
      "name": "paused",
      "outputs": [
        {
          "internalType": "bool",
          "name": "",
          "type": "bool"
        }
      ],
      "stateMutability": "view",
      "type": "function"
    },
    {
      "inputs": [],
      "name": "paymentToken",
      "outputs": [
        {
          "internalType": "contract IERC20Upgradeable",
          "name": "",
          "type": "address"
        }
      ],
      "stateMutability": "view",
      "type": "function"
    },
    {
      "inputs": [],
      "name": "priceTrackerAddress",
      "outputs": [
        {
          "internalType": "address",
          "name": "",
          "type": "address"
        }
      ],
      "stateMutability": "view",
      "type": "function"
    },
    {
      "inputs": [
        {
          "internalType": "bytes32",
          "name": "role",
          "type": "bytes32"
        },
        {
          "internalType": "address",
          "name": "account",
          "type": "address"
        }
      ],
      "name": "renounceRole",
      "outputs": [],
      "stateMutability": "nonpayable",
      "type": "function"
    },
    {
      "inputs": [
        {
          "internalType": "bytes32",
          "name": "role",
          "type": "bytes32"
        },
        {
          "internalType": "address",
          "name": "account",
          "type": "address"
        }
      ],
      "name": "revokeRole",
      "outputs": [],
      "stateMutability": "nonpayable",
      "type": "function"
    },
    {
      "inputs": [
        {
          "internalType": "address",
          "name": "_collectionAddress",
          "type": "address"
        },
        {
          "components": [
            {
              "internalType": "uint32",
              "name": "fee",
              "type": "uint32"
            },
            {
              "internalType": "address",
              "name": "recipient",
              "type": "address"
            }
          ],
          "internalType": "struct TreasureMarketplace.CollectionOwnerFee",
          "name": "_collectionOwnerFee",
          "type": "tuple"
        }
      ],
      "name": "setCollectionOwnerFee",
      "outputs": [],
      "stateMutability": "nonpayable",
      "type": "function"
    },
    {
      "inputs": [
        {
          "internalType": "uint256",
          "name": "_newFee",
          "type": "uint256"
        },
        {
          "internalType": "uint256",
          "name": "_newFeeWithCollectionOwner",
          "type": "uint256"
        }
      ],
      "name": "setFee",
      "outputs": [],
      "stateMutability": "nonpayable",
      "type": "function"
    },
    {
      "inputs": [
        {
          "internalType": "address",
          "name": "_newFeeRecipient",
          "type": "address"
        }
      ],
      "name": "setFeeRecipient",
      "outputs": [],
      "stateMutability": "nonpayable",
      "type": "function"
    },
    {
      "inputs": [
        {
          "internalType": "address",
          "name": "_priceTrackerAddress",
          "type": "address"
        }
      ],
      "name": "setPriceTracker",
      "outputs": [],
      "stateMutability": "nonpayable",
      "type": "function"
    },
    {
      "inputs": [
        {
          "internalType": "address",
          "name": "_nft",
          "type": "address"
        },
        {
          "internalType": "enum TreasureMarketplace.TokenApprovalStatus",
          "name": "_status",
          "type": "uint8"
        },
        {
          "internalType": "address",
          "name": "_paymentToken",
          "type": "address"
        }
      ],
      "name": "setTokenApprovalStatus",
      "outputs": [],
      "stateMutability": "nonpayable",
      "type": "function"
    },
    {
      "inputs": [
        {
          "internalType": "address",
          "name": "_wethAddress",
          "type": "address"
        }
      ],
      "name": "setWeth",
      "outputs": [],
      "stateMutability": "nonpayable",
      "type": "function"
    },
    {
      "inputs": [
        {
          "internalType": "bytes4",
          "name": "interfaceId",
          "type": "bytes4"
        }
      ],
      "name": "supportsInterface",
      "outputs": [
        {
          "internalType": "bool",
          "name": "",
          "type": "bool"
        }
      ],
      "stateMutability": "view",
      "type": "function"
    },
    {
      "inputs": [],
      "name": "toggleAreBidsActive",
      "outputs": [],
      "stateMutability": "nonpayable",
      "type": "function"
    },
    {
      "inputs": [
        {
          "internalType": "address",
          "name": "",
          "type": "address"
        }
      ],
      "name": "tokenApprovals",
      "outputs": [
        {
          "internalType": "enum TreasureMarketplace.TokenApprovalStatus",
          "name": "",
          "type": "uint8"
        }
      ],
      "stateMutability": "view",
      "type": "function"
    },
    {
      "inputs": [
        {
          "internalType": "address",
          "name": "",
          "type": "address"
        },
        {
          "internalType": "uint256",
          "name": "",
          "type": "uint256"
        },
        {
          "internalType": "address",
          "name": "",
          "type": "address"
        }
      ],
      "name": "tokenBids",
      "outputs": [
        {
          "internalType": "uint64",
          "name": "quantity",
          "type": "uint64"
        },
        {
          "internalType": "uint128",
          "name": "pricePerItem",
          "type": "uint128"
        },
        {
          "internalType": "uint64",
          "name": "expirationTime",
          "type": "uint64"
        },
        {
          "internalType": "address",
          "name": "paymentTokenAddress",
          "type": "address"
        }
      ],
      "stateMutability": "view",
      "type": "function"
    },
    {
      "inputs": [],
      "name": "unpause",
      "outputs": [],
      "stateMutability": "nonpayable",
      "type": "function"
    },
    {
      "inputs": [
        {
          "internalType": "address",
          "name": "_nftAddress",
          "type": "address"
        },
        {
          "internalType": "uint256",
          "name": "_tokenId",
          "type": "uint256"
        },
        {
          "internalType": "uint64",
          "name": "_newQuantity",
          "type": "uint64"
        },
        {
          "internalType": "uint128",
          "name": "_newPricePerItem",
          "type": "uint128"
        },
        {
          "internalType": "uint64",
          "name": "_newExpirationTime",
          "type": "uint64"
        },
        {
          "internalType": "address",
          "name": "_paymentToken",
          "type": "address"
        }
      ],
      "name": "updateListing",
      "outputs": [],
      "stateMutability": "nonpayable",
      "type": "function"
    },
    {
      "inputs": [],
      "name": "weth",
      "outputs": [
        {
          "internalType": "contract IERC20Upgradeable",
          "name": "",
          "type": "address"
        }
      ],
      "stateMutability": "view",
      "type": "function"
    }
  ],
  "transactionHash": "0xcc13ff440d66e09090a0e639167d9cb735d7464cebeecd90e50a88b0bcdb9c1d",
  "args": [],
  "numDeployments": 2,
  "solcInputHash": "90b5ecab36fc944eadce12f6b55b4a7e",
  "bytecode": "0x60806040523480156200001157600080fd5b50600054610100900460ff166200002f5760005460ff161562000039565b62000039620000de565b620000a15760405162461bcd60e51b815260206004820152602e60248201527f496e697469616c697a61626c653a20636f6e747261637420697320616c72656160448201526d191e481a5b9a5d1a585b1a5e995960921b606482015260840160405180910390fd5b600054610100900460ff16158015620000c4576000805461ffff19166101011790555b8015620000d7576000805461ff00191690555b506200010b565b6000620000f630620000fc60201b620022d61760201c565b15905090565b6001600160a01b03163b151590565b6156b5806200011b6000396000f3fe6080604052600436106102ae5760003560e01c80638852e22011610175578063b8d1452f116100dc578063d547741f11610095578063e74b981b1161006f578063e74b981b14610986578063e76c1713146109a6578063e8a5f200146109e4578063f4930d3e14610a4f57600080fd5b8063d547741f14610939578063ddca3f4314610959578063e1f1c4a71461097057600080fd5b8063b8d1452f1461082b578063bc063e1a1461084b578063c564e3a114610861578063c5da118314610881578063c7cbcb3e146108a1578063ca15c8731461091957600080fd5b80639a867aab1161012e5780639a867aab1461078b578063a07076b2146107ab578063a217fddf146107be578063ad9f20a6146107d3578063b2ddee06146107eb578063b4988fd01461080b57600080fd5b80638852e2201461066c5780638dce8eae146106a35780639010d07c146106c357806391d14854146106e35780639858bc9f1461070357806398803a831461071957600080fd5b80633fc8cef311610219578063656b67ad116101d2578063656b67ad146105265780636bd3a64b14610546578063785a8678146106005780637945e944146106175780638456cb591461063757806384fa31461461064c57600080fd5b80633fc8cef31461047857806344c7f047146104995780634aecaa25146104ae5780634e96358d146104ce57806352f7c988146104ee5780635c975abb1461050e57600080fd5b80632c4520981161026b5780632c452098146103c15780632f2ff15d146103e15780633013ce291461040157806336568abe146104225780633740ebb3146104425780633f4ba83a1461046357600080fd5b806301ffc9a7146102b3578063083aded7146102e8578063101e1c0214610303578063143f05e11461034157806319d8943614610363578063248a9ca314610383575b600080fd5b3480156102bf57600080fd5b506102d36102ce366004614a2b565b610a71565b60405190151581526020015b60405180910390f35b3480156102f457600080fd5b50610138546102d39060ff1681565b34801561030f57600080fd5b50610138546103299061010090046001600160a01b031681565b6040516001600160a01b0390911681526020016102df565b34801561034d57600080fd5b5061036161035c366004614a9d565b610a9c565b005b34801561036f57600080fd5b5061036161037e366004614b10565b610bd6565b34801561038f57600080fd5b506103b361039e366004614b51565b60009081526065602052604090206001015490565b6040519081526020016102df565b3480156103cd57600080fd5b506103616103dc366004614a9d565b610dd1565b3480156103ed57600080fd5b506103616103fc366004614b6a565b61109b565b34801561040d57600080fd5b5061012d54610329906001600160a01b031681565b34801561042e57600080fd5b5061036161043d366004614b6a565b6110c6565b34801561044e57600080fd5b5061012f54610329906001600160a01b031681565b34801561046f57600080fd5b50610361611144565b34801561048457600080fd5b5061013554610329906001600160a01b031681565b3480156104a557600080fd5b50610361611168565b3480156104ba57600080fd5b506103616104c9366004614b9a565b611197565b3480156104da57600080fd5b506103616104e9366004614c0e565b6113b5565b3480156104fa57600080fd5b50610361610509366004614c5d565b6116f6565b34801561051a57600080fd5b5060c95460ff166102d3565b34801561053257600080fd5b50610361610541366004614c7f565b6117de565b34801561055257600080fd5b506105be610561366004614c97565b610130602090815260009384526040808520825292845282842090528252902080546001909101546001600160401b03808316926001600160801b03600160401b82041692600160c01b909104909116906001600160a01b031684565b604080516001600160401b0395861681526001600160801b0394909416602085015291909316908201526001600160a01b0390911660608201526080016102df565b34801561060c57600080fd5b506103b36101325481565b34801561062357600080fd5b50610329610632366004614cce565b61185f565b34801561064357600080fd5b5061036161189e565b34801561065857600080fd5b50610361610667366004614c7f565b6118bf565b34801561067857600080fd5b50610329610687366004614cce565b610134602052600090815260409020546001600160a01b031681565b3480156106af57600080fd5b506103616106be366004614cce565b611938565b3480156106cf57600080fd5b506103296106de366004614c5d565b6119d6565b3480156106ef57600080fd5b506102d36106fe366004614b6a565b6119ee565b34801561070f57600080fd5b506103b36107d081565b34801561072557600080fd5b506105be610734366004614ceb565b610137602090815260009283526040808420909152908252902080546001909101546001600160401b03808316926001600160801b03600160401b82041692600160c01b909104909116906001600160a01b031684565b34801561079757600080fd5b506103616107a6366004614a9d565b611a19565b6103616107b9366004614d19565b611aeb565b3480156107ca57600080fd5b506103b3600081565b3480156107df57600080fd5b506103b3633b9aca0081565b3480156107f757600080fd5b50610361610806366004614d7b565b611bdb565b34801561081757600080fd5b50610361610826366004614da7565b611c74565b34801561083757600080fd5b50610361610846366004614cce565b611e10565b34801561085757600080fd5b506103b36105dc81565b34801561086d57600080fd5b5061036161087c366004614dce565b611ea7565b34801561088d57600080fd5b5061036161089c366004614a9d565b6120fc565b3480156108ad57600080fd5b506105be6108bc366004614c97565b610136602090815260009384526040808520825292845282842090528252902080546001909101546001600160401b03808316926001600160801b03600160401b82041692600160c01b909104909116906001600160a01b031684565b34801561092557600080fd5b506103b3610934366004614b51565b61220b565b34801561094557600080fd5b50610361610954366004614b6a565b612222565b34801561096557600080fd5b506103b361012e5481565b34801561097c57600080fd5b506103b361271081565b34801561099257600080fd5b506103616109a1366004614cce565b612248565b3480156109b257600080fd5b506109d76109c1366004614cce565b6101316020526000908152604090205460ff1681565b6040516102df9190614e63565b3480156109f057600080fd5b50610a2b6109ff366004614cce565b6101336020526000908152604090205463ffffffff81169064010000000090046001600160a01b031682565b6040805163ffffffff90931683526001600160a01b039091166020830152016102df565b348015610a5b57600080fd5b506103b360008051602061566083398151915281565b60006001600160e01b03198216635a05180f60e01b1480610a965750610a96826122e5565b92915050565b600260fb541415610ac85760405162461bcd60e51b8152600401610abf90614e71565b60405180910390fd5b600260fb5560c95460ff1615610af05760405162461bcd60e51b8152600401610abf90614ea8565b6001600160a01b03861660009081526101306020908152604080832088845282528083203384529091529020546001600160401b03161515610b3687878787878761231a565b8015610b84577fde1951e410d2f4644b8dd23d6b9e5d2e862b417055f42e3939ab16b4635ec6de33888888888888604051610b779796959493929190614ed2565b60405180910390a1610bc8565b7fb21f4a0122c6667aa16da06fcb7d9d3b2688164dfb40b7253aed80ea36d88e9933888888888888604051610bbf9796959493929190614ed2565b60405180910390a15b5050600160fb555050505050565b600080516020615660833981519152610bef81336128a8565b60026001600160a01b0384166000908152610131602052604090205460ff166002811115610c1f57610c1f614e39565b1480610c58575060016001600160a01b0384166000908152610131602052604090205460ff166002811115610c5657610c56614e39565b145b610cbc5760405162461bcd60e51b815260206004820152602f60248201527f54726561737572654d61726b6574706c6163653a20436f6c6c656374696f6e2060448201526e1a5cc81b9bdd08185c1c1c9bdd9959608a1b6064820152608401610abf565b6107d0610ccc6020840184614f36565b63ffffffff161115610d355760405162461bcd60e51b815260206004820152602c60248201527f54726561737572654d61726b6574706c6163653a20436f6c6c656374696f6e2060448201526b0cccaca40e8dede40d0d2ced60a31b6064820152608401610abf565b6001600160a01b0383166000908152610133602052604090208290610d5a8282614f53565b507f67fec56f6f9c18f46aafdc92ee08968b7cac01e9e5b3dbdd485415acf0e9773e905083610d8f6040850160208601614cce565b610d9c6020860186614f36565b604080516001600160a01b03948516815293909216602084015263ffffffff16908201526060015b60405180910390a1505050565b600260fb541415610df45760405162461bcd60e51b8152600401610abf90614e71565b600260fb5560c95460ff1615610e1c5760405162461bcd60e51b8152600401610abf90614ea8565b6101385460ff16610e3f5760405162461bcd60e51b8152600401610abf90614fac565b60016001600160a01b0387166000908152610131602052604090205460ff166002811115610e6f57610e6f614e39565b1415610ef057836001600160401b0316600114610eeb5760405162461bcd60e51b815260206004820152603460248201527f54726561737572654d61726b6574706c6163653a20746f6b656e20626964207160448201527375616e74697479203120666f722045524337323160601b6064820152608401610abf565b610ff0565b60026001600160a01b0387166000908152610131602052604090205460ff166002811115610f2057610f20614e39565b1415610f89576000846001600160401b031611610eeb5760405162461bcd60e51b815260206004820152602160248201527f54726561737572654d61726b6574706c6163653a20626164207175616e7469746044820152607960f81b6064820152608401610abf565b60405162461bcd60e51b815260206004820152603660248201527f54726561737572654d61726b6574706c6163653a20746f6b656e206973206e6f6044820152757420617070726f76656420666f722074726164696e6760501b6064820152608401610abf565b6001600160a01b038616600090815261013660209081526040808320888452909152812061104a918891879187918791879190335b6001600160a01b03166001600160a01b0316815260200190815260200160002061290c565b7faa16fd3f89fcc221b55be8ebd56c20abf3a580c60a83d5de297e0edf750aeae8335b8787878787876040516110869796959493929190614ed2565b60405180910390a15050600160fb5550505050565b6000828152606560205260409020600101546110b781336128a8565b6110c18383612beb565b505050565b6001600160a01b03811633146111365760405162461bcd60e51b815260206004820152602f60248201527f416363657373436f6e74726f6c3a2063616e206f6e6c792072656e6f756e636560448201526e103937b632b9903337b91039b2b63360891b6064820152608401610abf565b6111408282612c0d565b5050565b60008051602061566083398151915261115d81336128a8565b611165612c2f565b50565b60008051602061566083398151915261118181336128a8565b50610138805460ff19811660ff90911615179055565b600260fb5414156111ba5760405162461bcd60e51b8152600401610abf90614e71565b600260fb5560005b818110156113ab57368383838181106111dd576111dd614ff6565b606002919091019150600190506111f7602083018361500c565b600181111561120857611208614e39565b14156112df576000610137816112246040850160208601614cce565b6001600160a01b03166001600160a01b03168152602001908152602001600020600061124d3390565b6001600160a01b031681526020810191909152604001600020805467ffffffffffffffff19166001600160401b03929092169190911790557ff5913151c29e184e3a477be2274f0b06b63cd67c1ab11e1cc103d25701cfbdf2336112b76040840160208501614cce565b604080516001600160a01b0393841681529290911660208301520160405180910390a1611398565b6000610136816112f56040850160208601614cce565b6001600160a01b0316815260208082019290925260409081016000908120858301803583529084528282203380845290855292909120805467ffffffffffffffff19166001600160401b0395909516949094179093557fc98088fb062dda614ae7304b89526258370705c2646039e06beff408428a6b9c92909161137b91908501614cce565b836040013560405161138f9392919061502d565b60405180910390a15b50806113a381615067565b9150506111c2565b5050600160fb5550565b6000805160206156608339815191526113ce81336128a8565b60018360028111156113e2576113e2614e39565b14156114bc576040516301ffc9a760e01b81526380ac58cd60e01b60048201526001600160a01b038516906301ffc9a790602401602060405180830381865afa158015611433573d6000803e3d6000fd5b505050506040513d601f19601f820116820180604052508101906114579190615090565b6114b75760405162461bcd60e51b815260206004820152602b60248201527f54726561737572654d61726b6574706c6163653a206e6f7420616e204552433760448201526a0c8c4818dbdb9d1c9858dd60aa1b6064820152608401610abf565b6115a6565b60028360028111156114d0576114d0614e39565b14156115a6576040516301ffc9a760e01b8152636cdb3d1360e11b60048201526001600160a01b038516906301ffc9a790602401602060405180830381865afa158015611521573d6000803e3d6000fd5b505050506040513d601f19601f820116820180604052508101906115459190615090565b6115a65760405162461bcd60e51b815260206004820152602c60248201527f54726561737572654d61726b6574706c6163653a206e6f7420616e204552433160448201526b0c4d4d4818dbdb9d1c9858dd60a21b6064820152608401610abf565b6001600160a01b038216158015906115e45750610135546001600160a01b03838116911614806115e4575061012d546001600160a01b038381169116145b6116495760405162461bcd60e51b815260206004820152603060248201527f54726561737572654d61726b6574706c6163653a205061796d656e7420746f6b60448201526f195b881b9bdd081cdd5c1c1bdc9d195960821b6064820152608401610abf565b6001600160a01b038416600090815261013160205260409020805484919060ff1916600183600281111561167f5761167f614e39565b02179055506001600160a01b03848116600090815261013460205260409081902080546001600160a01b03191692851692909217909155517f876079e5f28457db5d4f19b6a15569030a7512eb4308523b27062fa6998baeab906116e8908690869086906150ad565b60405180910390a150505050565b60008051602061566083398151915261170f81336128a8565b6105dc831115801561172357506105dc8211155b61176f5760405162461bcd60e51b815260206004820152601c60248201527f54726561737572654d61726b6574706c6163653a206d617820666565000000006044820152606401610abf565b61012e8390556101328290556040518381527f38e229a7f3f9c329892d08eb37c4e91ccac6d12c798d394990ca4f56028ec2669060200160405180910390a16040518281527f32837ab65d8583d89ac1b66920de55975eb33cbc0fbf00f2123197ce3b62c63e90602001610dc4565b600260fb5414156118015760405162461bcd60e51b8152600401610abf90614e71565b600260fb5560c95460ff16156118295760405162461bcd60e51b8152600401610abf90614ea8565b6101385460ff1661184c5760405162461bcd60e51b8152600401610abf90614fac565b611857816001612cc2565b50600160fb55565b6001600160a01b038082166000908152610134602052604081205490911680156118895780611897565b61012d546001600160a01b03165b9392505050565b6000805160206156608339815191526118b781336128a8565b611165613593565b600260fb5414156118e25760405162461bcd60e51b8152600401610abf90614e71565b600260fb5560c95460ff161561190a5760405162461bcd60e51b8152600401610abf90614ea8565b6101385460ff1661192d5760405162461bcd60e51b8152600401610abf90614fac565b611857816000612cc2565b60008051602061566083398151915261195181336128a8565b6001600160a01b0382166119775760405162461bcd60e51b8152600401610abf906150dd565b6101388054610100600160a81b0319166101006001600160a01b038516908102919091179091556040519081527fff578b2d68bd5715dc8d6a50dd990e7b5500f2849738885bbd03241447090e5a906020015b60405180910390a15050565b600082815260976020526040812061189790836135eb565b60009182526065602090815260408084206001600160a01b0393909316845291905290205460ff1690565b600260fb541415611a3c5760405162461bcd60e51b8152600401610abf90614e71565b600260fb5560c95460ff1615611a645760405162461bcd60e51b8152600401610abf90614ea8565b6001600160a01b03861660009081526101306020908152604080832088845282528083203384529091529020546001600160401b0316611ab65760405162461bcd60e51b8152600401610abf90615128565b611ac486868686868661231a565b7fde1951e410d2f4644b8dd23d6b9e5d2e862b417055f42e3939ab16b4635ec6de3361106d565b600260fb541415611b0e5760405162461bcd60e51b8152600401610abf90614e71565b600260fb5560c95460ff1615611b365760405162461bcd60e51b8152600401610abf90614ea8565b6000805b82811015611b8057611b62848483818110611b5757611b57614ff6565b905060e002016135f7565b611b6c908361516c565b915080611b7881615067565b915050611b3a565b508034146113ab5760405162461bcd60e51b815260206004820152602260248201527f54726561737572654d61726b6574706c6163653a20426164204554482076616c604482015261756560f01b6064820152608401610abf565b600260fb541415611bfe5760405162461bcd60e51b8152600401610abf90614e71565b600260fb556001600160a01b038216600081815261013060209081526040808320858452825280832033808552925280832083815560010180546001600160a01b0319169055518493927f9ba1a3cb55ce8d63d072a886f94d2a744f50cddf82128e897d0661f5ec62315891a45050600160fb55565b600054610100900460ff16611c8f5760005460ff1615611c93565b303b155b611cf65760405162461bcd60e51b815260206004820152602e60248201527f496e697469616c697a61626c653a20636f6e747261637420697320616c72656160448201526d191e481a5b9a5d1a585b1a5e995960921b6064820152608401610abf565b600054610100900460ff16158015611d18576000805461ffff19166101011790555b6001600160a01b038216611d815760405162461bcd60e51b815260206004820152602a60248201527f54726561737572654d61726b6574706c6163653a2063616e6e6f7420736574206044820152696164647265737328302960b01b6064820152608401610abf565b611d89614053565b611d9161407c565b611d996140af565b611db1600080516020615660833981519152806140dd565b611dc960008051602061566083398151915233612beb565b611dd384856116f6565b611ddc83612248565b61012d80546001600160a01b0319166001600160a01b0384161790558015611e0a576000805461ff00191690555b50505050565b600080516020615660833981519152611e2981336128a8565b610135546001600160a01b031615611e835760405162461bcd60e51b815260206004820152601860248201527f57455448206164647265737320616c72656164792073657400000000000000006044820152606401610abf565b5061013580546001600160a01b0319166001600160a01b0392909216919091179055565b600260fb541415611eca5760405162461bcd60e51b8152600401610abf90614e71565b600260fb5560c95460ff1615611ef25760405162461bcd60e51b8152600401610abf90614ea8565b6101385460ff16611f155760405162461bcd60e51b8152600401610abf90614fac565b60016001600160a01b0386166000908152610131602052604090205460ff166002811115611f4557611f45614e39565b1415611fb3576000846001600160401b031611611fae5760405162461bcd60e51b815260206004820152602160248201527f54726561737572654d61726b6574706c6163653a20426164207175616e7469746044820152607960f81b6064820152608401610abf565b61204a565b60026001600160a01b0386166000908152610131602052604090205460ff166002811115611fe357611fe3614e39565b1415610f895760405162461bcd60e51b815260206004820152603060248201527f54726561737572654d61726b6574706c6163653a204e6f20636f6c6c6563746960448201526f6f6e2062696473206f6e20313135357360801b6064820152608401610abf565b612081858585858561013760008c6001600160a01b03166001600160a01b0316815260200190815260200160002060006110253390565b604080513381526001600160a01b0387811660208301526001600160401b03878116838501526001600160801b038716606084015285166080830152831660a082015290517f9f6945ee84d160722b736d12d84f9f3349075d2c78064575b40620be21bf6eef9181900360c00190a15050600160fb55505050565b600260fb54141561211f5760405162461bcd60e51b8152600401610abf90614e71565b600260fb5560c95460ff16156121475760405162461bcd60e51b8152600401610abf90614ea8565b6001600160a01b03861660009081526101306020908152604080832088845282528083203384529091529020546001600160401b0316156121d65760405162461bcd60e51b815260206004820152602360248201527f54726561737572654d61726b6574706c6163653a20616c7265616479206c69736044820152621d195960ea1b6064820152608401610abf565b6121e486868686868661231a565b7fb21f4a0122c6667aa16da06fcb7d9d3b2688164dfb40b7253aed80ea36d88e993361106d565b6000818152609760205260408120610a9690614128565b60008281526065602052604090206001015461223e81336128a8565b6110c18383612c0d565b60008051602061566083398151915261226181336128a8565b6001600160a01b0382166122875760405162461bcd60e51b8152600401610abf906150dd565b61012f80546001600160a01b0319166001600160a01b0384169081179091556040519081527f6632de8ab33c46549f7bb29f647ea0d751157b25fe6a14b1bcc7527cdfbeb79c906020016119ca565b6001600160a01b03163b151590565b60006001600160e01b03198216637965db0b60e01b1480610a9657506301ffc9a760e01b6001600160e01b0319831614610a96565b42826001600160401b0316116123425760405162461bcd60e51b8152600401610abf90615184565b633b9aca00836001600160801b0316101561236f5760405162461bcd60e51b8152600401610abf906151d0565b60016001600160a01b0387166000908152610131602052604090205460ff16600281111561239f5761239f614e39565b14156125885785336040516331a9108f60e11b8152600481018890526001600160a01b0391821691831690636352211e90602401602060405180830381865afa1580156123f0573d6000803e3d6000fd5b505050506040513d601f19601f820116820180604052508101906124149190615214565b6001600160a01b0316146124765760405162461bcd60e51b8152602060048201526024808201527f54726561737572654d61726b6574706c6163653a206e6f74206f776e696e67206044820152636974656d60e01b6064820152608401610abf565b6001600160a01b03811663e985e9c5336040516001600160e01b031960e084901b1681526001600160a01b039091166004820152306024820152604401602060405180830381865afa1580156124d0573d6000803e3d6000fd5b505050506040513d601f19601f820116820180604052508101906124f49190615090565b6125105760405162461bcd60e51b8152600401610abf90615231565b846001600160401b03166001146125825760405162461bcd60e51b815260206004820152603060248201527f54726561737572654d61726b6574706c6163653a2063616e6e6f74206c69737460448201526f206d756c7469706c652045524337323160801b6064820152608401610abf565b506127a7565b60026001600160a01b0387166000908152610131602052604090205460ff1660028111156125b8576125b8614e39565b1415610f8957856001600160401b0385166001600160a01b03821662fdd58e336040516001600160e01b031960e084901b1681526001600160a01b039091166004820152602481018a9052604401602060405180830381865afa158015612623573d6000803e3d6000fd5b505050506040513d601f19601f820116820180604052508101906126479190615277565b10156126a85760405162461bcd60e51b815260206004820152602a60248201527f54726561737572654d61726b6574706c6163653a206d75737420686f6c6420656044820152696e6f756768206e66747360b01b6064820152608401610abf565b6001600160a01b03811663e985e9c5336040516001600160e01b031960e084901b1681526001600160a01b039091166004820152306024820152604401602060405180830381865afa158015612702573d6000803e3d6000fd5b505050506040513d601f19601f820116820180604052508101906127269190615090565b6127425760405162461bcd60e51b8152600401610abf90615231565b6000856001600160401b0316116125825760405162461bcd60e51b8152602060048201526024808201527f54726561737572654d61726b6574706c6163653a206e6f7468696e6720746f206044820152631b1a5cdd60e21b6064820152608401610abf565b60006127b28761185f565b9050816001600160a01b0316816001600160a01b0316146127e55760405162461bcd60e51b8152600401610abf90615290565b50604080516080810182526001600160401b0395861681526001600160801b0394851660208083019182529487168284019081526001600160a01b039485166060840190815299851660009081526101308752848120998152988652838920338a529095529190962095518654915193518616600160c01b026001600160c01b0394909516600160401b026001600160c01b03199092169516949094179390931716178255915160019091018054919092166001600160a01b0319909116179055565b6128b282826119ee565b611140576128ca816001600160a01b03166014614132565b6128d5836020614132565b6040516020016128e6929190615304565b60408051601f198184030181529082905262461bcd60e51b8252610abf916004016153a5565b42836001600160401b0316116129345760405162461bcd60e51b8152600401610abf90615184565b633b9aca00846001600160801b031610156129615760405162461bcd60e51b8152600401610abf906151d0565b600061296c8761185f565b9050826001600160a01b0316816001600160a01b0316146129de5760405162461bcd60e51b815260206004820152602660248201527f54726561737572654d61726b6574706c6163653a20426164207061796d656e74604482015265103a37b5b2b760d11b6064820152608401610abf565b8260006129f46001600160401b038916886153b8565b6001600160801b03169050806001600160a01b03831663dd62ed3e336040516001600160e01b031960e084901b1681526001600160a01b039091166004820152306024820152604401602060405180830381865afa158015612a5a573d6000803e3d6000fd5b505050506040513d601f19601f82011682018060405250810190612a7e9190615277565b10158015612b035750806001600160a01b0383166370a08231336040516001600160e01b031960e084901b1681526001600160a01b039091166004820152602401602060405180830381865afa158015612adc573d6000803e3d6000fd5b505050506040513d601f19601f82011682018060405250810190612b009190615277565b10155b612b755760405162461bcd60e51b815260206004820152603f60248201527f54726561737572654d61726b6574706c6163653a204e6f7420656e6f7567682060448201527f746f6b656e73206f776e6564206f7220616c6c6f77656420666f7220626964006064820152608401610abf565b505081546001600160401b03948516600160c01b026001600160c01b036001600160801b03909716600160401b026001600160c01b0319909216959097169490941793909317939093169390931782555060010180546001600160a01b039092166001600160a01b031990921691909117905550565b612bf582826142cd565b60008281526097602052604090206110c19082614353565b612c178282614368565b60008281526097602052604090206110c190826143cf565b60c95460ff16612c785760405162461bcd60e51b815260206004820152601460248201527314185d5cd8589b194e881b9bdd081c185d5cd95960621b6044820152606401610abf565b60c9805460ff191690557f5db9ee0a495bf2e6ff9c91a7834c1ba4fdd244a5e8aa4e537bd38aeae4b073aa335b6040516001600160a01b03909116815260200160405180910390a1565b612cd26060830160408401614cce565b6001600160a01b0316336001600160a01b03161415612d465760405162461bcd60e51b815260206004820152602a60248201527f54726561737572654d61726b6574706c6163653a2043616e6e6f7420737570706044820152691b1e481bdddb88189a5960b21b6064820152608401610abf565b6000612d5860808401606085016153e7565b6001600160401b031611612dc75760405162461bcd60e51b815260206004820152603060248201527f54726561737572654d61726b6574706c6163653a204e6f7468696e6720746f2060448201526f39bab838363c903a37903134b23232b960811b6064820152608401610abf565b60006001826001811115612ddd57612ddd614e39565b14612e63576101366000612df46020860186614cce565b6001600160a01b03166001600160a01b031681526020019081526020016000206000846020013581526020019081526020016000206000846040016020810190612e3e9190614cce565b6001600160a01b03166001600160a01b03168152602001908152602001600020612ecb565b6101376000612e756020860186614cce565b6001600160a01b03166001600160a01b031681526020019081526020016000206000846040016020810190612eaa9190614cce565b6001600160a01b03166001600160a01b031681526020019081526020016000205b80549091506001600160401b0316612f355760405162461bcd60e51b815260206004820152602760248201527f54726561737572654d61726b6574706c6163653a2062696420646f6573206e6f6044820152661d08195e1a5cdd60ca1b6064820152608401610abf565b805442600160c01b9091046001600160401b03161015612f975760405162461bcd60e51b815260206004820181905260248201527f54726561737572654d61726b6574706c6163653a2062696420657870697265646044820152606401610abf565b8054600160401b90046001600160801b03166130045760405162461bcd60e51b815260206004820152602660248201527f54726561737572654d61726b6574706c6163653a2062696420707269636520696044820152651b9d985b1a5960d21b6064820152608401610abf565b61301460808401606085016153e7565b81546001600160401b03918216911610156130415760405162461bcd60e51b8152600401610abf90615402565b61305160a084016080850161544a565b8154600160401b90046001600160801b039081169116146130c65760405162461bcd60e51b815260206004820152602960248201527f54726561737572654d61726b6574706c6163653a20707269636520646f6573206044820152680dcdee840dac2e8c6d60bb1b6064820152608401610abf565b60006130d86106326020860186614cce565b90506130ea60c0850160a08601614cce565b60018301546001600160a01b03908116911614801561312957506001600160a01b03811661311e60c0860160a08701614cce565b6001600160a01b0316145b6131455760405162461bcd60e51b8152600401610abf90615290565b600161013160006131596020880188614cce565b6001600160a01b0316815260208101919091526040016000205460ff16600281111561318757613187614e39565b14156132975761319d60808501606086016153e7565b6001600160401b03166001146132115760405162461bcd60e51b815260206004820152603360248201527f54726561737572654d61726b6574706c6163653a2043616e6e6f7420737570706044820152726c79206d756c7469706c65204552433732317360681b6064820152608401610abf565b61321e6020850185614cce565b6001600160a01b03166342842e0e3361323d6060880160408901614cce565b87602001356040518463ffffffff1660e01b81526004016132609392919061502d565b600060405180830381600087803b15801561327a57600080fd5b505af115801561328e573d6000803e3d6000fd5b50505050613350565b600261013160006132ab6020880188614cce565b6001600160a01b0316815260208101919091526040016000205460ff1660028111156132d9576132d9614e39565b1415610f89576132ec6020850185614cce565b6001600160a01b031663f242432a3361330b6060880160408901614cce565b602088013561332060808a0160608b016153e7565b604051806020016040528060008152506040518663ffffffff1660e01b8152600401613260959493929190615465565b604080516080808201835284546001600160401b0380821684526001600160801b03600160401b8304166020850152600160c01b909104169282019290925260018401546001600160a01b03166060808301919091526133f7926133b9919088019088016153e7565b6001600160401b03166133cf6020880188614cce565b6133df6060890160408a01614cce565b336133f060c08b0160a08c01614cce565b60006143e4565b6101385461010090046001600160a01b0316156134ad576101385461010090046001600160a01b031663086efe056134326020870187614cce565b845460405160e084901b6001600160e01b03191681526001600160a01b03909216600483015260208801356024830152600160401b90046001600160801b03166044820152606401600060405180830381600087803b15801561349457600080fd5b505af11580156134a8573d6000803e3d6000fd5b505050505b7ff6b2b7813b1815a0e2e32964b4f22ec24862322d9c9c0e0eefac425dfc455ab1336134df6060870160408801614cce565b6134ec6020880188614cce565b602088013561350160808a0160608b016153e7565b61351160a08b0160808c0161544a565b61352160c08c0160a08d01614cce565b8a6040516135369897969594939291906154a7565b60405180910390a161354e60808501606086016153e7565b825483906000906135699084906001600160401b0316615518565b92506101000a8154816001600160401b0302191690836001600160401b0316021790555050505050565b60c95460ff16156135b65760405162461bcd60e51b8152600401610abf90614ea8565b60c9805460ff191660011790557f62e78cea01bee320cd4e420270b5ea74000d11b0c9f74754ebdbfc544b05a258612ca53390565b600061189783836144f6565b60006136096060830160408401614cce565b6001600160a01b0316336001600160a01b031614156136805760405162461bcd60e51b815260206004820152602d60248201527f54726561737572654d61726b6574706c6163653a2043616e6e6f74206275792060448201526c796f7572206f776e206974656d60981b6064820152608401610abf565b600061369260808401606085016153e7565b6001600160401b0316116136f45760405162461bcd60e51b815260206004820152602360248201527f54726561737572654d61726b6574706c6163653a204e6f7468696e6720746f2060448201526262757960e81b6064820152608401610abf565b6000610130816137076020860186614cce565b6001600160a01b03166001600160a01b0316815260200190815260200160002060008460200135815260200190815260200160002060008460400160208101906137519190614cce565b6001600160a01b0390811682526020808301939093526040918201600020825160808101845281546001600160401b038082168084526001600160801b03600160401b84041697840197909752600160c01b90910416938101939093526001015416606082015291506137d65760405162461bcd60e51b8152600401610abf90615128565b4281604001516001600160401b0316101561383f5760405162461bcd60e51b8152602060048201526024808201527f54726561737572654d61726b6574706c6163653a206c697374696e67206578706044820152631a5c995960e21b6064820152608401610abf565b600081602001516001600160801b0316116138af5760405162461bcd60e51b815260206004820152602a60248201527f54726561737572654d61726b6574706c6163653a206c697374696e672070726960448201526918d9481a5b9d985b1a5960b21b6064820152608401610abf565b6138bf60808401606085016153e7565b6001600160401b031681600001516001600160401b031610156138f45760405162461bcd60e51b8152600401610abf90615402565b61390460a084016080850161544a565b6001600160801b031681602001516001600160801b031611156139755760405162461bcd60e51b8152602060048201526024808201527f54726561737572654d61726b6574706c6163653a20707269636520696e637265604482015263185cd95960e21b6064820152608401610abf565b60006139876106326020860186614cce565b9050600061399483614520565b90506139a660c0860160a08701614cce565b6001600160a01b0316816001600160a01b03161480156139e657506001600160a01b0382166139db60c0870160a08801614cce565b6001600160a01b0316145b613a025760405162461bcd60e51b8152600401610abf90615290565b613a1260e0860160c08701615540565b15613a9b57610135546001600160a01b03828116911614613a9b5760405162461bcd60e51b815260206004820152603760248201527f54726561737572654d61726b6574706c6163653a20455448206f6e6c7920757360448201527f65642077697468207765746820636f6c6c656374696f6e0000000000000000006064820152608401610abf565b60016101316000613aaf6020890189614cce565b6001600160a01b0316815260208101919091526040016000205460ff166002811115613add57613add614e39565b1415613be957613af360808601606087016153e7565b6001600160401b0316600114613b635760405162461bcd60e51b815260206004820152602f60248201527f54726561737572654d61726b6574706c6163653a2043616e6e6f74206275792060448201526e6d756c7469706c652045524337323160881b6064820152608401610abf565b613b706020860186614cce565b6001600160a01b03166342842e0e613b8e6060880160408901614cce565b3388602001356040518463ffffffff1660e01b8152600401613bb29392919061502d565b600060405180830381600087803b158015613bcc57600080fd5b505af1158015613be0573d6000803e3d6000fd5b50505050613ca2565b60026101316000613bfd6020890189614cce565b6001600160a01b0316815260208101919091526040016000205460ff166002811115613c2b57613c2b614e39565b1415610f8957613c3e6020860186614cce565b6001600160a01b031663f242432a613c5c6060880160408901614cce565b336020890135613c7260808b0160608c016153e7565b604051806020016040528060008152506040518663ffffffff1660e01b8152600401613bb2959493929190615465565b613d0283613cb660808801606089016153e7565b6001600160401b0316613ccc6020890189614cce565b33613cdd60608b0160408c01614cce565b613ced60c08c0160a08d01614cce565b613cfd60e08d0160c08e01615540565b6143e4565b7f72d3f914473a393354e6fcd9c3cb7d2eee53924b9b856f9da274e024566292a5613d336060870160408801614cce565b33613d416020890189614cce565b6020890135613d5660808b0160608c016153e7565b6020890151613d6b60c08d0160a08e01614cce565b604080516001600160a01b03988916815296881660208801529487169486019490945260608501929092526001600160401b031660808401526001600160801b031660a083015290911660c082015260e00160405180910390a1613dd560808601606087016153e7565b6001600160401b031683600001516001600160401b03161415613e82576101306000613e046020880188614cce565b6001600160a01b03166001600160a01b031681526020019081526020016000206000866020013581526020019081526020016000206000866040016020810190613e4e9190614cce565b6001600160a01b031681526020810191909152604001600090812090815560010180546001600160a01b0319169055613f47565b613e9260808601606087016153e7565b6101306000613ea46020890189614cce565b6001600160a01b03166001600160a01b031681526020019081526020016000206000876020013581526020019081526020016000206000876040016020810190613eee9190614cce565b6001600160a01b03168152602081019190915260400160009081208054909190613f229084906001600160401b0316615518565b92506101000a8154816001600160401b0302191690836001600160401b031602179055505b6101385461010090046001600160a01b031615613ff9576101385461010090046001600160a01b031663086efe05613f826020880188614cce565b6020868101516040516001600160e01b031960e086901b1681526001600160a01b0390931660048401529089013560248301526001600160801b03166044820152606401600060405180830381600087803b158015613fe057600080fd5b505af1158015613ff4573d6000803e3d6000fd5b505050505b61400960e0860160c08701615540565b1561404857602083015161402360808701606088016153e7565b6001600160401b031661403691906153b8565b6001600160801b031695945050505050565b506000949350505050565b600054610100900460ff1661407a5760405162461bcd60e51b8152600401610abf9061555d565b565b600054610100900460ff166140a35760405162461bcd60e51b8152600401610abf9061555d565b60c9805460ff19169055565b600054610100900460ff166140d65760405162461bcd60e51b8152600401610abf9061555d565b600160fb55565b600082815260656020526040808220600101805490849055905190918391839186917fbd79b86ffe0ab8e8776151514217cd7cacd52c909f66475c3af44e129f0b00ff9190a4505050565b6000610a96825490565b606060006141418360026155a8565b61414c90600261516c565b6001600160401b03811115614163576141636155c7565b6040519080825280601f01601f19166020018201604052801561418d576020820181803683370190505b509050600360fc1b816000815181106141a8576141a8614ff6565b60200101906001600160f81b031916908160001a905350600f60fb1b816001815181106141d7576141d7614ff6565b60200101906001600160f81b031916908160001a90535060006141fb8460026155a8565b61420690600161516c565b90505b600181111561427e576f181899199a1a9b1b9c1cb0b131b232b360811b85600f166010811061423a5761423a614ff6565b1a60f81b82828151811061425057614250614ff6565b60200101906001600160f81b031916908160001a90535060049490941c93614277816155dd565b9050614209565b5083156118975760405162461bcd60e51b815260206004820181905260248201527f537472696e67733a20686578206c656e67746820696e73756666696369656e746044820152606401610abf565b6142d782826119ee565b6111405760008281526065602090815260408083206001600160a01b03851684529091529020805460ff1916600117905561430f3390565b6001600160a01b0316816001600160a01b0316837f2f8788117e7eff1d82e926ec794901d17c78024a50270940304540a733656f0d60405160405180910390a45050565b6000611897836001600160a01b038416614552565b61437282826119ee565b156111405760008281526065602090815260408083206001600160a01b0385168085529252808320805460ff1916905551339285917ff6391f5c32d9c69d2a47ea670b442974b53935d1edc7fd64eb21e047a839171b9190a45050565b6000611897836001600160a01b0384166145a1565b602087015182906000906144029089906001600160801b03166155a8565b6001600160a01b0380891660009081526101336020526040812054929350640100000000909204169080821561445d575050610132546001600160a01b0389166000908152610133602052604090205463ffffffff16614466565b505061012e5460005b600061271061447584876155a8565b61447f91906155f4565b9050600061271061449084886155a8565b61449a91906155f4565b61012f549091506144b8908c906001600160a01b0316848a8c614694565b6144c58b86838a8c614694565b6144e68b8b836144d5868b615616565b6144df9190615616565b8a8c614694565b5050505050505050505050505050565b600082600001828154811061450d5761450d614ff6565b9060005260206000200154905092915050565b60608101516000906001600160a01b031615614540578160600151610a96565b505061012d546001600160a01b031690565b600081815260018301602052604081205461459957508154600181810184556000848152602080822090930184905584548482528286019093526040902091909155610a96565b506000610a96565b6000818152600183016020526040812054801561468a5760006145c5600183615616565b85549091506000906145d990600190615616565b905081811461463e5760008660000182815481106145f9576145f9614ff6565b906000526020600020015490508087600001848154811061461c5761461c614ff6565b6000918252602080832090910192909255918252600188019052604090208390555b855486908061464f5761464f61562d565b600190038181906000526020600020016000905590558560010160008681526020019081526020016000206000905560019350505050610a96565b6000915050610a96565b8261469e5761477e565b8015614769576000846001600160a01b03168460405160006040518083038185875af1925050503d80600081146146f1576040519150601f19603f3d011682016040523d82523d6000602084013e6146f6565b606091505b50509050806147635760405162461bcd60e51b815260206004820152603360248201527f54726561737572654d61726b6574706c6163653a2053656e64696e6720657468604482015272081dd85cc81b9bdd081cdd58d8d95cdcd99d5b606a1b6064820152608401610abf565b5061477e565b61477e6001600160a01b038316868686614785565b5050505050565b611e0a846323b872dd60e01b8585856040516024016147a69392919061502d565b60408051601f198184030181529190526020810180516001600160e01b03166001600160e01b031990931692909217909152600061482d826040518060400160405280602081526020017f5361666545524332303a206c6f772d6c6576656c2063616c6c206661696c6564815250856001600160a01b03166148aa9092919063ffffffff16565b8051909150156110c1578080602001905181019061484b9190615090565b6110c15760405162461bcd60e51b815260206004820152602a60248201527f5361666545524332303a204552433230206f7065726174696f6e20646964206e6044820152691bdd081cdd58d8d9595960b21b6064820152608401610abf565b60606148b984846000856148c1565b949350505050565b6060824710156149225760405162461bcd60e51b815260206004820152602660248201527f416464726573733a20696e73756666696369656e742062616c616e636520666f6044820152651c8818d85b1b60d21b6064820152608401610abf565b6001600160a01b0385163b6149795760405162461bcd60e51b815260206004820152601d60248201527f416464726573733a2063616c6c20746f206e6f6e2d636f6e74726163740000006044820152606401610abf565b600080866001600160a01b031685876040516149959190615643565b60006040518083038185875af1925050503d80600081146149d2576040519150601f19603f3d011682016040523d82523d6000602084013e6149d7565b606091505b50915091506149e78282866149f2565b979650505050505050565b60608315614a01575081611897565b825115614a115782518084602001fd5b8160405162461bcd60e51b8152600401610abf91906153a5565b600060208284031215614a3d57600080fd5b81356001600160e01b03198116811461189757600080fd5b6001600160a01b038116811461116557600080fd5b80356001600160401b0381168114614a8157600080fd5b919050565b80356001600160801b0381168114614a8157600080fd5b60008060008060008060c08789031215614ab657600080fd5b8635614ac181614a55565b955060208701359450614ad660408801614a6a565b9350614ae460608801614a86565b9250614af260808801614a6a565b915060a0870135614b0281614a55565b809150509295509295509295565b6000808284036060811215614b2457600080fd5b8335614b2f81614a55565b92506040601f1982011215614b4357600080fd5b506020830190509250929050565b600060208284031215614b6357600080fd5b5035919050565b60008060408385031215614b7d57600080fd5b823591506020830135614b8f81614a55565b809150509250929050565b60008060208385031215614bad57600080fd5b82356001600160401b0380821115614bc457600080fd5b818501915085601f830112614bd857600080fd5b813581811115614be757600080fd5b866020606083028501011115614bfc57600080fd5b60209290920196919550909350505050565b600080600060608486031215614c2357600080fd5b8335614c2e81614a55565b9250602084013560038110614c4257600080fd5b91506040840135614c5281614a55565b809150509250925092565b60008060408385031215614c7057600080fd5b50508035926020909101359150565b600060c08284031215614c9157600080fd5b50919050565b600080600060608486031215614cac57600080fd5b8335614cb781614a55565b9250602084013591506040840135614c5281614a55565b600060208284031215614ce057600080fd5b813561189781614a55565b60008060408385031215614cfe57600080fd5b8235614d0981614a55565b91506020830135614b8f81614a55565b60008060208385031215614d2c57600080fd5b82356001600160401b0380821115614d4357600080fd5b818501915085601f830112614d5757600080fd5b813581811115614d6657600080fd5b86602060e083028501011115614bfc57600080fd5b60008060408385031215614d8e57600080fd5b8235614d9981614a55565b946020939093013593505050565b600080600060608486031215614dbc57600080fd5b833592506020840135614c4281614a55565b600080600080600060a08688031215614de657600080fd5b8535614df181614a55565b9450614dff60208701614a6a565b9350614e0d60408701614a86565b9250614e1b60608701614a6a565b91506080860135614e2b81614a55565b809150509295509295909350565b634e487b7160e01b600052602160045260246000fd5b60038110614e5f57614e5f614e39565b9052565b60208101610a968284614e4f565b6020808252601f908201527f5265656e7472616e637947756172643a207265656e7472616e742063616c6c00604082015260600190565b60208082526010908201526f14185d5cd8589b194e881c185d5cd95960821b604082015260600190565b6001600160a01b039788168152958716602087015260408601949094526001600160401b0392831660608601526001600160801b039190911660808501521660a083015290911660c082015260e00190565b63ffffffff8116811461116557600080fd5b600060208284031215614f4857600080fd5b813561189781614f24565b8135614f5e81614f24565b63ffffffff8116905081548163ffffffff1982161783556020840135614f8381614a55565b6001600160c01b03199190911690911760209190911b640100000000600160c01b031617905550565b6020808252602a908201527f54726561737572654d61726b6574706c6163653a2042696464696e67206973206040820152696e6f742061637469766560b01b606082015260800190565b634e487b7160e01b600052603260045260246000fd5b60006020828403121561501e57600080fd5b81356002811061189757600080fd5b6001600160a01b039384168152919092166020820152604081019190915260600190565b634e487b7160e01b600052601160045260246000fd5b600060001982141561507b5761507b615051565b5060010190565b801515811461116557600080fd5b6000602082840312156150a257600080fd5b815161189781615082565b6001600160a01b03848116825260608201906150cc6020840186614e4f565b808416604084015250949350505050565b6020808252602b908201527f54726561737572654d61726b6574706c6163653a2063616e6e6f74207365742060408201526a307830206164647265737360a81b606082015260800190565b60208082526024908201527f54726561737572654d61726b6574706c6163653a206e6f74206c6973746564206040820152636974656d60e01b606082015260800190565b6000821982111561517f5761517f615051565b500190565b6020808252602c908201527f54726561737572654d61726b6574706c6163653a20696e76616c69642065787060408201526b69726174696f6e2074696d6560a01b606082015260800190565b60208082526024908201527f54726561737572654d61726b6574706c6163653a2062656c6f77206d696e20706040820152637269636560e01b606082015260800190565b60006020828403121561522657600080fd5b815161189781614a55565b60208082526026908201527f54726561737572654d61726b6574706c6163653a206974656d206e6f742061706040820152651c1c9bdd995960d21b606082015260800190565b60006020828403121561528957600080fd5b5051919050565b60208082526028908201527f54726561737572654d61726b6574706c6163653a2057726f6e67207061796d65604082015267373a103a37b5b2b760c11b606082015260800190565b60005b838110156152f35781810151838201526020016152db565b83811115611e0a5750506000910152565b7f416363657373436f6e74726f6c3a206163636f756e742000000000000000000081526000835161533c8160178501602088016152d8565b7001034b99036b4b9b9b4b733903937b6329607d1b601791840191820152835161536d8160288401602088016152d8565b01602801949350505050565b600081518084526153918160208601602086016152d8565b601f01601f19169290920160200192915050565b6020815260006118976020830184615379565b60006001600160801b03808316818516818304811182151516156153de576153de615051565b02949350505050565b6000602082840312156153f957600080fd5b61189782614a6a565b60208082526028908201527f54726561737572654d61726b6574706c6163653a206e6f7420656e6f756768206040820152677175616e7469747960c01b606082015260800190565b60006020828403121561545c57600080fd5b61189782614a86565b6001600160a01b03868116825285166020820152604081018490526001600160401b038316606082015260a0608082018190526000906149e790830184615379565b6001600160a01b03898116825288811660208301528781166040830152606082018790526001600160401b03861660808301526001600160801b03851660a0830152831660c082015261010081016002831061550557615505614e39565b8260e08301529998505050505050505050565b60006001600160401b038381169083168181101561553857615538615051565b039392505050565b60006020828403121561555257600080fd5b813561189781615082565b6020808252602b908201527f496e697469616c697a61626c653a20636f6e7472616374206973206e6f74206960408201526a6e697469616c697a696e6760a81b606082015260800190565b60008160001904831182151516156155c2576155c2615051565b500290565b634e487b7160e01b600052604160045260246000fd5b6000816155ec576155ec615051565b506000190190565b60008261561157634e487b7160e01b600052601260045260246000fd5b500490565b60008282101561562857615628615051565b500390565b634e487b7160e01b600052603160045260246000fd5b600082516156558184602087016152d8565b919091019291505056fe34d5e892b0a7ec1561fc4a5fdcb31b798cf623590906b938d356c9619e539958a2646970667358221220597704bed121d5959fe58727312ac562e4525596c80eac764ef2c237b50851bc64736f6c634300080c0033",
  "devdoc": {
    "details": "This contract does not store any tokens at any time, it's only collects details \"the sale\" and approvals         from both parties and preforms non-custodial transaction by transfering NFT from owner to buying and payment         token from buying to NFT owner.",
    "events": {
      "ItemCanceled(address,address,uint256)": {
        "params": {
          "nftAddress": "which token contract holds the formerly offered token",
          "seller": "former offeror of the item",
          "tokenId": "the identifier for the formerly offered token"
        }
      },
      "ItemListed(address,address,uint256,uint64,uint128,uint64,address)": {
        "params": {
          "expirationTime": "UNIX timestamp after when this listing expires",
          "nftAddress": "which token contract holds the offered token",
          "paymentToken": "the token used to list this item",
          "pricePerItem": "the price (in units of the paymentToken) for each token offered",
          "quantity": "how many of this token identifier are offered (or 1 for a ERC-721 token)",
          "seller": "the offeror of the item",
          "tokenId": "the identifier for the offered token"
        }
      },
      "ItemSold(address,address,address,uint256,uint64,uint128,address)": {
        "params": {
          "buyer": "the buyer of the item",
          "nftAddress": "which token contract holds the sold token",
          "paymentToken": "the payment token that was used to pay for this item",
          "pricePerItem": "the price (in units of the paymentToken) for each token sold",
          "quantity": "how many of this token identifier where sold (or 1 for a ERC-721 token)",
          "seller": "the offeror of the item",
          "tokenId": "the identifier for the sold token"
        }
      },
      "ItemUpdated(address,address,uint256,uint64,uint128,uint64,address)": {
        "params": {
          "expirationTime": "UNIX timestamp after when this listing expires",
          "nftAddress": "which token contract holds the offered token",
          "paymentToken": "the token used to list this item",
          "pricePerItem": "the price (in units of the paymentToken) for each token offered",
          "quantity": "how many of this token identifier are offered (or 1 for a ERC-721 token)",
          "seller": "the offeror of the item",
          "tokenId": "the identifier for the offered token"
        }
      },
      "TokenApprovalStatusUpdated(address,uint8,address)": {
        "params": {
          "nft": "which token contract was updated",
          "paymentToken": "the token that will be used for payments for this collection",
          "status": "the new status"
        }
      },
      "UpdateCollectionOwnerFee(address,address,uint256)": {
        "params": {
          "_collection": "The collection",
          "_fee": "The fee amount (in units of basis points)",
          "_recipient": "The recipient of the fees. If the address is 0, the collection fees for this collection have been removed."
        }
      },
      "UpdateFee(uint256)": {
        "params": {
          "fee": "new fee amount (in units of basis points)"
        }
      },
      "UpdateFeeRecipient(address)": {
        "params": {
          "feeRecipient": "the new recipient to get fees"
        }
      },
      "UpdateFeeWithCollectionOwner(uint256)": {
        "params": {
          "fee": "new fee amount (in units of basis points)"
        }
      },
      "UpdateSalesTracker(address)": {
        "params": {
          "_priceTrackerAddress": "the new address to call for sales price tracking"
        }
      }
    },
    "kind": "dev",
    "methods": {
      "cancelListing(address,uint256)": {
        "params": {
          "_nftAddress": "which token contract holds the offered token",
          "_tokenId": "the identifier for the offered token"
        }
      },
      "constructor": {
        "custom:oz-upgrades-unsafe-allow": "constructor"
      },
      "createListing(address,uint256,uint64,uint128,uint64,address)": {
        "params": {
          "_expirationTime": "UNIX timestamp after when this listing expires",
          "_nftAddress": "which token contract holds the offered token",
          "_pricePerItem": "the price (in units of the paymentToken) for each token offered",
          "_quantity": "how many of this token identifier are offered (or 1 for a ERC-721 token)",
          "_tokenId": "the identifier for the offered token"
        }
      },
      "getRoleAdmin(bytes32)": {
        "details": "Returns the admin role that controls `role`. See {grantRole} and {revokeRole}. To change a role's admin, use {_setRoleAdmin}."
      },
      "getRoleMember(bytes32,uint256)": {
        "details": "Returns one of the accounts that have `role`. `index` must be a value between 0 and {getRoleMemberCount}, non-inclusive. Role bearers are not sorted in any particular way, and their ordering may change at any point. WARNING: When using {getRoleMember} and {getRoleMemberCount}, make sure you perform all queries on the same block. See the following https://forum.openzeppelin.com/t/iterating-over-elements-on-enumerableset-in-openzeppelin-contracts/2296[forum post] for more information."
      },
      "getRoleMemberCount(bytes32)": {
        "details": "Returns the number of accounts that have `role`. Can be used together with {getRoleMember} to enumerate all bearers of a role."
      },
      "grantRole(bytes32,address)": {
        "details": "Grants `role` to `account`. If `account` had not been already granted `role`, emits a {RoleGranted} event. Requirements: - the caller must have ``role``'s admin role."
      },
      "hasRole(bytes32,address)": {
        "details": "Returns `true` if `account` has been granted `role`."
      },
      "initialize(uint256,address,address)": {
        "details": "The initializer modifier ensures this is only called once, the owner should confirm this was properly         performed before publishing this contract address.",
        "params": {
          "_initialFee": "fee to be paid on each sale, in basis points",
          "_initialFeeRecipient": "wallet to collets fees",
          "_initialPaymentToken": "address of the token that is used for settlement"
        }
      },
      "pause()": {
        "details": "This is callable only by the owner. Canceling listings is not paused."
      },
      "paused()": {
        "details": "Returns true if the contract is paused, and false otherwise."
      },
      "renounceRole(bytes32,address)": {
        "details": "Revokes `role` from the calling account. Roles are often managed via {grantRole} and {revokeRole}: this function's purpose is to provide a mechanism for accounts to lose their privileges if they are compromised (such as when a trusted device is misplaced). If the calling account had been revoked `role`, emits a {RoleRevoked} event. Requirements: - the caller must be `account`."
      },
      "revokeRole(bytes32,address)": {
        "details": "Revokes `role` from `account`. If `account` had been granted `role`, emits a {RoleRevoked} event. Requirements: - the caller must have ``role``'s admin role."
      },
      "setCollectionOwnerFee(address,(uint32,address))": {
        "details": "This is callable only by the owner",
        "params": {
          "_collectionAddress": "The collection in question. This must be whitelisted.",
          "_collectionOwnerFee": "The fee and recipient for the collection. If the 0 address is passed as the recipient, collection specific fees will not be collected."
        }
      },
      "setFee(uint256,uint256)": {
        "details": "This is callable only by the owner. Both fees may not exceed MAX_FEE",
        "params": {
          "_newFee": "the updated fee amount is basis points"
        }
      },
      "setFeeRecipient(address)": {
        "details": "This is callable only by the owner.",
        "params": {
          "_newFeeRecipient": "the wallet to receive fees"
        }
      },
      "setPriceTracker(address)": {
        "details": "This is callable only by the owner.",
        "params": {
          "_priceTrackerAddress": "the wallet to receive fees"
        }
      },
      "setTokenApprovalStatus(address,uint8,address)": {
        "details": "This is callable only by the owner.",
        "params": {
          "_nft": "address of the NFT to be approved",
          "_status": "the kind of NFT approved, or NOT_APPROVED to remove approval"
        }
      },
      "supportsInterface(bytes4)": {
        "details": "See {IERC165-supportsInterface}."
      },
      "unpause()": {
        "details": "This is callable only by the owner."
      },
      "updateListing(address,uint256,uint64,uint128,uint64,address)": {
        "params": {
          "_newExpirationTime": "UNIX timestamp after when this listing expires",
          "_newPricePerItem": "the price (in units of the paymentToken) for each token offered",
          "_newQuantity": "how many of this token identifier are offered (or 1 for a ERC-721 token)",
          "_nftAddress": "which token contract holds the offered token",
          "_tokenId": "the identifier for the offered token"
        }
      }
    },
    "title": "Treasure NFT marketplace",
    "version": 1
  },
  "userdoc": {
    "events": {
      "ItemCanceled(address,address,uint256)": {
        "notice": "An item is no longer listed for sale"
      },
      "ItemListed(address,address,uint256,uint64,uint128,uint64,address)": {
        "notice": "An item was listed for sale"
      },
      "ItemSold(address,address,address,uint256,uint64,uint128,address)": {
        "notice": "A listed item was sold"
      },
      "ItemUpdated(address,address,uint256,uint64,uint128,uint64,address)": {
        "notice": "An item listing was updated"
      },
      "TokenApprovalStatusUpdated(address,uint8,address)": {
        "notice": "The approval status for a token was updated"
      },
      "UpdateCollectionOwnerFee(address,address,uint256)": {
        "notice": "A collection's fees have changed"
      },
      "UpdateFee(uint256)": {
        "notice": "The fee portion was updated"
      },
      "UpdateFeeRecipient(address)": {
        "notice": "The fee recipient was updated"
      },
      "UpdateFeeWithCollectionOwner(uint256)": {
        "notice": "The fee portion was updated for collections that have a collection owner."
      },
      "UpdateSalesTracker(address)": {
        "notice": "The sales tracker contract was update"
      }
    },
    "kind": "user",
    "methods": {
      "BASIS_POINTS()": {
        "notice": "the denominator for portion calculation, i.e. how many basis points are in 100%"
      },
      "MAX_COLLECTION_FEE()": {
        "notice": "the maximum fee which the collection owner may set"
      },
      "MAX_FEE()": {
        "notice": "the maximum fee which the owner may set (in units of basis points)"
      },
      "MIN_PRICE()": {
        "notice": "the minimum price for which any item can be sold"
      },
      "TREASURE_MARKETPLACE_ADMIN_ROLE()": {
        "notice": "TREASURE_MARKETPLACE_ADMIN_ROLE role hash"
      },
      "areBidsActive()": {
        "notice": "Indicates if bid related functions are active."
      },
      "buyItems((address,uint256,address,uint64,uint128,address,bool)[])": {
        "notice": "Buy multiple listed items. You must authorize this marketplace with your payment token to completed the buy or purchase with eth if it is a weth collection."
      },
      "cancelListing(address,uint256)": {
        "notice": "Remove an item listing"
      },
      "collectionBids(address,address)": {
        "notice": "mapping for collection level bids (721 only): nftAddress => offeror"
      },
      "collectionToCollectionOwnerFee(address)": {
        "notice": "Maps the collection address to the fees which the collection owner collects. Some collections may not have a seperate fee, such as those owned by the Treasure DAO."
      },
      "collectionToPaymentToken(address)": {
        "notice": "Maps the collection address to the payment token that will be used for purchasing. If the address is the zero address, it will use the default paymentToken."
      },
      "createListing(address,uint256,uint64,uint128,uint64,address)": {
        "notice": "Creates an item listing. You must authorize this marketplace with your item's token contract to list."
      },
      "createOrUpdateTokenBid(address,uint256,uint64,uint128,uint64,address)": {
        "notice": "Creates a bid for a particular token."
      },
      "fee()": {
        "notice": "fee portion (in basis points) for each sale, (e.g. a value of 100 is 100/10000 = 1%). This is the fee if no collection owner fee is set."
      },
      "feeReceipient()": {
        "notice": "address that receives fees"
      },
      "feeWithCollectionOwner()": {
        "notice": "fee portion (in basis points) for each sale. This is used if a separate fee has been set for the collection owner."
      },
      "initialize(uint256,address,address)": {
        "notice": "Perform initial contract setup"
      },
      "listings(address,uint256,address)": {
        "notice": "mapping for listings, maps: nftAddress => tokenId => offeror"
      },
      "pause()": {
        "notice": "Pauses the marketplace, creatisgn and executing listings is paused"
      },
      "paymentToken()": {
        "notice": "the default token that is used for marketplace sales and fee payments. Can be overridden by collectionToTokenAddress."
      },
      "priceTrackerAddress()": {
        "notice": "Address of the contract that tracks sales and prices of collections."
      },
      "setCollectionOwnerFee(address,(uint32,address))": {
        "notice": "Updates the fee amount which is collected during sales fro a specific collection"
      },
      "setFee(uint256,uint256)": {
        "notice": "Updates the fee amount which is collected during sales, for both collections with and without owner specific fees."
      },
      "setFeeRecipient(address)": {
        "notice": "Updates the fee recipient which receives fees during sales"
      },
      "setPriceTracker(address)": {
        "notice": "Updates the fee recipient which receives fees during sales"
      },
      "setTokenApprovalStatus(address,uint8,address)": {
        "notice": "Sets a token as an approved kind of NFT or as ineligible for trading"
      },
      "tokenApprovals(address)": {
        "notice": "NFTs which the owner has approved to be sold on the marketplace, maps: nftAddress => status"
      },
      "tokenBids(address,uint256,address)": {
        "notice": "mapping for token bids (721/1155): nftAddress => tokneId => offeror"
      },
      "unpause()": {
        "notice": "Unpauses the marketplace, all functionality is restored"
      },
      "updateListing(address,uint256,uint64,uint128,uint64,address)": {
        "notice": "Updates an item listing"
      },
      "weth()": {
        "notice": "The address for weth."
      }
    },
    "notice": "This contract allows you to buy and sell NFTs from token contracts that are approved by the contract owner.         Please note that this contract is upgradeable. In the event of a compromised ProxyAdmin contract owner,         collectable tokens and payments may be at risk. To prevent this, the ProxyAdmin is owned by a multi-sig         governed by the TreasureDAO council.",
    "version": 1
  },
  "storageLayout": {
    "storage": [
      {
        "astId": 705,
        "contract": "contracts/TreasureMarketplace.sol:TreasureMarketplace",
        "label": "_initialized",
        "offset": 0,
        "slot": "0",
        "type": "t_bool"
      },
      {
        "astId": 708,
        "contract": "contracts/TreasureMarketplace.sol:TreasureMarketplace",
        "label": "_initializing",
        "offset": 1,
        "slot": "0",
        "type": "t_bool"
      },
      {
        "astId": 1766,
        "contract": "contracts/TreasureMarketplace.sol:TreasureMarketplace",
        "label": "__gap",
        "offset": 0,
        "slot": "1",
        "type": "t_array(t_uint256)50_storage"
      },
      {
        "astId": 2013,
        "contract": "contracts/TreasureMarketplace.sol:TreasureMarketplace",
        "label": "__gap",
        "offset": 0,
        "slot": "51",
        "type": "t_array(t_uint256)50_storage"
      },
      {
        "astId": 184,
        "contract": "contracts/TreasureMarketplace.sol:TreasureMarketplace",
        "label": "_roles",
        "offset": 0,
        "slot": "101",
        "type": "t_mapping(t_bytes32,t_struct(RoleData)179_storage)"
      },
      {
        "astId": 472,
        "contract": "contracts/TreasureMarketplace.sol:TreasureMarketplace",
        "label": "__gap",
        "offset": 0,
        "slot": "102",
        "type": "t_array(t_uint256)49_storage"
      },
      {
        "astId": 33,
        "contract": "contracts/TreasureMarketplace.sol:TreasureMarketplace",
        "label": "_roleMembers",
        "offset": 0,
        "slot": "151",
        "type": "t_mapping(t_bytes32,t_struct(AddressSet)2338_storage)"
      },
      {
        "astId": 143,
        "contract": "contracts/TreasureMarketplace.sol:TreasureMarketplace",
        "label": "__gap",
        "offset": 0,
        "slot": "152",
        "type": "t_array(t_uint256)49_storage"
      },
      {
        "astId": 793,
        "contract": "contracts/TreasureMarketplace.sol:TreasureMarketplace",
        "label": "_paused",
        "offset": 0,
        "slot": "201",
        "type": "t_bool"
      },
      {
        "astId": 882,
        "contract": "contracts/TreasureMarketplace.sol:TreasureMarketplace",
        "label": "__gap",
        "offset": 0,
        "slot": "202",
        "type": "t_array(t_uint256)49_storage"
      },
      {
        "astId": 897,
        "contract": "contracts/TreasureMarketplace.sol:TreasureMarketplace",
        "label": "_status",
        "offset": 0,
        "slot": "251",
        "type": "t_uint256"
      },
      {
        "astId": 941,
        "contract": "contracts/TreasureMarketplace.sol:TreasureMarketplace",
        "label": "__gap",
        "offset": 0,
        "slot": "252",
        "type": "t_array(t_uint256)49_storage"
      },
      {
        "astId": 5209,
        "contract": "contracts/TreasureMarketplace.sol:TreasureMarketplace",
        "label": "paymentToken",
        "offset": 0,
        "slot": "301",
        "type": "t_contract(IERC20Upgradeable)1142"
      },
      {
        "astId": 5212,
        "contract": "contracts/TreasureMarketplace.sol:TreasureMarketplace",
        "label": "fee",
        "offset": 0,
        "slot": "302",
        "type": "t_uint256"
      },
      {
        "astId": 5215,
        "contract": "contracts/TreasureMarketplace.sol:TreasureMarketplace",
        "label": "feeReceipient",
        "offset": 0,
        "slot": "303",
        "type": "t_address"
      },
      {
        "astId": 5225,
        "contract": "contracts/TreasureMarketplace.sol:TreasureMarketplace",
        "label": "listings",
        "offset": 0,
        "slot": "304",
        "type": "t_mapping(t_address,t_mapping(t_uint256,t_mapping(t_address,t_struct(ListingOrBid)5165_storage)))"
      },
      {
        "astId": 5231,
        "contract": "contracts/TreasureMarketplace.sol:TreasureMarketplace",
        "label": "tokenApprovals",
        "offset": 0,
        "slot": "305",
        "type": "t_mapping(t_address,t_enum(TokenApprovalStatus)5176)"
      },
      {
        "astId": 5234,
        "contract": "contracts/TreasureMarketplace.sol:TreasureMarketplace",
        "label": "feeWithCollectionOwner",
        "offset": 0,
        "slot": "306",
        "type": "t_uint256"
      },
      {
        "astId": 5240,
        "contract": "contracts/TreasureMarketplace.sol:TreasureMarketplace",
        "label": "collectionToCollectionOwnerFee",
        "offset": 0,
        "slot": "307",
        "type": "t_mapping(t_address,t_struct(CollectionOwnerFee)5172_storage)"
      },
      {
        "astId": 5245,
        "contract": "contracts/TreasureMarketplace.sol:TreasureMarketplace",
        "label": "collectionToPaymentToken",
        "offset": 0,
        "slot": "308",
        "type": "t_mapping(t_address,t_address)"
      },
      {
        "astId": 5249,
        "contract": "contracts/TreasureMarketplace.sol:TreasureMarketplace",
        "label": "weth",
        "offset": 0,
        "slot": "309",
        "type": "t_contract(IERC20Upgradeable)1142"
      },
      {
        "astId": 5259,
        "contract": "contracts/TreasureMarketplace.sol:TreasureMarketplace",
        "label": "tokenBids",
        "offset": 0,
        "slot": "310",
        "type": "t_mapping(t_address,t_mapping(t_uint256,t_mapping(t_address,t_struct(ListingOrBid)5165_storage)))"
      },
      {
        "astId": 5267,
        "contract": "contracts/TreasureMarketplace.sol:TreasureMarketplace",
        "label": "collectionBids",
        "offset": 0,
        "slot": "311",
        "type": "t_mapping(t_address,t_mapping(t_address,t_struct(ListingOrBid)5165_storage))"
      },
      {
        "astId": 5270,
        "contract": "contracts/TreasureMarketplace.sol:TreasureMarketplace",
        "label": "areBidsActive",
        "offset": 0,
        "slot": "312",
        "type": "t_bool"
      },
      {
        "astId": 5273,
        "contract": "contracts/TreasureMarketplace.sol:TreasureMarketplace",
        "label": "priceTrackerAddress",
        "offset": 1,
        "slot": "312",
        "type": "t_address"
      }
    ],
    "types": {
      "t_address": {
        "encoding": "inplace",
        "label": "address",
        "numberOfBytes": "20"
      },
      "t_array(t_bytes32)dyn_storage": {
        "base": "t_bytes32",
        "encoding": "dynamic_array",
        "label": "bytes32[]",
        "numberOfBytes": "32"
      },
      "t_array(t_uint256)49_storage": {
        "base": "t_uint256",
        "encoding": "inplace",
        "label": "uint256[49]",
        "numberOfBytes": "1568"
      },
      "t_array(t_uint256)50_storage": {
        "base": "t_uint256",
        "encoding": "inplace",
        "label": "uint256[50]",
        "numberOfBytes": "1600"
      },
      "t_bool": {
        "encoding": "inplace",
        "label": "bool",
        "numberOfBytes": "1"
      },
      "t_bytes32": {
        "encoding": "inplace",
        "label": "bytes32",
        "numberOfBytes": "32"
      },
      "t_contract(IERC20Upgradeable)1142": {
        "encoding": "inplace",
        "label": "contract IERC20Upgradeable",
        "numberOfBytes": "20"
      },
      "t_enum(TokenApprovalStatus)5176": {
        "encoding": "inplace",
        "label": "enum TreasureMarketplace.TokenApprovalStatus",
        "numberOfBytes": "1"
      },
      "t_mapping(t_address,t_address)": {
        "encoding": "mapping",
        "key": "t_address",
        "label": "mapping(address => address)",
        "numberOfBytes": "32",
        "value": "t_address"
      },
      "t_mapping(t_address,t_bool)": {
        "encoding": "mapping",
        "key": "t_address",
        "label": "mapping(address => bool)",
        "numberOfBytes": "32",
        "value": "t_bool"
      },
      "t_mapping(t_address,t_enum(TokenApprovalStatus)5176)": {
        "encoding": "mapping",
        "key": "t_address",
        "label": "mapping(address => enum TreasureMarketplace.TokenApprovalStatus)",
        "numberOfBytes": "32",
        "value": "t_enum(TokenApprovalStatus)5176"
      },
      "t_mapping(t_address,t_mapping(t_address,t_struct(ListingOrBid)5165_storage))": {
        "encoding": "mapping",
        "key": "t_address",
        "label": "mapping(address => mapping(address => struct TreasureMarketplace.ListingOrBid))",
        "numberOfBytes": "32",
        "value": "t_mapping(t_address,t_struct(ListingOrBid)5165_storage)"
      },
      "t_mapping(t_address,t_mapping(t_uint256,t_mapping(t_address,t_struct(ListingOrBid)5165_storage)))": {
        "encoding": "mapping",
        "key": "t_address",
        "label": "mapping(address => mapping(uint256 => mapping(address => struct TreasureMarketplace.ListingOrBid)))",
        "numberOfBytes": "32",
        "value": "t_mapping(t_uint256,t_mapping(t_address,t_struct(ListingOrBid)5165_storage))"
      },
      "t_mapping(t_address,t_struct(CollectionOwnerFee)5172_storage)": {
        "encoding": "mapping",
        "key": "t_address",
        "label": "mapping(address => struct TreasureMarketplace.CollectionOwnerFee)",
        "numberOfBytes": "32",
        "value": "t_struct(CollectionOwnerFee)5172_storage"
      },
      "t_mapping(t_address,t_struct(ListingOrBid)5165_storage)": {
        "encoding": "mapping",
        "key": "t_address",
        "label": "mapping(address => struct TreasureMarketplace.ListingOrBid)",
        "numberOfBytes": "32",
        "value": "t_struct(ListingOrBid)5165_storage"
      },
      "t_mapping(t_bytes32,t_struct(AddressSet)2338_storage)": {
        "encoding": "mapping",
        "key": "t_bytes32",
        "label": "mapping(bytes32 => struct EnumerableSetUpgradeable.AddressSet)",
        "numberOfBytes": "32",
        "value": "t_struct(AddressSet)2338_storage"
      },
      "t_mapping(t_bytes32,t_struct(RoleData)179_storage)": {
        "encoding": "mapping",
        "key": "t_bytes32",
        "label": "mapping(bytes32 => struct AccessControlUpgradeable.RoleData)",
        "numberOfBytes": "32",
        "value": "t_struct(RoleData)179_storage"
      },
      "t_mapping(t_bytes32,t_uint256)": {
        "encoding": "mapping",
        "key": "t_bytes32",
        "label": "mapping(bytes32 => uint256)",
        "numberOfBytes": "32",
        "value": "t_uint256"
      },
      "t_mapping(t_uint256,t_mapping(t_address,t_struct(ListingOrBid)5165_storage))": {
        "encoding": "mapping",
        "key": "t_uint256",
        "label": "mapping(uint256 => mapping(address => struct TreasureMarketplace.ListingOrBid))",
        "numberOfBytes": "32",
        "value": "t_mapping(t_address,t_struct(ListingOrBid)5165_storage)"
      },
      "t_struct(AddressSet)2338_storage": {
        "encoding": "inplace",
        "label": "struct EnumerableSetUpgradeable.AddressSet",
        "members": [
          {
            "astId": 2337,
            "contract": "contracts/TreasureMarketplace.sol:TreasureMarketplace",
            "label": "_inner",
            "offset": 0,
            "slot": "0",
            "type": "t_struct(Set)2037_storage"
          }
        ],
        "numberOfBytes": "64"
      },
      "t_struct(CollectionOwnerFee)5172_storage": {
        "encoding": "inplace",
        "label": "struct TreasureMarketplace.CollectionOwnerFee",
        "members": [
          {
            "astId": 5168,
            "contract": "contracts/TreasureMarketplace.sol:TreasureMarketplace",
            "label": "fee",
            "offset": 0,
            "slot": "0",
            "type": "t_uint32"
          },
          {
            "astId": 5171,
            "contract": "contracts/TreasureMarketplace.sol:TreasureMarketplace",
            "label": "recipient",
            "offset": 4,
            "slot": "0",
            "type": "t_address"
          }
        ],
        "numberOfBytes": "32"
      },
      "t_struct(ListingOrBid)5165_storage": {
        "encoding": "inplace",
        "label": "struct TreasureMarketplace.ListingOrBid",
        "members": [
          {
            "astId": 5155,
            "contract": "contracts/TreasureMarketplace.sol:TreasureMarketplace",
            "label": "quantity",
            "offset": 0,
            "slot": "0",
            "type": "t_uint64"
          },
          {
            "astId": 5158,
            "contract": "contracts/TreasureMarketplace.sol:TreasureMarketplace",
            "label": "pricePerItem",
            "offset": 8,
            "slot": "0",
            "type": "t_uint128"
          },
          {
            "astId": 5161,
            "contract": "contracts/TreasureMarketplace.sol:TreasureMarketplace",
            "label": "expirationTime",
            "offset": 24,
            "slot": "0",
            "type": "t_uint64"
          },
          {
            "astId": 5164,
            "contract": "contracts/TreasureMarketplace.sol:TreasureMarketplace",
            "label": "paymentTokenAddress",
            "offset": 0,
            "slot": "1",
            "type": "t_address"
          }
        ],
        "numberOfBytes": "64"
      },
      "t_struct(RoleData)179_storage": {
        "encoding": "inplace",
        "label": "struct AccessControlUpgradeable.RoleData",
        "members": [
          {
            "astId": 176,
            "contract": "contracts/TreasureMarketplace.sol:TreasureMarketplace",
            "label": "members",
            "offset": 0,
            "slot": "0",
            "type": "t_mapping(t_address,t_bool)"
          },
          {
            "astId": 178,
            "contract": "contracts/TreasureMarketplace.sol:TreasureMarketplace",
            "label": "adminRole",
            "offset": 0,
            "slot": "1",
            "type": "t_bytes32"
          }
        ],
        "numberOfBytes": "64"
      },
      "t_struct(Set)2037_storage": {
        "encoding": "inplace",
        "label": "struct EnumerableSetUpgradeable.Set",
        "members": [
          {
            "astId": 2032,
            "contract": "contracts/TreasureMarketplace.sol:TreasureMarketplace",
            "label": "_values",
            "offset": 0,
            "slot": "0",
            "type": "t_array(t_bytes32)dyn_storage"
          },
          {
            "astId": 2036,
            "contract": "contracts/TreasureMarketplace.sol:TreasureMarketplace",
            "label": "_indexes",
            "offset": 0,
            "slot": "1",
            "type": "t_mapping(t_bytes32,t_uint256)"
          }
        ],
        "numberOfBytes": "64"
      },
      "t_uint128": {
        "encoding": "inplace",
        "label": "uint128",
        "numberOfBytes": "16"
      },
      "t_uint256": {
        "encoding": "inplace",
        "label": "uint256",
        "numberOfBytes": "32"
      },
      "t_uint32": {
        "encoding": "inplace",
        "label": "uint32",
        "numberOfBytes": "4"
      },
      "t_uint64": {
        "encoding": "inplace",
        "label": "uint64",
        "numberOfBytes": "8"
      }
    }
  }
}