{
  "address": "0xB92dB58CDA69513210b8cc961d14e7d75d6c7894",
  "abi": [
    {
      "inputs": [
        {
          "internalType": "address",
          "name": "_claimer",
          "type": "address"
        },
        {
          "internalType": "address",
          "name": "_badgeCollection",
          "type": "address"
        },
        {
          "internalType": "uint256",
          "name": "_badgeId",
          "type": "uint256"
        }
      ],
      "name": "BadgeAlreadyClaimed",
      "type": "error"
    },
    {
      "inputs": [
        {
          "internalType": "address",
          "name": "_badgeCollection",
          "type": "address"
        },
        {
          "internalType": "uint256",
          "name": "_badgeId",
          "type": "uint256"
        }
      ],
      "name": "InvalidBadge",
      "type": "error"
    },
    {
      "inputs": [
        {
          "internalType": "address",
          "name": "_signer",
          "type": "address"
        }
      ],
      "name": "InvalidSignature",
      "type": "error"
    },
    {
      "inputs": [],
      "name": "NotRecipient",
      "type": "error"
    },
    {
      "anonymous": false,
      "inputs": [
        {
          "indexed": false,
          "internalType": "address",
          "name": "account",
          "type": "address"
        }
      ],
      "name": "Paused",
      "type": "event"
    },
    {
      "anonymous": false,
      "inputs": [
        {
          "indexed": true,
          "internalType": "bytes32",
          "name": "role",
          "type": "bytes32"
        },
        {
          "indexed": true,
          "internalType": "bytes32",
          "name": "previousAdminRole",
          "type": "bytes32"
        },
        {
          "indexed": true,
          "internalType": "bytes32",
          "name": "newAdminRole",
          "type": "bytes32"
        }
      ],
      "name": "RoleAdminChanged",
      "type": "event"
    },
    {
      "anonymous": false,
      "inputs": [
        {
          "indexed": true,
          "internalType": "bytes32",
          "name": "role",
          "type": "bytes32"
        },
        {
          "indexed": true,
          "internalType": "address",
          "name": "account",
          "type": "address"
        },
        {
          "indexed": true,
          "internalType": "address",
          "name": "sender",
          "type": "address"
        }
      ],
      "name": "RoleGranted",
      "type": "event"
    },
    {
      "anonymous": false,
      "inputs": [
        {
          "indexed": true,
          "internalType": "bytes32",
          "name": "role",
          "type": "bytes32"
        },
        {
          "indexed": true,
          "internalType": "address",
          "name": "account",
          "type": "address"
        },
        {
          "indexed": true,
          "internalType": "address",
          "name": "sender",
          "type": "address"
        }
      ],
      "name": "RoleRevoked",
      "type": "event"
    },
    {
      "anonymous": false,
      "inputs": [
        {
          "indexed": false,
          "internalType": "address",
          "name": "account",
          "type": "address"
        }
      ],
      "name": "Unpaused",
      "type": "event"
    },
    {
      "inputs": [],
      "name": "CLAIMINFO_TYPE_HASH",
      "outputs": [
        {
          "internalType": "bytes32",
          "name": "",
          "type": "bytes32"
        }
      ],
      "stateMutability": "view",
      "type": "function"
    },
    {
      "inputs": [],
      "name": "DEFAULT_ADMIN_ROLE",
      "outputs": [
        {
          "internalType": "bytes32",
          "name": "",
          "type": "bytes32"
        }
      ],
      "stateMutability": "view",
      "type": "function"
    },
    {
      "inputs": [
        {
          "internalType": "address",
          "name": "",
          "type": "address"
        },
        {
          "internalType": "uint256",
          "name": "",
          "type": "uint256"
        }
      ],
      "name": "badgeToEnabledStatus",
      "outputs": [
        {
          "internalType": "bool",
          "name": "",
          "type": "bool"
        }
      ],
      "stateMutability": "view",
      "type": "function"
    },
    {
      "inputs": [
        {
          "components": [
            {
              "internalType": "address",
              "name": "claimer",
              "type": "address"
            },
            {
              "internalType": "address",
              "name": "badgeAddress",
              "type": "address"
            },
            {
              "internalType": "uint256",
              "name": "badgeId",
              "type": "uint256"
            }
          ],
          "internalType": "struct ClaimInfo",
          "name": "_claimInfo",
          "type": "tuple"
        },
        {
          "internalType": "bytes",
          "name": "_validatorSignature",
          "type": "bytes"
        }
      ],
      "name": "claim",
      "outputs": [],
      "stateMutability": "nonpayable",
      "type": "function"
    },
    {
      "inputs": [
        {
          "components": [
            {
              "internalType": "address",
              "name": "claimer",
              "type": "address"
            },
            {
              "internalType": "address",
              "name": "badgeAddress",
              "type": "address"
            },
            {
              "internalType": "uint256",
              "name": "badgeId",
              "type": "uint256"
            }
          ],
          "internalType": "struct ClaimInfo",
          "name": "_claimInfo",
          "type": "tuple"
        }
      ],
      "name": "claimInfoHash",
      "outputs": [
        {
          "internalType": "bytes32",
          "name": "",
          "type": "bytes32"
        }
      ],
      "stateMutability": "view",
      "type": "function"
    },
    {
      "inputs": [],
      "name": "domainSeparator",
      "outputs": [
        {
          "internalType": "bytes32",
          "name": "",
          "type": "bytes32"
        }
      ],
      "stateMutability": "view",
      "type": "function"
    },
    {
      "inputs": [
        {
          "internalType": "bytes32",
          "name": "role",
          "type": "bytes32"
        }
      ],
      "name": "getRoleAdmin",
      "outputs": [
        {
          "internalType": "bytes32",
          "name": "",
          "type": "bytes32"
        }
      ],
      "stateMutability": "view",
      "type": "function"
    },
    {
      "inputs": [
        {
          "internalType": "bytes32",
          "name": "role",
          "type": "bytes32"
        },
        {
          "internalType": "uint256",
          "name": "index",
          "type": "uint256"
        }
      ],
      "name": "getRoleMember",
      "outputs": [
        {
          "internalType": "address",
          "name": "",
          "type": "address"
        }
      ],
      "stateMutability": "view",
      "type": "function"
    },
    {
      "inputs": [
        {
          "internalType": "bytes32",
          "name": "role",
          "type": "bytes32"
        }
      ],
      "name": "getRoleMemberCount",
      "outputs": [
        {
          "internalType": "uint256",
          "name": "",
          "type": "uint256"
        }
      ],
      "stateMutability": "view",
      "type": "function"
    },
    {
      "inputs": [
        {
          "internalType": "bytes32",
          "name": "_role",
          "type": "bytes32"
        },
        {
          "internalType": "address",
          "name": "_account",
          "type": "address"
        }
      ],
      "name": "grantRole",
      "outputs": [],
      "stateMutability": "nonpayable",
      "type": "function"
    },
    {
      "inputs": [
        {
          "internalType": "bytes32",
          "name": "role",
          "type": "bytes32"
        },
        {
          "internalType": "address",
          "name": "account",
          "type": "address"
        }
      ],
      "name": "hasRole",
      "outputs": [
        {
          "internalType": "bool",
          "name": "",
          "type": "bool"
        }
      ],
      "stateMutability": "view",
      "type": "function"
    },
    {
      "inputs": [
        {
          "internalType": "address",
          "name": "_validator",
          "type": "address"
        },
        {
          "internalType": "address",
          "name": "_badgeAddress",
          "type": "address"
        }
      ],
      "name": "initialize",
      "outputs": [],
      "stateMutability": "nonpayable",
      "type": "function"
    },
    {
      "inputs": [
        {
          "components": [
            {
              "internalType": "address",
              "name": "claimer",
              "type": "address"
            },
            {
              "internalType": "address",
              "name": "badgeAddress",
              "type": "address"
            },
            {
              "internalType": "uint256",
              "name": "badgeId",
              "type": "uint256"
            }
          ],
          "internalType": "struct ClaimInfo",
          "name": "_claimInfo",
          "type": "tuple"
        },
        {
          "internalType": "bytes",
          "name": "_validatorSignature",
          "type": "bytes"
        },
        {
          "internalType": "address",
          "name": "_validatorAddress",
          "type": "address"
        }
      ],
      "name": "isValidClaimInfoForSignature",
      "outputs": [
        {
          "internalType": "bool",
          "name": "",
          "type": "bool"
        }
      ],
      "stateMutability": "view",
      "type": "function"
    },
    {
      "inputs": [],
      "name": "paused",
      "outputs": [
        {
          "internalType": "bool",
          "name": "",
          "type": "bool"
        }
      ],
      "stateMutability": "view",
      "type": "function"
    },
    {
      "inputs": [
        {
          "internalType": "bytes32",
          "name": "role",
          "type": "bytes32"
        },
        {
          "internalType": "address",
          "name": "account",
          "type": "address"
        }
      ],
      "name": "renounceRole",
      "outputs": [],
      "stateMutability": "nonpayable",
      "type": "function"
    },
    {
      "inputs": [
        {
          "internalType": "bytes32",
          "name": "_role",
          "type": "bytes32"
        },
        {
          "internalType": "address",
          "name": "_account",
          "type": "address"
        }
      ],
      "name": "revokeRole",
      "outputs": [],
      "stateMutability": "nonpayable",
      "type": "function"
    },
    {
      "inputs": [
        {
          "internalType": "address",
          "name": "_badgeAddress",
          "type": "address"
        },
        {
          "internalType": "uint256",
          "name": "_badgeId",
          "type": "uint256"
        },
        {
          "internalType": "bool",
          "name": "enabled",
          "type": "bool"
        }
      ],
      "name": "setBadgeStatus",
      "outputs": [],
      "stateMutability": "nonpayable",
      "type": "function"
    },
    {
      "inputs": [
        {
          "internalType": "bool",
          "name": "_shouldPause",
          "type": "bool"
        }
      ],
      "name": "setPause",
      "outputs": [],
      "stateMutability": "nonpayable",
      "type": "function"
    },
    {
      "inputs": [
        {
          "internalType": "address",
          "name": "_badgeAddress",
          "type": "address"
        }
      ],
      "name": "setTroveBadges",
      "outputs": [],
      "stateMutability": "nonpayable",
      "type": "function"
    },
    {
      "inputs": [
        {
          "internalType": "address",
          "name": "_validator",
          "type": "address"
        }
      ],
      "name": "setValidator",
      "outputs": [],
      "stateMutability": "nonpayable",
      "type": "function"
    },
    {
      "inputs": [
        {
          "internalType": "bytes4",
          "name": "_interfaceId",
          "type": "bytes4"
        }
      ],
      "name": "supportsInterface",
      "outputs": [
        {
          "internalType": "bool",
          "name": "",
          "type": "bool"
        }
      ],
      "stateMutability": "view",
      "type": "function"
    },
    {
      "inputs": [],
      "name": "troveBadgeCollection",
      "outputs": [
        {
          "internalType": "contract ITroveBadges",
          "name": "",
          "type": "address"
        }
      ],
      "stateMutability": "view",
      "type": "function"
    },
    {
      "inputs": [
        {
          "internalType": "address",
          "name": "",
          "type": "address"
        },
        {
          "internalType": "address",
          "name": "",
          "type": "address"
        },
        {
          "internalType": "uint256",
          "name": "",
          "type": "uint256"
        }
      ],
      "name": "userToBadgeToHasClaimed",
      "outputs": [
        {
          "internalType": "bool",
          "name": "",
          "type": "bool"
        }
      ],
      "stateMutability": "view",
      "type": "function"
    },
    {
      "inputs": [],
      "name": "validator",
      "outputs": [
        {
          "internalType": "address",
          "name": "",
          "type": "address"
        }
      ],
      "stateMutability": "view",
      "type": "function"
    }
  ],
  "transactionHash": "0x03b01bb5d056baf2a7c86439e742d08f91623ba4982cf1eccc29526b7d5bac83",
  "args": [],
  "numDeployments": 4,
  "solcInputHash": "f6e400f414af87c0682e771d778ebbd6",
  "bytecode": "0x608060405234801561001057600080fd5b50611d77806100206000396000f3fe608060405234801561001057600080fd5b50600436106101585760003560e01c806391d14854116100c3578063c9c1752f1161007c578063c9c1752f14610341578063ca15c87314610354578063ce2631b814610367578063d547741f1461037a578063ef7b8eb91461038d578063f698da25146103a057600080fd5b806391d14854146102c5578063938e4fed146102d8578063971dabeb146102ec578063a217fddf146102ff578063a93f8a3814610307578063bedb86fb1461032e57600080fd5b806339ca4e591161011557806339ca4e59146102205780633a5381b514610233578063485cc9551461025f5780635c975abb14610272578063603d2e541461027d5780639010d07c146102b257600080fd5b806301ffc9a71461015d5780631327d3d814610185578063232219181461019a578063248a9ca3146101c95780632f2ff15d146101fa57806336568abe1461020d575b600080fd5b61017061016b366004611825565b6103a8565b60405190151581526020015b60405180910390f35b61019861019336600461186b565b6103b9565b005b6101706101a8366004611886565b61013160209081526000928352604080842090915290825290205460ff1681565b6101ec6101d73660046118b0565b60009081526099602052604090206001015490565b60405190815260200161017c565b6101986102083660046118c9565b61043b565b61019861021b3660046118c9565b6104df565b61017061022e3660046119b0565b61055d565b61012f54610247906001600160a01b031681565b6040516001600160a01b03909116815260200161017c565b61019861026d366004611a0f565b6105c7565b60fd5460ff16610170565b61017061028b366004611a39565b61013260209081526000938452604080852082529284528284209052825290205460ff1681565b6102476102c0366004611a75565b6106c0565b6101706102d33660046118c9565b6106df565b61013054610247906001600160a01b031681565b6101ec6102fa366004611a97565b61070a565b6101ec600081565b6101ec7f34615a26a59b5ce5dd3e5a2e81ef82b6ff4b6f6061c1665562d37460b80cc64481565b61019861033c366004611ac3565b610795565b61019861034f36600461186b565b6107ff565b6101ec6103623660046118b0565b610878565b610198610375366004611ade565b61088f565b6101986103883660046118c9565b610b97565b61019861039b366004611b2d565b610c35565b6101ec610cc1565b60006103b382610cd0565b92915050565b600080516020611d02833981519152600080516020611d228339815191526103e182336106df565b806103f157506103f181336106df565b6104165760405162461bcd60e51b815260040161040d90611b60565b60405180910390fd5b505061012f80546001600160a01b0319166001600160a01b0392909216919091179055565b7fa2328fc90c90feb8f254e41caa67a90952094a7c9c879c5eb4f2088aaecb4ae8600080516020611d2283398151915261047582336106df565b80610485575061048581336106df565b6104a15760405162461bcd60e51b815260040161040d90611b60565b600080516020611d228339815191528414156104cf5760405162461bcd60e51b815260040161040d90611b97565b6104d98484610cf5565b50505050565b6001600160a01b038116331461054f5760405162461bcd60e51b815260206004820152602f60248201527f416363657373436f6e74726f6c3a2063616e206f6e6c792072656e6f756e636560448201526e103937b632b9903337b91039b2b63360891b606482015260840161040d565b6105598282610d17565b5050565b60003361056d602086018661186b565b6001600160a01b0316146105945760405163586d335760e01b815260040160405180910390fd5b600061059f8561070a565b905060006105ad8286610d39565b6001600160a01b0390811690851614925050509392505050565b600054610100900460ff166105e25760005460ff16156105e6565b303b155b6106025760405162461bcd60e51b815260040161040d90611be1565b600054610100900460ff16158015610624576000805461ffff19166101011790555b61062c610d5d565b6106776040518060400160405280600c81526020016b2a3937bb32a1b630b4b6b2b960a11b815250604051806040016040528060058152602001640312e302e360dc1b815250610dd7565b61012f80546001600160a01b038086166001600160a01b03199283161790925561013080549285169290911691909117905580156106bb576000805461ff00191690555b505050565b600082815260cb602052604081206106d89083610e08565b9392505050565b60009182526099602090815260408084206001600160a01b0393909316845291905290205460ff1690565b60006103b37f34615a26a59b5ce5dd3e5a2e81ef82b6ff4b6f6061c1665562d37460b80cc64461073d602085018561186b565b61074d604086016020870161186b565b6040805160208101949094526001600160a01b039283168482015291166060830152840135608082015260a00160405160208183030381529060405280519060200120610e14565b600080516020611d02833981519152600080516020611d228339815191526107bd82336106df565b806107cd57506107cd81336106df565b6107e95760405162461bcd60e51b815260040161040d90611b60565b82156107f7576106bb610e62565b6106bb610efa565b600080516020611d02833981519152600080516020611d2283398151915261082782336106df565b80610837575061083781336106df565b6108535760405162461bcd60e51b815260040161040d90611b60565b505061013080546001600160a01b0319166001600160a01b0392909216919091179055565b600081815260cb602052604081206103b390610f74565b60fd5460ff16156108d55760405162461bcd60e51b815260206004820152601060248201526f14185d5cd8589b194e881c185d5cd95960821b604482015260640161040d565b336108e3602084018461186b565b6001600160a01b03161461090a5760405163586d335760e01b815260040160405180910390fd5b61094a61091d604084016020850161186b565b6001600160a01b031660009081526101316020908152604080832081870135845290915290205460ff1690565b61098c5761095e604083016020840161186b565b60408051636005df7760e11b81526001600160a01b039092166004830152830135602482015260440161040d565b60006109978361070a565b905060006109a58284610d39565b61012f549091506001600160a01b038083169116146109e257604051633615713d60e21b81526001600160a01b038216600482015260240161040d565b61013260006109f4602087018761186b565b6001600160a01b03166001600160a01b031681526020019081526020016000206000856020016020810190610a29919061186b565b6001600160a01b031681526020808201929092526040908101600090812087830135825290925290205460ff1615610aaf57610a68602085018561186b565b610a78604086016020870161186b565b60408051635729d29160e11b81526001600160a01b039384166004820152929091166024830152850135604482015260640161040d565b60016101326000610ac3602088018861186b565b6001600160a01b03166001600160a01b031681526020019081526020016000206000866020016020810190610af8919061186b565b6001600160a01b03908116825260208083019390935260409182016000908120898401358083529452829020805460ff19169415159490941790935561013054905163e58306f960e01b815233600482015260248101929092529091169063e58306f990604401600060405180830381600087803b158015610b7957600080fd5b505af1158015610b8d573d6000803e3d6000fd5b5050505050505050565b7fa2328fc90c90feb8f254e41caa67a90952094a7c9c879c5eb4f2088aaecb4ae8600080516020611d22833981519152610bd182336106df565b80610be15750610be181336106df565b610bfd5760405162461bcd60e51b815260040161040d90611b60565b600080516020611d22833981519152841415610c2b5760405162461bcd60e51b815260040161040d90611b97565b6104d98484610d17565b600080516020611d02833981519152600080516020611d22833981519152610c5d82336106df565b80610c6d5750610c6d81336106df565b610c895760405162461bcd60e51b815260040161040d90611b60565b50506001600160a01b039290921660009081526101316020908152604080832093835292905220805460ff1916911515919091179055565b6000610ccb610f7e565b905090565b60006001600160e01b03198216635a05180f60e01b14806103b357506103b382610ff9565b610cff828261102e565b600082815260cb602052604090206106bb90826110b4565b610d2182826110c9565b600082815260cb602052604090206106bb9082611130565b6000806000610d488585611145565b91509150610d55816111b5565b509392505050565b600054610100900460ff16610d785760005460ff1615610d7c565b303b155b610d985760405162461bcd60e51b815260040161040d90611be1565b600054610100900460ff16158015610dba576000805461ffff19166101011790555b610dc2611370565b8015610dd4576000805461ff00191690555b50565b600054610100900460ff16610dfe5760405162461bcd60e51b815260040161040d90611c2f565b61055982826113d5565b60006106d88383611416565b60006103b3610e21610f7e565b8360405161190160f01b6020820152602281018390526042810182905260009060620160405160208183030381529060405280519060200120905092915050565b60fd5460ff1615610ea85760405162461bcd60e51b815260206004820152601060248201526f14185d5cd8589b194e881c185d5cd95960821b604482015260640161040d565b60fd805460ff191660011790557f62e78cea01bee320cd4e420270b5ea74000d11b0c9f74754ebdbfc544b05a258610edd3390565b6040516001600160a01b03909116815260200160405180910390a1565b60fd5460ff16610f435760405162461bcd60e51b815260206004820152601460248201527314185d5cd8589b194e881b9bdd081c185d5cd95960621b604482015260640161040d565b60fd805460ff191690557f5db9ee0a495bf2e6ff9c91a7834c1ba4fdd244a5e8aa4e537bd38aeae4b073aa33610edd565b60006103b3825490565b6000610ccb7f8b73c3c69bb8fe3d512ecc4cf759cc79239f7b179b0ffacaa9a75d522b39400f610fad60015490565b6002546040805160208101859052908101839052606081018290524660808201523060a082015260009060c0016040516020818303038152906040528051906020012090509392505050565b60006001600160e01b03198216637965db0b60e01b14806103b357506301ffc9a760e01b6001600160e01b03198316146103b3565b61103882826106df565b6105595760008281526099602090815260408083206001600160a01b03851684529091529020805460ff191660011790556110703390565b6001600160a01b0316816001600160a01b0316837f2f8788117e7eff1d82e926ec794901d17c78024a50270940304540a733656f0d60405160405180910390a45050565b60006106d8836001600160a01b038416611440565b6110d382826106df565b156105595760008281526099602090815260408083206001600160a01b0385168085529252808320805460ff1916905551339285917ff6391f5c32d9c69d2a47ea670b442974b53935d1edc7fd64eb21e047a839171b9190a45050565b60006106d8836001600160a01b03841661148f565b60008082516041141561117c5760208301516040840151606085015160001a61117087828585611582565b945094505050506111ae565b8251604014156111a6576020830151604084015161119b86838361166f565b9350935050506111ae565b506000905060025b9250929050565b60008160048111156111c9576111c9611c7a565b14156111d25750565b60018160048111156111e6576111e6611c7a565b14156112345760405162461bcd60e51b815260206004820152601860248201527f45434453413a20696e76616c6964207369676e61747572650000000000000000604482015260640161040d565b600281600481111561124857611248611c7a565b14156112965760405162461bcd60e51b815260206004820152601f60248201527f45434453413a20696e76616c6964207369676e6174757265206c656e67746800604482015260640161040d565b60038160048111156112aa576112aa611c7a565b14156113035760405162461bcd60e51b815260206004820152602260248201527f45434453413a20696e76616c6964207369676e6174757265202773272076616c604482015261756560f01b606482015260840161040d565b600481600481111561131757611317611c7a565b1415610dd45760405162461bcd60e51b815260206004820152602260248201527f45434453413a20696e76616c6964207369676e6174757265202776272076616c604482015261756560f01b606482015260840161040d565b600054610100900460ff1661138b5760005460ff161561138f565b303b155b6113ab5760405162461bcd60e51b815260040161040d90611be1565b600054610100900460ff161580156113cd576000805461ffff19166101011790555b610dc26116a8565b600054610100900460ff166113fc5760405162461bcd60e51b815260040161040d90611c2f565b815160209283012081519190920120600191909155600255565b600082600001828154811061142d5761142d611c90565b9060005260206000200154905092915050565b6000818152600183016020526040812054611487575081546001818101845560008481526020808220909301849055845484825282860190935260409020919091556103b3565b5060006103b3565b600081815260018301602052604081205480156115785760006114b3600183611cbc565b85549091506000906114c790600190611cbc565b905081811461152c5760008660000182815481106114e7576114e7611c90565b906000526020600020015490508087600001848154811061150a5761150a611c90565b6000918252602080832090910192909255918252600188019052604090208390555b855486908061153d5761153d611cd3565b6001900381819060005260206000200160009055905585600101600086815260200190815260200160002060009055600193505050506103b3565b60009150506103b3565b6000807f7fffffffffffffffffffffffffffffff5d576e7357a4501ddfe92f46681b20a08311156115b95750600090506003611666565b8460ff16601b141580156115d157508460ff16601c14155b156115e25750600090506004611666565b6040805160008082526020820180845289905260ff881692820192909252606081018690526080810185905260019060a0016020604051602081039080840390855afa158015611636573d6000803e3d6000fd5b5050604051601f1901519150506001600160a01b03811661165f57600060019250925050611666565b9150600090505b94509492505050565b6000806001600160ff1b0383168161168c60ff86901c601b611ce9565b905061169a87828885611582565b935093505050935093915050565b600054610100900460ff166116c35760005460ff16156116c7565b303b155b6116e35760405162461bcd60e51b815260040161040d90611be1565b600054610100900460ff16158015611705576000805461ffff19166101011790555b61170d61171d565b611715611746565b610dc2611775565b600054610100900460ff166117445760405162461bcd60e51b815260040161040d90611c2f565b565b600054610100900460ff1661176d5760405162461bcd60e51b815260040161040d90611c2f565b6117446117f2565b600054610100900460ff166117905760005460ff1615611794565b303b155b6117b05760405162461bcd60e51b815260040161040d90611be1565b600054610100900460ff161580156117d2576000805461ffff19166101011790555b6117da610e62565b610dc2600080516020611d2283398151915233610cf5565b600054610100900460ff166118195760405162461bcd60e51b815260040161040d90611c2f565b60fd805460ff19169055565b60006020828403121561183757600080fd5b81356001600160e01b0319811681146106d857600080fd5b80356001600160a01b038116811461186657600080fd5b919050565b60006020828403121561187d57600080fd5b6106d88261184f565b6000806040838503121561189957600080fd5b6118a28361184f565b946020939093013593505050565b6000602082840312156118c257600080fd5b5035919050565b600080604083850312156118dc57600080fd5b823591506118ec6020840161184f565b90509250929050565b60006060828403121561190757600080fd5b50919050565b634e487b7160e01b600052604160045260246000fd5b600082601f83011261193457600080fd5b813567ffffffffffffffff8082111561194f5761194f61190d565b604051601f8301601f19908116603f011681019082821181831017156119775761197761190d565b8160405283815286602085880101111561199057600080fd5b836020870160208301376000602085830101528094505050505092915050565b600080600060a084860312156119c557600080fd5b6119cf85856118f5565b9250606084013567ffffffffffffffff8111156119eb57600080fd5b6119f786828701611923565b925050611a066080850161184f565b90509250925092565b60008060408385031215611a2257600080fd5b611a2b8361184f565b91506118ec6020840161184f565b600080600060608486031215611a4e57600080fd5b611a578461184f565b9250611a656020850161184f565b9150604084013590509250925092565b60008060408385031215611a8857600080fd5b50508035926020909101359150565b600060608284031215611aa957600080fd5b6106d883836118f5565b8035801515811461186657600080fd5b600060208284031215611ad557600080fd5b6106d882611ab3565b60008060808385031215611af157600080fd5b611afb84846118f5565b9150606083013567ffffffffffffffff811115611b1757600080fd5b611b2385828601611923565b9150509250929050565b600080600060608486031215611b4257600080fd5b611b4b8461184f565b925060208401359150611a0660408501611ab3565b6020808252601b908201527f446f6573206e6f74206861766520726571756972656420726f6c650000000000604082015260600190565b6020808252602a908201527f43616e6e6f74206368616e6765206f776e657220726f6c65207468726f756768604082015269206772616e74526f6c6560b01b606082015260800190565b6020808252602e908201527f496e697469616c697a61626c653a20636f6e747261637420697320616c72656160408201526d191e481a5b9a5d1a585b1a5e995960921b606082015260800190565b6020808252602b908201527f496e697469616c697a61626c653a20636f6e7472616374206973206e6f74206960408201526a6e697469616c697a696e6760a81b606082015260800190565b634e487b7160e01b600052602160045260246000fd5b634e487b7160e01b600052603260045260246000fd5b634e487b7160e01b600052601160045260246000fd5b600082821015611cce57611cce611ca6565b500390565b634e487b7160e01b600052603160045260246000fd5b60008219821115611cfc57611cfc611ca6565b50019056fedf8b4c520ffe197c5343c6f5aec59570151ef9a492f2c624fd45ddde6135ec426270edb7c868f86fda4adedba75108201087268ea345934db8bad688e1feb91ba26469706673582212209438cc5720977fa6189525d4d11bd7a41c26f51c2794c442874ffab8d68a37b464736f6c634300080c0033",
  "devdoc": {
    "kind": "dev",
    "methods": {
      "getRoleAdmin(bytes32)": {
        "details": "Returns the admin role that controls `role`. See {grantRole} and {revokeRole}. To change a role's admin, use {_setRoleAdmin}."
      },
      "getRoleMember(bytes32,uint256)": {
        "details": "Returns one of the accounts that have `role`. `index` must be a value between 0 and {getRoleMemberCount}, non-inclusive. Role bearers are not sorted in any particular way, and their ordering may change at any point. WARNING: When using {getRoleMember} and {getRoleMemberCount}, make sure you perform all queries on the same block. See the following https://forum.openzeppelin.com/t/iterating-over-elements-on-enumerableset-in-openzeppelin-contracts/2296[forum post] for more information."
      },
      "getRoleMemberCount(bytes32)": {
        "details": "Returns the number of accounts that have `role`. Can be used together with {getRoleMember} to enumerate all bearers of a role."
      },
      "hasRole(bytes32,address)": {
        "details": "Returns `true` if `account` has been granted `role`."
      },
      "paused()": {
        "details": "Returns true if the contract is paused, and false otherwise."
      },
      "renounceRole(bytes32,address)": {
        "details": "Revokes `role` from the calling account. Roles are often managed via {grantRole} and {revokeRole}: this function's purpose is to provide a mechanism for accounts to lose their privileges if they are compromised (such as when a trusted device is misplaced). If the calling account had been revoked `role`, emits a {RoleRevoked} event. Requirements: - the caller must be `account`."
      }
    },
    "version": 1
  },
  "userdoc": {
    "kind": "user",
    "methods": {},
    "version": 1
  },
  "storageLayout": {
    "storage": [
      {
        "astId": 578,
        "contract": "contracts/trove_claimer/TroveClaimer.sol:TroveClaimer",
        "label": "_initialized",
        "offset": 0,
        "slot": "0",
        "type": "t_bool"
      },
      {
        "astId": 581,
        "contract": "contracts/trove_claimer/TroveClaimer.sol:TroveClaimer",
        "label": "_initializing",
        "offset": 1,
        "slot": "0",
        "type": "t_bool"
      },
      {
        "astId": 1782,
        "contract": "contracts/trove_claimer/TroveClaimer.sol:TroveClaimer",
        "label": "_HASHED_NAME",
        "offset": 0,
        "slot": "1",
        "type": "t_bytes32"
      },
      {
        "astId": 1784,
        "contract": "contracts/trove_claimer/TroveClaimer.sol:TroveClaimer",
        "label": "_HASHED_VERSION",
        "offset": 0,
        "slot": "2",
        "type": "t_bytes32"
      },
      {
        "astId": 1922,
        "contract": "contracts/trove_claimer/TroveClaimer.sol:TroveClaimer",
        "label": "__gap",
        "offset": 0,
        "slot": "3",
        "type": "t_array(t_uint256)50_storage"
      },
      {
        "astId": 1162,
        "contract": "contracts/trove_claimer/TroveClaimer.sol:TroveClaimer",
        "label": "__gap",
        "offset": 0,
        "slot": "53",
        "type": "t_array(t_uint256)50_storage"
      },
      {
        "astId": 1966,
        "contract": "contracts/trove_claimer/TroveClaimer.sol:TroveClaimer",
        "label": "__gap",
        "offset": 0,
        "slot": "103",
        "type": "t_array(t_uint256)50_storage"
      },
      {
        "astId": 184,
        "contract": "contracts/trove_claimer/TroveClaimer.sol:TroveClaimer",
        "label": "_roles",
        "offset": 0,
        "slot": "153",
        "type": "t_mapping(t_bytes32,t_struct(RoleData)179_storage)"
      },
      {
        "astId": 472,
        "contract": "contracts/trove_claimer/TroveClaimer.sol:TroveClaimer",
        "label": "__gap",
        "offset": 0,
        "slot": "154",
        "type": "t_array(t_uint256)49_storage"
      },
      {
        "astId": 33,
        "contract": "contracts/trove_claimer/TroveClaimer.sol:TroveClaimer",
        "label": "_roleMembers",
        "offset": 0,
        "slot": "203",
        "type": "t_mapping(t_bytes32,t_struct(AddressSet)2291_storage)"
      },
      {
        "astId": 143,
        "contract": "contracts/trove_claimer/TroveClaimer.sol:TroveClaimer",
        "label": "__gap",
        "offset": 0,
        "slot": "204",
        "type": "t_array(t_uint256)49_storage"
      },
      {
        "astId": 666,
        "contract": "contracts/trove_claimer/TroveClaimer.sol:TroveClaimer",
        "label": "_paused",
        "offset": 0,
        "slot": "253",
        "type": "t_bool"
      },
      {
        "astId": 755,
        "contract": "contracts/trove_claimer/TroveClaimer.sol:TroveClaimer",
        "label": "__gap",
        "offset": 0,
        "slot": "254",
        "type": "t_array(t_uint256)49_storage"
      },
      {
        "astId": 3194,
        "contract": "contracts/trove_claimer/TroveClaimer.sol:TroveClaimer",
        "label": "validator",
        "offset": 0,
        "slot": "303",
        "type": "t_address"
      },
      {
        "astId": 3197,
        "contract": "contracts/trove_claimer/TroveClaimer.sol:TroveClaimer",
        "label": "troveBadgeCollection",
        "offset": 0,
        "slot": "304",
        "type": "t_contract(ITroveBadges)2818"
      },
      {
        "astId": 3203,
        "contract": "contracts/trove_claimer/TroveClaimer.sol:TroveClaimer",
        "label": "badgeToEnabledStatus",
        "offset": 0,
        "slot": "305",
        "type": "t_mapping(t_address,t_mapping(t_uint256,t_bool))"
      },
      {
        "astId": 3211,
        "contract": "contracts/trove_claimer/TroveClaimer.sol:TroveClaimer",
        "label": "userToBadgeToHasClaimed",
        "offset": 0,
        "slot": "306",
        "type": "t_mapping(t_address,t_mapping(t_address,t_mapping(t_uint256,t_bool)))"
      }
    ],
    "types": {
      "t_address": {
        "encoding": "inplace",
        "label": "address",
        "numberOfBytes": "20"
      },
      "t_array(t_bytes32)dyn_storage": {
        "base": "t_bytes32",
        "encoding": "dynamic_array",
        "label": "bytes32[]",
        "numberOfBytes": "32"
      },
      "t_array(t_uint256)49_storage": {
        "base": "t_uint256",
        "encoding": "inplace",
        "label": "uint256[49]",
        "numberOfBytes": "1568"
      },
      "t_array(t_uint256)50_storage": {
        "base": "t_uint256",
        "encoding": "inplace",
        "label": "uint256[50]",
        "numberOfBytes": "1600"
      },
      "t_bool": {
        "encoding": "inplace",
        "label": "bool",
        "numberOfBytes": "1"
      },
      "t_bytes32": {
        "encoding": "inplace",
        "label": "bytes32",
        "numberOfBytes": "32"
      },
      "t_contract(ITroveBadges)2818": {
        "encoding": "inplace",
        "label": "contract ITroveBadges",
        "numberOfBytes": "20"
      },
      "t_mapping(t_address,t_bool)": {
        "encoding": "mapping",
        "key": "t_address",
        "label": "mapping(address => bool)",
        "numberOfBytes": "32",
        "value": "t_bool"
      },
      "t_mapping(t_address,t_mapping(t_address,t_mapping(t_uint256,t_bool)))": {
        "encoding": "mapping",
        "key": "t_address",
        "label": "mapping(address => mapping(address => mapping(uint256 => bool)))",
        "numberOfBytes": "32",
        "value": "t_mapping(t_address,t_mapping(t_uint256,t_bool))"
      },
      "t_mapping(t_address,t_mapping(t_uint256,t_bool))": {
        "encoding": "mapping",
        "key": "t_address",
        "label": "mapping(address => mapping(uint256 => bool))",
        "numberOfBytes": "32",
        "value": "t_mapping(t_uint256,t_bool)"
      },
      "t_mapping(t_bytes32,t_struct(AddressSet)2291_storage)": {
        "encoding": "mapping",
        "key": "t_bytes32",
        "label": "mapping(bytes32 => struct EnumerableSetUpgradeable.AddressSet)",
        "numberOfBytes": "32",
        "value": "t_struct(AddressSet)2291_storage"
      },
      "t_mapping(t_bytes32,t_struct(RoleData)179_storage)": {
        "encoding": "mapping",
        "key": "t_bytes32",
        "label": "mapping(bytes32 => struct AccessControlUpgradeable.RoleData)",
        "numberOfBytes": "32",
        "value": "t_struct(RoleData)179_storage"
      },
      "t_mapping(t_bytes32,t_uint256)": {
        "encoding": "mapping",
        "key": "t_bytes32",
        "label": "mapping(bytes32 => uint256)",
        "numberOfBytes": "32",
        "value": "t_uint256"
      },
      "t_mapping(t_uint256,t_bool)": {
        "encoding": "mapping",
        "key": "t_uint256",
        "label": "mapping(uint256 => bool)",
        "numberOfBytes": "32",
        "value": "t_bool"
      },
      "t_struct(AddressSet)2291_storage": {
        "encoding": "inplace",
        "label": "struct EnumerableSetUpgradeable.AddressSet",
        "members": [
          {
            "astId": 2290,
            "contract": "contracts/trove_claimer/TroveClaimer.sol:TroveClaimer",
            "label": "_inner",
            "offset": 0,
            "slot": "0",
            "type": "t_struct(Set)1990_storage"
          }
        ],
        "numberOfBytes": "64"
      },
      "t_struct(RoleData)179_storage": {
        "encoding": "inplace",
        "label": "struct AccessControlUpgradeable.RoleData",
        "members": [
          {
            "astId": 176,
            "contract": "contracts/trove_claimer/TroveClaimer.sol:TroveClaimer",
            "label": "members",
            "offset": 0,
            "slot": "0",
            "type": "t_mapping(t_address,t_bool)"
          },
          {
            "astId": 178,
            "contract": "contracts/trove_claimer/TroveClaimer.sol:TroveClaimer",
            "label": "adminRole",
            "offset": 0,
            "slot": "1",
            "type": "t_bytes32"
          }
        ],
        "numberOfBytes": "64"
      },
      "t_struct(Set)1990_storage": {
        "encoding": "inplace",
        "label": "struct EnumerableSetUpgradeable.Set",
        "members": [
          {
            "astId": 1985,
            "contract": "contracts/trove_claimer/TroveClaimer.sol:TroveClaimer",
            "label": "_values",
            "offset": 0,
            "slot": "0",
            "type": "t_array(t_bytes32)dyn_storage"
          },
          {
            "astId": 1989,
            "contract": "contracts/trove_claimer/TroveClaimer.sol:TroveClaimer",
            "label": "_indexes",
            "offset": 0,
            "slot": "1",
            "type": "t_mapping(t_bytes32,t_uint256)"
          }
        ],
        "numberOfBytes": "64"
      },
      "t_uint256": {
        "encoding": "inplace",
        "label": "uint256",
        "numberOfBytes": "32"
      }
    }
  }
}