{
  "address": "0x7936b76Cb069a0B18cA504F66ABb1A4cd5C08DAa",
  "abi": [
    {
      "inputs": [
        {
          "internalType": "address",
          "name": "_claimer",
          "type": "address"
        },
        {
          "internalType": "address",
          "name": "_badgeCollection",
          "type": "address"
        },
        {
          "internalType": "uint256",
          "name": "_badgeId",
          "type": "uint256"
        }
      ],
      "name": "BadgeAlreadyClaimed",
      "type": "error"
    },
    {
      "inputs": [
        {
          "internalType": "address",
          "name": "_badgeCollection",
          "type": "address"
        },
        {
          "internalType": "uint256",
          "name": "_badgeId",
          "type": "uint256"
        }
      ],
      "name": "InvalidBadge",
      "type": "error"
    },
    {
      "inputs": [
        {
          "internalType": "address",
          "name": "_signer",
          "type": "address"
        }
      ],
      "name": "InvalidSignature",
      "type": "error"
    },
    {
      "inputs": [],
      "name": "NotRecipient",
      "type": "error"
    },
    {
      "anonymous": false,
      "inputs": [
        {
          "indexed": false,
          "internalType": "address",
          "name": "account",
          "type": "address"
        }
      ],
      "name": "Paused",
      "type": "event"
    },
    {
      "anonymous": false,
      "inputs": [
        {
          "indexed": true,
          "internalType": "bytes32",
          "name": "role",
          "type": "bytes32"
        },
        {
          "indexed": true,
          "internalType": "bytes32",
          "name": "previousAdminRole",
          "type": "bytes32"
        },
        {
          "indexed": true,
          "internalType": "bytes32",
          "name": "newAdminRole",
          "type": "bytes32"
        }
      ],
      "name": "RoleAdminChanged",
      "type": "event"
    },
    {
      "anonymous": false,
      "inputs": [
        {
          "indexed": true,
          "internalType": "bytes32",
          "name": "role",
          "type": "bytes32"
        },
        {
          "indexed": true,
          "internalType": "address",
          "name": "account",
          "type": "address"
        },
        {
          "indexed": true,
          "internalType": "address",
          "name": "sender",
          "type": "address"
        }
      ],
      "name": "RoleGranted",
      "type": "event"
    },
    {
      "anonymous": false,
      "inputs": [
        {
          "indexed": true,
          "internalType": "bytes32",
          "name": "role",
          "type": "bytes32"
        },
        {
          "indexed": true,
          "internalType": "address",
          "name": "account",
          "type": "address"
        },
        {
          "indexed": true,
          "internalType": "address",
          "name": "sender",
          "type": "address"
        }
      ],
      "name": "RoleRevoked",
      "type": "event"
    },
    {
      "anonymous": false,
      "inputs": [
        {
          "indexed": false,
          "internalType": "address",
          "name": "account",
          "type": "address"
        }
      ],
      "name": "Unpaused",
      "type": "event"
    },
    {
      "inputs": [],
      "name": "CLAIMINFO_TYPE_HASH",
      "outputs": [
        {
          "internalType": "bytes32",
          "name": "",
          "type": "bytes32"
        }
      ],
      "stateMutability": "view",
      "type": "function"
    },
    {
      "inputs": [],
      "name": "DEFAULT_ADMIN_ROLE",
      "outputs": [
        {
          "internalType": "bytes32",
          "name": "",
          "type": "bytes32"
        }
      ],
      "stateMutability": "view",
      "type": "function"
    },
    {
      "inputs": [
        {
          "internalType": "address",
          "name": "",
          "type": "address"
        },
        {
          "internalType": "uint256",
          "name": "",
          "type": "uint256"
        }
      ],
      "name": "badgeToEnabledStatus",
      "outputs": [
        {
          "internalType": "bool",
          "name": "",
          "type": "bool"
        }
      ],
      "stateMutability": "view",
      "type": "function"
    },
    {
      "inputs": [
        {
          "components": [
            {
              "internalType": "address",
              "name": "claimer",
              "type": "address"
            },
            {
              "internalType": "address",
              "name": "badgeAddress",
              "type": "address"
            },
            {
              "internalType": "uint256",
              "name": "badgeId",
              "type": "uint256"
            }
          ],
          "internalType": "struct ClaimInfo",
          "name": "_claimInfo",
          "type": "tuple"
        },
        {
          "internalType": "bytes",
          "name": "_validatorSignature",
          "type": "bytes"
        }
      ],
      "name": "claim",
      "outputs": [],
      "stateMutability": "nonpayable",
      "type": "function"
    },
    {
      "inputs": [
        {
          "components": [
            {
              "internalType": "address",
              "name": "claimer",
              "type": "address"
            },
            {
              "internalType": "address",
              "name": "badgeAddress",
              "type": "address"
            },
            {
              "internalType": "uint256",
              "name": "badgeId",
              "type": "uint256"
            }
          ],
          "internalType": "struct ClaimInfo",
          "name": "_claimInfo",
          "type": "tuple"
        }
      ],
      "name": "claimInfoHash",
      "outputs": [
        {
          "internalType": "bytes32",
          "name": "",
          "type": "bytes32"
        }
      ],
      "stateMutability": "view",
      "type": "function"
    },
    {
      "inputs": [],
      "name": "domainSeparator",
      "outputs": [
        {
          "internalType": "bytes32",
          "name": "",
          "type": "bytes32"
        }
      ],
      "stateMutability": "view",
      "type": "function"
    },
    {
      "inputs": [
        {
          "internalType": "bytes32",
          "name": "role",
          "type": "bytes32"
        }
      ],
      "name": "getRoleAdmin",
      "outputs": [
        {
          "internalType": "bytes32",
          "name": "",
          "type": "bytes32"
        }
      ],
      "stateMutability": "view",
      "type": "function"
    },
    {
      "inputs": [
        {
          "internalType": "bytes32",
          "name": "role",
          "type": "bytes32"
        },
        {
          "internalType": "uint256",
          "name": "index",
          "type": "uint256"
        }
      ],
      "name": "getRoleMember",
      "outputs": [
        {
          "internalType": "address",
          "name": "",
          "type": "address"
        }
      ],
      "stateMutability": "view",
      "type": "function"
    },
    {
      "inputs": [
        {
          "internalType": "bytes32",
          "name": "role",
          "type": "bytes32"
        }
      ],
      "name": "getRoleMemberCount",
      "outputs": [
        {
          "internalType": "uint256",
          "name": "",
          "type": "uint256"
        }
      ],
      "stateMutability": "view",
      "type": "function"
    },
    {
      "inputs": [
        {
          "internalType": "bytes32",
          "name": "_role",
          "type": "bytes32"
        },
        {
          "internalType": "address",
          "name": "_account",
          "type": "address"
        }
      ],
      "name": "grantRole",
      "outputs": [],
      "stateMutability": "nonpayable",
      "type": "function"
    },
    {
      "inputs": [
        {
          "internalType": "bytes32",
          "name": "role",
          "type": "bytes32"
        },
        {
          "internalType": "address",
          "name": "account",
          "type": "address"
        }
      ],
      "name": "hasRole",
      "outputs": [
        {
          "internalType": "bool",
          "name": "",
          "type": "bool"
        }
      ],
      "stateMutability": "view",
      "type": "function"
    },
    {
      "inputs": [
        {
          "internalType": "address",
          "name": "_validator",
          "type": "address"
        },
        {
          "internalType": "address",
          "name": "_badgeAddress",
          "type": "address"
        }
      ],
      "name": "initialize",
      "outputs": [],
      "stateMutability": "nonpayable",
      "type": "function"
    },
    {
      "inputs": [
        {
          "components": [
            {
              "internalType": "address",
              "name": "claimer",
              "type": "address"
            },
            {
              "internalType": "address",
              "name": "badgeAddress",
              "type": "address"
            },
            {
              "internalType": "uint256",
              "name": "badgeId",
              "type": "uint256"
            }
          ],
          "internalType": "struct ClaimInfo",
          "name": "_claimInfo",
          "type": "tuple"
        },
        {
          "internalType": "bytes",
          "name": "_validatorSignature",
          "type": "bytes"
        },
        {
          "internalType": "address",
          "name": "_validatorAddress",
          "type": "address"
        }
      ],
      "name": "isValidClaimInfoForSignature",
      "outputs": [
        {
          "internalType": "bool",
          "name": "",
          "type": "bool"
        }
      ],
      "stateMutability": "view",
      "type": "function"
    },
    {
      "inputs": [],
      "name": "paused",
      "outputs": [
        {
          "internalType": "bool",
          "name": "",
          "type": "bool"
        }
      ],
      "stateMutability": "view",
      "type": "function"
    },
    {
      "inputs": [
        {
          "internalType": "bytes32",
          "name": "role",
          "type": "bytes32"
        },
        {
          "internalType": "address",
          "name": "account",
          "type": "address"
        }
      ],
      "name": "renounceRole",
      "outputs": [],
      "stateMutability": "nonpayable",
      "type": "function"
    },
    {
      "inputs": [
        {
          "internalType": "bytes32",
          "name": "_role",
          "type": "bytes32"
        },
        {
          "internalType": "address",
          "name": "_account",
          "type": "address"
        }
      ],
      "name": "revokeRole",
      "outputs": [],
      "stateMutability": "nonpayable",
      "type": "function"
    },
    {
      "inputs": [
        {
          "internalType": "address",
          "name": "_badgeAddress",
          "type": "address"
        },
        {
          "internalType": "uint256",
          "name": "_badgeId",
          "type": "uint256"
        },
        {
          "internalType": "bool",
          "name": "enabled",
          "type": "bool"
        }
      ],
      "name": "setBadgeStatus",
      "outputs": [],
      "stateMutability": "nonpayable",
      "type": "function"
    },
    {
      "inputs": [
        {
          "internalType": "bool",
          "name": "_shouldPause",
          "type": "bool"
        }
      ],
      "name": "setPause",
      "outputs": [],
      "stateMutability": "nonpayable",
      "type": "function"
    },
    {
      "inputs": [
        {
          "internalType": "address",
          "name": "_badgeAddress",
          "type": "address"
        }
      ],
      "name": "setTroveBadges",
      "outputs": [],
      "stateMutability": "nonpayable",
      "type": "function"
    },
    {
      "inputs": [
        {
          "internalType": "address",
          "name": "_validator",
          "type": "address"
        }
      ],
      "name": "setValidator",
      "outputs": [],
      "stateMutability": "nonpayable",
      "type": "function"
    },
    {
      "inputs": [
        {
          "internalType": "bytes4",
          "name": "_interfaceId",
          "type": "bytes4"
        }
      ],
      "name": "supportsInterface",
      "outputs": [
        {
          "internalType": "bool",
          "name": "",
          "type": "bool"
        }
      ],
      "stateMutability": "view",
      "type": "function"
    },
    {
      "inputs": [],
      "name": "troveBadgeCollection",
      "outputs": [
        {
          "internalType": "contract ITroveBadges",
          "name": "",
          "type": "address"
        }
      ],
      "stateMutability": "view",
      "type": "function"
    },
    {
      "inputs": [],
      "name": "validator",
      "outputs": [
        {
          "internalType": "address",
          "name": "",
          "type": "address"
        }
      ],
      "stateMutability": "view",
      "type": "function"
    }
  ],
  "transactionHash": "0xbda183eb86e93aac71fc2cf71bbfafaf8d83e983874935bc346fa925df541f5c",
  "args": [],
  "numDeployments": 1,
  "solcInputHash": "51cafd2b28e36fad575c4361a9573944",
  "bytecode": "0x608060405234801561001057600080fd5b50611cb9806100206000396000f3fe608060405234801561001057600080fd5b506004361061014d5760003560e01c806391d14854116100c3578063c9c1752f1161007c578063c9c1752f14610301578063ca15c87314610314578063ce2631b814610327578063d547741f1461033a578063ef7b8eb91461034d578063f698da251461036057600080fd5b806391d1485414610285578063938e4fed14610298578063971dabeb146102ac578063a217fddf146102bf578063a93f8a38146102c7578063bedb86fb146102ee57600080fd5b806336568abe1161011557806336568abe1461020257806339ca4e59146102155780633a5381b514610228578063485cc955146102545780635c975abb146102675780639010d07c1461027257600080fd5b806301ffc9a7146101525780631327d3d81461017a578063232219181461018f578063248a9ca3146101be5780632f2ff15d146101ef575b600080fd5b61016561016036600461178a565b610368565b60405190151581526020015b60405180910390f35b61018d6101883660046117d0565b610379565b005b61016561019d3660046117eb565b61013160209081526000928352604080842090915290825290205460ff1681565b6101e16101cc366004611815565b60009081526099602052604090206001015490565b604051908152602001610171565b61018d6101fd36600461182e565b6103fb565b61018d61021036600461182e565b61049f565b610165610223366004611915565b61051d565b61012f5461023c906001600160a01b031681565b6040516001600160a01b039091168152602001610171565b61018d610262366004611974565b610587565b60fd5460ff16610165565b61023c61028036600461199e565b610680565b61016561029336600461182e565b61069f565b6101305461023c906001600160a01b031681565b6101e16102ba3660046119c0565b6106ca565b6101e1600081565b6101e17f34615a26a59b5ce5dd3e5a2e81ef82b6ff4b6f6061c1665562d37460b80cc64481565b61018d6102fc3660046119ec565b610755565b61018d61030f3660046117d0565b6107bf565b6101e1610322366004611815565b610838565b61018d610335366004611a07565b61084f565b61018d61034836600461182e565b610afc565b61018d61035b366004611a56565b610b9a565b6101e1610c26565b600061037382610c35565b92915050565b600080516020611c44833981519152600080516020611c648339815191526103a1823361069f565b806103b157506103b1813361069f565b6103d65760405162461bcd60e51b81526004016103cd90611a89565b60405180910390fd5b505061012f80546001600160a01b0319166001600160a01b0392909216919091179055565b7fa2328fc90c90feb8f254e41caa67a90952094a7c9c879c5eb4f2088aaecb4ae8600080516020611c64833981519152610435823361069f565b806104455750610445813361069f565b6104615760405162461bcd60e51b81526004016103cd90611a89565b600080516020611c6483398151915284141561048f5760405162461bcd60e51b81526004016103cd90611ac0565b6104998484610c5a565b50505050565b6001600160a01b038116331461050f5760405162461bcd60e51b815260206004820152602f60248201527f416363657373436f6e74726f6c3a2063616e206f6e6c792072656e6f756e636560448201526e103937b632b9903337b91039b2b63360891b60648201526084016103cd565b6105198282610c7c565b5050565b60003361052d60208601866117d0565b6001600160a01b0316146105545760405163586d335760e01b815260040160405180910390fd5b600061055f856106ca565b9050600061056d8286610c9e565b6001600160a01b0390811690851614925050509392505050565b600054610100900460ff166105a25760005460ff16156105a6565b303b155b6105c25760405162461bcd60e51b81526004016103cd90611b0a565b600054610100900460ff161580156105e4576000805461ffff19166101011790555b6105ec610cc2565b6106376040518060400160405280600c81526020016b2a3937bb32a1b630b4b6b2b960a11b815250604051806040016040528060058152602001640312e302e360dc1b815250610d3c565b61012f80546001600160a01b038086166001600160a01b031992831617909255610130805492851692909116919091179055801561067b576000805461ff00191690555b505050565b600082815260cb602052604081206106989083610d6d565b9392505050565b60009182526099602090815260408084206001600160a01b0393909316845291905290205460ff1690565b60006103737f34615a26a59b5ce5dd3e5a2e81ef82b6ff4b6f6061c1665562d37460b80cc6446106fd60208501856117d0565b61070d60408601602087016117d0565b6040805160208101949094526001600160a01b039283168482015291166060830152840135608082015260a00160405160208183030381529060405280519060200120610d79565b600080516020611c44833981519152600080516020611c6483398151915261077d823361069f565b8061078d575061078d813361069f565b6107a95760405162461bcd60e51b81526004016103cd90611a89565b82156107b75761067b610dc7565b61067b610e5f565b600080516020611c44833981519152600080516020611c648339815191526107e7823361069f565b806107f757506107f7813361069f565b6108135760405162461bcd60e51b81526004016103cd90611a89565b505061013080546001600160a01b0319166001600160a01b0392909216919091179055565b600081815260cb6020526040812061037390610ed9565b60fd5460ff16156108955760405162461bcd60e51b815260206004820152601060248201526f14185d5cd8589b194e881c185d5cd95960821b60448201526064016103cd565b336108a360208401846117d0565b6001600160a01b0316146108ca5760405163586d335760e01b815260040160405180910390fd5b61090a6108dd60408401602085016117d0565b6001600160a01b031660009081526101316020908152604080832081870135845290915290205460ff1690565b61094c5761091e60408301602084016117d0565b60408051636005df7760e11b81526001600160a01b03909216600483015283013560248201526044016103cd565b6000610957836106ca565b905060006109658284610c9e565b61012f549091506001600160a01b038083169116146109a257604051633615713d60e21b81526001600160a01b03821660048201526024016103cd565b610130546000906001600160a01b031662fdd58e6109c360208801886117d0565b604080516001600160e01b031960e085901b1681526001600160a01b0390921660048301528801356024820152604401602060405180830381865afa158015610a10573d6000803e3d6000fd5b505050506040513d601f19601f82011682018060405250810190610a349190611b58565b1115610a8e57610a4760208501856117d0565b610a5760408601602087016117d0565b60408051635729d29160e11b81526001600160a01b03938416600482015292909116602483015285013560448201526064016103cd565b610130546040805163e58306f960e01b81523360048201529086013560248201526001600160a01b039091169063e58306f990604401600060405180830381600087803b158015610ade57600080fd5b505af1158015610af2573d6000803e3d6000fd5b5050505050505050565b7fa2328fc90c90feb8f254e41caa67a90952094a7c9c879c5eb4f2088aaecb4ae8600080516020611c64833981519152610b36823361069f565b80610b465750610b46813361069f565b610b625760405162461bcd60e51b81526004016103cd90611a89565b600080516020611c64833981519152841415610b905760405162461bcd60e51b81526004016103cd90611ac0565b6104998484610c7c565b600080516020611c44833981519152600080516020611c64833981519152610bc2823361069f565b80610bd25750610bd2813361069f565b610bee5760405162461bcd60e51b81526004016103cd90611a89565b50506001600160a01b039290921660009081526101316020908152604080832093835292905220805460ff1916911515919091179055565b6000610c30610ee3565b905090565b60006001600160e01b03198216635a05180f60e01b1480610373575061037382610f5e565b610c648282610f93565b600082815260cb6020526040902061067b9082611019565b610c86828261102e565b600082815260cb6020526040902061067b9082611095565b6000806000610cad85856110aa565b91509150610cba8161111a565b509392505050565b600054610100900460ff16610cdd5760005460ff1615610ce1565b303b155b610cfd5760405162461bcd60e51b81526004016103cd90611b0a565b600054610100900460ff16158015610d1f576000805461ffff19166101011790555b610d276112d5565b8015610d39576000805461ff00191690555b50565b600054610100900460ff16610d635760405162461bcd60e51b81526004016103cd90611b71565b610519828261133a565b6000610698838361137b565b6000610373610d86610ee3565b8360405161190160f01b6020820152602281018390526042810182905260009060620160405160208183030381529060405280519060200120905092915050565b60fd5460ff1615610e0d5760405162461bcd60e51b815260206004820152601060248201526f14185d5cd8589b194e881c185d5cd95960821b60448201526064016103cd565b60fd805460ff191660011790557f62e78cea01bee320cd4e420270b5ea74000d11b0c9f74754ebdbfc544b05a258610e423390565b6040516001600160a01b03909116815260200160405180910390a1565b60fd5460ff16610ea85760405162461bcd60e51b815260206004820152601460248201527314185d5cd8589b194e881b9bdd081c185d5cd95960621b60448201526064016103cd565b60fd805460ff191690557f5db9ee0a495bf2e6ff9c91a7834c1ba4fdd244a5e8aa4e537bd38aeae4b073aa33610e42565b6000610373825490565b6000610c307f8b73c3c69bb8fe3d512ecc4cf759cc79239f7b179b0ffacaa9a75d522b39400f610f1260015490565b6002546040805160208101859052908101839052606081018290524660808201523060a082015260009060c0016040516020818303038152906040528051906020012090509392505050565b60006001600160e01b03198216637965db0b60e01b148061037357506301ffc9a760e01b6001600160e01b0319831614610373565b610f9d828261069f565b6105195760008281526099602090815260408083206001600160a01b03851684529091529020805460ff19166001179055610fd53390565b6001600160a01b0316816001600160a01b0316837f2f8788117e7eff1d82e926ec794901d17c78024a50270940304540a733656f0d60405160405180910390a45050565b6000610698836001600160a01b0384166113a5565b611038828261069f565b156105195760008281526099602090815260408083206001600160a01b0385168085529252808320805460ff1916905551339285917ff6391f5c32d9c69d2a47ea670b442974b53935d1edc7fd64eb21e047a839171b9190a45050565b6000610698836001600160a01b0384166113f4565b6000808251604114156110e15760208301516040840151606085015160001a6110d5878285856114e7565b94509450505050611113565b82516040141561110b57602083015160408401516111008683836115d4565b935093505050611113565b506000905060025b9250929050565b600081600481111561112e5761112e611bbc565b14156111375750565b600181600481111561114b5761114b611bbc565b14156111995760405162461bcd60e51b815260206004820152601860248201527f45434453413a20696e76616c6964207369676e6174757265000000000000000060448201526064016103cd565b60028160048111156111ad576111ad611bbc565b14156111fb5760405162461bcd60e51b815260206004820152601f60248201527f45434453413a20696e76616c6964207369676e6174757265206c656e6774680060448201526064016103cd565b600381600481111561120f5761120f611bbc565b14156112685760405162461bcd60e51b815260206004820152602260248201527f45434453413a20696e76616c6964207369676e6174757265202773272076616c604482015261756560f01b60648201526084016103cd565b600481600481111561127c5761127c611bbc565b1415610d395760405162461bcd60e51b815260206004820152602260248201527f45434453413a20696e76616c6964207369676e6174757265202776272076616c604482015261756560f01b60648201526084016103cd565b600054610100900460ff166112f05760005460ff16156112f4565b303b155b6113105760405162461bcd60e51b81526004016103cd90611b0a565b600054610100900460ff16158015611332576000805461ffff19166101011790555b610d2761160d565b600054610100900460ff166113615760405162461bcd60e51b81526004016103cd90611b71565b815160209283012081519190920120600191909155600255565b600082600001828154811061139257611392611bd2565b9060005260206000200154905092915050565b60008181526001830160205260408120546113ec57508154600181810184556000848152602080822090930184905584548482528286019093526040902091909155610373565b506000610373565b600081815260018301602052604081205480156114dd576000611418600183611bfe565b855490915060009061142c90600190611bfe565b905081811461149157600086600001828154811061144c5761144c611bd2565b906000526020600020015490508087600001848154811061146f5761146f611bd2565b6000918252602080832090910192909255918252600188019052604090208390555b85548690806114a2576114a2611c15565b600190038181906000526020600020016000905590558560010160008681526020019081526020016000206000905560019350505050610373565b6000915050610373565b6000807f7fffffffffffffffffffffffffffffff5d576e7357a4501ddfe92f46681b20a083111561151e57506000905060036115cb565b8460ff16601b1415801561153657508460ff16601c14155b1561154757506000905060046115cb565b6040805160008082526020820180845289905260ff881692820192909252606081018690526080810185905260019060a0016020604051602081039080840390855afa15801561159b573d6000803e3d6000fd5b5050604051601f1901519150506001600160a01b0381166115c4576000600192509250506115cb565b9150600090505b94509492505050565b6000806001600160ff1b038316816115f160ff86901c601b611c2b565b90506115ff878288856114e7565b935093505050935093915050565b600054610100900460ff166116285760005460ff161561162c565b303b155b6116485760405162461bcd60e51b81526004016103cd90611b0a565b600054610100900460ff1615801561166a576000805461ffff19166101011790555b611672611682565b61167a6116ab565b610d276116da565b600054610100900460ff166116a95760405162461bcd60e51b81526004016103cd90611b71565b565b600054610100900460ff166116d25760405162461bcd60e51b81526004016103cd90611b71565b6116a9611757565b600054610100900460ff166116f55760005460ff16156116f9565b303b155b6117155760405162461bcd60e51b81526004016103cd90611b0a565b600054610100900460ff16158015611737576000805461ffff19166101011790555b61173f610dc7565b610d27600080516020611c6483398151915233610c5a565b600054610100900460ff1661177e5760405162461bcd60e51b81526004016103cd90611b71565b60fd805460ff19169055565b60006020828403121561179c57600080fd5b81356001600160e01b03198116811461069857600080fd5b80356001600160a01b03811681146117cb57600080fd5b919050565b6000602082840312156117e257600080fd5b610698826117b4565b600080604083850312156117fe57600080fd5b611807836117b4565b946020939093013593505050565b60006020828403121561182757600080fd5b5035919050565b6000806040838503121561184157600080fd5b82359150611851602084016117b4565b90509250929050565b60006060828403121561186c57600080fd5b50919050565b634e487b7160e01b600052604160045260246000fd5b600082601f83011261189957600080fd5b813567ffffffffffffffff808211156118b4576118b4611872565b604051601f8301601f19908116603f011681019082821181831017156118dc576118dc611872565b816040528381528660208588010111156118f557600080fd5b836020870160208301376000602085830101528094505050505092915050565b600080600060a0848603121561192a57600080fd5b611934858561185a565b9250606084013567ffffffffffffffff81111561195057600080fd5b61195c86828701611888565b92505061196b608085016117b4565b90509250925092565b6000806040838503121561198757600080fd5b611990836117b4565b9150611851602084016117b4565b600080604083850312156119b157600080fd5b50508035926020909101359150565b6000606082840312156119d257600080fd5b610698838361185a565b803580151581146117cb57600080fd5b6000602082840312156119fe57600080fd5b610698826119dc565b60008060808385031215611a1a57600080fd5b611a24848461185a565b9150606083013567ffffffffffffffff811115611a4057600080fd5b611a4c85828601611888565b9150509250929050565b600080600060608486031215611a6b57600080fd5b611a74846117b4565b92506020840135915061196b604085016119dc565b6020808252601b908201527f446f6573206e6f74206861766520726571756972656420726f6c650000000000604082015260600190565b6020808252602a908201527f43616e6e6f74206368616e6765206f776e657220726f6c65207468726f756768604082015269206772616e74526f6c6560b01b606082015260800190565b6020808252602e908201527f496e697469616c697a61626c653a20636f6e747261637420697320616c72656160408201526d191e481a5b9a5d1a585b1a5e995960921b606082015260800190565b600060208284031215611b6a57600080fd5b5051919050565b6020808252602b908201527f496e697469616c697a61626c653a20636f6e7472616374206973206e6f74206960408201526a6e697469616c697a696e6760a81b606082015260800190565b634e487b7160e01b600052602160045260246000fd5b634e487b7160e01b600052603260045260246000fd5b634e487b7160e01b600052601160045260246000fd5b600082821015611c1057611c10611be8565b500390565b634e487b7160e01b600052603160045260246000fd5b60008219821115611c3e57611c3e611be8565b50019056fedf8b4c520ffe197c5343c6f5aec59570151ef9a492f2c624fd45ddde6135ec426270edb7c868f86fda4adedba75108201087268ea345934db8bad688e1feb91ba26469706673582212209000f5fff4008d77b70aff56054abd8faf59283f52c7d155e0daccbd965325b964736f6c634300080c0033",
  "devdoc": {
    "kind": "dev",
    "methods": {
      "getRoleAdmin(bytes32)": {
        "details": "Returns the admin role that controls `role`. See {grantRole} and {revokeRole}. To change a role's admin, use {_setRoleAdmin}."
      },
      "getRoleMember(bytes32,uint256)": {
        "details": "Returns one of the accounts that have `role`. `index` must be a value between 0 and {getRoleMemberCount}, non-inclusive. Role bearers are not sorted in any particular way, and their ordering may change at any point. WARNING: When using {getRoleMember} and {getRoleMemberCount}, make sure you perform all queries on the same block. See the following https://forum.openzeppelin.com/t/iterating-over-elements-on-enumerableset-in-openzeppelin-contracts/2296[forum post] for more information."
      },
      "getRoleMemberCount(bytes32)": {
        "details": "Returns the number of accounts that have `role`. Can be used together with {getRoleMember} to enumerate all bearers of a role."
      },
      "hasRole(bytes32,address)": {
        "details": "Returns `true` if `account` has been granted `role`."
      },
      "paused()": {
        "details": "Returns true if the contract is paused, and false otherwise."
      },
      "renounceRole(bytes32,address)": {
        "details": "Revokes `role` from the calling account. Roles are often managed via {grantRole} and {revokeRole}: this function's purpose is to provide a mechanism for accounts to lose their privileges if they are compromised (such as when a trusted device is misplaced). If the calling account had been revoked `role`, emits a {RoleRevoked} event. Requirements: - the caller must be `account`."
      }
    },
    "version": 1
  },
  "userdoc": {
    "kind": "user",
    "methods": {},
    "version": 1
  },
  "storageLayout": {
    "storage": [
      {
        "astId": 578,
        "contract": "contracts/trove_claimer/TroveClaimer.sol:TroveClaimer",
        "label": "_initialized",
        "offset": 0,
        "slot": "0",
        "type": "t_bool"
      },
      {
        "astId": 581,
        "contract": "contracts/trove_claimer/TroveClaimer.sol:TroveClaimer",
        "label": "_initializing",
        "offset": 1,
        "slot": "0",
        "type": "t_bool"
      },
      {
        "astId": 2956,
        "contract": "contracts/trove_claimer/TroveClaimer.sol:TroveClaimer",
        "label": "_HASHED_NAME",
        "offset": 0,
        "slot": "1",
        "type": "t_bytes32"
      },
      {
        "astId": 2958,
        "contract": "contracts/trove_claimer/TroveClaimer.sol:TroveClaimer",
        "label": "_HASHED_VERSION",
        "offset": 0,
        "slot": "2",
        "type": "t_bytes32"
      },
      {
        "astId": 3096,
        "contract": "contracts/trove_claimer/TroveClaimer.sol:TroveClaimer",
        "label": "__gap",
        "offset": 0,
        "slot": "3",
        "type": "t_array(t_uint256)50_storage"
      },
      {
        "astId": 2336,
        "contract": "contracts/trove_claimer/TroveClaimer.sol:TroveClaimer",
        "label": "__gap",
        "offset": 0,
        "slot": "53",
        "type": "t_array(t_uint256)50_storage"
      },
      {
        "astId": 3140,
        "contract": "contracts/trove_claimer/TroveClaimer.sol:TroveClaimer",
        "label": "__gap",
        "offset": 0,
        "slot": "103",
        "type": "t_array(t_uint256)50_storage"
      },
      {
        "astId": 184,
        "contract": "contracts/trove_claimer/TroveClaimer.sol:TroveClaimer",
        "label": "_roles",
        "offset": 0,
        "slot": "153",
        "type": "t_mapping(t_bytes32,t_struct(RoleData)179_storage)"
      },
      {
        "astId": 472,
        "contract": "contracts/trove_claimer/TroveClaimer.sol:TroveClaimer",
        "label": "__gap",
        "offset": 0,
        "slot": "154",
        "type": "t_array(t_uint256)49_storage"
      },
      {
        "astId": 33,
        "contract": "contracts/trove_claimer/TroveClaimer.sol:TroveClaimer",
        "label": "_roleMembers",
        "offset": 0,
        "slot": "203",
        "type": "t_mapping(t_bytes32,t_struct(AddressSet)3465_storage)"
      },
      {
        "astId": 143,
        "contract": "contracts/trove_claimer/TroveClaimer.sol:TroveClaimer",
        "label": "__gap",
        "offset": 0,
        "slot": "204",
        "type": "t_array(t_uint256)49_storage"
      },
      {
        "astId": 666,
        "contract": "contracts/trove_claimer/TroveClaimer.sol:TroveClaimer",
        "label": "_paused",
        "offset": 0,
        "slot": "253",
        "type": "t_bool"
      },
      {
        "astId": 755,
        "contract": "contracts/trove_claimer/TroveClaimer.sol:TroveClaimer",
        "label": "__gap",
        "offset": 0,
        "slot": "254",
        "type": "t_array(t_uint256)49_storage"
      },
      {
        "astId": 4594,
        "contract": "contracts/trove_claimer/TroveClaimer.sol:TroveClaimer",
        "label": "validator",
        "offset": 0,
        "slot": "303",
        "type": "t_address"
      },
      {
        "astId": 4597,
        "contract": "contracts/trove_claimer/TroveClaimer.sol:TroveClaimer",
        "label": "troveBadgeCollection",
        "offset": 0,
        "slot": "304",
        "type": "t_contract(ITroveBadges)4092"
      },
      {
        "astId": 4603,
        "contract": "contracts/trove_claimer/TroveClaimer.sol:TroveClaimer",
        "label": "badgeToEnabledStatus",
        "offset": 0,
        "slot": "305",
        "type": "t_mapping(t_address,t_mapping(t_uint256,t_bool))"
      }
    ],
    "types": {
      "t_address": {
        "encoding": "inplace",
        "label": "address",
        "numberOfBytes": "20"
      },
      "t_array(t_bytes32)dyn_storage": {
        "base": "t_bytes32",
        "encoding": "dynamic_array",
        "label": "bytes32[]",
        "numberOfBytes": "32"
      },
      "t_array(t_uint256)49_storage": {
        "base": "t_uint256",
        "encoding": "inplace",
        "label": "uint256[49]",
        "numberOfBytes": "1568"
      },
      "t_array(t_uint256)50_storage": {
        "base": "t_uint256",
        "encoding": "inplace",
        "label": "uint256[50]",
        "numberOfBytes": "1600"
      },
      "t_bool": {
        "encoding": "inplace",
        "label": "bool",
        "numberOfBytes": "1"
      },
      "t_bytes32": {
        "encoding": "inplace",
        "label": "bytes32",
        "numberOfBytes": "32"
      },
      "t_contract(ITroveBadges)4092": {
        "encoding": "inplace",
        "label": "contract ITroveBadges",
        "numberOfBytes": "20"
      },
      "t_mapping(t_address,t_bool)": {
        "encoding": "mapping",
        "key": "t_address",
        "label": "mapping(address => bool)",
        "numberOfBytes": "32",
        "value": "t_bool"
      },
      "t_mapping(t_address,t_mapping(t_uint256,t_bool))": {
        "encoding": "mapping",
        "key": "t_address",
        "label": "mapping(address => mapping(uint256 => bool))",
        "numberOfBytes": "32",
        "value": "t_mapping(t_uint256,t_bool)"
      },
      "t_mapping(t_bytes32,t_struct(AddressSet)3465_storage)": {
        "encoding": "mapping",
        "key": "t_bytes32",
        "label": "mapping(bytes32 => struct EnumerableSetUpgradeable.AddressSet)",
        "numberOfBytes": "32",
        "value": "t_struct(AddressSet)3465_storage"
      },
      "t_mapping(t_bytes32,t_struct(RoleData)179_storage)": {
        "encoding": "mapping",
        "key": "t_bytes32",
        "label": "mapping(bytes32 => struct AccessControlUpgradeable.RoleData)",
        "numberOfBytes": "32",
        "value": "t_struct(RoleData)179_storage"
      },
      "t_mapping(t_bytes32,t_uint256)": {
        "encoding": "mapping",
        "key": "t_bytes32",
        "label": "mapping(bytes32 => uint256)",
        "numberOfBytes": "32",
        "value": "t_uint256"
      },
      "t_mapping(t_uint256,t_bool)": {
        "encoding": "mapping",
        "key": "t_uint256",
        "label": "mapping(uint256 => bool)",
        "numberOfBytes": "32",
        "value": "t_bool"
      },
      "t_struct(AddressSet)3465_storage": {
        "encoding": "inplace",
        "label": "struct EnumerableSetUpgradeable.AddressSet",
        "members": [
          {
            "astId": 3464,
            "contract": "contracts/trove_claimer/TroveClaimer.sol:TroveClaimer",
            "label": "_inner",
            "offset": 0,
            "slot": "0",
            "type": "t_struct(Set)3164_storage"
          }
        ],
        "numberOfBytes": "64"
      },
      "t_struct(RoleData)179_storage": {
        "encoding": "inplace",
        "label": "struct AccessControlUpgradeable.RoleData",
        "members": [
          {
            "astId": 176,
            "contract": "contracts/trove_claimer/TroveClaimer.sol:TroveClaimer",
            "label": "members",
            "offset": 0,
            "slot": "0",
            "type": "t_mapping(t_address,t_bool)"
          },
          {
            "astId": 178,
            "contract": "contracts/trove_claimer/TroveClaimer.sol:TroveClaimer",
            "label": "adminRole",
            "offset": 0,
            "slot": "1",
            "type": "t_bytes32"
          }
        ],
        "numberOfBytes": "64"
      },
      "t_struct(Set)3164_storage": {
        "encoding": "inplace",
        "label": "struct EnumerableSetUpgradeable.Set",
        "members": [
          {
            "astId": 3159,
            "contract": "contracts/trove_claimer/TroveClaimer.sol:TroveClaimer",
            "label": "_values",
            "offset": 0,
            "slot": "0",
            "type": "t_array(t_bytes32)dyn_storage"
          },
          {
            "astId": 3163,
            "contract": "contracts/trove_claimer/TroveClaimer.sol:TroveClaimer",
            "label": "_indexes",
            "offset": 0,
            "slot": "1",
            "type": "t_mapping(t_bytes32,t_uint256)"
          }
        ],
        "numberOfBytes": "64"
      },
      "t_uint256": {
        "encoding": "inplace",
        "label": "uint256",
        "numberOfBytes": "32"
      }
    }
  }
}