{
  "address": "0xCb9F6466fd69290937a2F253Fe3669eaA595E3Fc",
  "abi": [
    {
      "inputs": [
        {
          "internalType": "address",
          "name": "_claimer",
          "type": "address"
        },
        {
          "internalType": "uint256",
          "name": "_tokenId",
          "type": "uint256"
        }
      ],
      "name": "BadgeAlreadyClaimed",
      "type": "error"
    },
    {
      "anonymous": false,
      "inputs": [
        {
          "indexed": true,
          "internalType": "address",
          "name": "account",
          "type": "address"
        },
        {
          "indexed": true,
          "internalType": "address",
          "name": "operator",
          "type": "address"
        },
        {
          "indexed": false,
          "internalType": "bool",
          "name": "approved",
          "type": "bool"
        }
      ],
      "name": "ApprovalForAll",
      "type": "event"
    },
    {
      "anonymous": false,
      "inputs": [
        {
          "indexed": false,
          "internalType": "address",
          "name": "account",
          "type": "address"
        }
      ],
      "name": "Paused",
      "type": "event"
    },
    {
      "anonymous": false,
      "inputs": [
        {
          "indexed": true,
          "internalType": "bytes32",
          "name": "role",
          "type": "bytes32"
        },
        {
          "indexed": true,
          "internalType": "bytes32",
          "name": "previousAdminRole",
          "type": "bytes32"
        },
        {
          "indexed": true,
          "internalType": "bytes32",
          "name": "newAdminRole",
          "type": "bytes32"
        }
      ],
      "name": "RoleAdminChanged",
      "type": "event"
    },
    {
      "anonymous": false,
      "inputs": [
        {
          "indexed": true,
          "internalType": "bytes32",
          "name": "role",
          "type": "bytes32"
        },
        {
          "indexed": true,
          "internalType": "address",
          "name": "account",
          "type": "address"
        },
        {
          "indexed": true,
          "internalType": "address",
          "name": "sender",
          "type": "address"
        }
      ],
      "name": "RoleGranted",
      "type": "event"
    },
    {
      "anonymous": false,
      "inputs": [
        {
          "indexed": true,
          "internalType": "bytes32",
          "name": "role",
          "type": "bytes32"
        },
        {
          "indexed": true,
          "internalType": "address",
          "name": "account",
          "type": "address"
        },
        {
          "indexed": true,
          "internalType": "address",
          "name": "sender",
          "type": "address"
        }
      ],
      "name": "RoleRevoked",
      "type": "event"
    },
    {
      "anonymous": false,
      "inputs": [
        {
          "indexed": true,
          "internalType": "address",
          "name": "operator",
          "type": "address"
        },
        {
          "indexed": true,
          "internalType": "address",
          "name": "from",
          "type": "address"
        },
        {
          "indexed": true,
          "internalType": "address",
          "name": "to",
          "type": "address"
        },
        {
          "indexed": false,
          "internalType": "uint256[]",
          "name": "ids",
          "type": "uint256[]"
        },
        {
          "indexed": false,
          "internalType": "uint256[]",
          "name": "values",
          "type": "uint256[]"
        }
      ],
      "name": "TransferBatch",
      "type": "event"
    },
    {
      "anonymous": false,
      "inputs": [
        {
          "indexed": true,
          "internalType": "address",
          "name": "operator",
          "type": "address"
        },
        {
          "indexed": true,
          "internalType": "address",
          "name": "from",
          "type": "address"
        },
        {
          "indexed": true,
          "internalType": "address",
          "name": "to",
          "type": "address"
        },
        {
          "indexed": false,
          "internalType": "uint256",
          "name": "id",
          "type": "uint256"
        },
        {
          "indexed": false,
          "internalType": "uint256",
          "name": "value",
          "type": "uint256"
        }
      ],
      "name": "TransferSingle",
      "type": "event"
    },
    {
      "anonymous": false,
      "inputs": [
        {
          "indexed": false,
          "internalType": "string",
          "name": "value",
          "type": "string"
        },
        {
          "indexed": true,
          "internalType": "uint256",
          "name": "id",
          "type": "uint256"
        }
      ],
      "name": "URI",
      "type": "event"
    },
    {
      "anonymous": false,
      "inputs": [
        {
          "indexed": false,
          "internalType": "address",
          "name": "account",
          "type": "address"
        }
      ],
      "name": "Unpaused",
      "type": "event"
    },
    {
      "inputs": [],
      "name": "DEFAULT_ADMIN_ROLE",
      "outputs": [
        {
          "internalType": "bytes32",
          "name": "",
          "type": "bytes32"
        }
      ],
      "stateMutability": "view",
      "type": "function"
    },
    {
      "inputs": [
        {
          "internalType": "address",
          "name": "_to",
          "type": "address"
        },
        {
          "internalType": "uint256",
          "name": "_id",
          "type": "uint256"
        }
      ],
      "name": "adminMint",
      "outputs": [],
      "stateMutability": "nonpayable",
      "type": "function"
    },
    {
      "inputs": [
        {
          "internalType": "address",
          "name": "account",
          "type": "address"
        },
        {
          "internalType": "uint256",
          "name": "id",
          "type": "uint256"
        }
      ],
      "name": "balanceOf",
      "outputs": [
        {
          "internalType": "uint256",
          "name": "",
          "type": "uint256"
        }
      ],
      "stateMutability": "view",
      "type": "function"
    },
    {
      "inputs": [
        {
          "internalType": "address[]",
          "name": "accounts",
          "type": "address[]"
        },
        {
          "internalType": "uint256[]",
          "name": "ids",
          "type": "uint256[]"
        }
      ],
      "name": "balanceOfBatch",
      "outputs": [
        {
          "internalType": "uint256[]",
          "name": "",
          "type": "uint256[]"
        }
      ],
      "stateMutability": "view",
      "type": "function"
    },
    {
      "inputs": [
        {
          "internalType": "bytes32",
          "name": "role",
          "type": "bytes32"
        }
      ],
      "name": "getRoleAdmin",
      "outputs": [
        {
          "internalType": "bytes32",
          "name": "",
          "type": "bytes32"
        }
      ],
      "stateMutability": "view",
      "type": "function"
    },
    {
      "inputs": [
        {
          "internalType": "bytes32",
          "name": "role",
          "type": "bytes32"
        },
        {
          "internalType": "uint256",
          "name": "index",
          "type": "uint256"
        }
      ],
      "name": "getRoleMember",
      "outputs": [
        {
          "internalType": "address",
          "name": "",
          "type": "address"
        }
      ],
      "stateMutability": "view",
      "type": "function"
    },
    {
      "inputs": [
        {
          "internalType": "bytes32",
          "name": "role",
          "type": "bytes32"
        }
      ],
      "name": "getRoleMemberCount",
      "outputs": [
        {
          "internalType": "uint256",
          "name": "",
          "type": "uint256"
        }
      ],
      "stateMutability": "view",
      "type": "function"
    },
    {
      "inputs": [
        {
          "internalType": "bytes32",
          "name": "_role",
          "type": "bytes32"
        },
        {
          "internalType": "address",
          "name": "_account",
          "type": "address"
        }
      ],
      "name": "grantRole",
      "outputs": [],
      "stateMutability": "nonpayable",
      "type": "function"
    },
    {
      "inputs": [
        {
          "internalType": "bytes32",
          "name": "role",
          "type": "bytes32"
        },
        {
          "internalType": "address",
          "name": "account",
          "type": "address"
        }
      ],
      "name": "hasRole",
      "outputs": [
        {
          "internalType": "bool",
          "name": "",
          "type": "bool"
        }
      ],
      "stateMutability": "view",
      "type": "function"
    },
    {
      "inputs": [],
      "name": "initialize",
      "outputs": [],
      "stateMutability": "nonpayable",
      "type": "function"
    },
    {
      "inputs": [
        {
          "internalType": "address",
          "name": "account",
          "type": "address"
        },
        {
          "internalType": "address",
          "name": "operator",
          "type": "address"
        }
      ],
      "name": "isApprovedForAll",
      "outputs": [
        {
          "internalType": "bool",
          "name": "",
          "type": "bool"
        }
      ],
      "stateMutability": "view",
      "type": "function"
    },
    {
      "inputs": [],
      "name": "paused",
      "outputs": [
        {
          "internalType": "bool",
          "name": "",
          "type": "bool"
        }
      ],
      "stateMutability": "view",
      "type": "function"
    },
    {
      "inputs": [
        {
          "internalType": "bytes32",
          "name": "role",
          "type": "bytes32"
        },
        {
          "internalType": "address",
          "name": "account",
          "type": "address"
        }
      ],
      "name": "renounceRole",
      "outputs": [],
      "stateMutability": "nonpayable",
      "type": "function"
    },
    {
      "inputs": [
        {
          "internalType": "bytes32",
          "name": "_role",
          "type": "bytes32"
        },
        {
          "internalType": "address",
          "name": "_account",
          "type": "address"
        }
      ],
      "name": "revokeRole",
      "outputs": [],
      "stateMutability": "nonpayable",
      "type": "function"
    },
    {
      "inputs": [
        {
          "internalType": "address",
          "name": "from",
          "type": "address"
        },
        {
          "internalType": "address",
          "name": "to",
          "type": "address"
        },
        {
          "internalType": "uint256[]",
          "name": "ids",
          "type": "uint256[]"
        },
        {
          "internalType": "uint256[]",
          "name": "amounts",
          "type": "uint256[]"
        },
        {
          "internalType": "bytes",
          "name": "data",
          "type": "bytes"
        }
      ],
      "name": "safeBatchTransferFrom",
      "outputs": [],
      "stateMutability": "nonpayable",
      "type": "function"
    },
    {
      "inputs": [
        {
          "internalType": "address",
          "name": "from",
          "type": "address"
        },
        {
          "internalType": "address",
          "name": "to",
          "type": "address"
        },
        {
          "internalType": "uint256",
          "name": "id",
          "type": "uint256"
        },
        {
          "internalType": "uint256",
          "name": "amount",
          "type": "uint256"
        },
        {
          "internalType": "bytes",
          "name": "data",
          "type": "bytes"
        }
      ],
      "name": "safeTransferFrom",
      "outputs": [],
      "stateMutability": "nonpayable",
      "type": "function"
    },
    {
      "inputs": [
        {
          "internalType": "address",
          "name": "operator",
          "type": "address"
        },
        {
          "internalType": "bool",
          "name": "approved",
          "type": "bool"
        }
      ],
      "name": "setApprovalForAll",
      "outputs": [],
      "stateMutability": "nonpayable",
      "type": "function"
    },
    {
      "inputs": [
        {
          "internalType": "bool",
          "name": "_shouldPause",
          "type": "bool"
        }
      ],
      "name": "setPause",
      "outputs": [],
      "stateMutability": "nonpayable",
      "type": "function"
    },
    {
      "inputs": [
        {
          "internalType": "string",
          "name": "uri_",
          "type": "string"
        }
      ],
      "name": "setUri",
      "outputs": [],
      "stateMutability": "nonpayable",
      "type": "function"
    },
    {
      "inputs": [
        {
          "internalType": "bytes4",
          "name": "_interfaceId",
          "type": "bytes4"
        }
      ],
      "name": "supportsInterface",
      "outputs": [
        {
          "internalType": "bool",
          "name": "",
          "type": "bool"
        }
      ],
      "stateMutability": "view",
      "type": "function"
    },
    {
      "inputs": [
        {
          "internalType": "uint256",
          "name": "_typeId",
          "type": "uint256"
        }
      ],
      "name": "uri",
      "outputs": [
        {
          "internalType": "string",
          "name": "",
          "type": "string"
        }
      ],
      "stateMutability": "view",
      "type": "function"
    }
  ],
  "transactionHash": "0x8977c2949e9a5841c1e74a9969f1be7cbba68c9375d45b3ba65d9d1d372c8f92",
  "args": [],
  "numDeployments": 2,
  "solcInputHash": "fd1b8aa0ed0b1f3408db62094afec256",
  "bytecode": "0x608060405234801561001057600080fd5b5061271c806100206000396000f3fe608060405234801561001057600080fd5b50600436106101365760003560e01c80639010d07c116100b8578063bedb86fb1161007c578063bedb86fb146102a1578063ca15c873146102b4578063d547741f146102c7578063e58306f9146102da578063e985e9c5146102ed578063f242432a1461032957600080fd5b80639010d07c1461023557806391d14854146102605780639b642de114610273578063a217fddf14610286578063a22cb4651461028e57600080fd5b80632f2ff15d116100ff5780632f2ff15d146101dc57806336568abe146101ef5780634e1273f4146102025780635c975abb146102225780638129fc1c1461022d57600080fd5b8062fdd58e1461013b57806301ffc9a7146101615780630e89341c14610184578063248a9ca3146101a45780632eb2c2d6146101c7575b600080fd5b61014e610149366004611bb0565b61033c565b6040519081526020015b60405180910390f35b61017461016f366004611bf0565b6103d8565b6040519015158152602001610158565b610197610192366004611c0d565b6103f2565b6040516101589190611c7e565b61014e6101b2366004611c0d565b60009081526097602052604090206001015490565b6101da6101d5366004611ddd565b6104ce565b005b6101da6101ea366004611e87565b610565565b6101da6101fd366004611e87565b610609565b610215610210366004611eb3565b610687565b6040516101589190611fb9565b60fb5460ff16610174565b6101da6107b1565b610248610243366004611fcc565b61082b565b6040516001600160a01b039091168152602001610158565b61017461026e366004611e87565b61084a565b6101da610281366004611fee565b610875565b61014e600081565b6101da61029c366004612070565b61090b565b6101da6102af36600461209a565b610916565b61014e6102c2366004611c0d565b610997565b6101da6102d5366004611e87565b6109ae565b6101da6102e8366004611bb0565b610a4c565b6101746102fb3660046120b5565b6001600160a01b03918216600090815260666020908152604080832093909416825291909152205460ff1690565b6101da6103373660046120df565b610ac8565b60006001600160a01b0383166103ad5760405162461bcd60e51b815260206004820152602b60248201527f455243313135353a2062616c616e636520717565727920666f7220746865207a60448201526a65726f206164647265737360a81b60648201526084015b60405180910390fd5b5060008181526065602090815260408083206001600160a01b03861684529091529020545b92915050565b60006103e382610b4f565b806103d257506103d282610b9f565b6060600061012d805461040490612144565b90501161049c5761012d805461041990612144565b80601f016020809104026020016040519081016040528092919081815260200182805461044590612144565b80156104925780601f1061046757610100808354040283529160200191610492565b820191906000526020600020905b81548152906001019060200180831161047557829003601f168201915b50505050506103d2565b61012d6104a883610baa565b6040516020016104b992919061219b565b60405160208183030381529060405292915050565b6001600160a01b0385163314806104ea57506104ea85336102fb565b6105515760405162461bcd60e51b815260206004820152603260248201527f455243313135353a207472616e736665722063616c6c6572206973206e6f74206044820152711bdddb995c881b9bdc88185c1c1c9bdd995960721b60648201526084016103a4565b61055e8585858585610cb0565b5050505050565b7fa2328fc90c90feb8f254e41caa67a90952094a7c9c879c5eb4f2088aaecb4ae86000805160206126c783398151915261059f823361084a565b806105af57506105af813361084a565b6105cb5760405162461bcd60e51b81526004016103a490612256565b6000805160206126c78339815191528414156105f95760405162461bcd60e51b81526004016103a49061228d565b6106038484610e9e565b50505050565b6001600160a01b03811633146106795760405162461bcd60e51b815260206004820152602f60248201527f416363657373436f6e74726f6c3a2063616e206f6e6c792072656e6f756e636560448201526e103937b632b9903337b91039b2b63360891b60648201526084016103a4565b6106838282610ec0565b5050565b606081518351146106ec5760405162461bcd60e51b815260206004820152602960248201527f455243313135353a206163636f756e747320616e6420696473206c656e677468604482015268040dad2e6dac2e8c6d60bb1b60648201526084016103a4565b6000835167ffffffffffffffff81111561070857610708611c91565b604051908082528060200260200182016040528015610731578160200160208202803683370190505b50905060005b84518110156107a95761077c858281518110610755576107556122d7565b602002602001015185838151811061076f5761076f6122d7565b602002602001015161033c565b82828151811061078e5761078e6122d7565b60209081029190910101526107a281612303565b9050610737565b509392505050565b600054610100900460ff166107cc5760005460ff16156107d0565b303b155b6107ec5760405162461bcd60e51b81526004016103a49061231e565b600054610100900460ff1615801561080e576000805461ffff19166101011790555b610816610ee2565b8015610828576000805461ff00191690555b50565b600082815260c9602052604081206108439083610f47565b9392505050565b60009182526097602090815260408084206001600160a01b0393909316845291905290205460ff1690565b60fb5460ff16156108985760405162461bcd60e51b81526004016103a49061236c565b7fdf8b4c520ffe197c5343c6f5aec59570151ef9a492f2c624fd45ddde6135ec426000805160206126c78339815191526108d2823361084a565b806108e257506108e2813361084a565b6108fe5760405162461bcd60e51b81526004016103a490612256565b61055e61012d8585611a87565b610683338383610f53565b7fdf8b4c520ffe197c5343c6f5aec59570151ef9a492f2c624fd45ddde6135ec426000805160206126c7833981519152610950823361084a565b806109605750610960813361084a565b61097c5760405162461bcd60e51b81526004016103a490612256565b821561098f5761098a611034565b505050565b61098a6110a9565b600081815260c9602052604081206103d290611123565b7fa2328fc90c90feb8f254e41caa67a90952094a7c9c879c5eb4f2088aaecb4ae86000805160206126c78339815191526109e8823361084a565b806109f857506109f8813361084a565b610a145760405162461bcd60e51b81526004016103a490612256565b6000805160206126c7833981519152841415610a425760405162461bcd60e51b81526004016103a49061228d565b6106038484610ec0565b60fb5460ff1615610a6f5760405162461bcd60e51b81526004016103a49061236c565b6000610a7b838361033c565b1115610aac57604051630fafe79760e41b81526001600160a01b0383166004820152602481018290526044016103a4565b610683828260016040518060200160405280600081525061112d565b6001600160a01b038516331480610ae45750610ae485336102fb565b610b425760405162461bcd60e51b815260206004820152602960248201527f455243313135353a2063616c6c6572206973206e6f74206f776e6572206e6f7260448201526808185c1c1c9bdd995960ba1b60648201526084016103a4565b61055e858585858561123f565b60006001600160e01b03198216636cdb3d1360e11b1480610b8057506001600160e01b031982166303a24d0760e21b145b806103d257506301ffc9a760e01b6001600160e01b03198316146103d2565b60006103d282611360565b606081610bce5750506040805180820190915260018152600360fc1b602082015290565b8160005b8115610bf85780610be281612303565b9150610bf19050600a836123ac565b9150610bd2565b60008167ffffffffffffffff811115610c1357610c13611c91565b6040519080825280601f01601f191660200182016040528015610c3d576020820181803683370190505b5090505b8415610ca857610c526001836123c0565b9150610c5f600a866123d7565b610c6a9060306123eb565b60f81b818381518110610c7f57610c7f6122d7565b60200101906001600160f81b031916908160001a905350610ca1600a866123ac565b9450610c41565b949350505050565b8151835114610d125760405162461bcd60e51b815260206004820152602860248201527f455243313135353a2069647320616e6420616d6f756e7473206c656e677468206044820152670dad2e6dac2e8c6d60c31b60648201526084016103a4565b6001600160a01b038416610d385760405162461bcd60e51b81526004016103a490612403565b33610d47818787878787611385565b60005b8451811015610e30576000858281518110610d6757610d676122d7565b602002602001015190506000858381518110610d8557610d856122d7565b60209081029190910181015160008481526065835260408082206001600160a01b038e168352909352919091205490915081811015610dd65760405162461bcd60e51b81526004016103a490612448565b60008381526065602090815260408083206001600160a01b038e8116855292528083208585039055908b16825281208054849290610e159084906123eb565b9250508190555050505080610e2990612303565b9050610d4a565b50846001600160a01b0316866001600160a01b0316826001600160a01b03167f4a39dc06d4c0dbc64b70af90fd698a233a518aa5d07e595d983b8c0526c8f7fb8787604051610e80929190612492565b60405180910390a4610e9681878787878761143f565b505050505050565b610ea8828261159b565b600082815260c96020526040902061098a9082611621565b610eca8282611636565b600082815260c96020526040902061098a908261169d565b600054610100900460ff16610efd5760005460ff1615610f01565b303b155b610f1d5760405162461bcd60e51b81526004016103a49061231e565b600054610100900460ff16158015610f3f576000805461ffff19166101011790555b6108166116b2565b60006108438383611717565b816001600160a01b0316836001600160a01b03161415610fc75760405162461bcd60e51b815260206004820152602960248201527f455243313135353a2073657474696e6720617070726f76616c20737461747573604482015268103337b91039b2b63360b91b60648201526084016103a4565b6001600160a01b03838116600081815260666020908152604080832094871680845294825291829020805460ff191686151590811790915591519182527f17307eab39ab6107e8899845ad3d59bd9653f200f220920489ca2b5937696c31910160405180910390a3505050565b60fb5460ff16156110575760405162461bcd60e51b81526004016103a49061236c565b60fb805460ff191660011790557f62e78cea01bee320cd4e420270b5ea74000d11b0c9f74754ebdbfc544b05a25861108c3390565b6040516001600160a01b03909116815260200160405180910390a1565b60fb5460ff166110f25760405162461bcd60e51b815260206004820152601460248201527314185d5cd8589b194e881b9bdd081c185d5cd95960621b60448201526064016103a4565b60fb805460ff191690557f5db9ee0a495bf2e6ff9c91a7834c1ba4fdd244a5e8aa4e537bd38aeae4b073aa3361108c565b60006103d2825490565b6001600160a01b03841661118d5760405162461bcd60e51b815260206004820152602160248201527f455243313135353a206d696e7420746f20746865207a65726f206164647265736044820152607360f81b60648201526084016103a4565b336111ad8160008761119e88611741565b6111a788611741565b87611385565b60008481526065602090815260408083206001600160a01b0389168452909152812080548592906111df9084906123eb565b909155505060408051858152602081018590526001600160a01b0380881692600092918516917fc3d58168c5ae7397731d063d5bbf3d657854427343f4c083240f7aacaa2d0f62910160405180910390a461055e8160008787878761178c565b6001600160a01b0384166112655760405162461bcd60e51b81526004016103a490612403565b3361127581878761119e88611741565b60008481526065602090815260408083206001600160a01b038a168452909152902054838110156112b85760405162461bcd60e51b81526004016103a490612448565b60008581526065602090815260408083206001600160a01b038b81168552925280832087850390559088168252812080548692906112f79084906123eb565b909155505060408051868152602081018690526001600160a01b03808916928a821692918616917fc3d58168c5ae7397731d063d5bbf3d657854427343f4c083240f7aacaa2d0f62910160405180910390a461135782888888888861178c565b50505050505050565b60006001600160e01b03198216635a05180f60e01b14806103d257506103d282611847565b6113af7fdf8b4c520ffe197c5343c6f5aec59570151ef9a492f2c624fd45ddde6135ec423361084a565b806113cd57506113cd6000805160206126c78339815191523361084a565b610e965760405162461bcd60e51b815260206004820152603960248201527f54726f76654261646765733a204f6e6c792061646d696e206f72206f776e657260448201527f2063616e207472616e736665722054726f76654261646765730000000000000060648201526084016103a4565b6001600160a01b0384163b15610e965760405163bc197c8160e01b81526001600160a01b0385169063bc197c819061148390899089908890889088906004016124b7565b6020604051808303816000875af19250505080156114be575060408051601f3d908101601f191682019092526114bb91810190612515565b60015b61156b576114ca612532565b806308c379a0141561150457506114df61254e565b806114ea5750611506565b8060405162461bcd60e51b81526004016103a49190611c7e565b505b60405162461bcd60e51b815260206004820152603460248201527f455243313135353a207472616e7366657220746f206e6f6e20455243313135356044820152732932b1b2b4bb32b91034b6b83632b6b2b73a32b960611b60648201526084016103a4565b6001600160e01b0319811663bc197c8160e01b146113575760405162461bcd60e51b81526004016103a4906125d8565b6115a5828261084a565b6106835760008281526097602090815260408083206001600160a01b03851684529091529020805460ff191660011790556115dd3390565b6001600160a01b0316816001600160a01b0316837f2f8788117e7eff1d82e926ec794901d17c78024a50270940304540a733656f0d60405160405180910390a45050565b6000610843836001600160a01b03841661186c565b611640828261084a565b156106835760008281526097602090815260408083206001600160a01b0385168085529252808320805460ff1916905551339285917ff6391f5c32d9c69d2a47ea670b442974b53935d1edc7fd64eb21e047a839171b9190a45050565b6000610843836001600160a01b0384166118bb565b600054610100900460ff166116cd5760005460ff16156116d1565b303b155b6116ed5760405162461bcd60e51b81526004016103a49061231e565b600054610100900460ff1615801561170f576000805461ffff19166101011790555b6108166119ae565b600082600001828154811061172e5761172e6122d7565b9060005260206000200154905092915050565b6040805160018082528183019092526060916000919060208083019080368337019050509050828160008151811061177b5761177b6122d7565b602090810291909101015292915050565b6001600160a01b0384163b15610e965760405163f23a6e6160e01b81526001600160a01b0385169063f23a6e61906117d09089908990889088908890600401612620565b6020604051808303816000875af192505050801561180b575060408051601f3d908101601f1916820190925261180891810190612515565b60015b611817576114ca612532565b6001600160e01b0319811663f23a6e6160e01b146113575760405162461bcd60e51b81526004016103a4906125d8565b60006001600160e01b03198216637965db0b60e01b14806103d257506103d282610b4f565b60008181526001830160205260408120546118b3575081546001818101845560008481526020808220909301849055845484825282860190935260409020919091556103d2565b5060006103d2565b600081815260018301602052604081205480156119a45760006118df6001836123c0565b85549091506000906118f3906001906123c0565b9050818114611958576000866000018281548110611913576119136122d7565b9060005260206000200154905080876000018481548110611936576119366122d7565b6000918252602080832090910192909255918252600188019052604090208390555b855486908061196957611969612665565b6001900381819060005260206000200160009055905585600101600086815260200190815260200160002060009055600193505050506103d2565b60009150506103d2565b600054610100900460ff166119c95760005460ff16156119cd565b303b155b6119e95760405162461bcd60e51b81526004016103a49061231e565b600054610100900460ff16158015611a0b576000805461ffff19166101011790555b61081660405180602001604052806000815250600054610100900460ff16611a455760405162461bcd60e51b81526004016103a49061267b565b61082881600054610100900460ff16611a705760405162461bcd60e51b81526004016103a49061267b565b610828818051610683906067906020840190611b0b565b828054611a9390612144565b90600052602060002090601f016020900481019282611ab55760008555611afb565b82601f10611ace5782800160ff19823516178555611afb565b82800160010185558215611afb579182015b82811115611afb578235825591602001919060010190611ae0565b50611b07929150611b7f565b5090565b828054611b1790612144565b90600052602060002090601f016020900481019282611b395760008555611afb565b82601f10611b5257805160ff1916838001178555611afb565b82800160010185558215611afb579182015b82811115611afb578251825591602001919060010190611b64565b5b80821115611b075760008155600101611b80565b80356001600160a01b0381168114611bab57600080fd5b919050565b60008060408385031215611bc357600080fd5b611bcc83611b94565b946020939093013593505050565b6001600160e01b03198116811461082857600080fd5b600060208284031215611c0257600080fd5b813561084381611bda565b600060208284031215611c1f57600080fd5b5035919050565b60005b83811015611c41578181015183820152602001611c29565b838111156106035750506000910152565b60008151808452611c6a816020860160208601611c26565b601f01601f19169290920160200192915050565b6020815260006108436020830184611c52565b634e487b7160e01b600052604160045260246000fd5b601f8201601f1916810167ffffffffffffffff81118282101715611ccd57611ccd611c91565b6040525050565b600067ffffffffffffffff821115611cee57611cee611c91565b5060051b60200190565b600082601f830112611d0957600080fd5b81356020611d1682611cd4565b604051611d238282611ca7565b83815260059390931b8501820192828101915086841115611d4357600080fd5b8286015b84811015611d5e5780358352918301918301611d47565b509695505050505050565b600082601f830112611d7a57600080fd5b813567ffffffffffffffff811115611d9457611d94611c91565b604051611dab601f8301601f191660200182611ca7565b818152846020838601011115611dc057600080fd5b816020850160208301376000918101602001919091529392505050565b600080600080600060a08688031215611df557600080fd5b611dfe86611b94565b9450611e0c60208701611b94565b9350604086013567ffffffffffffffff80821115611e2957600080fd5b611e3589838a01611cf8565b94506060880135915080821115611e4b57600080fd5b611e5789838a01611cf8565b93506080880135915080821115611e6d57600080fd5b50611e7a88828901611d69565b9150509295509295909350565b60008060408385031215611e9a57600080fd5b82359150611eaa60208401611b94565b90509250929050565b60008060408385031215611ec657600080fd5b823567ffffffffffffffff80821115611ede57600080fd5b818501915085601f830112611ef257600080fd5b81356020611eff82611cd4565b604051611f0c8282611ca7565b83815260059390931b8501820192828101915089841115611f2c57600080fd5b948201945b83861015611f5157611f4286611b94565b82529482019490820190611f31565b96505086013592505080821115611f6757600080fd5b50611f7485828601611cf8565b9150509250929050565b600081518084526020808501945080840160005b83811015611fae57815187529582019590820190600101611f92565b509495945050505050565b6020815260006108436020830184611f7e565b60008060408385031215611fdf57600080fd5b50508035926020909101359150565b6000806020838503121561200157600080fd5b823567ffffffffffffffff8082111561201957600080fd5b818501915085601f83011261202d57600080fd5b81358181111561203c57600080fd5b86602082850101111561204e57600080fd5b60209290920196919550909350505050565b80358015158114611bab57600080fd5b6000806040838503121561208357600080fd5b61208c83611b94565b9150611eaa60208401612060565b6000602082840312156120ac57600080fd5b61084382612060565b600080604083850312156120c857600080fd5b6120d183611b94565b9150611eaa60208401611b94565b600080600080600060a086880312156120f757600080fd5b61210086611b94565b945061210e60208701611b94565b93506040860135925060608601359150608086013567ffffffffffffffff81111561213857600080fd5b611e7a88828901611d69565b600181811c9082168061215857607f821691505b6020821081141561217957634e487b7160e01b600052602260045260246000fd5b50919050565b60008151612191818560208601611c26565b9290920192915050565b600080845481600182811c9150808316806121b757607f831692505b60208084108214156121d757634e487b7160e01b86526022600452602486fd5b8180156121eb57600181146121fc57612229565b60ff19861689528489019650612229565b60008b81526020902060005b868110156122215781548b820152908501908301612208565b505084890196505b50505050505061224d61223c828661217f565b64173539b7b760d91b815260050190565b95945050505050565b6020808252601b908201527f446f6573206e6f74206861766520726571756972656420726f6c650000000000604082015260600190565b6020808252602a908201527f43616e6e6f74206368616e6765206f776e657220726f6c65207468726f756768604082015269206772616e74526f6c6560b01b606082015260800190565b634e487b7160e01b600052603260045260246000fd5b634e487b7160e01b600052601160045260246000fd5b6000600019821415612317576123176122ed565b5060010190565b6020808252602e908201527f496e697469616c697a61626c653a20636f6e747261637420697320616c72656160408201526d191e481a5b9a5d1a585b1a5e995960921b606082015260800190565b60208082526010908201526f14185d5cd8589b194e881c185d5cd95960821b604082015260600190565b634e487b7160e01b600052601260045260246000fd5b6000826123bb576123bb612396565b500490565b6000828210156123d2576123d26122ed565b500390565b6000826123e6576123e6612396565b500690565b600082198211156123fe576123fe6122ed565b500190565b60208082526025908201527f455243313135353a207472616e7366657220746f20746865207a65726f206164604082015264647265737360d81b606082015260800190565b6020808252602a908201527f455243313135353a20696e73756666696369656e742062616c616e636520666f60408201526939103a3930b739b332b960b11b606082015260800190565b6040815260006124a56040830185611f7e565b828103602084015261224d8185611f7e565b6001600160a01b0386811682528516602082015260a0604082018190526000906124e390830186611f7e565b82810360608401526124f58186611f7e565b905082810360808401526125098185611c52565b98975050505050505050565b60006020828403121561252757600080fd5b815161084381611bda565b600060033d111561254b5760046000803e5060005160e01c5b90565b600060443d101561255c5790565b6040516003193d81016004833e81513d67ffffffffffffffff816024840111818411171561258c57505050505090565b82850191508151818111156125a45750505050505090565b843d87010160208285010111156125be5750505050505090565b6125cd60208286010187611ca7565b509095945050505050565b60208082526028908201527f455243313135353a204552433131353552656365697665722072656a656374656040820152676420746f6b656e7360c01b606082015260800190565b6001600160a01b03868116825285166020820152604081018490526060810183905260a06080820181905260009061265a90830184611c52565b979650505050505050565b634e487b7160e01b600052603160045260246000fd5b6020808252602b908201527f496e697469616c697a61626c653a20636f6e7472616374206973206e6f74206960408201526a6e697469616c697a696e6760a81b60608201526080019056fe6270edb7c868f86fda4adedba75108201087268ea345934db8bad688e1feb91ba26469706673582212201802363eb63e42d78abddb3f685f1c6a98647b22eb9e735bbfe536cedb632d6864736f6c634300080c0033",
  "devdoc": {
    "kind": "dev",
    "methods": {
      "balanceOf(address,uint256)": {
        "details": "See {IERC1155-balanceOf}. Requirements: - `account` cannot be the zero address."
      },
      "balanceOfBatch(address[],uint256[])": {
        "details": "See {IERC1155-balanceOfBatch}. Requirements: - `accounts` and `ids` must have the same length."
      },
      "getRoleAdmin(bytes32)": {
        "details": "Returns the admin role that controls `role`. See {grantRole} and {revokeRole}. To change a role's admin, use {_setRoleAdmin}."
      },
      "getRoleMember(bytes32,uint256)": {
        "details": "Returns one of the accounts that have `role`. `index` must be a value between 0 and {getRoleMemberCount}, non-inclusive. Role bearers are not sorted in any particular way, and their ordering may change at any point. WARNING: When using {getRoleMember} and {getRoleMemberCount}, make sure you perform all queries on the same block. See the following https://forum.openzeppelin.com/t/iterating-over-elements-on-enumerableset-in-openzeppelin-contracts/2296[forum post] for more information."
      },
      "getRoleMemberCount(bytes32)": {
        "details": "Returns the number of accounts that have `role`. Can be used together with {getRoleMember} to enumerate all bearers of a role."
      },
      "hasRole(bytes32,address)": {
        "details": "Returns `true` if `account` has been granted `role`."
      },
      "isApprovedForAll(address,address)": {
        "details": "See {IERC1155-isApprovedForAll}."
      },
      "paused()": {
        "details": "Returns true if the contract is paused, and false otherwise."
      },
      "renounceRole(bytes32,address)": {
        "details": "Revokes `role` from the calling account. Roles are often managed via {grantRole} and {revokeRole}: this function's purpose is to provide a mechanism for accounts to lose their privileges if they are compromised (such as when a trusted device is misplaced). If the calling account had been revoked `role`, emits a {RoleRevoked} event. Requirements: - the caller must be `account`."
      },
      "safeBatchTransferFrom(address,address,uint256[],uint256[],bytes)": {
        "details": "See {IERC1155-safeBatchTransferFrom}."
      },
      "safeTransferFrom(address,address,uint256,uint256,bytes)": {
        "details": "See {IERC1155-safeTransferFrom}."
      },
      "setApprovalForAll(address,bool)": {
        "details": "See {IERC1155-setApprovalForAll}."
      }
    },
    "version": 1
  },
  "userdoc": {
    "kind": "user",
    "methods": {},
    "version": 1
  },
  "storageLayout": {
    "storage": [
      {
        "astId": 705,
        "contract": "contracts/trove_badges/TroveBadges.sol:TroveBadges",
        "label": "_initialized",
        "offset": 0,
        "slot": "0",
        "type": "t_bool"
      },
      {
        "astId": 708,
        "contract": "contracts/trove_badges/TroveBadges.sol:TroveBadges",
        "label": "_initializing",
        "offset": 1,
        "slot": "0",
        "type": "t_bool"
      },
      {
        "astId": 2940,
        "contract": "contracts/trove_badges/TroveBadges.sol:TroveBadges",
        "label": "__gap",
        "offset": 0,
        "slot": "1",
        "type": "t_array(t_uint256)50_storage"
      },
      {
        "astId": 3594,
        "contract": "contracts/trove_badges/TroveBadges.sol:TroveBadges",
        "label": "__gap",
        "offset": 0,
        "slot": "51",
        "type": "t_array(t_uint256)50_storage"
      },
      {
        "astId": 971,
        "contract": "contracts/trove_badges/TroveBadges.sol:TroveBadges",
        "label": "_balances",
        "offset": 0,
        "slot": "101",
        "type": "t_mapping(t_uint256,t_mapping(t_address,t_uint256))"
      },
      {
        "astId": 977,
        "contract": "contracts/trove_badges/TroveBadges.sol:TroveBadges",
        "label": "_operatorApprovals",
        "offset": 0,
        "slot": "102",
        "type": "t_mapping(t_address,t_mapping(t_address,t_bool))"
      },
      {
        "astId": 979,
        "contract": "contracts/trove_badges/TroveBadges.sol:TroveBadges",
        "label": "_uri",
        "offset": 0,
        "slot": "103",
        "type": "t_string_storage"
      },
      {
        "astId": 2059,
        "contract": "contracts/trove_badges/TroveBadges.sol:TroveBadges",
        "label": "__gap",
        "offset": 0,
        "slot": "104",
        "type": "t_array(t_uint256)47_storage"
      },
      {
        "astId": 184,
        "contract": "contracts/trove_badges/TroveBadges.sol:TroveBadges",
        "label": "_roles",
        "offset": 0,
        "slot": "151",
        "type": "t_mapping(t_bytes32,t_struct(RoleData)179_storage)"
      },
      {
        "astId": 472,
        "contract": "contracts/trove_badges/TroveBadges.sol:TroveBadges",
        "label": "__gap",
        "offset": 0,
        "slot": "152",
        "type": "t_array(t_uint256)49_storage"
      },
      {
        "astId": 33,
        "contract": "contracts/trove_badges/TroveBadges.sol:TroveBadges",
        "label": "_roleMembers",
        "offset": 0,
        "slot": "201",
        "type": "t_mapping(t_bytes32,t_struct(AddressSet)3919_storage)"
      },
      {
        "astId": 143,
        "contract": "contracts/trove_badges/TroveBadges.sol:TroveBadges",
        "label": "__gap",
        "offset": 0,
        "slot": "202",
        "type": "t_array(t_uint256)49_storage"
      },
      {
        "astId": 793,
        "contract": "contracts/trove_badges/TroveBadges.sol:TroveBadges",
        "label": "_paused",
        "offset": 0,
        "slot": "251",
        "type": "t_bool"
      },
      {
        "astId": 882,
        "contract": "contracts/trove_badges/TroveBadges.sol:TroveBadges",
        "label": "__gap",
        "offset": 0,
        "slot": "252",
        "type": "t_array(t_uint256)49_storage"
      },
      {
        "astId": 15392,
        "contract": "contracts/trove_badges/TroveBadges.sol:TroveBadges",
        "label": "_uri",
        "offset": 0,
        "slot": "301",
        "type": "t_string_storage"
      }
    ],
    "types": {
      "t_address": {
        "encoding": "inplace",
        "label": "address",
        "numberOfBytes": "20"
      },
      "t_array(t_bytes32)dyn_storage": {
        "base": "t_bytes32",
        "encoding": "dynamic_array",
        "label": "bytes32[]",
        "numberOfBytes": "32"
      },
      "t_array(t_uint256)47_storage": {
        "base": "t_uint256",
        "encoding": "inplace",
        "label": "uint256[47]",
        "numberOfBytes": "1504"
      },
      "t_array(t_uint256)49_storage": {
        "base": "t_uint256",
        "encoding": "inplace",
        "label": "uint256[49]",
        "numberOfBytes": "1568"
      },
      "t_array(t_uint256)50_storage": {
        "base": "t_uint256",
        "encoding": "inplace",
        "label": "uint256[50]",
        "numberOfBytes": "1600"
      },
      "t_bool": {
        "encoding": "inplace",
        "label": "bool",
        "numberOfBytes": "1"
      },
      "t_bytes32": {
        "encoding": "inplace",
        "label": "bytes32",
        "numberOfBytes": "32"
      },
      "t_mapping(t_address,t_bool)": {
        "encoding": "mapping",
        "key": "t_address",
        "label": "mapping(address => bool)",
        "numberOfBytes": "32",
        "value": "t_bool"
      },
      "t_mapping(t_address,t_mapping(t_address,t_bool))": {
        "encoding": "mapping",
        "key": "t_address",
        "label": "mapping(address => mapping(address => bool))",
        "numberOfBytes": "32",
        "value": "t_mapping(t_address,t_bool)"
      },
      "t_mapping(t_address,t_uint256)": {
        "encoding": "mapping",
        "key": "t_address",
        "label": "mapping(address => uint256)",
        "numberOfBytes": "32",
        "value": "t_uint256"
      },
      "t_mapping(t_bytes32,t_struct(AddressSet)3919_storage)": {
        "encoding": "mapping",
        "key": "t_bytes32",
        "label": "mapping(bytes32 => struct EnumerableSetUpgradeable.AddressSet)",
        "numberOfBytes": "32",
        "value": "t_struct(AddressSet)3919_storage"
      },
      "t_mapping(t_bytes32,t_struct(RoleData)179_storage)": {
        "encoding": "mapping",
        "key": "t_bytes32",
        "label": "mapping(bytes32 => struct AccessControlUpgradeable.RoleData)",
        "numberOfBytes": "32",
        "value": "t_struct(RoleData)179_storage"
      },
      "t_mapping(t_bytes32,t_uint256)": {
        "encoding": "mapping",
        "key": "t_bytes32",
        "label": "mapping(bytes32 => uint256)",
        "numberOfBytes": "32",
        "value": "t_uint256"
      },
      "t_mapping(t_uint256,t_mapping(t_address,t_uint256))": {
        "encoding": "mapping",
        "key": "t_uint256",
        "label": "mapping(uint256 => mapping(address => uint256))",
        "numberOfBytes": "32",
        "value": "t_mapping(t_address,t_uint256)"
      },
      "t_string_storage": {
        "encoding": "bytes",
        "label": "string",
        "numberOfBytes": "32"
      },
      "t_struct(AddressSet)3919_storage": {
        "encoding": "inplace",
        "label": "struct EnumerableSetUpgradeable.AddressSet",
        "members": [
          {
            "astId": 3918,
            "contract": "contracts/trove_badges/TroveBadges.sol:TroveBadges",
            "label": "_inner",
            "offset": 0,
            "slot": "0",
            "type": "t_struct(Set)3618_storage"
          }
        ],
        "numberOfBytes": "64"
      },
      "t_struct(RoleData)179_storage": {
        "encoding": "inplace",
        "label": "struct AccessControlUpgradeable.RoleData",
        "members": [
          {
            "astId": 176,
            "contract": "contracts/trove_badges/TroveBadges.sol:TroveBadges",
            "label": "members",
            "offset": 0,
            "slot": "0",
            "type": "t_mapping(t_address,t_bool)"
          },
          {
            "astId": 178,
            "contract": "contracts/trove_badges/TroveBadges.sol:TroveBadges",
            "label": "adminRole",
            "offset": 0,
            "slot": "1",
            "type": "t_bytes32"
          }
        ],
        "numberOfBytes": "64"
      },
      "t_struct(Set)3618_storage": {
        "encoding": "inplace",
        "label": "struct EnumerableSetUpgradeable.Set",
        "members": [
          {
            "astId": 3613,
            "contract": "contracts/trove_badges/TroveBadges.sol:TroveBadges",
            "label": "_values",
            "offset": 0,
            "slot": "0",
            "type": "t_array(t_bytes32)dyn_storage"
          },
          {
            "astId": 3617,
            "contract": "contracts/trove_badges/TroveBadges.sol:TroveBadges",
            "label": "_indexes",
            "offset": 0,
            "slot": "1",
            "type": "t_mapping(t_bytes32,t_uint256)"
          }
        ],
        "numberOfBytes": "64"
      },
      "t_uint256": {
        "encoding": "inplace",
        "label": "uint256",
        "numberOfBytes": "32"
      }
    }
  }
}