{
  "address": "0x86Dd3Dd14e90b64DC5Ab67C805f573b5c33e0473",
  "abi": [
    {
      "inputs": [
        {
          "internalType": "address",
          "name": "_claimer",
          "type": "address"
        },
        {
          "internalType": "address",
          "name": "_badgeCollection",
          "type": "address"
        },
        {
          "internalType": "uint256",
          "name": "_badgeId",
          "type": "uint256"
        }
      ],
      "name": "BadgeAlreadyClaimed",
      "type": "error"
    },
    {
      "inputs": [
        {
          "internalType": "address",
          "name": "_badgeCollection",
          "type": "address"
        },
        {
          "internalType": "uint256",
          "name": "_badgeId",
          "type": "uint256"
        }
      ],
      "name": "InvalidBadge",
      "type": "error"
    },
    {
      "inputs": [
        {
          "internalType": "address",
          "name": "_signer",
          "type": "address"
        }
      ],
      "name": "InvalidSignature",
      "type": "error"
    },
    {
      "inputs": [],
      "name": "NotRecipient",
      "type": "error"
    },
    {
      "anonymous": false,
      "inputs": [
        {
          "indexed": false,
          "internalType": "address",
          "name": "account",
          "type": "address"
        }
      ],
      "name": "Paused",
      "type": "event"
    },
    {
      "anonymous": false,
      "inputs": [
        {
          "indexed": true,
          "internalType": "bytes32",
          "name": "role",
          "type": "bytes32"
        },
        {
          "indexed": true,
          "internalType": "bytes32",
          "name": "previousAdminRole",
          "type": "bytes32"
        },
        {
          "indexed": true,
          "internalType": "bytes32",
          "name": "newAdminRole",
          "type": "bytes32"
        }
      ],
      "name": "RoleAdminChanged",
      "type": "event"
    },
    {
      "anonymous": false,
      "inputs": [
        {
          "indexed": true,
          "internalType": "bytes32",
          "name": "role",
          "type": "bytes32"
        },
        {
          "indexed": true,
          "internalType": "address",
          "name": "account",
          "type": "address"
        },
        {
          "indexed": true,
          "internalType": "address",
          "name": "sender",
          "type": "address"
        }
      ],
      "name": "RoleGranted",
      "type": "event"
    },
    {
      "anonymous": false,
      "inputs": [
        {
          "indexed": true,
          "internalType": "bytes32",
          "name": "role",
          "type": "bytes32"
        },
        {
          "indexed": true,
          "internalType": "address",
          "name": "account",
          "type": "address"
        },
        {
          "indexed": true,
          "internalType": "address",
          "name": "sender",
          "type": "address"
        }
      ],
      "name": "RoleRevoked",
      "type": "event"
    },
    {
      "anonymous": false,
      "inputs": [
        {
          "indexed": false,
          "internalType": "address",
          "name": "account",
          "type": "address"
        }
      ],
      "name": "Unpaused",
      "type": "event"
    },
    {
      "inputs": [],
      "name": "CLAIMINFO_TYPE_HASH",
      "outputs": [
        {
          "internalType": "bytes32",
          "name": "",
          "type": "bytes32"
        }
      ],
      "stateMutability": "view",
      "type": "function"
    },
    {
      "inputs": [],
      "name": "DEFAULT_ADMIN_ROLE",
      "outputs": [
        {
          "internalType": "bytes32",
          "name": "",
          "type": "bytes32"
        }
      ],
      "stateMutability": "view",
      "type": "function"
    },
    {
      "inputs": [
        {
          "internalType": "address",
          "name": "",
          "type": "address"
        },
        {
          "internalType": "uint256",
          "name": "",
          "type": "uint256"
        }
      ],
      "name": "badgeToEnabledStatus",
      "outputs": [
        {
          "internalType": "bool",
          "name": "",
          "type": "bool"
        }
      ],
      "stateMutability": "view",
      "type": "function"
    },
    {
      "inputs": [
        {
          "components": [
            {
              "internalType": "address",
              "name": "claimer",
              "type": "address"
            },
            {
              "internalType": "address",
              "name": "badgeAddress",
              "type": "address"
            },
            {
              "internalType": "uint256",
              "name": "badgeId",
              "type": "uint256"
            }
          ],
          "internalType": "struct ClaimInfo",
          "name": "_claimInfo",
          "type": "tuple"
        },
        {
          "internalType": "bytes",
          "name": "_validatorSignature",
          "type": "bytes"
        }
      ],
      "name": "claim",
      "outputs": [],
      "stateMutability": "nonpayable",
      "type": "function"
    },
    {
      "inputs": [
        {
          "components": [
            {
              "internalType": "address",
              "name": "claimer",
              "type": "address"
            },
            {
              "internalType": "address",
              "name": "badgeAddress",
              "type": "address"
            },
            {
              "internalType": "uint256",
              "name": "badgeId",
              "type": "uint256"
            }
          ],
          "internalType": "struct ClaimInfo",
          "name": "_claimInfo",
          "type": "tuple"
        }
      ],
      "name": "claimInfoHash",
      "outputs": [
        {
          "internalType": "bytes32",
          "name": "",
          "type": "bytes32"
        }
      ],
      "stateMutability": "view",
      "type": "function"
    },
    {
      "inputs": [
        {
          "internalType": "bytes32",
          "name": "role",
          "type": "bytes32"
        }
      ],
      "name": "getRoleAdmin",
      "outputs": [
        {
          "internalType": "bytes32",
          "name": "",
          "type": "bytes32"
        }
      ],
      "stateMutability": "view",
      "type": "function"
    },
    {
      "inputs": [
        {
          "internalType": "bytes32",
          "name": "role",
          "type": "bytes32"
        },
        {
          "internalType": "uint256",
          "name": "index",
          "type": "uint256"
        }
      ],
      "name": "getRoleMember",
      "outputs": [
        {
          "internalType": "address",
          "name": "",
          "type": "address"
        }
      ],
      "stateMutability": "view",
      "type": "function"
    },
    {
      "inputs": [
        {
          "internalType": "bytes32",
          "name": "role",
          "type": "bytes32"
        }
      ],
      "name": "getRoleMemberCount",
      "outputs": [
        {
          "internalType": "uint256",
          "name": "",
          "type": "uint256"
        }
      ],
      "stateMutability": "view",
      "type": "function"
    },
    {
      "inputs": [
        {
          "internalType": "bytes32",
          "name": "_role",
          "type": "bytes32"
        },
        {
          "internalType": "address",
          "name": "_account",
          "type": "address"
        }
      ],
      "name": "grantRole",
      "outputs": [],
      "stateMutability": "nonpayable",
      "type": "function"
    },
    {
      "inputs": [
        {
          "internalType": "bytes32",
          "name": "role",
          "type": "bytes32"
        },
        {
          "internalType": "address",
          "name": "account",
          "type": "address"
        }
      ],
      "name": "hasRole",
      "outputs": [
        {
          "internalType": "bool",
          "name": "",
          "type": "bool"
        }
      ],
      "stateMutability": "view",
      "type": "function"
    },
    {
      "inputs": [
        {
          "internalType": "address",
          "name": "_validator",
          "type": "address"
        },
        {
          "internalType": "address",
          "name": "_badgeAddress",
          "type": "address"
        }
      ],
      "name": "initialize",
      "outputs": [],
      "stateMutability": "nonpayable",
      "type": "function"
    },
    {
      "inputs": [],
      "name": "paused",
      "outputs": [
        {
          "internalType": "bool",
          "name": "",
          "type": "bool"
        }
      ],
      "stateMutability": "view",
      "type": "function"
    },
    {
      "inputs": [
        {
          "internalType": "bytes32",
          "name": "role",
          "type": "bytes32"
        },
        {
          "internalType": "address",
          "name": "account",
          "type": "address"
        }
      ],
      "name": "renounceRole",
      "outputs": [],
      "stateMutability": "nonpayable",
      "type": "function"
    },
    {
      "inputs": [
        {
          "internalType": "bytes32",
          "name": "_role",
          "type": "bytes32"
        },
        {
          "internalType": "address",
          "name": "_account",
          "type": "address"
        }
      ],
      "name": "revokeRole",
      "outputs": [],
      "stateMutability": "nonpayable",
      "type": "function"
    },
    {
      "inputs": [
        {
          "internalType": "bool",
          "name": "_shouldPause",
          "type": "bool"
        }
      ],
      "name": "setPause",
      "outputs": [],
      "stateMutability": "nonpayable",
      "type": "function"
    },
    {
      "inputs": [
        {
          "internalType": "address",
          "name": "_badgeAddress",
          "type": "address"
        }
      ],
      "name": "setTroveBadges",
      "outputs": [],
      "stateMutability": "nonpayable",
      "type": "function"
    },
    {
      "inputs": [
        {
          "internalType": "address",
          "name": "_validator",
          "type": "address"
        }
      ],
      "name": "setValidator",
      "outputs": [],
      "stateMutability": "nonpayable",
      "type": "function"
    },
    {
      "inputs": [
        {
          "internalType": "bytes4",
          "name": "_interfaceId",
          "type": "bytes4"
        }
      ],
      "name": "supportsInterface",
      "outputs": [
        {
          "internalType": "bool",
          "name": "",
          "type": "bool"
        }
      ],
      "stateMutability": "view",
      "type": "function"
    },
    {
      "inputs": [],
      "name": "troveBadgeCollection",
      "outputs": [
        {
          "internalType": "contract ITroveBadges",
          "name": "",
          "type": "address"
        }
      ],
      "stateMutability": "view",
      "type": "function"
    },
    {
      "inputs": [],
      "name": "validator",
      "outputs": [
        {
          "internalType": "address",
          "name": "",
          "type": "address"
        }
      ],
      "stateMutability": "view",
      "type": "function"
    }
  ],
  "transactionHash": "0xfef0fbec4f8de4a2bfbf41cd9f427c262800216d71d68df4ed7739fae2dbe7be",
  "args": [],
  "numDeployments": 1,
  "solcInputHash": "c109e5627fd41d73e399b188dd8fe7be",
  "bytecode": "0x608060405234801561001057600080fd5b50611a0f806100206000396000f3fe608060405234801561001057600080fd5b506004361061012c5760003560e01c806391d14854116100ad578063bedb86fb11610071578063bedb86fb146102ba578063c9c1752f146102cd578063ca15c873146102e0578063ce2631b8146102f3578063d547741f1461030657600080fd5b806391d1485414610251578063938e4fed14610264578063971dabeb14610278578063a217fddf1461028b578063a93f8a381461029357600080fd5b806336568abe116100f457806336568abe146101e15780633a5381b5146101f4578063485cc955146102205780635c975abb146102335780639010d07c1461023e57600080fd5b806301ffc9a7146101315780631327d3d814610159578063232219181461016e578063248a9ca31461019d5780632f2ff15d146101ce575b600080fd5b61014461013f3660046115b4565b610319565b60405190151581526020015b60405180910390f35b61016c6101673660046115fa565b61032a565b005b61014461017c366004611615565b61013160209081526000928352604080842090915290825290205460ff1681565b6101c06101ab36600461163f565b60009081526099602052604090206001015490565b604051908152602001610150565b61016c6101dc366004611658565b6103be565b61016c6101ef366004611658565b610462565b61012f54610208906001600160a01b031681565b6040516001600160a01b039091168152602001610150565b61016c61022e366004611684565b6104e0565b60fd5460ff16610144565b61020861024c3660046116ae565b61058e565b61014461025f366004611658565b6105ad565b61013054610208906001600160a01b031681565b6101c06102863660046116e8565b6105d8565b6101c0600081565b6101c07f6cb4b76d203b7c0e8b36f2905c41cea87205612c95f42f5de797b30f847027d781565b61016c6102c8366004611704565b610663565b61016c6102db3660046115fa565b6106df565b6101c06102ee36600461163f565b61076a565b61016c61030136600461173c565b610781565b61016c610314366004611658565b610a2e565b600061032482610acc565b92915050565b7fdf8b4c520ffe197c5343c6f5aec59570151ef9a492f2c624fd45ddde6135ec426000805160206119ba83398151915261036482336105ad565b80610374575061037481336105ad565b6103995760405162461bcd60e51b8152600401610390906117ff565b60405180910390fd5b505061012f80546001600160a01b0319166001600160a01b0392909216919091179055565b7fa2328fc90c90feb8f254e41caa67a90952094a7c9c879c5eb4f2088aaecb4ae86000805160206119ba8339815191526103f882336105ad565b80610408575061040881336105ad565b6104245760405162461bcd60e51b8152600401610390906117ff565b6000805160206119ba8339815191528414156104525760405162461bcd60e51b815260040161039090611836565b61045c8484610af1565b50505050565b6001600160a01b03811633146104d25760405162461bcd60e51b815260206004820152602f60248201527f416363657373436f6e74726f6c3a2063616e206f6e6c792072656e6f756e636560448201526e103937b632b9903337b91039b2b63360891b6064820152608401610390565b6104dc8282610b13565b5050565b600054610100900460ff166104fb5760005460ff16156104ff565b303b155b61051b5760405162461bcd60e51b815260040161039090611880565b600054610100900460ff1615801561053d576000805461ffff19166101011790555b610545610b35565b61012f80546001600160a01b038086166001600160a01b0319928316179092556101308054928516929091169190911790558015610589576000805461ff00191690555b505050565b600082815260cb602052604081206105a69083610baf565b9392505050565b60009182526099602090815260408084206001600160a01b0393909316845291905290205460ff1690565b60006103247f6cb4b76d203b7c0e8b36f2905c41cea87205612c95f42f5de797b30f847027d761060b60208501856115fa565b61061b60408601602087016115fa565b6040805160208101949094526001600160a01b039283168482015291166060830152840135608082015260a00160405160208183030381529060405280519060200120610bbb565b7fdf8b4c520ffe197c5343c6f5aec59570151ef9a492f2c624fd45ddde6135ec426000805160206119ba83398151915261069d82336105ad565b806106ad57506106ad81336105ad565b6106c95760405162461bcd60e51b8152600401610390906117ff565b82156106d757610589610c09565b610589610ca1565b7fdf8b4c520ffe197c5343c6f5aec59570151ef9a492f2c624fd45ddde6135ec426000805160206119ba83398151915261071982336105ad565b80610729575061072981336105ad565b6107455760405162461bcd60e51b8152600401610390906117ff565b505061013080546001600160a01b0319166001600160a01b0392909216919091179055565b600081815260cb6020526040812061032490610d1b565b60fd5460ff16156107c75760405162461bcd60e51b815260206004820152601060248201526f14185d5cd8589b194e881c185d5cd95960821b6044820152606401610390565b336107d560208401846115fa565b6001600160a01b0316146107fc5760405163586d335760e01b815260040160405180910390fd5b61083c61080f60408401602085016115fa565b6001600160a01b031660009081526101316020908152604080832081870135845290915290205460ff1690565b61087e5761085060408301602084016115fa565b60408051636005df7760e11b81526001600160a01b0390921660048301528301356024820152604401610390565b6000610889836105d8565b905060006108978284610d25565b61012f549091506001600160a01b038083169116146108d457604051633615713d60e21b81526001600160a01b0382166004820152602401610390565b610130546000906001600160a01b031662fdd58e6108f560208801886115fa565b604080516001600160e01b031960e085901b1681526001600160a01b0390921660048301528801356024820152604401602060405180830381865afa158015610942573d6000803e3d6000fd5b505050506040513d601f19601f8201168201806040525081019061096691906118ce565b11156109c05761097960208501856115fa565b61098960408601602087016115fa565b60408051635729d29160e11b81526001600160a01b0393841660048201529290911660248301528501356044820152606401610390565b610130546040805163e58306f960e01b81523360048201529086013560248201526001600160a01b039091169063e58306f990604401600060405180830381600087803b158015610a1057600080fd5b505af1158015610a24573d6000803e3d6000fd5b5050505050505050565b7fa2328fc90c90feb8f254e41caa67a90952094a7c9c879c5eb4f2088aaecb4ae86000805160206119ba833981519152610a6882336105ad565b80610a785750610a7881336105ad565b610a945760405162461bcd60e51b8152600401610390906117ff565b6000805160206119ba833981519152841415610ac25760405162461bcd60e51b815260040161039090611836565b61045c8484610b13565b60006001600160e01b03198216635a05180f60e01b1480610324575061032482610d49565b610afb8282610d7e565b600082815260cb602052604090206105899082610e04565b610b1d8282610e19565b600082815260cb602052604090206105899082610e80565b600054610100900460ff16610b505760005460ff1615610b54565b303b155b610b705760405162461bcd60e51b815260040161039090611880565b600054610100900460ff16158015610b92576000805461ffff19166101011790555b610b9a610e95565b8015610bac576000805461ff00191690555b50565b60006105a68383610efa565b6000610324610bc8610f24565b8360405161190160f01b6020820152602281018390526042810182905260009060620160405160208183030381529060405280519060200120905092915050565b60fd5460ff1615610c4f5760405162461bcd60e51b815260206004820152601060248201526f14185d5cd8589b194e881c185d5cd95960821b6044820152606401610390565b60fd805460ff191660011790557f62e78cea01bee320cd4e420270b5ea74000d11b0c9f74754ebdbfc544b05a258610c843390565b6040516001600160a01b03909116815260200160405180910390a1565b60fd5460ff16610cea5760405162461bcd60e51b815260206004820152601460248201527314185d5cd8589b194e881b9bdd081c185d5cd95960621b6044820152606401610390565b60fd805460ff191690557f5db9ee0a495bf2e6ff9c91a7834c1ba4fdd244a5e8aa4e537bd38aeae4b073aa33610c84565b6000610324825490565b6000806000610d348585610fa4565b91509150610d4181611014565b509392505050565b60006001600160e01b03198216637965db0b60e01b148061032457506301ffc9a760e01b6001600160e01b0319831614610324565b610d8882826105ad565b6104dc5760008281526099602090815260408083206001600160a01b03851684529091529020805460ff19166001179055610dc03390565b6001600160a01b0316816001600160a01b0316837f2f8788117e7eff1d82e926ec794901d17c78024a50270940304540a733656f0d60405160405180910390a45050565b60006105a6836001600160a01b0384166111cf565b610e2382826105ad565b156104dc5760008281526099602090815260408083206001600160a01b0385168085529252808320805460ff1916905551339285917ff6391f5c32d9c69d2a47ea670b442974b53935d1edc7fd64eb21e047a839171b9190a45050565b60006105a6836001600160a01b03841661121e565b600054610100900460ff16610eb05760005460ff1615610eb4565b303b155b610ed05760405162461bcd60e51b815260040161039090611880565b600054610100900460ff16158015610ef2576000805461ffff19166101011790555b610b9a611311565b6000826000018281548110610f1157610f116118e7565b9060005260206000200154905092915050565b6000610f9f7f8b73c3c69bb8fe3d512ecc4cf759cc79239f7b179b0ffacaa9a75d522b39400f610f5360015490565b6002546040805160208101859052908101839052606081018290524660808201523060a082015260009060c0016040516020818303038152906040528051906020012090509392505050565b905090565b600080825160411415610fdb5760208301516040840151606085015160001a610fcf87828585611386565b9450945050505061100d565b8251604014156110055760208301516040840151610ffa868383611473565b93509350505061100d565b506000905060025b9250929050565b6000816004811115611028576110286118fd565b14156110315750565b6001816004811115611045576110456118fd565b14156110935760405162461bcd60e51b815260206004820152601860248201527f45434453413a20696e76616c6964207369676e617475726500000000000000006044820152606401610390565b60028160048111156110a7576110a76118fd565b14156110f55760405162461bcd60e51b815260206004820152601f60248201527f45434453413a20696e76616c6964207369676e6174757265206c656e677468006044820152606401610390565b6003816004811115611109576111096118fd565b14156111625760405162461bcd60e51b815260206004820152602260248201527f45434453413a20696e76616c6964207369676e6174757265202773272076616c604482015261756560f01b6064820152608401610390565b6004816004811115611176576111766118fd565b1415610bac5760405162461bcd60e51b815260206004820152602260248201527f45434453413a20696e76616c6964207369676e6174757265202776272076616c604482015261756560f01b6064820152608401610390565b600081815260018301602052604081205461121657508154600181810184556000848152602080822090930184905584548482528286019093526040902091909155610324565b506000610324565b60008181526001830160205260408120548015611307576000611242600183611929565b855490915060009061125690600190611929565b90508181146112bb576000866000018281548110611276576112766118e7565b9060005260206000200154905080876000018481548110611299576112996118e7565b6000918252602080832090910192909255918252600188019052604090208390555b85548690806112cc576112cc611940565b600190038181906000526020600020016000905590558560010160008681526020019081526020016000206000905560019350505050610324565b6000915050610324565b600054610100900460ff1661132c5760005460ff1615611330565b303b155b61134c5760405162461bcd60e51b815260040161039090611880565b600054610100900460ff1615801561136e576000805461ffff19166101011790555b6113766114ac565b61137e6114d5565b610b9a611504565b6000807f7fffffffffffffffffffffffffffffff5d576e7357a4501ddfe92f46681b20a08311156113bd575060009050600361146a565b8460ff16601b141580156113d557508460ff16601c14155b156113e6575060009050600461146a565b6040805160008082526020820180845289905260ff881692820192909252606081018690526080810185905260019060a0016020604051602081039080840390855afa15801561143a573d6000803e3d6000fd5b5050604051601f1901519150506001600160a01b0381166114635760006001925092505061146a565b9150600090505b94509492505050565b6000806001600160ff1b0383168161149060ff86901c601b611956565b905061149e87828885611386565b935093505050935093915050565b600054610100900460ff166114d35760405162461bcd60e51b81526004016103909061196e565b565b600054610100900460ff166114fc5760405162461bcd60e51b81526004016103909061196e565b6114d3611581565b600054610100900460ff1661151f5760005460ff1615611523565b303b155b61153f5760405162461bcd60e51b815260040161039090611880565b600054610100900460ff16158015611561576000805461ffff19166101011790555b611569610c09565b610b9a6000805160206119ba83398151915233610af1565b600054610100900460ff166115a85760405162461bcd60e51b81526004016103909061196e565b60fd805460ff19169055565b6000602082840312156115c657600080fd5b81356001600160e01b0319811681146105a657600080fd5b80356001600160a01b03811681146115f557600080fd5b919050565b60006020828403121561160c57600080fd5b6105a6826115de565b6000806040838503121561162857600080fd5b611631836115de565b946020939093013593505050565b60006020828403121561165157600080fd5b5035919050565b6000806040838503121561166b57600080fd5b8235915061167b602084016115de565b90509250929050565b6000806040838503121561169757600080fd5b6116a0836115de565b915061167b602084016115de565b600080604083850312156116c157600080fd5b50508035926020909101359150565b6000606082840312156116e257600080fd5b50919050565b6000606082840312156116fa57600080fd5b6105a683836116d0565b60006020828403121561171657600080fd5b813580151581146105a657600080fd5b634e487b7160e01b600052604160045260246000fd5b6000806080838503121561174f57600080fd5b61175984846116d0565b9150606083013567ffffffffffffffff8082111561177657600080fd5b818501915085601f83011261178a57600080fd5b81358181111561179c5761179c611726565b604051601f8201601f19908116603f011681019083821181831017156117c4576117c4611726565b816040528281528860208487010111156117dd57600080fd5b8260208601602083013760006020848301015280955050505050509250929050565b6020808252601b908201527f446f6573206e6f74206861766520726571756972656420726f6c650000000000604082015260600190565b6020808252602a908201527f43616e6e6f74206368616e6765206f776e657220726f6c65207468726f756768604082015269206772616e74526f6c6560b01b606082015260800190565b6020808252602e908201527f496e697469616c697a61626c653a20636f6e747261637420697320616c72656160408201526d191e481a5b9a5d1a585b1a5e995960921b606082015260800190565b6000602082840312156118e057600080fd5b5051919050565b634e487b7160e01b600052603260045260246000fd5b634e487b7160e01b600052602160045260246000fd5b634e487b7160e01b600052601160045260246000fd5b60008282101561193b5761193b611913565b500390565b634e487b7160e01b600052603160045260246000fd5b6000821982111561196957611969611913565b500190565b6020808252602b908201527f496e697469616c697a61626c653a20636f6e7472616374206973206e6f74206960408201526a6e697469616c697a696e6760a81b60608201526080019056fe6270edb7c868f86fda4adedba75108201087268ea345934db8bad688e1feb91ba264697066735822122026a5cd244fc301701b1e7d1ef1b9ffe24497a46486cf1b60b528fef8a62592f564736f6c634300080c0033",
  "devdoc": {
    "kind": "dev",
    "methods": {
      "getRoleAdmin(bytes32)": {
        "details": "Returns the admin role that controls `role`. See {grantRole} and {revokeRole}. To change a role's admin, use {_setRoleAdmin}."
      },
      "getRoleMember(bytes32,uint256)": {
        "details": "Returns one of the accounts that have `role`. `index` must be a value between 0 and {getRoleMemberCount}, non-inclusive. Role bearers are not sorted in any particular way, and their ordering may change at any point. WARNING: When using {getRoleMember} and {getRoleMemberCount}, make sure you perform all queries on the same block. See the following https://forum.openzeppelin.com/t/iterating-over-elements-on-enumerableset-in-openzeppelin-contracts/2296[forum post] for more information."
      },
      "getRoleMemberCount(bytes32)": {
        "details": "Returns the number of accounts that have `role`. Can be used together with {getRoleMember} to enumerate all bearers of a role."
      },
      "hasRole(bytes32,address)": {
        "details": "Returns `true` if `account` has been granted `role`."
      },
      "paused()": {
        "details": "Returns true if the contract is paused, and false otherwise."
      },
      "renounceRole(bytes32,address)": {
        "details": "Revokes `role` from the calling account. Roles are often managed via {grantRole} and {revokeRole}: this function's purpose is to provide a mechanism for accounts to lose their privileges if they are compromised (such as when a trusted device is misplaced). If the calling account had been revoked `role`, emits a {RoleRevoked} event. Requirements: - the caller must be `account`."
      }
    },
    "version": 1
  },
  "userdoc": {
    "kind": "user",
    "methods": {},
    "version": 1
  },
  "storageLayout": {
    "storage": [
      {
        "astId": 578,
        "contract": "contracts/trove_claimer/TroveClaimer.sol:TroveClaimer",
        "label": "_initialized",
        "offset": 0,
        "slot": "0",
        "type": "t_bool"
      },
      {
        "astId": 581,
        "contract": "contracts/trove_claimer/TroveClaimer.sol:TroveClaimer",
        "label": "_initializing",
        "offset": 1,
        "slot": "0",
        "type": "t_bool"
      },
      {
        "astId": 1782,
        "contract": "contracts/trove_claimer/TroveClaimer.sol:TroveClaimer",
        "label": "_HASHED_NAME",
        "offset": 0,
        "slot": "1",
        "type": "t_bytes32"
      },
      {
        "astId": 1784,
        "contract": "contracts/trove_claimer/TroveClaimer.sol:TroveClaimer",
        "label": "_HASHED_VERSION",
        "offset": 0,
        "slot": "2",
        "type": "t_bytes32"
      },
      {
        "astId": 1922,
        "contract": "contracts/trove_claimer/TroveClaimer.sol:TroveClaimer",
        "label": "__gap",
        "offset": 0,
        "slot": "3",
        "type": "t_array(t_uint256)50_storage"
      },
      {
        "astId": 1162,
        "contract": "contracts/trove_claimer/TroveClaimer.sol:TroveClaimer",
        "label": "__gap",
        "offset": 0,
        "slot": "53",
        "type": "t_array(t_uint256)50_storage"
      },
      {
        "astId": 1966,
        "contract": "contracts/trove_claimer/TroveClaimer.sol:TroveClaimer",
        "label": "__gap",
        "offset": 0,
        "slot": "103",
        "type": "t_array(t_uint256)50_storage"
      },
      {
        "astId": 184,
        "contract": "contracts/trove_claimer/TroveClaimer.sol:TroveClaimer",
        "label": "_roles",
        "offset": 0,
        "slot": "153",
        "type": "t_mapping(t_bytes32,t_struct(RoleData)179_storage)"
      },
      {
        "astId": 472,
        "contract": "contracts/trove_claimer/TroveClaimer.sol:TroveClaimer",
        "label": "__gap",
        "offset": 0,
        "slot": "154",
        "type": "t_array(t_uint256)49_storage"
      },
      {
        "astId": 33,
        "contract": "contracts/trove_claimer/TroveClaimer.sol:TroveClaimer",
        "label": "_roleMembers",
        "offset": 0,
        "slot": "203",
        "type": "t_mapping(t_bytes32,t_struct(AddressSet)2291_storage)"
      },
      {
        "astId": 143,
        "contract": "contracts/trove_claimer/TroveClaimer.sol:TroveClaimer",
        "label": "__gap",
        "offset": 0,
        "slot": "204",
        "type": "t_array(t_uint256)49_storage"
      },
      {
        "astId": 666,
        "contract": "contracts/trove_claimer/TroveClaimer.sol:TroveClaimer",
        "label": "_paused",
        "offset": 0,
        "slot": "253",
        "type": "t_bool"
      },
      {
        "astId": 755,
        "contract": "contracts/trove_claimer/TroveClaimer.sol:TroveClaimer",
        "label": "__gap",
        "offset": 0,
        "slot": "254",
        "type": "t_array(t_uint256)49_storage"
      },
      {
        "astId": 3103,
        "contract": "contracts/trove_claimer/TroveClaimer.sol:TroveClaimer",
        "label": "validator",
        "offset": 0,
        "slot": "303",
        "type": "t_address"
      },
      {
        "astId": 3106,
        "contract": "contracts/trove_claimer/TroveClaimer.sol:TroveClaimer",
        "label": "troveBadgeCollection",
        "offset": 0,
        "slot": "304",
        "type": "t_contract(ITroveBadges)2818"
      },
      {
        "astId": 3112,
        "contract": "contracts/trove_claimer/TroveClaimer.sol:TroveClaimer",
        "label": "badgeToEnabledStatus",
        "offset": 0,
        "slot": "305",
        "type": "t_mapping(t_address,t_mapping(t_uint256,t_bool))"
      }
    ],
    "types": {
      "t_address": {
        "encoding": "inplace",
        "label": "address",
        "numberOfBytes": "20"
      },
      "t_array(t_bytes32)dyn_storage": {
        "base": "t_bytes32",
        "encoding": "dynamic_array",
        "label": "bytes32[]",
        "numberOfBytes": "32"
      },
      "t_array(t_uint256)49_storage": {
        "base": "t_uint256",
        "encoding": "inplace",
        "label": "uint256[49]",
        "numberOfBytes": "1568"
      },
      "t_array(t_uint256)50_storage": {
        "base": "t_uint256",
        "encoding": "inplace",
        "label": "uint256[50]",
        "numberOfBytes": "1600"
      },
      "t_bool": {
        "encoding": "inplace",
        "label": "bool",
        "numberOfBytes": "1"
      },
      "t_bytes32": {
        "encoding": "inplace",
        "label": "bytes32",
        "numberOfBytes": "32"
      },
      "t_contract(ITroveBadges)2818": {
        "encoding": "inplace",
        "label": "contract ITroveBadges",
        "numberOfBytes": "20"
      },
      "t_mapping(t_address,t_bool)": {
        "encoding": "mapping",
        "key": "t_address",
        "label": "mapping(address => bool)",
        "numberOfBytes": "32",
        "value": "t_bool"
      },
      "t_mapping(t_address,t_mapping(t_uint256,t_bool))": {
        "encoding": "mapping",
        "key": "t_address",
        "label": "mapping(address => mapping(uint256 => bool))",
        "numberOfBytes": "32",
        "value": "t_mapping(t_uint256,t_bool)"
      },
      "t_mapping(t_bytes32,t_struct(AddressSet)2291_storage)": {
        "encoding": "mapping",
        "key": "t_bytes32",
        "label": "mapping(bytes32 => struct EnumerableSetUpgradeable.AddressSet)",
        "numberOfBytes": "32",
        "value": "t_struct(AddressSet)2291_storage"
      },
      "t_mapping(t_bytes32,t_struct(RoleData)179_storage)": {
        "encoding": "mapping",
        "key": "t_bytes32",
        "label": "mapping(bytes32 => struct AccessControlUpgradeable.RoleData)",
        "numberOfBytes": "32",
        "value": "t_struct(RoleData)179_storage"
      },
      "t_mapping(t_bytes32,t_uint256)": {
        "encoding": "mapping",
        "key": "t_bytes32",
        "label": "mapping(bytes32 => uint256)",
        "numberOfBytes": "32",
        "value": "t_uint256"
      },
      "t_mapping(t_uint256,t_bool)": {
        "encoding": "mapping",
        "key": "t_uint256",
        "label": "mapping(uint256 => bool)",
        "numberOfBytes": "32",
        "value": "t_bool"
      },
      "t_struct(AddressSet)2291_storage": {
        "encoding": "inplace",
        "label": "struct EnumerableSetUpgradeable.AddressSet",
        "members": [
          {
            "astId": 2290,
            "contract": "contracts/trove_claimer/TroveClaimer.sol:TroveClaimer",
            "label": "_inner",
            "offset": 0,
            "slot": "0",
            "type": "t_struct(Set)1990_storage"
          }
        ],
        "numberOfBytes": "64"
      },
      "t_struct(RoleData)179_storage": {
        "encoding": "inplace",
        "label": "struct AccessControlUpgradeable.RoleData",
        "members": [
          {
            "astId": 176,
            "contract": "contracts/trove_claimer/TroveClaimer.sol:TroveClaimer",
            "label": "members",
            "offset": 0,
            "slot": "0",
            "type": "t_mapping(t_address,t_bool)"
          },
          {
            "astId": 178,
            "contract": "contracts/trove_claimer/TroveClaimer.sol:TroveClaimer",
            "label": "adminRole",
            "offset": 0,
            "slot": "1",
            "type": "t_bytes32"
          }
        ],
        "numberOfBytes": "64"
      },
      "t_struct(Set)1990_storage": {
        "encoding": "inplace",
        "label": "struct EnumerableSetUpgradeable.Set",
        "members": [
          {
            "astId": 1985,
            "contract": "contracts/trove_claimer/TroveClaimer.sol:TroveClaimer",
            "label": "_values",
            "offset": 0,
            "slot": "0",
            "type": "t_array(t_bytes32)dyn_storage"
          },
          {
            "astId": 1989,
            "contract": "contracts/trove_claimer/TroveClaimer.sol:TroveClaimer",
            "label": "_indexes",
            "offset": 0,
            "slot": "1",
            "type": "t_mapping(t_bytes32,t_uint256)"
          }
        ],
        "numberOfBytes": "64"
      },
      "t_uint256": {
        "encoding": "inplace",
        "label": "uint256",
        "numberOfBytes": "32"
      }
    }
  }
}